:0A28F90000010202030304040505B8
:101D8E00C200C202C20112159AC2AF750A1D750BAE
:101D9E000075121D75131275081D75091C75101D21
:101DAE0075113C75141D75155CD2E890E668E0441B
:101DBE0009F090E65CE04435F0D2AF90E680E0208A
:101DCE00E105D2051225C490E680E054F7F0538E5B
:101DDE00F8122329122714300105120F88C2013080
:101DEE0003F212291850EDC2031226EF20001690AE
:101DFE00E682E030E704E020E1EF90E682E030E6B4
:0D1E0E0004E020E0E41225F312291C80C737
:02292000D322C0
:100F880090E6B9E0120B4B102600109B01111603D6
:100F98000FAB06102008101A0910140A11810B0053
:100FA80000117590E6BBE024FE602714603824FD2C
:100FB800601114602724067050E50A90E6B3F0E546
:100FC8000B803C122920503EE51290E6B3F0E51361
:100FD800802DE50C90E6B3F0E50D8023E50E90E654
:100FE800B3F0E50F801990E6BAE0FF12264AAA0688
:100FF800A9077B01EA494B600DEE90E6B3F0EF904C
:10100800E6B4F002118102117002117012289802E0
:10101800118112259502118112288802118190E60A
:10102800B8E0247F601514601924027063A200E4FC
:101038003325E0FFA202E4334F8041E490E740F01B
:10104800803F90E6BCE0547EFF7E00E0D394807C35
:101058000040047D0180027D00EC4EFEED4F24F936
:10106800F58274283EF583E493FF3395E0FEEF2480
:10107800A1FFEE34E68F82F583E0540190E740F05B
:10108800E4A3F090E68AF090E68B7402F0021181F6
:1010980002117090E6B8E024FE6016240260030294
:1010A800118190E6BAE0B40105C200021181021173
:1010B8007090E6BAE0705590E6BCE0547EFF7E0082
:1010C800E0D394807C0040047D0180027D00EC4EDA
:1010D800FEED4F24F9F58274283EF583E493FF333F
:1010E80095E0FEEF24A1FFEE34E68F82F583E0540D
:1010F800FEF090E6BCE05480131313541FFFE05435
:101108000F2F90E683F0E04420F0806D805A90E63F
:10111800B8E024FE60192402704E90E6BAE0B401EB
:1011280004D200805490E6BAE06402604C803990A2
:10113800E6BCE0547EFF7E00E0D394807C0040044F
:101148007D0180027D00EC4EFEED4F24F9F582749E
:10115800283EF583E493FF3395E0FEEF24A1FFEEEC
:1011680034E68F82F583800D90E6A0800812020095
:10117800500790E6A0E04401F090E6A0E04480F03B
:011188002244
:030033000229148B
:0429140053D8EF3273
:101D000012010002000000402A15058400000102B3
:101D100003010A0600020000004001000902200041
:101D200001010080640904000002FF0000000705B3
:101D3000810240000107058602000200090220001E
:101D400001010080640904000002FF000000070593
:101D500081024000000705860240000004030904D8
:101D6000080349004E0049001A0343006F00630056
:101D700068006C006500610041004D0053003100B7
:0E1D800062000A033000300030003000000026
:10159A0090E6007412F0E4F5A0F580F5B175B28911
:1015AA0075B40F75B5FF75B6FF00000090E60174BB
:1015BA0023F000000075A80053E8E3000000E4905F
:1015CA00E671F000000090E670F000000090E6720C
:1015DA00F090E610F000000090E61174A0F0000010
:1015EA0000E490E612F000000090E613F00000001C
:1015FA0090E61474E0F0000000E490E615F00000B4
:10160A000090E60B7403F000000090E6047480F08A
:10161A000000007406F0000000E4F000000090E60C
:10162A00247402F0000000E490E625F00000009027
:10163A00E61A7408F0000000E490E618F0000000D2
:10164A0090E619F000000090E61BF000000090E61A
:10165A000274E8F0000000E4F51CF51BF51AF51910
:10166A00D287D2A0C2A1D2B4C2B512290C1228B80C
:10167A00D204D288C2A8D28AC2AAE4F5C8F5CAF5A9
:10168A00CBC2AD43B12000000000000053B1DF22FD
:102714007819120AD6E47B507AC3F9F8D3120A392D
:10272400500E75B5FFB287E4F51CF51BF51AF519C3
:03273400B2B1221D
:06261F00AE05AC03A907A3
:102625007DC0EC540FFFE9540F25E025E0FCEE5486
:10263500C0FAC4131354034C4205EE25E025E044CB
:0526450003FB02280563
:1027EA00E4FEC2A3EF30E004D2A28002C2A2D2A3C6
:0A27FA00C2A3EFC313FF0EBE08E8F0
:0128040022B1
:10280500AC03C2AFC2B01227EAAF051227EAAF0484
:082815001227EAD2B0D2AF2273
:0F28B800752130752200E4FB7D3E7F0C02280560
:02275900AE07C9
:10275B007D08AF051DEFD394004010EE30E004D29E
:0B276B00A18002C2A1D2A0C2A080E7A2
:012776002240
:02273700AE07EB
:10273900C374089DF52FAF051DEFD394004010EE2B
:0F27490030E004D2A18002C2A1D2A0C2A080E7DA
:01275800225E
:102329007F0312264AAA06A9077521018A22892351
:102339007A337B3A7D047FFC7E7F1221E8E4FF74C7
:102349003A2FF582E43433F583E0FEAB21AA22A9C2
:102359002375F002EF900002120B26EE12095B0FB3
:03236900BF04DCD2
:01236C00224E
:0519FA00D283D280221F
:10242100C280E490E61AF000000090E6A9E070098D
:1024310090E6487406F000000090E6047480F00015
:1024410000007406F0000000E4F000000090E61ABD
:072451007408F000000022F6
:04224100AB07AA0637
:10224500E4F535AF02AE35053574CA2EF582E434B2
:1022550034F583EFF0AF03AE35053574CA2EF5823C
:10226500E43434F583EFF0AF35053574CA2FF582C4
:10227500E43434F583EDF0E57370FC7A347BCAAD54
:0D228500357F501227CE50F37F500223E921
:0A2458008E2F8F308D318A328B33C6
:10246200B287E4F534E534C3953150200530E530C8
:10247200AE2F7002052F14FFE5332534F582E435C3
:0C24820032F583E0FD122241053480D9C0
:01248E00222B
:0A21E8008E2F8F308D318A328B3339
:1021F200E4FDE52FFF7E000DEE24CAF582E43434BF
:10220200F583EFF00E0D74CA2EF582E43434F583B3
:10221200E530F07A347BCA7F501227CEE4FFEFC359
:1022220095315010E5332FF582E43532F58374CDC4
:0F223200F00F80EAAB33AA32AD317F500227B2F2
:04291800C283D32281
:04291C00D283D3226D
:1025950090E680E030E71200000090E6247402F037
:1025A500000000E490E6258010000000E490E62499
:0F25B500F000000090E6257440F0000000D322F3
:10288800E490E740F090E68AF090E68B04F0D322DB
:10289800E490E740F090E68AF090E68B04F0D322CB
:1002000090E6B9E0120B4B0740A20740A30235B3BA
:10021000023BB40443B806B4B90443BA043CBB0679
:10022000DDBC06F9BD0353C20241C40269C50725FE
:10023000CB000008C41219FA0208C61224210208D1
:10024000C6000000E490E61AF000000090E6047496
:1002500080F00000007406F0000000E4F0000000F0
:1002600090E61A7408F00208C690E6B8E0644060B0
:100270000302034530040AF5A075B4BD12218EC2F5
:100280000490E6BEE0752300F524A3E0FEEE4223D1
:10029000D3E5249490E5239401400675160A0203E1
:1002A0003DE4F521F5227B017A33793A1228E2E523
:1002B0002445236071E490E68AF090E68BF090E6A6
:1002C000A0E020E1F990E68BE0752700F528E4F541
:1002D00029F52AC3E52A9528E5299527502D74404C
:1002E000252AF582E434E7F583E0FFE522252AFD9F
:1002F000E5213529FC743A2DF58274333CF583EF02
:10030000F0052AE52A70CC052980C8E5282522F5C4
:1003100022E5273521F521C3E5249528F524E52399
:100320009527F523808990E6BAE07002800F121EAF
:10033000A78F16E516D3940050030208C675B40DB6
:10034000D2040208C690E6B9E090E740F0A3E516B3
:1003500002073290E6B9E090E740F0E490E68AF0D8
:1003600090E68B04F090E6A0E04480F090E6A0E0F8
:1003700020E1F97F0312264AAA06A907752B018AF4
:100380002C892D90E68BE0D39404400875230075EA
:100390002404800990E68BE0752300F524E4F52918
:1003A000F52AC3E52A9524E52995235049E52A2411
:1003B000FCFFE529347FFE7440252AF582E434E70A
:1003C000F583E0FD1222417440252AF582E434E7EA
:1003D000F583E0FDE52A25E0FFE529338F82F583EB
:1003E000A3A3AB2BAA2CA92DED12095B052AE52AA4
:1003F00070B0052980AC85232985242AC3E52A9479
:1004000004E52994005032E52A24FCFFE529347FD5
:10041000FE7D20122241E52A25E0FFE529338F8267
:10042000F583A3A3AB2BAA2CA92D742012095B057D
:100430002AE52A70C7052980C30206A9D2A0C2A056
:100440000208C600000090E6BAE0752100F522A37C
:10045000E0FEEE4221A3E0752500F526A3E0FEEEC6
:100460004225A3E0752300F524A3E0FEEE4223E538
:100470002160030206A7E52224FE70030206A714EA
:10048000700302059814700302061F14700302051E
:100490003D14607C240560030206A7E5B154F844CE
:1004A00004F5B1852317852418E5244523605EE40F
:1004B00090E68AF090E68BF090E6A0E020E1F990DB
:1004C000E68BE0752700F528E4F529F52AC3E52A2F
:1004D0009528E5299527501A7440252AF582E43499
:1004E000E7F583E0FF122759052AE52A70DF052981
:1004F00080DBE5282522F522E5273521F521C3E516
:10050000249528F524E5239527F523809C0206965B
:10051000E490E68AF090E68BF090E6A0E020E1F926
:1005200090E68BE064016002D322E525FFE526FD1D
:1005300090E740E0FB12261FB2870206A9E490E68E
:0D0540008AF090E68BF090E6A0E020E1F953
:10054D0090E740E013920590E6BAE0F52EA3E01493
:10055D00601714602424027030E52E30050542A08A
:10056D000206A9F452A00206A9E52E30050542B0F7
:10057D000206A9F452B00206A9E52E30050542B1D6
:0B058D000206A9F452B10206A9D32215
:10059800E490E68AF090E68BF090E6A0E020E1F99E
:1005A800E5264525705DC2ADC2CAF529752AFF202A
:1005B800B222E52A152AAE2970021529D39400EE35
:1005C80094004010D2B100000000000000000000BC
:1005D800C2B180DBE52A45297002D32290E740E0CA
:1005E800752700F528E4F529F52AC3E52A9528E5B5
:1005F800299527501DD2B1C2B1052AE52A70EB050D
:100608002980E790E740E0FFC374FF9FF5CBD2ADA8
:10061800D2CAB2870206A9E490E68AF090E68BF087
:1006280090E6A0E020E1F9E5B154F84402F5B19074
:10063800E740E0FF7D07122737C2B4000000000042
:1006480000000000D2B4E5B154F84401F5B1A3E0CC
:10065800FF7D05122737A3E0FF7D05122737A3E0AA
:10066800752700F52853B17FE52830E004D2B6801D
:1006780002C2B6C2B4000000000000000000D2B4FC
:1006880043B180E52830E104D2B68002C2B6C2B4D4
:10069800000000000000000000D2B4B2878002D33E
:1006A80022E490E68AF090E68BF0C32290E6BAE066
:1006B8006004D2B58002C2B590E74074B9F000007A
:1006C80000E490E68AF090E68B04F090E6A0E0441F
:1006D80080F00208C690E6BAE0AFB130E005EF441A
:1006E800208003EF54DFF5B1F5B190E74074BC808A
:1006F80025AFB1EF54DFF5B1F5B1000000000000FF
:100708000000000000000000AFB1EF4420F5B1F593
:10071800B190E74074BDF00000000208CE90E6B941
:10072800E090E740F0A2A1E433A3F0E490E68AF079
:1007380090E68B74020208D790E6BAE0752100F5BE
:1007480022A3E0FEEE422190E6BEE0752300F524E8
:10075800A3E0FEEE422390E6B8E064C0600302081E
:100768002CE524452370030208C290E6A0E020E1AE
:10077800F9C3E5249440E523940050088523278590
:100788002428800675270075284090E6B9E0B4A3B0
:1007980035E4F529F52AC3E52A9528E52995275052
:1007A8005EE522252AF582E5213529F583E0FF74E7
:1007B80040252AF582E434E7F583EFF0052AE52A97
:1007C80070D4052980D0E4F529F52AC3E52A9528AF
:1007D800E529952750187440252AF582E434E7F571
:1007E8008374CDF0052AE52A70E1052980DDAD285E
:1007F8007AE779407F40AB07AF22AE211221E8E4C7
:1008080090E68AF090E68BE528F02522F522E52788
:100818003521F521C3E5249528F524E5239527F509
:100828002302076990E6B8E0644060030208C2E565
:1008380024452370030208C2E490E68AF090E68B10
:10084800F090E6A0E020E1F990E68BE0752700F54E
:100858002890E6B9E0B4A335E4F529F52AC3E52ADA
:100868009528E529952750367440252AF582E434E1
:10087800E7F583E0FFE522252AF582E5213529F50C
:1008880083EFF0052AE52A70D4052980D0AD287AAF
:10089800E779407F40AB07AF22AE21122458E52804
:1008A8002522F522E5273521F521C3E5249528F5EC
:1008B80024E5239527F523020837C322D32290E69F
:1008C800B9E090E740F0E490E68AF090E68B04F017
:0808D80090E6A0E04480F0C3AB
:0108E00022F5
:1028A800C2AFC2CFD2B10000000000C2B1D2AF3275
:10281D00C0E0C083C082D2015391EF90E65D740198
:08282D00F0D082D083D0E0322C
:10283500C0E0C083C0825391EF90E65D7404F0D090
:0628450082D083D0E032D6
:10284B00C0E0C083C0825391EF90E65D7402F0D07C
:06285B0082D083D0E032C0
:10248F00C0E0C083C08290E680E030E70E85080C84
:10249F0085090D85100E85110F800C85100C851187
:1024AF000D85080E85090F5391EF90E65D7410F0BE
:0724BF00D082D083D0E0328F
:0119FF0032B5
:1024C600C0E0C083C08290E680E030E70E85080C4D
:1024D60085090D85100E85110F800C85100C851150
:1024E6000D85080E85090F5391EF90E65D7420F077
:0724F600D082D083D0E03258
:012922003282
:012923003281
:012924003280
:01292500327F
:01292600327E
:01292700327D
:01292800327C
:01292900327B
:01292A00327A
:01292B003279
:01292C003278
:01292D003277
:01292E003276
:01292F003275
:012930003274
:012931003273
:012932003272
:012933003271
:012934003270
:01293500326F
:01293600326E
:01293700326D
:01293800326C
:01293900326B
:01293A00326A
:01293B003269
:01293C003268
:01293D003267
:01293E003266
:01293F003265
:012940003264
:012941003263
:012942003262
:012943003261
:012944003260
:01294500325F
:0422920002740000D2
:0D28D500ED4C7005EFF452A022EF42A0225E
:0C1CF400E4FDFC7F201228D50D0228D54D
:1026C8008B458A468947AB76AA77A9780575E5755B
:1026D800AE747002057414F5828E831208FAAB4545
:0726E800AA46A947020949B7
:0C28E200E4F574F5758B768A778978220E
:0B28EE00E5A05440C413135403FF2264
:04279500AB07AA06DE
:10279900900000C3E5829BEA6480F8E58364809831
:0827A9005006121CF4A380EBA2
:0127B1002205
:1022960060483000FF2903FF2675FF178AFF18578D
:1022A600FF2531FF2861FF2861FF28C7FF20ACFF0B
:1022B6001913FF2861FF2861FF1BFFFF1BFFFF1B90
:1022C600FFFF1B5DFF1B5DFF1B5DFF23B1FF21248D
:0C22D600FF2124FF169AFF2875FF1AB89C
:101C9800E412094990000112095B900002120B023C
:101CA80000000000900006E4F5F01209FF90000B18
:101CB800E412095B900008E412095B9000097401C2
:101CC80012095B90000A740112095B900010120B54
:101CD8000200000000900014E4F5F01209FF9000E3
:0C1CE8000C120B0200000000E4FEFF22C2
:06269F00AF24E4FCFDFE87
:1026A5008F298E288D278C26E5292407FFE43528D8
:1026B500FEE43527FDE43526FCE47B08FAF9F8123B
:0326C500236D2260
:042777007F017E0060
:10277B00AD07AC067F101228D5E4FDFC7F20122894
:0A278B00D57D017C007F200228D5D7
:080CE800AB40AA41A9427D01C5
:080CF0008B5A8A5B895C8D5D63
:100CF800E49034CAF0A3F0E55D704DF55EF55F054C
:100D08005FE55F7002055EB4D0F5E55EB407F012EA
:100D18002777E4F55EF55FE4FDFC7F201228D57D9A
:100D2800017C007F201228D5055FE55F7002055E13
:100D3800C39405E55E6480948040DCAB5AAA5BA945
:100D48005CE4120949020F7FAB5AAA5BA95C12083E
:100D5800E1FF655D601FE55DB40704EFB4060AE5D1
:100D68005DB40E11EF640D600C9034CAE4F0A37406
:100D780005F0020F7FE55DB5070EB40603020E5BB2
:100D8800E55DB40D03020F17AB5AAA5BA95C120804
:100D9800E1FF655D7003020F7FEF120B4B0DD90069
:100DA8000DDC010DDF020E05030E29040E37050EBA
:100DB8005B060E69070E8D080EB1090EC20A0EE613
:100DC8000B0EF40C0F170D0F240E0F460F00000F1B
:100DD80068020E92020EA3E55DC39409400E122725
:100DE80077AB5AAA5BA95C7409020F79E4FFFE127B
:100DF800277BAB5AAA5BA95C7403020F79E55DB443
:100E08000411E4FFFE12277BAB5AAA5BA95C7404A9
:100E1800020F79122777AB5AAA5BA95C7405020FF7
:100E280079122777AB5AAA5BA95C7405020F79E59A
:100E38005DB40611E4FFFE12277BAB5AAA5BA95CDE
:100E48007406020F79122777AB5AAA5BA95C74085B
:100E5800020F79122777AB5AAA5BA95C7407020FB5
:100E680079E55DB40411E4FFFE12277BAB5AAA5B57
:100E7800A95C7404020F79122777AB5AAA5BA95CA4
:100E88007408020F79E55DB40111E4FFFE12277BB7
:100E9800AB5AAA5BA95C7401020F79122777AB5A87
:100EA800AA5BA95C7402020F79E4FFFE12277BABF0
:100EB8005AAA5BA95C740A020F79E55DB40B11E4C8
:100EC800FFFE12277BAB5AAA5BA95C740B020F7951
:100ED800122777AB5AAA5BA95C740C020F79122708
:100EE80077AB5AAA5BA95C740C020F79E55DB40D67
:100EF80011E4FFFE12277BAB5AAA5BA95C740D02B2
:100F08000F79122777AB5AAA5BA95C740F8062121B
:100F18002777AB5AAA5BA95C740E8055E55DB40BC4
:100F280010E4FFFE12277BAB5AAA5BA95C740B8006
:100F380040122777AB5AAA5BA95C740F8033E55D32
:100F4800B40110E4FFFE12277BAB5AAA5BA95C74BC
:100F580001801E122777AB5AAA5BA95C7402801124
:100F68009034CAE4F0A37405F0AB5AAA5BA95CE517
:0F0F78005D120949020D909034CAE0FEA3E0FF1C
:010F87002247
:0E132A008F5D8E5C8D5B8C5A8B5E8A5F896056
:10133800756900756A00756B00E562456345616013
:101348003C12097DFFAB61AA62A963E5F08FF01238
:1013580009E0AB61E5632402F9E43562FAC003C031
:1013680002C001AB5EAA5FA96012097DD001D0025C
:10137800D00329F9EA35F08B69F56A896BAB5EE52C
:10138800602402F9E4355FFAC002C001AA5FA960CF
:1013980012097DD001D00229F9EA35F08B66F5678C
:1013A8008968AF5DAE5CAD5BAC5AEC4D4E4F7003D7
:1013B800021491786674FFF5F0120B321208E1906E
:1013C8003345F0E4A3F0F56CF56DAF5DAE5CAD5B55
:1013D800AC5AEC4D4E4F7003021471C3E56D94087E
:1013E800E56C64809480400302147174FFFBFAF981
:1013F800F8120A2C8F5D8E5C8D5B8C5AE56545640E
:10140800600EEC4D4E4F70087D01FC7F101228D500
:10141800903345E05401FD7C007F801228D590333D
:1014280045E0C313F0E4FDFC7F201228D5E56A45AA
:101438006B456960201228EE903347EFF0903346F1
:10144800E0FFAE6DA3E0FDA806088002C333D8FC18
:101458004F903346F07D017C007F201228D5056D22
:10146800E56D7002056C0213D2E56A456B4569703B
:10147800030213AA903346E0FF786974FFF5F0126F
:091488000B32EF1209490213AA0C
:011491002238
:081189008B408A4189428D432D
:10119100E490333EF0A3F0A3F0A3F0A3F0E54365A0
:1011A100547E0060047F0180027F00903343EEF0A3
:1011B100A3EFF0AF47AE46AD45AC44EC4D4E4F709A
:1011C1001EAF58AE57AD56AC55EC4D4E4F700302A5
:1011D10012F6120CE8AE57AF581227950212F6AB71
:1011E10040AA41A942AD43120CF0AF47AE46AD450E
:1011F100AC44854B61854C62854D63903343E0F58A
:1012010064A3E0F565AB48AA49A94A12132AE54F40
:101211004550454E602D854B5D854C5E854D5F8506
:101221005160855261855362AB4EAA4FA950121F7E
:1012310032EF4E70047F0180027F00903340E4F072
:10124100A3EFF0903343E07002A3E070030212DCDD
:10125100AB40AA41A9427401120927903340E070C2
:1012610002A3E06053AF58AE57AD56AC55EC4D4EAE
:101271004F6045903342E0C39559503CAB40AA4181
:10128100A9427D06120CF0AB40AA41A9427D04128D
:101291000CF0AF58AE57AD56AC557802120A4FE577
:1012A100582FFFE5573EFEE5563DFDE5553C8F586D
:1012B1008E578D56F555800BAB40AA41A942AD54CE
:1012C100120CF0AF58AE57AD56AC55EC4D4E4F60C9
:1012D1000A120CE8AE57AF58122795903340E070D0
:1012E10002A3E06010903342E0FF04F0EFC3955990
:1012F10050030211E0903340E07002A3E06021E569
:10130100596014903342E0D39559400B90333EE439
:10131100F0A37403F0800990333EE4F0A37402F06B
:0813210090333EE0FEA3E0FF63
:0113290022A1
:101FB2008B258A2689278F2B8E2A8D298C28AB2E5A
:101FC200AA2FA930AD2DAC2C1219BDE535453645E9
:101FD20034600DAB34AA35A936AD2DAC2C1219BD27
:101FE200852B47852A46852945852844852E48859F
:101FF2002F4985304A85314B85324C85334D8534A6
:102002004E85354F8536508537518538528539533F
:10201200853A54853E58853D57853C56853B5585C6
:0E2022003F59AB25AA26A9277D041211892259
:10286100900006E475F0041209FF9000061209A811
:04287100FFAEF022A4
:092903007401120949E4FEFF22EF
:102675008B218A228923E9243BF9EA3402FAC00234
:10268500C001AA22A9239000141209A8FDACF0D01C
:0A26950001D0021219BDE4FEFF227D
:06178A008B218A22892355
:101790007B007A0079241226C812269FD3EF94B4D6
:1017A000EE648094804010AB21AA22A92390000609
:1017B000E475F00602184412269FAC06AD07AB2173
:1017C000E5232416F9E43522FA1219BDAB21E523ED
:1017D0002408F9E43522FAC003C002C001E48524DC
:1017E00047F546F545F544E5232416F9E435228B03
:1017F00048F549894A754B00754C00754D00754E8A
:1018000000754F00755000755100755200755300FA
:10181000AA22A9239000091208FAF55490000C128C
:101820000A768F588E578D568C55E4F559D001D0D5
:1018300002D0037D0B121189AB21AA22A9239000AB
:1018400006EE8FF01209FFAB21AA22A92390000611
:061850001209A8FFAEF032
:01185600226F
:06169A008B218A22892346
:1016A000E92416F9E43AFA7D027C001219BDAB2157
:1016B000E5232416F9E43522FA12203090333A1249
:1016C0000AF690333A120ACA1226A5D3EF94B4EE62
:1016D00064809480400975240075250602176E9079
:1016E000333A120ACA1226A5AC06AD07AB21E52390
:1016F0002416F9E43522FA1219BDAB21E52324089A
:10170000F9E43522FAC003C002C00190333A120A4C
:10171000CA8F478E468D458C44E5232416F9E4355F
:10172000228B48F549894A754B00754C00754D0070
:10173000754E00754F00755000755100755200755B
:101740005300AA22A9239000091208FAF554900028
:101750000C120A768F588E578D568C55E4F559D059
:1017600001D002D0037D0B1211898E248F25E5252F
:1017700045246011AB21AA22A923900006E5248507
:0917800025F01209FFAE24AF258B
:01178900223D
:061857008B218A22892387
:10185D00E92416F9E43AFAC002C001AA22A923909C
:10186D0000141209A8FDACF0D001D0021219BDABC5
:10187D0021E5232408F9E43522FAC003C002C00192
:10188D00AA22A923900010120A768F478E468D4505
:10189D008C44E92416F9E43A8B48F549894AE52345
:1018AD002484F9EA34018B4BF54C894DE52324CD85
:1018BD00F9E43A8B4EF54F8950E523243BF9EA3490
:1018CD00028B51F5528953A92390000A1208FAF59B
:1018DD005490000C120A768F588E578D568C559059
:1018ED00000B1208FAF559D001D002D0037D041275
:1018FD001189EF4E600FAB21AA22A923900006EEAD
:05190D008FF01209FF3C
:0119120022B2
:102531008B218A228923E92416F9E43AFA7D047C65
:10254100001219BDAB21E5232416F9E43522FA1254
:102551002030AB21AA22A92390000C120AA6E4FE86
:02256100FF2257
:0E28C700E9240BF9E43AFA1226C8E4FEFF22D7
:0620AC008B218A2289232A
:1020B200E4F524F525E92416F9E43AFA7D047C00D6
:1020C2001219BDAB21E5232416F9E43522FA1220B8
:1020D20030AB21AA22A923900010120AA690001068
:1020E200120A761226A5AB21AA22A923900014EE89
:1020F2008FF01209FF9000141209A8D394B4E5F0EE
:10210200648094804017752400752506AB21AA22AD
:10211200A923900006E5248525F01209FFAE24AF1D
:012122002597
:012123002299
:061913008B218A228923CA
:10191900E92408F9E43AFAC003C002C001AA22A9DD
:1019290023900010120A76C004C005C006C00790B3
:1019390000141209A8F52D85F02CE92416F9E43ACA
:101949008B2EF52F8930E5232484F9EA34018B3174
:10195900F5328933E52324CDF9E43A8B34F5358919
:1019690036E523243BF9EA34028B37F5388939A95E
:101979002390000A1208FAF53A90000C120A768FA1
:101989003E8E3D8D3C8C3B90000B1208FAF53FD002
:1019990007D006D005D004D001D002D003121FB25F
:1019A900EF4E600FAB21AA22A923900006EE8FF01B
:0319B9001209FF11
:0119BC002208
:061BFF008B218A228923DC
:101C05009000011208FAB40E0990000A1208FAFFB2
:101C150080027F048F24AB21E5232408F9E43522D3
:101C2500FAC003C002C001AA22A923900010120A1B
:101C3500769000141209A8F52D85F02CE92416F9E3
:101C4500E43A8B2EF52F89307531007532007533E6
:101C55000075340075350075360075370075380028
:101C650075390085243AE4F53EF53DF53CF53BF53F
:101C75003FD001D002D003121FB2AB21AA22A92363
:101C8500900006EE8FF01209FF9000061209A8FFDA
:021C9500AEF0AF
:011C9700222A
:061B5D008B218A2289237E
:101B63009000011208FAB4110990000A1208FAFF52
:101B730080027F048F24AB21E5232408F9E4352276
:101B8300FAC003C002C001AA22A923900010120ABE
:101B9300769000141209A8F52D85F02CE92416F986
:101BA300E43A8B2EF52F8930E5232484F9EA3401B6
:101BB3008B31F5328933E52324CDF9E43A8B34F5BF
:101BC30035893675370075380075390085243AE450
:101BD300F53EF53DF53CF53BF53FD001D002D00392
:101BE300121FB2AB21AA22A923900006EE8FF01296
:0B1BF30009FF9000061209A8FFAEF0E9
:011BFE0022C4
:0623B1008B218A22892322
:1023B7007B007A0079241226C8AB21E5232408F98B
:1023C700E43522FAAD24120CF0AB21AA22A92390FE
:1023D7000006EE8FF01209FF9000061209A8FFAE63
:0123E700F005
:0123E80022D2
:062124008B218A228923B1
:10212A00E4F524F525FB7A0079261226C8E526600F
:10213A000C64016008752400752505802BAB21AA63
:10214A0022A9239000011208FAB4130DE526900083
:10215A00097002800B740D800CE52690000A70034A
:10216A00048002740612095BE52545246011AB213F
:10217A00AA22A923900006E5248525F01209FFAEBC
:03218A0024AF255A
:01218D00222F
:061AB8008B218A22892324
:101ABE00E92416F9E43AFA7D017C001219BDAB2136
:101ACE00AA22A9239000181208FAF524E92416F97F
:101ADE00E43AFA7D017C001219BDAB21AA22A9239A
:101AEE009000181208FAF525E92416F9E43AFA7D61
:101AFE00047C001219BDAB21E5232416F9E435222E
:101B0E00FA12203090333A120AF6AB21AA22A923F8
:101B1E009000081208FA6524600CE92408F9E43AEA
:101B2E00FAAD24120CF090333A120ACA122795AB72
:101B3E0021AA22A9239000081208FA6525600CE953
:0E1B4E002408F9E43AFAAD25120CF0E4FEFF8B
:011B5C002266
:10287500900006E4F5F01209FF9000061209A8FF82
:03288500AEF02290
:10218E00751D01751E30751F48AB1DAA1EA91F12A5
:10219E001C98AB1DAA1EA91F900006EE8FF0120907
:1021AE00FF9000061209A845F0701FAB1DE51F2415
:1021BE0008F9E4351EFAE4FD120CF0AB1DAA1EA9B7
:1021CE001F900006EE8FF01209FFAB1DAA1EA91F6D
:0A21DE009000061209A8FFAEF022DF
:101EA700AB1DAA1EA91F9000061209A845F0706B6A
:101EB7001208E17066E92401F9E43AFA1226C8AB80
:101EC7001DAA1EA91F900002120A76E47B01FAF9E7
:101ED700F8120A2CAB1DAA1EA91F900002120AA60F
:101EE7009000011208FAFFC39418AB1DAA1EA91F80
:101EF7005026C003C002C001EF75F003A42400F50B
:101F070082E43430F583120B4289828A83D001D070
:101F170002D003120B758003122861AB1DAA1EA9FC
:0B1F27001F9000061209A8FFAEF02278
:062030008B268A27892897
:10203600E4F52CF52BF52AF529F52DF52EAB26AA78
:1020460027A92812097DFFC3E52E9FE5F06480F8D5
:10205600E52D6480985046AF2CAE2BAD2AAC29787E
:1020660008120A638F2C8E2B8D2A8C29E92402F9FB
:10207600E43AFAE9252EF9EA352DFA1208E1FFE5E8
:102086002C4FFFE52BFEE52AFDE5298F2C8E2B8DA7
:102096002AF529052EE52E70A4052D80A0AF2CAEBD
:0520A6002BAD2AAC295E
:0120AB002212
:061F32008B5A8A5B895CFA
:101F380075630075640112097DFFAEF0E5644563C1
:101F48006063EF1FAC0670011E4C6059AB5AE55C2C
:101F58002402F9E4355BFAE92FF9EA3EFA1208E1BE
:101F6800F565AB5DE55F2402F9E4355EFAE92FF922
:101F7800EA3EFA1208E1F566E561456245606018D7
:101F8800AB60E5622402F9E43561FAE92FF9EA3E2B
:101F9800FA1208E152655266E5656566609EE4F5E9
:091FA80063F5648097AE63AF6439
:011FB100220D
:0419BD008C408D418C
:1019C100E5408541F01209E0E92402F9E43A8B424D
:1019D100F5438944E5414540601EAB42AA43A94411
:1019E1001226C8E54115417002154074012544F5E0
:0819F10044E43543F54380DCBA
:0119F90022CB
:1025F30090E682E030E004E020E60B90E682E030F3
:10260300E119E030E71590E680E04401F07F147EA5
:0C261300001222E390E680E054FEF0226A
:1025C40030050990E680E0440AF0800790E680E058
:1025D4004408F07FDC7E051222E390E65D74FFF090
:0F25E40090E65FF05391EF90E680E054F7F0221D
:08290C00E4F573D2E9D2AF2219
:1023E900AD0790E678E020E6F9C2E990E678E044A6
:1023F90080F0ED25E090E679F090E678E030E0F9BC
:1024090090E678E04440F090E678E020E6F990E63E
:0824190078E030E1D6D2E9229F
:10256300AC0790E678E020E6F9E573702390E6780F
:10257300E04480F0EC25E090E679F08D6EAF03A99E
:1025830007756F018A708971E4F572757301D3223F
:02259300C32261
:1024FD00AC0790E678E020E6F9E573702590E67874
:10250D00E04480F0EC25E0440190E679F08D6EAF6B
:10251D0003A907756F018A708971E4F572757303EC
:04252D00D322C322D0
:03004B000214920A
:10149200C0E0C083C082C085C084C086758600C09B
:1014A200D075D000C000C001C002C003C006C00792
:1014B20090E678E030E20675730602157C90E678D5
:1014C200E020E10CE5736402600675730702157C87
:1014D200E57324FE605F14603624FE700302156D0E
:1014E20024FC70030215792408600302157CAB6F9B
:1014F200AA70A971AF7205728F827583001208FA01
:1015020090E679F0E572656E7070757305806B9088
:10151200E679E0AB6FAA70A971AE728E8275830014
:1015220012095B757302E56E6401704E90E678E015
:101532004420F08045E56E24FEB5720790E678E01F
:101542004420F0E56E14B5720A90E678E04440F06B
:1015520075730090E679E0AB6FAA70A971AE728ED6
:101562008275830012095B0572800F90E678E04471
:1015720040F075730080037573005391DFD007D07C
:1015820006D003D002D001D000D0D0D086D084D0F3
:0815920085D082D083D0E03245
:02264A00A907DE
:10264C00AE14AF158F828E83A3E064037017AD01B7
:10265C0019ED7001228F828E83E07C002FFDEC3E01
:08266C00FEAF0580DFE4FEFF74
:012674002243
:1027B2001224FDE57324FA600E146006240770F3F8
:0C27C200D322E4F573D322E4F573D32294
:1027CE00122563E57324FA600E146006240770F375
:0C27DE00D322E4F573D322E4F573D32278
:1026EF0090E682E044C0F090E681F043870100005D
:0426FF0000000022B5
:1022E3008E218F2290E600E054187012E52224011B
:1022F300FFE43521C313F521EF13F522801590E692
:1023030000E05418FFBF100BE52225E0F522E5217C
:1023130033F521E5221522AE21700215214E600509
:0623230012270380EE22E8
:102703007400F58690FDA57C05A3E582458370F9E9
:0127130022A3
:03004300021A009E
:03005300021A008E
:101A000002281D0002284B00022835000219FF00A1
:101A100002248F000224C60002292200022923008A
:101A20000229240002292500022926000229270074
:101A3000022928000229290002292A0002292B0054
:101A400002292C000229230002292D0002292E0040
:101A500002292F0002293000022931000229320018
:101A6000022933000229230002292300022923002E
:101A700002293400022935000229360002293700E4
:101A8000022938000229390002293A0002293B00C4
:101A900002293C0002293D0002293E0002293F00A4
:101AA0000229400002294100022942000229430084
:081AB00002294400022945004F
:03002B000228A800
:03000000021E1BC2
:0C1E1B00787FE4F6D8FD758178021E6225
:1008E100BB010689828A83E0225002E722BBFE0215
:0908F100E32289828A83E4932248
:1008FA00BB010CE58229F582E5833AF583E02250B3
:10090A0006E92582F8E622BBFE06E92582F8E222FC
:0D091A00E58229F582E5833AF583E4932216
:10092700BB010989828A83F8E028F022500327F760
:1009370022BBFE05F8E328F3228A838982F8E49331
:02094700282264
:10094900BB010689828A83F0225002F722BBFE018D
:02095900F32287
:10095B00F8BB010DE58229F582E5833AF583E8F0D2
:10096B00225006E92582C8F622BBFE05E92582C87E
:02097B00F22266
:10097D00BB010A89828A83E0F5F0A3E02250068745
:10098D00F009E71922BBFE07E3F5F009E319228907
:0B099D00828A83E493F5F0740193223A
:1009A800BB0110E58229F582E5833AF583E0F5F08D
:1009B800A3E0225009E92582F886F008E622BBFE6A
:1009C8000AE92582F8E2F5F008E222E5832AF583B0
:0809D800E993F5F0A3E9932275
:1009E000BB010A89828A83F0E5F0A3F0225006F762
:0F09F00009A7F01922BBFE06F3E5F009F319225F
:1009FF00F8BB0111E58229F582E5833AF583E8F02A
:100A0F00E5F0A3F0225009E92582C8F608A6F022E6
:0D0A1F00BBFE09E92582C8F2E5F008F222CD
:0D0A2C00EF2BFFEE3AFEED39FDEC38FC2219
:10236D00C2D5E830E70FB2D5E4C39BFBE49AFAE49B
:10237D0099F9E498F8EC30E717B2D51223A3120BB4
:10238D00B3E4C39BFBE49AFAE499F9E498F880036B
:10239D00120BB330D50DE4C39FFFE49EFEE49DFD0B
:0423AD00E49CFC228E
:100A3900EB9FF5F0EA9E42F0E99D42F0EC6480C834
:060A490064809845F022D4
:100A4F00E86010ECA2E713FCED13FDEE13FEEF13BD
:040A5F00FFD8F022AA
:100A6300E8600FEFC333FFEE33FEED33FDEC33FCF1
:030A7300D8F12295
:100A7600BB010DE58229F582E5833AF583020ACAB0
:100A86005007E92582F8020C45BBFE07E92582F8E6
:100A9600020C51E58229F582E5833AF583020C5D65
:100AA600BB010DE58229F582E5833AF583020AF654
:100AB6005007E92582F8020C6DBBFE07E92582F88E
:040AC600020C792283
:0C0ACA00E0FCA3E0FDA3E0FEA3E0FF229F
:100AD6007401FF3395E0FEFDFC080808E6CF2FF60B
:100AE60018E6CE3EF618E6CD3DF618E6CC3CF622E4
:0C0AF600ECF0A3EDF0A3EEF0A3EFF02273
:100B0200BB010DE58229F582E5833AF583020C9E4D
:100B12005007E92582F8020C85BBFE07E92582F819
:040B2200020CCF22D0
:0C0B2600A42582F582E5F03583F58322DA
:100B3200FAE6FB0808E625F0F9F618E63AFAF62294
:090B4200E0FBA3E0FAA3E0F922B4
:100B4B00D083D082F8E4937012740193700DA3A339
:100B5B0093F8740193F5828883E47374029368604D
:060B6B00EFA3A3A380DF4D
:060B71008A838982E4730F
:101E2700021D8EE493A3F8E493A34003F68001F226
:101E370008DFF48029E493A3F85407240CC8C333BC
:101E4700C4540F4420C8834004F456800146F6DF8B
:101E5700E4800B0102040810204080902292E47E67
:101E6700019360BCA3FF543F30E509541FFEE49380
:101E7700A360010ECF54C025E060A840B8E493A347
:101E8700FAE493A3F8E493A3C8C582C8CAC583CA72
:101E9700F0A3C8C582C8CAC583CADFE9DEE780BE2A
:0122E20000FB
:100B770075F008758200EF2FFFEE33FECD33CDCC35
:100B870033CCC58233C5829BED9AEC99E5829840B8
:100B97000CF582EE9BFEED9AFDEC99FC0FD5F0D695
:100BA700E4CEFBE4CDFAE4CCF9A88222B800C1B9BF
:100BB7000059BA002DEC8BF084CFCECDFCE5F0CBFD
:100BC700F97818EF2FFFEE33FEED33FDEC33FCEB36
:100BD70033FB10D703994004EB99FB0FD8E5E4F9F1
:100BE700FA227818EF2FFFEE33FEED33FDEC33FCDE
:100BF700C933C910D7059BE99A4007EC9BFCE99AD2
:100C0700F90FD8E0E4C9FAE4CCFB2275F010EF2F16
:100C1700FFEE33FEED33FDCC33CCC833C810D70716
:100C27009BEC9AE899400AED9BFDEC9AFCE899F851
:0E0C37000FD5F0DAE4CDFBE4CCFAE4C8F922E4
:0C0C4500E6FC08E6FD08E6FE08E6FF22DB
:0C0C5100E2FC08E2FD08E2FE08E2FF22DF
:100C5D00E493FC740193FD740293FE740393FF22DD
:0C0C6D00ECF608EDF608EEF608EFF622B3
:0C0C7900ECF208EDF208EEF208EFF222B7
:100C8500D083D082E493F608740193F60874029336
:090C9500F608740393F67404736D
:100C9E00A8828583F0D083D082120CB5120CB512C7
:100CAE000CB5120CB5E473E493A3C583C5F0C583EC
:100CBE00C8C582C8F0A3C583C5F0C583C8C582C8A0
:010CCE002203
:100CCF00D083D082E493F208740193F208740293F4
:090CDF00F208740393F27404732B
:00000001FF
