:0A0AF30000010202030304040505DC
:100C6300C200C202C201120A01C2AF75240D75256A
:100C730000752C0D752D1275220D75231C752A0D0B
:100C8300752B43752E0D752F6AD2E890E668E04404
:100C930009F090E65CE04435F0D2AF90E680E020C6
:100CA300E105D2041210B590E680E054F7F0538EBC
:100CB300F8C2031211603001051206EEC2013003BF
:100CC300F212125450EDC20312113B20001690E6AB
:100CD30082E030E704E020E1EF90E682E030E604D2
:0C0CE300E020E0E41210E412125C80C774
:020AFD00D32202
:1006EE0090E6B9E0700302079614700302080B241B
:1006FE00FE700302088624FB700302079014700339
:10070E000208F11460761470030208F124056003E8
:10071E000208E590E6BBE024FE602714603824FD55
:10072E00601114602724067050E52490E6B3F0E5BE
:10073E0025803C120AFD503EE52C90E6B3F0E52DE7
:10074E00802DE52690E6B3F0E5278023E52890E698
:10075E00B3F0E529801990E6BAE0FF121110AA064F
:10076E00A9077B01EA494B600DEE90E6B3F0EF90DE
:10077E00E6B4F00208F10208E00208E012123502B7
:10078E0008F1120CEF0208F190E6B8E0247F601534
:10079E0014601924027063A200E43325E0FFA20264
:1007AE00E4334F8041E490E740F0803F90E6BCE0B8
:1007BE00547EFF7E00E0D394807C0040047D018057
:1007CE00027D00EC4EFEED4F24F3F582740A3EF5E9
:1007DE0083E493FF3395E0FEEF24A1FFEE34E68F22
:1007EE0082F583E0540190E740F0E4A3F090E68AAE
:1007FE00F090E68B7402F00208F10208E090E6B881
:10080E00E024FE6016240260030208F190E6BAE0CE
:10081E00B40105C2000208F10208E090E6BAE070E9
:10082E005590E6BCE0547EFF7E00E0D394807C00C1
:10083E0040047D0180027D00EC4EFEED4F24F3F569
:10084E0082740A3EF583E493FF3395E0FEEF24A114
:10085E00FFEE34E68F82F583E054FEF090E6BCE0C6
:10086E005480131313541FFFE0540F2F90E683F0A0
:10087E00E04420F0806D805A90E6B8E024FE6019C6
:10088E002402704E90E6BAE0B40104D20080549077
:10089E00E6BAE06402604C803990E6BCE0547EFF1C
:1008AE007E00E0D394807C0040047D0180027D00B8
:1008BE00EC4EFEED4F24F3F582740A3EF583E4937D
:1008CE00FF3395E0FEEF24A1FFEE34E68F82F58331
:1008DE00800D90E6A08008120200500790E6A0E07E
:0A08EE004401F090E6A0E04480F021
:0108F80022DD
:0300330002127244
:0412720053D8EF322C
:100D000012010002000000402A150D8402000102B9
:100D100000010A060002000000400100090227004D
:100D200001010080960904000003FF000000070590
:100D3000810240000007050202000200070586024A
:100D4000000200090227000101008096090400004A
:100D500003FF0000000705810240000007050202B2
:100D60004000000705860240000004030904080350
:100D700049004E004900140353006500650042001D
:0C0D800065007400740065007200000043
:1010E40090E682E030E004E020E60B90E682E03017
:1010F400E119E030E71590E680E04401F07F147ECA
:0C11040000120F6690E680E054FEF0221E
:1010B50030040990E680E0440AF0800790E680E07D
:1010C5004408F07FDC7E05120F6690E65D74FFF044
:0F10D50090E65FF05391EF90E680E054F7F02241
:02111000A9072D
:10111200AE2EAF2F8F828E83A3E064037017AD01D2
:1011220019ED7001228F828E83E07C002FFDEC3E50
:08113200FEAF0580DFE4FEFFC3
:01113A002292
:10113B0090E682E044C0F090E681F0438701000026
:04114B00000000227E
:100F66008E088F0990E600E054187012E5092401F6
:100F7600FFE43508C313F508EF13F509801590E66D
:100F860000E05418FFBF100BE50925E0F509E50858
:100F960033F508E5091509AE08700215084E600517
:060FA60012114F80EE2243
:10114F007400F58690FDA57C05A3E582458370F9B3
:01115F00226D
:03004300020B00AD
:03005300020B009D
:100B00000211F10002121F0002120900020AFF0086
:100B1000020FAC00020FE300020CFF00021276008D
:100B200002127700021278000212790002127A0093
:100B300002127B0002127C0002127D0002127E0073
:100B400002127F000212760002128000021281005F
:100B50000212820002128300021284000212850037
:100B6000021286000212760002127600021276004D
:100B700002128700021288000212890002128A0003
:100B800002128B0002128C0002128D0002128E00E3
:100B900002128F00021290000212910002129200C3
:100BA00002129300021294000212950002129600A3
:080BB0000212970002129800E6
:100ED7007E0874CF55B1F9741045B1FA74DF5AFA28
:100EE700742045B1FB74EF5BFB743045B1FCEF3305
:100EF700FF40108BB10000000089B1000000008B9B
:100F0700B1800E8CB1000000008AB1000000008C97
:080F1700B100000000DED7224A
:100E180060612200000000000000000000000000E7
:100E280000000000000000000000000000000000BA
:100E380000000000000000000000000000000000AA
:100E4800000000000000000000000000000000009A
:100E5800000000000000000000000000000000008A
:100E6800000000000000000000000000000000007A
:050E7800000000000075
:100A010090E600E054E74410F0E054FDF090E60178
:100A110074A3F075A80053E8E3000000E490E671C8
:100A2100F000000090E670F000000090E672F075B2
:100A3100B40F75B6FF75B289F5A0F58075B1204385
:100A4100B10490E610F000000090E61174A0F000EF
:100A51000000E490E612F000000090E613F00000C0
:100A61000090E61474E0F0000000E490E615F00058
:100A7100000090E60B7403F090E62414F0E490E695
:100A810025F000000090E61A7409F000000090E6DD
:100A91000274E8F0E4F51DF51CF51BF51A43B120CD
:100AA10053B1EF43B10212126453B1F7D288C2A815
:0A0AB100D28AC2AAC20743B1802214
:10116000781A120C1D7BA07A8679017800D3120CB4
:1011700007500C121245E4F51DF51CF51BF51A225B
:0F12450030070653B1BFC2072243B140D2072280
:06126C00D28353B1FB2206
:1011800090E6047480F00000007406F0000000E4B3
:10119000F000000090E61A7409F0000000C28322FB
:1011D800E4FE7D80C2A1EF5D24FF92A3D2A1C2A14B
:0811E800EDC313FD0EBE08EE7D
:0111F00022DC
:040F1F00AA06AC056D
:100F2300E4FD7E000DEE2463F582E43422F583EACA
:100F3300F00E0D74632EF582E43422F583EFF00D89
:100F430074632402F582E43422F583ECF043B14068
:100F53007A227B637F511211BC53B1BFC2077F5109
:030F6300020ABBC4
:0A101A008E118F128D138A148B15AE
:10102400E4F516E516C3951350200512E512AE112A
:101034007002051114FFE5152516F582E43514F543
:0A10440083E0FD120F1F051680D98E
:01104E00227F
:0A0E7E008E118F128D138A148B154C
:100E8800E4FDE511FF7E000DEE2463F582E43422D3
:100E9800F583EFF00E0D74632EF582E43422F583AA
:100EA800E512F07A227B637F511211BCE4FFEFC395
:100EB80095135010E5152FF582E43514F58374CD9C
:0F0EC800F00F80EAAB15AA14AD137F510211A0F1
:0812540053B17F53B1F7D3221F
:08125C0043B18043B108D32225
:100CEF00E490E740F090E68AF090E68B04F0D32290
:10123500E490E740F090E68AF090E68B04F0D32244
:1002000090E6B9E0120C3D054DA2054DA30229B3BD
:10021000022FB40265B80265BA025EBB0529BC05AF
:1002200036BD0235C4000006D112126C0206D3128C
:1002300011800206D300000090E61A7401F000005D
:100240000090E6047480F00000007406F0000000E6
:10025000E4F000000090E61A7409F00206D3D28799
:10026000C2870206D300000090E6BAE0FDA3E0FEDC
:10027000EEFCA3E0FBA3E0FEEEFAA3E0750800F5B8
:1002800009A3E0FEEE4208AF05ED24FE7003020371
:100290001814700302051914700302043714700354
:1002A00002038C24FD70030204B1240760030205DD
:1002B00019902261E508F0A3E509F0E50945086019
:1002C00055E490E68AF090E68BF000000090E6A0FE
:1002D000E020E1F990E68BE0750A00F50BE4F50EFD
:1002E000F50FC3E50F950BE50E950A501A744025DE
:1002F0000FF582E434E7F583E0FF120ED7050FE532
:100300000F70DF050E80DBC3E509950BF509E508E5
:10031000950AF50880A58062E490E68AF090E68B65
:10032000F0C28053B1FE00000090E6A0E020E1F9A9
:1003300090E68BE0750A00F50B90E740E0FF120EA7
:10034000D753B1FD00000000000000000043B102DF
:1003500043B101750E00750F017440250FF582E45D
:1003600034E7F583E0FF120ED7050FE50F700205A5
:100370000EC39403E50E940040DF53B1FD0000006E
:1003800000000000000043B10202051BE490E68A71
:0F039000F090E68BF000000090E6A0E020E1F98D
:10039F0090E740E0139205E030E103D38001C39270
:1003AF000690E6BCE0F510A3E014602614603F143D
:1003BF00605824037070E51030050442808003F408
:1003CF005280E510300606F452B202051B42B2020B
:1003DF00051BE51030050442A08003F452A0E51080
:1003EF00300606F452B402051B42B402051BE51099
:1003FF0030050442B08003F452B0E510300606F425
:10040F0052B502051B42B502051BE510300504422B
:10041F00B18003F452B1E510300606F452B602056E
:08042F001B42B602051BD3229B
:10043700D280902261E508F0A3E509F0E5094508B7
:100447006055E490E68AF090E68BF000000090E6B5
:10045700A0E020E1F990E68BE0750A00F50BE4F5E2
:100467000EF50FC3E50F950BE50E950A501A74406C
:10047700250FF582E434E7F583E0FF120ED7050F69
:10048700E50F70DF050E80DBC3E509950BF509E580
:1004970008950AF50880A553B1FD0000000000008B
:1004A70000000043B102C280806AA2A09204C2A0E9
:1004B700E50945086052E490E68AF090E68BF090F3
:1004C700E6A0E020E1F990E68BE0750A00F50BE481
:1004D700F50EF50FC3E50F950BE50E950A501A7447
:1004E70040250FF582E434E7F583E0FF1211D805C4
:1004F7000FE50F70DF050E80DBC3E509950BF509E6
:10050700E508950AF50880A8C2A2D2A2A20492A083
:100517008002D322E490E68AF090E68BF01212452F
:10052700C32290E6BAE030E01753B1F70206D3537F
:10053700B1F700000000000000000000000000000C
:1005470043B1080206D390E6BAE0750C00F50DA397
:10055700E0FEEE420C90E6BEE0750800F509A3E068
:10056700FEEE420890E6B8E064C06003020639E593
:1005770009450870030206CF90E6A0E020E1F9C321
:10058700E5099440E5089400500885080A85090B99
:100597008006750A00750B4090E6B9E0B4A335E410
:1005A700F50EF50FC3E50F950BE50E950A505EE5C1
:1005B7000D250FF582E50C350EF583E0FF74402518
:1005C7000FF582E434E7F583EFF0050FE50F70D4FC
:1005D700050E80D0E4F50EF50FC3E50F950BE50E7C
:1005E700950A50187440250FF582E434E7F58374B3
:1005F700CDF0050FE50F70E1050E80DDAD0B7AE755
:1006070079407F40AB07AF0DAE0C120E7EE490E64B
:100617008AF090E68BE50BF0250DF50DE50A350C14
:10062700F50CC3E509950BF509E508950AF50802E8
:10063700057690E6B8E0644060030206CFE5094519
:100647000870030206CFE490E68AF090E68BF090FC
:10065700E6A0E020E1F990E68BE0750A00F50B9043
:10066700E6B9E0B4A335E4F50EF50FC3E50F950B36
:10067700E50E950A50367440250FF582E434E7F508
:1006870083E0FFE50D250FF582E50C350EF583EFC9
:10069700F0050FE50F70D4050E80D0AD0B7AE77922
:1006A700407F40AB07AF0DAE0C12101AE50B250DBE
:1006B700F50DE50A350CF50CC3E509950BF509E5CC
:1006C70008950AF508020644C322D32290E6B9E04A
:1006D70090E740F0E490E68AF090E68B04F090E62D
:0606E700A0E04480F0C316
:0106ED0022EA
:1011F100C0E0C083C082D2015391EF90E65D7401DB
:08120100F0D082D083D0E0326E
:10120900C0E0C083C0825391EF90E65D7404F0D0D2
:0612190082D083D0E03218
:10121F00C0E0C083C0825391EF90E65D7402F0D0BE
:06122F0082D083D0E03202
:100FAC00C0E0C083C08290E680E030E70E85222648
:100FBC00852327852A28852B29800C852A26852B95
:100FCC00278522288523295391EF90E65D7410F034
:070FDC00D082D083D0E03287
:010AFF0032C4
:100FE300C0E0C083C08290E680E030E70E85222611
:100FF300852327852A28852B29800C852A26852B5E
:10100300278522288523295391EF90E65D7420F0EC
:07101300D082D083D0E0324F
:010CFF0032C2
:011276003245
:011277003244
:011278003243
:011279003242
:01127A003241
:01127B003240
:01127C00323F
:01127D00323E
:01127E00323D
:01127F00323C
:01128000323B
:01128100323A
:011282003239
:011283003238
:011284003237
:011285003236
:011286003235
:011287003234
:011288003233
:011289003232
:01128A003231
:01128B003230
:01128C00322F
:01128D00322E
:01128E00322D
:01128F00322C
:01129000322B
:01129100322A
:011292003229
:011293003228
:011294003227
:011295003226
:011296003225
:011297003224
:011298003223
:08126400E4F535D2E9D2AF2216
:100ABB00AD0790E678E020E6F9C2E990E678E044ED
:100ACB0080F0ED25E090E679F090E678E030E0F903
:100ADB0090E678E04440F090E678E020E6F990E686
:080AEB0078E030E1D6D2E922E7
:10108300AC0790E678E020E6F9E535702390E67842
:10109300E04480F0EC25E090E679F08D30AF03A9D1
:1010A300077531018A328933E4F534753501D3226A
:0210B300C32256
:10104F00AC0790E678E020E6F9E535702590E67874
:10105F00E04480F0EC25E0440190E679F08D30AF6C
:10106F0003A9077531018A328933E4F534753503E5
:04107F00D322C32293
:03004B000208F9AF
:1008F900C0E0C083C082C085C084C086758600C040
:10090900D075D000C000C001C002C003C006C00736
:1009190090E678E030E2067535060209E390E6785C
:10092900E020E10CE535640260067535070209E34C
:10093900E53524FE605F14603624FE70030209D495
:1009490024FC70030209E0240860030209E3AB31C7
:10095900AA32A933AF3405348F82758300120BB8DC
:1009690090E679F0E53465307070753505806B90E7
:10097900E679E0AB31AA32A933AE348E82758300B1
:10098900120BE5753502E5306401704E90E678E0AA
:100999004420F08045E53024FEB5340790E678E040
:1009A9004420F0E53014B5340A90E678E04440F08C
:1009B90075350090E679E0AB31AA32A933AE348EB1
:1009C90082758300120BE50534800F90E678E044C8
:1009D90040F075350080037535005391DFD007D09D
:1009E90006D003D002D001D000D0D0D086D084D098
:0809F90085D082D083D0E032EA
:1011A00012104FE53524FA600E146006240770F320
:0C11B000D322E4F535D322E4F535D32238
:1011BC00121083E53524FA600E146006240770F3D0
:0C11CC00D322E4F535D322E4F535D3221C
:03000000020D8C62
:0C0D8C00787FE4F6D8FD758135020DD3A8
:100BB800BB010CE58229F582E5833AF583E02250F2
:100BC80006E92582F8E622BBFE06E92582F8E2223C
:0D0BD800E58229F582E5833AF583E4932256
:100BE500F8BB010DE58229F582E5833AF583E8F046
:100BF500225006E92582C8F622BBFE05E92582C8F2
:020C0500F222D9
:100C0700EB9FF5F0EA9E42F0E99D42F0EC6480C864
:060C170064809845F02204
:100C1D007401FF3395E0FEFDFC080808E6CF2FF6C2
:100C2D0018E6CE3EF618E6CD3DF618E6CC3CF6229B
:100C3D00D083D082F8E4937012740193700DA3A346
:100C4D0093F8740193F5828883E47374029368605A
:060C5D00EFA3A3A380DF5A
:100D9800020C63E493A3F8E493A34003F68001F202
:100DA80008DFF48029E493A3F85407240CC8C3335C
:100DB800C4540F4420C8834004F456800146F6DF2B
:100DC800E4800B0102040810204080900E18E47E95
:100DD800019360BCA3FF543F30E509541FFEE49320
:100DE800A360010ECF54C025E060A840B8E493A3E7
:100DF800FAE493A3F8E493A3C8C582C8CAC583CA12
:100E0800F0A3C8C582C8CAC583CADFE9DEE780BEC9
:010E7D000074
:00000001FF
