:020000041A00E0
:1000000000A00810F510011AC901001AD101001A48
:10001000D901001AE101001AE901001A00000000EC
:10002000000000000000000000000000F101001AC4
:10003000F901001A000000000102001AADDE001AEA
:100040000902001A0902001A0902001A0000000041
:100050000902001A0902001A75CE001A0902001AD4
:100060000902001A0902001A0902001A0902001AFC
:100070000902001A0902001A0902001A0902001AEC
:100080000902001A0902001A0902001A0902001ADC
:100090000902001A0902001A0902001A0902001ACC
:1000A0000902001A0902001A0902001A0902001ABC
:1000B0000902001A0902001A0902001A0902001AAC
:1000C0000902001A0902001A0902001A0902001A9C
:1000D0000902001A0902001A0902001A0902001A8C
:1000E0000902001A0902001A0902001A0902001A7C
:1000F000000000000902001A0902001A0902001A91
:10010000000000000902001A0902001A0902001A80
:100110000902001AF8FF011A18600810CC04000048
:10012000F4FF011A0080002000000000F4FF011A13
:100130001420001000000000F4FF011A0000081055
:1001400000000000F4FF011A000000100000000091
:10015000F4FF011A1060081004000000F8FF011AF3
:100160000000002000000000F8FF011A00820020BB
:1001700000000000F8FF011A00C00020000000008D
:10018000E8640810A02100000080002000000000AA
:100190001420001000000000000008100000000003
:1001A00000000010000000001460081000000000B3
:1001B000000000200000000000820020000000007D
:1001C00000C000200000000080B400AFFEE700BFC8
:1001D00080B400AFFEE700BF80B400AFFEE700BF11
:1001E00080B400AFFEE700BF80B400AFFEE700BF01
:1001F00080B400AFFEE700BF80B400AFFEE700BFF1
:1002000080B400AFFEE700BF80B400AFFEE700BFE0
:10021000FFFFFFFFFFFFFFFFFFFFFFFFFFFFFFFFEE
:10022000FFFFFFFFFFFFFFFFFFFFFFFFFFFFFFFFDE
:10023000FFFFFFFFFFFFFFFFFFFFFFFFFFFFFFFFCE
:10024000FFFFFFFFFFFFFFFFFFFFFFFFFFFFFFFFBE
:10025000FFFFFFFFFFFFFFFFFFFFFFFFFFFFFFFFAE
:10026000FFFFFFFFFFFFFFFFFFFFFFFFFFFFFFFF9E
:10027000FFFFFFFFFFFFFFFFFFFFFFFFFFFFFFFF8E
:10028000FFFFFFFFFFFFFFFFFFFFFFFFFFFFFFFF7E
:10029000FFFFFFFFFFFFFFFFFFFFFFFFFFFFFFFF6E
:1002A000FFFFFFFFFFFFFFFFFFFFFFFFFFFFFFFF5E
:1002B000FFFFFFFFFFFFFFFFFFFFFFFFFFFFFFFF4E
:1002C000FFFFFFFFFFFFFFFFFFFFFFFFFFFFFFFF3E
:1002D000FFFFFFFFFFFFFFFFFFFFFFFFFFFFFFFF2E
:1002E000FFFFFFFFFFFFFFFFFFFFFFFFFFFFFFFF1E
:1002F000FFFFFFFFFFFFFFFFFFFFFFFFFFFFFFFF0E
:1003000080B489B000AFF860B9607A60BB685B11F7
:10031000BB61FB6803F01F037B61FB685B11BA697B
:10032000934209D1BB699B007A6813441A687B69C0
:1003300022FA03F3FB6112E0BA69920079680A4479
:1003400011687A69C2F1200201FA02F29B00796811
:100350000B4419687B6921FA03F31343FB61BA6804
:10036000FB68D31A0133012202FA03F3013B1A4658
:10037000FB69134018462437BD465DF8047B70477F
:10038000F0B587B000AF78604F4B1C6804F59875E6
:10039000502053212A46FFF7B3FF0346012202FAF9
:1003A00003F31E46C4F84C63D4F84023474B134074
:1003B000464A93420CD130203F212A46FFF7A0FF46
:1003C000034601337B617B699B02C4F8543371E0BF
:1003D0003E2049212A46FFF793FF03467B612F20E9
:1003E00031212A46FFF78CFF03463B613B6902330C
:1003F000012202FA03F3FB607B690133FA6802FB16
:1004000003F3C4F85433B6F5007F04D9720A02FB33
:1004100003F3C4F85433D4F8403303F00103002B42
:1004200048D17A207D212A46FFF76AFF0346032B35
:1004300040D9B4F844331B04786825491A46002390
:1004400001F06CFE7B684FF40072DA617B684FF458
:1004500000721A621C4B1B681A4603F5A073786879
:1004600011461A464FF4007301F0EAFD7868194905
:100470000022082301F052FEB860BA684BF6C2733E
:100480001340002B16D1104B1B68D3F80022D2B2B8
:10049000012A03D9D3F81422C3F85423D3F8042231
:1004A000D2B2012A03D10C4AC3F8482302E00B4A16
:1004B000C3F84823044B1B68D3F854235202C3F8F3
:1004C00050231C37BD46F0BD48760810010000409F
:1004D00007000010080018100075190380BA8C017D
:1004E00080B584B000AF78601D4B1B68B3F844330F
:1004F0001B0478681B491A46002301F00FFE0346CF
:10050000FB60FB6803F48073002B1DD1144B1A6849
:10051000D2F8103103F4F0535B0AFB60FB68032B45
:1005200002D0042B0ED012E0B2F844331B047868DA
:100530000D491A46002301F0F1FD0346002B09D1B5
:10054000002309E0002307E04FF0FF3304E04FF001
:10055000FF3301E04FF0FF3318461037BD4680BD32
:10056000487608100D0000100700001080B584B018
:1005700000AF7860174B1B68D3F8403303F00103DA
:10058000002B0CD0786814490222002301F0C6FD2C
:10059000F860FB68002B13D17B6801229A617B68AD
:1005A0004FF40072DA6178680C494FF4007200234E
:1005B00001F0B4FDF860FB68002B04D1002304E0D7
:1005C0004FF0FF3301E04FF0FF3318461037BD46C0
:1005D00080BD00BF48760810060080101000001093
:1005E00080B584B000AF78600F4B1B68B3F844331C
:1005F0001B0478680D491A46002301F08FFD03465D
:10060000FB60FB6803F48073002B07D1064B1B686B
:10061000D3F8103103F4F0535B0A01E04FF0FF33DD
:1006200018461037BD4680BD487608100D000010F2
:1006300080B588B000AF78603960A74B3A681A601F
:100640007B6800229A613B68A44AC3F84823786813
:100650004FF4A0010022042301F060FD00233B6160
:1006600000237B619E4BBB610023FB6164E17B69DE
:10067000112B00F25E8101A252F823F0C506001A88
:100680005B07001A8307001AD507001A0308001A2F
:100690006908001A9308001A0109001A3309001AA0
:1006A0003309001A1B07001A5B07001A8307001A98
:1006B000D507001AFB07001A6908001AB708001AC4
:1006C0000109001A786887494FF4D572002301F0B8
:1006D00025FDF860FB6803F48073002B0AD17E4B84
:1006E0001B68D3F81031DBB2AA2B03D1BB6943F0EE
:1006F0008043BB617B6901337B61774B1B68D3F817
:10070000402342F00102C3F84023774AC3F848234C
:10071000764B3B613223FB610EE16F4B1B68D3F8D4
:10072000402322F00102C3F8402378684FF4A0016F
:100730000022042301F0F2FCBB6943F08043BB615B
:100740007B6901337B61644B1B68644AC3F84823AF
:10075000674B3B613223FB61EEE078683969002228
:10076000002301F0DBFCF860FB6803F48073002BCE
:1007700003D07B6909337B61DEE07B6901337B61F8
:10078000DAE0554B1B68D3F81021BB6903F08043B6
:100790001343BB61BB69002B03DA7B6901337B61C7
:1007A000CAE07B6902337B61C6E04B4B1B68D3F820
:1007B00064330A209847786839690022002301F0E1
:1007C000ADFC454B1B68D3F81021BB6903F0804397
:1007D0001343BB61BB69002B05DAFA69013AFA6180
:1007E000FA69002AE1DC002B03DA7B6907337B61BD
:1007F000A2E07B6901337B619EE0BB6943F08043EB
:10080000BB61BA693B4B1340BB614FF47A73FB6128
:10081000314B1B68D3F864330A20984778683969EC
:10082000BA69002301F07AFC2B4B1B68D3F8102126
:10083000BA60BA68002A05DBF9690139F961F9691A
:100840000029E5DC002A0BDAD3F84013BA6802F07D
:1008500080420A43C3F840237B6901337B616BE02C
:100860007B6906337B6167E07868234900220023B7
:1008700001F054FC184B1B6803F5907203F5887364
:1008800010461946102218F01DFE7B6901337B616A
:1008900052E0786819490022002301F03FFC0E4B1A
:1008A0001B68D3F81021120C92B2A3F844237B6981
:1008B00001337B6140E0084B1B680122A3F844230D
:1008C00078680E494FF48032002301F027FC7B69E1
:1008D00001337B6130E000BF48760810002D310104
:1008E0000080FF000800101040787D012900901062
:1008F000010050300080FF40020010200300101063
:10090000224B1B68B3F844331B04786820491A460D
:10091000002301F003FC1D4B1B6803F5987203F5DF
:10092000887310461946102218F0CCFD64237B61B1
:1009300002E07B6964337B617B69632B7FF797AE51
:10094000124B1B68D3F82031002B0ED07868FFF7CC
:1009500017FD7868FFF7C4FD0346002B0FD17868B8
:10096000FFF704FE0346002B0BD1084B1B68D3F89E
:100970002031002B0CBF00230123DBB202E0002357
:1009800000E0002318462037BD4680BD4876081099
:100990000900102080B483B000AF7860044B1B685E
:1009A000D3F8543318460C37BD465DF8047B7047C6
:1009B0004876081080B586B000AFF860B9607A60FC
:1009C0003B603B685B027B617B68002B43DB7A68A2
:1009D0003B6813441A46244B1B68D3F854339A429D
:1009E0003BD8F868FFF7FCFD0346042BF9D1F86803
:1009F000FFF776FD0346002B31D17B69FA6813625D
:100A0000194A1268D2F8401301F08041002902D13E
:100A10007968490279601146BA68F86801F010FBFC
:100A20003B68012B08D17B68F86810491A460823F7
:100A300001F074FB386107E07B68F8680C491A46DE
:100A4000082301F06BFB38613B69002B01D00023C8
:100A50007B617B6904E0002302E0002300E00023C7
:100A600018461837BD4680BD48760810110008109A
:100A70001200081180B586B000AFF860B9607A60E6
:100A80003B603B685B027B617B68002B43DB7A68E1
:100A90003B6813441A46244B1B68D3F854339A42DC
:100AA0003BD8F868FFF79CFD0346042BF9D1F868A2
:100AB000FFF716FD0346002B31D17B69FA681362FC
:100AC000194A1268D2F8401301F08041002902D17E
:100AD0007968490279601146BA68F86801F0B0FA9D
:100AE0003B68012B08D17B68F86810491A46082337
:100AF00001F014FB386107E07B68F8680C491A467E
:100B0000082301F00BFB38613B69002B01D0002367
:100B10007B617B6904E0002302E0002300E0002306
:100B200018461837BD4680BD4876081018000C10CE
:100B300019000C1180B582B000AF3960134602462F
:100B4000FA71BB71FB79062B01D102F065FDFB79CF
:100B5000042019460122002300F048FA3A68104B9D
:100B60009A420CD9FB7918460E490D4A0C4B02F0FB
:100B700089FD042009210122002300F037FA0A4BE5
:100B80001B68FA79104619463A683B6802F07AFD0C
:100B9000BB79002B01D000F009F80837BD4680BDB5
:100BA00080778E06001BB700E0E2011A90B583B093
:100BB00000AF00237B6017E00E4B7A6813F8220029
:100BC0000C4A7B689B00134459780A4A7B689B0057
:100BD00013449A78074C7B689B002344DB7800F031
:100BE00005FA7B6801337B607B68112BE4D90C37F5
:100BF000BD4690BD98E2011A80B584B000AF786020
:100C00007A680E4B9A420AD07A680D4B9A4209D004
:100C10007A680C4B9A4208D08423FB8107E0A42316
:100C2000FB8104E0A323FB8101E08523FB81FB8999
:100C3000184600F07BFA1037BD4680BD00400C40DE
:100C400000300C400050084080B584B000AF7860A0
:100C50007A680E4B9A420AD07A680D4B9A4209D0B4
:100C60007A680C4B9A4208D08423FB8107E0A423C6
:100C7000FB8104E0A323FB8101E08523FB81FB8949
:100C8000184600F087FA1037BD4680BD00400C4082
:100C900000300C400050084080B485B000AF786050
:100CA0007B685B68FB607B6800225A607B6801227E
:100CB0009A607B6802225A607B689B68002BFBD19C
:100CC0007B68FA685A601437BD465DF8047B70474C
:100CD00080B485B000AF7860F970BA707B7097F916
:100CE0000130012202FA03F09A1C520003219140C4
:100CF0000143F9607968C86BF968C94301407868B5
:100D0000C16397F9030000FA03F31943BB789340DA
:100D100041EA03027B68DA631437BD465DF8047B61
:100D2000704700BF80B584B000AF78607A68244B0C
:100D30009A420AD07A68234B9A4209D07A68224BA9
:100D40009A4208D081237B8107E0A2237B8104E0C3
:100D5000A1237B8101E082237B817B8918460121CD
:100D60000122012300F0A6F97B6807229A607B68C4
:100D70000022DA657B6800225A607B680022DA6014
:100D80007B6800221A627B680022DA647B6800229A
:100D90005A657B6800221A657A680B4B9A4205D126
:100DA0007B6800221A617B689B69FB607B68032279
:100DB000DA607B6810229A621037BD4680BD00BFA2
:100DC00000200C4000100C400020084080B584B08A
:100DD00000AF78607B680022DA657A680E4B9A4231
:100DE0000AD07A680D4B9A4209D07A680C4B9A4225
:100DF00008D08123FB8107E0A223FB8104E0A1232B
:100E0000FB8101E08223FB81FB89184600F0C2F9D7
:100E10001037BD4680BD00BF00200C4000100C40C4
:100E2000002008402DE9B04F90B000AF78603960E5
:100E30007A686B4B9A420AD07A686A4B9A4209D018
:100E40007A68694B9A4208D081237B8107E0A2230C
:100E50007B8104E0A1237B8101E082237B817B896C
:100E6000184600F0B7F9F8614FF0FF33BB62012379
:100E70003B6300237B630123BB630023FB636AE0C6
:100E8000FB691A464FF000031D0745EA12151407C7
:100E90003B6B1A464FF0000302FB05F004FB03F125
:100EA0000144A4FB022319440B46386BF96A014440
:100EB000386800FB01F18A464FF0000B10461946D6
:100EC00052465B461CF0C4F802460B46C7E90423B1
:100ED0003B697B62D7E9042398464FF000094346FB
:100EE0003B623B69002B05DA7B6A5B427B623B6AB3
:100EF00001333B62BA6A7B6A9A4218D33B6A002B81
:100F000015D03B6A1B0C002B11D13B6A022B02D877
:100F1000FB6A002B0BD17B6A002B11D07B6ABB6272
:100F2000FB6A7B633B6BBB633B6AFB6300E000BF18
:100F3000FB6A0133FB62FA6A3B6B9A42A0D307E07B
:100F40007B6ABB62FB6A7B633B6BBB633B6AFB6395
:100F50003B6B01333B63BB6A002B0BD03B6B0F2B0E
:100F600008D87B6BFB6000237B637B6BFB62FB68B9
:100F70007B63E0E7FB6B002B2BD07B68DB6843F0E7
:100F800080027B68DA60FB6B1B0AFA6BD1B27A686D
:100F90001160DAB27B685A607B68DB6823F08002FC
:100FA0007B68DA60BB6B1B01DAB27B6B03F00F036B
:100FB0001A437B689A62FB691B09BA6B02FB03F256
:100FC000B96B7B6B0B44F96B01FB03F3B2FBF3F3DF
:100FD00000E0002318464037BD46BDE8B08F00BF93
:100FE00000200C4000100C400020084080B485B068
:100FF00000AFF871B9717A713B71FA791C4902F14D
:1010000016039B000B445B68FB60FB791B2B21D80C
:10101000BB79112B27D0F968164B0B40FB607B790D
:10102000002B03D0FB6843F40063FB603B79002B8B
:1010300003D0FB6843F00103FB60BB791B06F96832
:101040000B43FB600A4902F116039B000B44FA684C
:101050005A6008E0FB6843F00101054802F11603FD
:101060009B00034459601437BD465DF8047B70470C
:1010700000000540FEF7FFE080B483B000AF0346F8
:10108000FB71FB791B2B0ED8FA79094902F1160383
:101090009B000B445B6843F00101054802F1160315
:1010A0009B00034459600C37BD465DF8047B7047D4
:1010B0000000054080B485B000AF3B600346FB8074
:1010C0000B467B7113463B717B79002B02D00323C7
:1010D000FB6001E00123FB603B79002B03D0FB6840
:1010E00043F00403FB603B68022B03D1FB6843F031
:1010F0002003FB60FB88B3F5A17F08D3FB88A3F531
:10110000A172084B2032F96843F8321005E0FA88E2
:10111000054B2032F96843F832101437BD465DF8AC
:10112000047B7047002005400010054080B582B068
:1011300000AF0346FB80FB88B3F5A17F04D3FB8897
:10114000184600F039F90BE0FB88074A03F120014B
:1011500052F8312042F00101034A203342F83310A3
:101160000837BD4680BD00BF0010054080B400AF09
:10117000074B5B6823F00C02054B5A60044B5B681D
:1011800043F00302024B5A60BD465DF8047B704792
:101190000030044080B582B000AF0346FB80FB887E
:1011A000B3F5A17F04D3FB88184600F01FF90BE0CC
:1011B000FB88074A03F1200152F8312022F0010197
:1011C000034A203342F833100837BD4680BD00BFC4
:1011D0000010054080B588B000AF0346FB80FB8857
:1011E000B3F5A17F08D3FB88A3F5A1722E4B203263
:1011F00053F83230FB6105E0FA882C4B203253F86B
:101200003230FB61FB6903F00103002B44D0002363
:101210003B611C23FB731BE025483A6913465B00C6
:1012200013445B0003441B88FA889A420AD320487F
:101230003A6913465B0013445B0003445B88FA88F9
:101240009A4203D93B6901333B6101E00B46FB73D2
:10125000FB7B1C2B0AD116493A6913465B001344E9
:101260005B000B441979FB7B8B42D5D1FB7B184685
:1012700002F01AFC7861FB695B0903F00703002B9D
:1012800002D00223BB6101E00123BB617A69BB6923
:10129000B2FBF3F37B6101E000237B617B691846BD
:1012A0002037BD4680BD00BF00200540001005402E
:1012B0002CE2011A80B483B000AF0346FB71FB79C6
:1012C00008491A010A441832926842F0010205499D
:1012D0001B010B4418339A600C37BD465DF8047B44
:1012E000704700BF0000054080B483B000AF064BDC
:1012F0005B6C43F00102044B5A64002318460C3720
:10130000BD465DF8047B70470000054090B585B090
:1013100000AF0346FB71FB79144A03F1120152F846
:101320002120FA60FA6802F00102002A06D1FA6868
:10133000120ED2B202F01F02D2B200E011220B490B
:1013400003F1120051F820108908C9B20848C35CA3
:101350000B40DBB21C46104602F014FB0246631C35
:10136000B2FBF3F318461437BD4690BD00000540AC
:1013700010E3011A80B485B000AF0346FB71FB791E
:101380000C4A16339B0013445B68FB60FB6803F058
:101390000103002B06D1FB681B0EDBB203F01F0319
:1013A000DBB200E0112318461437BD465DF8047B1C
:1013B000704700BF0000054080B483B000AF034613
:1013C000FB80FB88A3F5A173074A03F1200152F8C3
:1013D000312042F00101044A203342F833100C3727
:1013E000BD465DF8047B70470020054080B483B0A3
:1013F00000AF0346FB80FB88A3F5A173074A03F106
:10140000200152F8312022F00101044A203342F831
:1014100033100C37BD465DF8047B70470020054053
:1014200080B582B000AF7860022001210122012343
:10143000FFF740FE7B681B6823F480327B681A60EC
:101440000837BD4680BD00BF80B485B000AF78606E
:1014500039607B681B6803F48033FB603B689B0149
:101460009BB2FA681343FB607B68FA681A60143712
:10147000BD465DF8047B704780B483B000AF7860F0
:1014800039607B681B6823F480327B681A603B6894
:10149000012B05D17B681B6843F480327B681A609E
:1014A0000C37BD465DF8047B704700BF80B584B043
:1014B00000AF0D4B1B68BB600C4B1B687B60BA68B0
:1014C0000B4B9A4203D17A680A4B9A4201D000230F
:1014D00000E00123FB73FB7B002B01D000F00CF834
:1014E0001037BD4680BD00BF40EF00E044EF00E094
:1014F000210011101100001180B485B000AF074B1E
:101500001B68FB60FB6843F47003FB60FA68034BE5
:101510001A601437BD465DF8047B704788ED00E023
:1015200080B485B000AF786039607B685B6803F099
:10153000F803582B00F21E8101A252F823F000BFDD
:101540006917001A7517001A7517001A7517001A0F
:101550007517001A7517001A7517001A7517001AF3
:10156000A516001A7517001A7517001A7517001AB4
:101570007517001A7517001A7517001A7517001AD3
:10158000A516001A7517001A7517001A7517001A94
:101590007517001A7517001A7517001A7517001AB3
:1015A000C716001A7517001A7517001A7517001A52
:1015B0007517001A7517001A7517001A7517001A93
:1015C0004517001A7517001A7517001A7517001AB3
:1015D0007517001A7517001A7517001A7517001A73
:1015E000C716001A7517001A7517001A7517001A12
:1015F0007517001A7517001A7517001A7517001A53
:101600005117001A7517001A7517001A7517001A66
:101610007517001A7517001A7517001A7517001A32
:101620005D17001A7517001A7517001A7517001A3A
:101630007517001A7517001A7517001A7517001A12
:101640002F17001A7517001A7517001A7517001A48
:101650007517001A7517001A7517001A7517001AF2
:101660004517001A7517001A7517001A7517001A12
:101670007517001A7517001A7517001A7517001AD2
:101680000D17001A7517001A7517001A7517001A2A
:101690007517001A7517001A7517001A7517001AB2
:1016A0000717001A3B681B785A003B689B68002BA1
:1016B00014BF00230123DBB213431A467B689A60F0
:1016C0003C23FB6058E03B689B68002B0CD13B68D7
:1016D0001B69002B02D16FF0100301E06FF02003B3
:1016E00003F03C03FB6047E03A685268501C3968DD
:1016F0004860127811467A6891605A1E3B689A6079
:101700003C23FB6038E02C23FB6001E03C23FB60C2
:101710003B68DB68591C3A68D1607A689268D2B23B
:101720001A703B681B695A1E3B681A6101E03C2332
:10173000FB603B681B69012B1EDDFB6823F0040383
:10174000FB6019E03B6805221A752C23FB6013E04F
:101750003B6801221A752C23FB600DE03B680222D6
:101760001A753C23FB6007E03B6803221A752C23A3
:10177000FB6001E03C23FB60FB6883F03C027B687C
:101780001A60FB6823F010027B689A61FB6803F023
:101790001003002B03D03B681B7D022B08D13B6854
:1017A0001B7D042B06D13B6800221A75002302E042
:1017B000012300E0002318461437BD465DF8047B82
:1017C000704700BF80B485B000AF02460B46FA7187
:1017D000BB71FA791346DB009B1A9B00084A13443D
:1017E000FB60BB79012B05D1FB681A69137DDBB265
:1017F000042BFBD01437BD465DF8047B704700BF57
:1018000068600810B0B586B000AF02460B46FA71AA
:10181000BB71FC792346DB001B1B9B001B4A134456
:101820003B61BB79012B2DD13B691D69AB684EF63D
:10183000602202FB03F37B6120E0144A2346DB00B5
:101840001B1B9B0013441B681B6803F00803002B41
:101850000CD0FB79184600F08FF93B691B699B6837
:101860004EF6602202FB03F37B6107E07B69013BDC
:10187000FB607B69002B05D0FB687B612B7DDBB2B5
:10188000042BDAD01837BD46B0BD00BF6860081021
:1018900090B583B000AF0346FB71FC790A4A23463A
:1018A000DB001B1B9B0013449B881846FFF73EFC84
:1018B000054A2346DB001B1B9B0013441B686C225C
:1018C0009A610C37BD4690BD6860081080B582B043
:1018D00000AF0346FB71FA790A491346DB009B1AF5
:1018E0009B000B441B686C21996106491346DB0081
:1018F0009B1A9B000B449B881846FFF74BFC08374C
:10190000BD4680BD6860081090B585B000AF034645
:101910003960FB71FC79104A2346DB001B1B9B00DE
:1019200013449B881846FFF755FC02463B68B2FB00
:10193000F3F3FB60084A2346DB001B1B9B001344A8
:101940001B68FA6852081A611A69F9688A1A5A619A
:101950001437BD4690BD00BF6860081080B485B0E4
:1019600000AF03463960FB71FA791346DB009B1A1E
:101970009B000C4A1344FB60FB681B69002B02D1DF
:10198000FB683A689A60FB689A683B689A4214BFA1
:1019900000230123DBB218461437BD465DF8047BF3
:1019A000704700BF6860081080B586B000AF03467E
:1019B0003960FB71FA791346DB009B1A9B00284AB9
:1019C00013443B613B699B68FA79104603219847B1
:1019D0003B6804221A753B693A681A613B695B6986
:1019E000002B05D13B691B682C229A6160221A608A
:1019F0003B699B68FA791046012198473B690022B0
:101A00001A613B689B684EF6602202FB03F37B6120
:101A100007E07B69013BFB607B69002B1BD0FB6807
:101A20007B613B691B681A6802F01002002AF0D142
:101A30003A69926902F47F42002A03D028229A610F
:101A400044221A603B699B68FA7910460421984742
:101A50003B681B7D00E0032318461837BD4680BD58
:101A60006860081090B58BB000AF3A600246FA711A
:101A70000A46BA717B7107F1080300221A60043329
:101A800000221A60043300221A60043300221A6014
:101A9000043300221A60043300221A600433BB7935
:101AA0003B723B68FB607C793C614EF6602303FB34
:101AB00004F37B6207E07B6A013B3B627B6A002B9D
:101AC0000BD03B6A7B62FA7907F10803104619468E
:101AD000FFF76AFF0346022BEDD03B69E31A184675
:101AE0002C37BD4690BD00BF80B58AB000AF3B60CB
:101AF0000346FB710B46BB7113467B7107F108036C
:101B000000221A60043300221A60043300221A6093
:101B1000043300221A60043300221A6004330022C6
:101B20001A600433BB793B727B1DFB6001233B6170
:101B30003B687B613B6BBB613B6B4EF6602202FBFB
:101B400003F37B6207E07B6A013B3B627B6A002B0D
:101B50000BD03B6A7B62FA7907F1080310461946FD
:101B6000FFF722FF0346022BEDD0BB693A6BD31A75
:101B700018462837BD4680BD90B583B000AF0346F8
:101B8000FB71FC79124A2346DB001B1B9B001344AC
:101B90001A680F492346DB001B1B9B000B441033C4
:101BA0001B6810461946FFF7BBFC0346002B0BD100
:101BB000074A2346DB001B1B9B00134408331B68AA
:101BC000FA791046022198470C37BD4690BD00BFF8
:101BD0006860081080B58AB000AF39237B61074B7D
:101BE0001B6807F114013A1D0846114698477B68A7
:101BF000DBB218462837BD4680BD00BF000140104B
:101C000080B582B000AF184B1B68184A13601A6881
:101C10007A605A681146164A11609A681146154A48
:101C20001160DA681146144A11601A6A1146134AA3
:101C300011605A6A1146124A11609A6A1146114A95
:101C40001160DA6A1146104A11601A6B11460F4A88
:101C500011605B6B1A460E4B1A607B68984703460F
:101C600018460837BD4680BD040140102076081094
:101C700024760810287608102C7608103076081084
:101C800034760810387608103C7608104076081034
:101C90004476081080B485B000AF0346FB71FB7931
:101CA0005B09DBB29A00094B1344FB60FB7903F03C
:101CB0001F03DBB2012202FA03F31A46FB681A6023
:101CC0001437BD465DF8047B704700BF0031054006
:101CD00080B485B000AF0346FB71FB795B09DBB2D2
:101CE0009A00054B1344FB60FB6800221A6014370E
:101CF000BD465DF8047B70470031054080B582B079
:101D000000AF7860A020012101220123FFF7D2F962
:101D10007B684FF0FF321A607B6800225A607B6854
:101D20000C229A607B680022DA600837BD4680BDCD
:101D300080B582B000AF7860FFF718FA7B689B68C7
:101D400003F012027B689A607B689B6843F0100284
:101D50007B689A607B689B6843F002027B689A60AC
:101D60007B689B6803F00203002BF3D07B689B68C1
:101D700003F011027B689A607B689B6803F00203A2
:101D8000002BF3D17B6803221A607B681B68002B51
:101D9000FBD17B680022DA607B68FF221A617B68D6
:101DA00000221A640837BD4680BD00BF80B483B0EE
:101DB00000AF78607B6800229A600C37BD465DF802
:101DC000047B704780B582B000AF78600B46FB7033
:101DD000FB78012B03D1786800F038F805E07B68C8
:101DE0009B6803F012027B689A600837BD4680BD8D
:101DF00080B485B000AF786039607B689B68BB6059
:101E0000BB6803F00103002B07D0BB6803F012028C
:101E10007B689A600023FB730DE00023FB730AE0EC
:101E2000FB7B3A6852F823107A68083342F8231093
:101E3000FB7B0133FB73FB7B072BF1D97B68BA6813
:101E40009A601437BD465DF8047B704780B483B058
:101E500000AF78607B689B6843F001027B689A6002
:101E60007B689B6803F00103002BF3D00C37BD4661
:101E70005DF8047B704700BF80B582B000AF78602A
:101E80006720012101220123FFF714F97B68012259
:101E9000C3F880207B6807221A607B681B6803F008
:101EA0000703002BF9D17B680E4A1A607B68002279
:101EB0005A627B684FF0FF325A647B684FF0FF3202
:101EC0005A617B68084ADA647B684FF4C872C3F8C9
:101ED00080207B6800221A617B680022DA60083764
:101EE000BD4680BD1000000210000F1080B582B00A
:101EF00000AF78606720FFF74DF90837BD4680BD19
:101F000080B487B000AFF860B9607A6032237B613B
:101F1000FB687A689A62BB6843F00042FB68DA6249
:101F20000FE07B6903F00103002B02D032233B61F9
:101F300002E044F250633B613B69013B3B61012B92
:101F4000FADC7B69013B7B61002B03D0FB68DB6A19
:101F5000002BE6DB7B69002BCCBF00230123DBB227
:101F600018461C37BD465DF8047B704780B483B0CB
:101F700000AF786039607B681A6B3B681A607B68D9
:101F80005A6B3B685A607B689A6B3B689A607B68C7
:101F9000DA6B3B68DA600C37BD465DF8047B70474E
:101FA00080B586B000AFF860B9607A60BA687B68C7
:101FB000B2FBF3F302335B087B61FB689A687B69D1
:101FC0009A4203D1FB681B69002B1AD1FB680022DF
:101FD0001A61FB680022DA60F8680B490022FFF7FB
:101FE0008FFFFB687A699A60F86807490022FFF75B
:101FF00087FFFB6801221A61F86803490022FFF796
:102000007FFF1837BD4680BD0020200080B483B01C
:1020100000AF78607B681B6843F002027B681A603F
:102020007B681B6803F00203002BF9D17B684FF03B
:10203000FF325A640C37BD465DF8047B704700BF21
:1020400080B489B000AFF860B9607A603B60FB682B
:102050001B6843F00602FB681A60FB681B6803F00C
:102060000403002BF9D10023FB6145E03B68B3F585
:10207000805F03D94FF480537B6101E03B687B6153
:102080003A687B69D31A3B60BA68FB691B01134449
:102090007A695A60FB691B031A467B681A44B9685F
:1020A000FB691B010B4408331A60FB69002B02D14A
:1020B000184BBB6101E0184BBB613B68002B04D19E
:1020C000BB6943F00403BB6103E0BB6943F0020357
:1020D000BB61FB6901331A01B9680A441146B8684B
:1020E000FA691201024408325160B968FA691201B2
:1020F0000A44B9691160FB613B68002BB6D1BB682B
:102100001A46FB68C3F888202437BD465DF8047B77
:10211000704700BF180000801000008090B589B0A3
:1021200000AFF860B9607A603B60BB6803F40003FD
:10213000002B02D10123FB6101E00223FB613B681C
:10214000002B08D1BB6803F04053002B01D10823BA
:1021500000E004233B60BB6803F40024002C02D0A1
:10216000F868FFF753FF3B6843F4314343F0420301
:102170003B6003F00802002A00F0C78043F4686364
:102180003B60C3E00D2001F08FFC0246664B1B68EC
:10219000D3F84833F86811461A46FFF701FFFB6889
:1021A0004FF0FF325A64604B1B68D3F85C333A46F9
:1021B00010469847FB69012B04D0022B64D0002BFA
:1021C0007CD1A9E0BB68DBB2BA6802F48002002AC5
:1021D00001D1002201E04FF4004243EA0201002C49
:1021E00001D1002201E04FF408521143BA6802F015
:1021F0004052B2F1005F01D0002000E08020014396
:10220000002A01D1002200E040221143BA6802F402
:102210008022002A01D1002201E04FF480621143A4
:10222000BA6802F40032002A01D1002201E04FF422
:1022300000621143BA6802F40012002A01D10022A0
:1022400001E04FF480421143BA6802F08072002A24
:1022500001D1002201E04FF480520A4342F00041D4
:10226000B961072B04D142F0004343F40053BB6132
:10227000F868B9697A68FFF743FE0346002B1DD161
:10228000FB69013BFB6119E0BB6803F48003002B91
:1022900002D1264BBB6101E0254BBB61224B1B6881
:1022A000B3F844331B04F868B9691A46FFF728FEEF
:1022B0000346002B02D1FB69013BFB611A4B1B68F3
:1022C000D3F86033984703467B617A694BF6C27353
:1022D0001340002B22D17B6903F00403002B15D09F
:1022E000BB6803F04053B3F1005F05D0B3F1405F2A
:1022F00002D0B3F1805F09D10B4B1B6803F58873E3
:10230000F8681946FFF732FE00E000BFFB69002BBA
:102310007FF438AF002302E0002300E07B69184619
:102320002437BD4690BD00BF487608107700008076
:102330007780008080B586B000AFF860B9607A60C1
:102340003B603B6800221A60F86802F0EDFC03462F
:10235000FB75FB7D002B12D1FB68DB79002B11D1C3
:10236000FB689B7903F00203DBB2002B09D0F8680D
:10237000B9687A683B6800F0A7FE034602E0FB7D7F
:1023800000E0072318461837BD4680BD80B586B0EB
:1023900000AF7860786802F0C7FC0346FB75FB7DF0
:1023A000002B40F09A807B689B7903F02002D2B228
:1023B000002A00F0928003F04003DBB2002B17D01C
:1023C0007B681B6859787B6803F124027B689B69F2
:1023D000084611461A4601230AF032FE0346002B36
:1023E0007DD17B689B7923F04003DAB27B689A71D8
:1023F0007B681A687B68DB691046194604F086F82A
:102400000346FB75FB7D002B67D17B681B6A3B6134
:102410003B69DB7A43F02003DAB23B69DA727B680E
:10242000DB68DAB23B691A777B68DB689BB21B0A10
:102430009BB2DAB23B695A777B68DB681B0CDAB275
:102440003B699A777B68DB681B0EDAB23B69DA7707
:102450007B681B69D9B23A6991769AB2120A92B234
:10246000D1B23A69D1761B0CD9B23A6911759BB2D7
:102470001B0A9BB2DAB23B695A750AF059FDF86043
:10248000FB68DAB23B699A75FB689BB21B0A9BB288
:10249000DAB23B69DA75FB681B0CDAB23B691A7673
:1024A000FB681B0EDAB23B695A763B6900229A74CC
:1024B0003B690022DA747B689B7923F02003DAB24F
:1024C0007B689A717B681B6801221A717B681B68A4
:1024D000184604F03FF80346FB75FB7D00E001233E
:1024E00018461837BD4680BD80B584B000AF78600F
:1024F0007868FFF74BFF0346FB73FB7B002B04D18F
:10250000786800F04FFF0346FB73FB7BDBB2184695
:102510001037BD4680BD00BF80B588B000AF786081
:1025200039607B68002B61D007F114023B461046EE
:102530001946002202F05CF90346FB77FB7F002B73
:102540004CD17A697B681A607B6807F108029A614E
:102550007B682A4ADA613B687868194602F038F8E5
:102560000346FB77FB7F002B33D17B685B69002B35
:1025700022D0DA7A02F01002D2B2002A1AD07A6996
:102580001278D97E090288B2997E014389B289B254
:10259000B961032A0AD15A7D120292B21B7D1343FC
:1025A0009BB29BB21B04BA691343BB617B68BA69D7
:1025B0009A6001E00523FB77FB7F002B09D17B6943
:1025C000DA887B689A807868002101F043FB034633
:1025D000FB77FB7F042B01D10523FB77FB7F002BCF
:1025E00006D07B6800221A60FB7F02E0092300E02E
:1025F000FB7F18462037BD4680BD00BF147408100D
:1026000090B585B000AF78607B68DB6AFB607B6863
:102610005B787A6802F1300418462146FA68012393
:102620000AF00EFD0346002B23D17B6800221A71AD
:102630007B681B6AFA68D21A7B689B699A421AD235
:102640007B68DB78BB600FE07B689B69FA681344AA
:10265000FB607B685B7818462146FA6801230AF024
:10266000EFFCBB68013BBB60BB68012BECD80023CF
:1026700002E0012300E0002318461437BD4690BD58
:1026800080B582B000AF786039607B685A787B682B
:102690003033104619463A6801230AF0A3FC03467A
:1026A000002B04D17B683A68DA62002300E0012342
:1026B00018460837BD4680BD80B483B000AF78604F
:1026C0007B6893F885301A067B6893F884301B0486
:1026D0001A437B6893F883301B021A437B6893F894
:1026E0008230134323F07F42054B9A4201D00123ED
:1026F00000E0002318460C37BD465DF8047B7047A8
:102700004641540090B597B000AF04467A607B68AC
:102710001B687B6502E07B6D01337B657B6D1B78FD
:102720002F2BF8D05C2BF6D00B683B6500233B6465
:102730000023FB64FB6C0133BB647A6DFB6C1344B8
:102740001B78A7F84630B7F846301F2B3ED9B7F8AC
:1027500046302F2B3AD0B7F846305C2B36D03B6C46
:10276000FE2B00F2B081B7F846301846012103F085
:102770005BFE0346A7F84630B7F84630002B00F062
:10278000A481B7F846307F2B11D8B7F84610AB4B71
:10279000FB6302E0FB6B0133FB63FB6B1B78002BDD
:1027A00002D01A469142F5D1002B40F090813B6C4B
:1027B0000133FB643B6C5B003A6D1344B7F8462071
:1027C0001A80FB6C3B64BB6CFB64B3E77A6DBB6C3B
:1027D0001A447B681A60B7F846301F2B03D90023D0
:1027E00087F8273002E0042387F827303B6CFB642E
:1027F00014E0FB6C03F10043013B5B003A6D1344B2
:102800001B88A7F84630B7F84630202B03D0B7F81E
:1028100046302E2B05D1FB6C013BFB64FB6C002B7F
:10282000E7D1FB6C002B00F05481FB6C5B003A6D30
:10283000134400221A802368BB630B233B6309E027
:10284000BB6B01337B63BB6B20221A70FB6A3B635B
:102850007B6BBB633B6B013BFB623B6B002BEFD1A4
:102860000023BB6202E0BB6A0133BB62BB6A5B0050
:102870003A6D13441B88202BF5D02E2BF3D0BB6A66
:10288000002B0AD097F8273043F0030387F827304E
:1028900004E0FB6C013BFB6400E000BFFB6C002B21
:1028A00006D10823BB610023FB610023FB750FE009
:1028B000FB6C03F10043013B5B003A6D13441B8842
:1028C0002E2BE6D10823BB610023FB610023FB759F
:1028D00000BFBB6A01333B62BB6A5B003A6D1344C5
:1028E0001B88A7F84630B7F84630002B00F0AC80C4
:1028F000B7F84630202B07D0B7F846302E2B0CD136
:10290000FA6C3B6A9A4208D097F8273043F00303E9
:1029100087F827303B6ABB62DBE7FA69BB699A42FA
:1029200003D2FA6C3B6A9A4221D1BB690B2B06D1C8
:1029300097F8273043F0030387F8273084E0FA6CD8
:102940003B6A9A4205D097F8273043F0030387F893
:102950002730FA6C3B6A9A4276D3FB7D9B00FB756D
:10296000FB6CBB620B23BB610823FB61B1E7B7F8CB
:1029700046307F2B19D9B7F846301846002103F0AE
:1029800053FD0346A7F84630B7F84630002B06D073
:10299000B7F84630803B2A4AD35CA7F8463097F810
:1029A000273043F0020387F82730B7F84630002B72
:1029B00010D0B7F84610234B3B6102E03B6901336E
:1029C0003B613B691B78002B02D01A469142F5D13E
:1029D000002B09D097F8273043F0030387F82730FE
:1029E0005F23A7F8463019E0B7F84630413B9BB269
:1029F000192B04D8FB7D43F00203FB750EE0B7F8FA
:102A00004630613B9BB2192B08D8FB7D43F0010394
:102A1000FB75B7F84630203BA7F846302268FB69C3
:102A20000133FB60FB691344B7F84620D2B21A7039
:102A30003B6ABB62FB68FB614BE700BF18E3011A0E
:102A40009CE1011A24E3011A23681A78E52A01D1CE
:102A500005221A70BB69082B02D1FB7D9B00FB7518
:102A6000FB7D03F00C03DBB20C2B05D0FA7D02F0EA
:102A70000302D2B2032A05D197F8272042F00202BE
:102A800087F8272097F8272002F00202D2B2002A06
:102A900013D1FA7D02F00302D2B2012A05D197F8D0
:102AA000272042F0100287F82720042B05D197F841
:102AB000273043F0080387F82730236897F827204A
:102AC000DA72002306E0062304E0062302E0062370
:102AD00000E0062318465C37BD4690BD80B586B041
:102AE00000AF786039607B681B78022B43D0032BE2
:102AF00062D0012B40F088803B685B083A68134441
:102B00007B617B681A6A7B695B0A134478681946A3
:102B100003F0FCFC0346002B78D17B69C3F3080368
:102B20007A68134493F830303B617B6901337B61F1
:102B30007B681A6A7B695B0A13447868194603F05C
:102B4000E5FC0346002B64D17B69C3F308037A6874
:102B5000134493F830301B023A6913433B613B68DE
:102B600003F00103002B02D03B691B0959E03B69CC
:102B7000C3F30B0355E07B681A6A3B681B0A1344D6
:102B80007868194603F0C2FC0346002B44D13B6829
:102B90005B0003F4FF7303F1300279680A44FA60C2
:102BA000FA685278120292B279680B4493F8303086
:102BB00013439BB29BB234E07B681A6A3B68DB0923
:102BC00013447868194603F0A1FC0346002B26D174
:102BD0003B689B0003F4FE7303F1300279680A44FA
:102BE000FA60FA68D2781106FA68927812041143F2
:102BF000FA68527812020A4379680B4493F830302D
:102C0000134323F070430CE001230AE04FF0FF333D
:102C100007E04FF0FF3304E04FF0FF3301E04FF0E7
:102C2000FF3318461837BD4680BD00BF90B589B048
:102C300000AFF860B9607A60FB681B78022B6CD03B
:102C4000032B00F08F80012B40F0D080BB685B0825
:102C5000BA681344FB61FB681A6AFB695B0A134498
:102C6000F868194603F052FC0346FB76FB7E002B06
:102C700040F0BE80FB69C3F30803BA6802F00104A8
:102C8000002C0FD0FA681A4492F83020D2B202F029
:102C90000F02D1B27A68D2B21201D2B20A43D2B2D2
:102CA000D1B201E07A68D1B2FA6813440A4683F8D7
:102CB0003020FB690133FB61FB6801221A71FB685C
:102CC0001A6AFB695B0A1344F868194603F01EFC94
:102CD0000346FB76FB7E002B40F08A80FB69C3F342
:102CE0000803002C03D07A681209D2B210E0FA6807
:102CF0001A4492F83020D2B222F00F02D1B27A6890
:102D0000120AD2B202F00F02D2B20A43D2B2D2B247
:102D1000F9680B4483F830206AE0FB681A6ABB68E4
:102D20001B0A1344F868194603F0F0FB0346FB76D0
:102D3000FB7E002B5CD1BB685B0003F4FF7303F1E7
:102D40003002F9680A447A617A68D2B2F9680B44B1
:102D500083F830207B689BB21B0A9BB2DAB27B6996
:102D60005A7045E0FB681A6ABB68DB091344F868CF
:102D7000194603F0CBFB0346FB76FB7E002B37D1D5
:102D8000BB689B0003F4FE7303F13002F9680A4448
:102D90007A617A69D27811067A69927812041143BD
:102DA0007A69527812021143FA681A4492F8302074
:102DB0000A4302F0704279680A437A607A68D2B2B4
:102DC000F9680B4483F830207B689BB21B0A9BB2E6
:102DD000DAB27B695A707B681B0CDAB27B699A7035
:102DE0007B681B0EDAB27B69DA7001E00223FB76A6
:102DF000FB6801221A71FB7EDBB218462437BD4600
:102E000090BD00BF80B590B000AF78607B684FF692
:102E1000FF721A84FF2387F82730FF2387F83530A5
:102E200003E097F8373087F835307B681A687B689D
:102E30001B691046194603F069FB034687F83F30CB
:102E400097F83F30002B40F0E0807B685B69BB6304
:102E5000BB6B1B7887F8373097F83730002B00F0C2
:102E6000D180BB6BDB7A03F03F0287F8362097F8FE
:102E70003720E52A08D003F00803DBB2002B0BD083
:102E800097F836300F2B07D07B684FF6FF721A8405
:102E9000FF2387F83730A8E097F836300F2B43D15F
:102EA0007B68DB69002B00F09C8097F8372002F0EC
:102EB0004002D2B2002A11D0BA6B527B87F8272089
:102EC00097F8372022F0400287F837207A68D188B7
:102ED0007A68118497F8372087F8352097F83710EB
:102EE00097F83520914213D1BA6B527B97F827108F
:102EF000914211D11846B96B01F07EF80346002BC0
:102F00000ED097F83530013BDBB287F837306CE0F4
:102F1000FF2387F8373068E0FF2387F8373064E015
:102F2000FF2387F8373060E097F83530002B23D146
:102F3000BB6B3B630B23BB62002387F8343097F8ED
:102F40003430DAB25208DB011343DAB23B6B01339F
:102F5000FB623B6B1B78134487F83430BB6A013B40
:102F6000BB62FB6A3B63BB6A002BE8D197F8342055
:102F700097F827309A4248D07B689B69DA7A02F04A
:102F80000102D2B2002A24D17B610023FB600B2313
:102F90003B6203E03B697B61BB69BB633B6A013B0E
:102FA000FB613B6A002B11D0BB6B0133BB61BB6B78
:102FB0001B781A467B6901333B617B691B78D31A06
:102FC000FB60FB693B62FB68002BE3D0FB68002BD6
:102FD0001BD07B684FF6FF721A84FF2387F83730C7
:102FE00003E097F8353087F837307868002100F033
:102FF000BFFE034687F83F3097F83F30002B3FF481
:1030000010AF02E0042387F83F3097F83F30DBB27F
:1030100018464037BD4680BD90B585B000AF78609A
:1030200039600023FB733EE03A68012A08D93A6808
:103030009A4207D278683968FFF750FD044602E0EB
:10304000012400E00124002C38D0012C31D0B4F14F
:10305000FF3F31D03B68012B0CD97B685B693A6834
:103060009A420AD2786839680022FFF7DFFD0346EA
:10307000FB7304E00223FB7301E00223FB73FB7B81
:10308000002B1BD17B681B693C60B3F1FF3F0AD06A
:103090005A1C7B681A617B685B7943F00103DAB2E2
:1030A0007B685A713C607B685B693A689A42BBD323
:1030B00004E00223FB7301E00123FB73FB7BDBB223
:1030C00018461437BD4690BD80B596B000AFF86085
:1030D000B9607A603B60FB689B687A681A449342E7
:1030E00040F2488100237B6044E1FB689B68C3F3A6
:1030F0000802002A40F0F6805A0AD0B2FA68126834
:1031000091780139C9B2014087F8571097F85710E4
:10311000002933D1002B0BD1FB681B693B653B6D4C
:10312000002B0CD11046002100F0D6FC386506E0DB
:10313000FB685B691046194600F0CEFC38653B6DB4
:10314000002B00F01B813B6D012B04D1FB68022298
:10315000DA71022322E13B6DB3F1FF3F04D1FB683A
:103160000122DA71012319E1FB683A6D5A61FB68AB
:103170001B69002B02D1FB683A6D1A61FB689B79D1
:1031800003F04003DBB2002B1CD0FB681B685978AE
:10319000FB6803F12402FB689B69084611461A4646
:1031A000012309F04DFF0346002B04D0FB680122E8
:1031B000DA710123F2E0FB689B7923F04003DAB275
:1031C000FB689A71FB681B68FA685269023AFA64F4
:1031D0005A69023AF96C914206D29A78F96C01FB6D
:1031E00002F19A6A0A4400E00022002A04D1FB6836
:1031F0000222DA710223D1E097F857100A44BA6428
:103200007A68520A7A647A6C002A4CD07A6C8818F0
:103210009A781146884204D9114697F857208A1A9D
:103220007A645B781846B968BA6C7B6C09F008FF61
:103230000346002B04D0FB680122DA710123ADE0C4
:10324000FB689A69BB6CD31A7A6C9A4227D9FA68E0
:1032500024323A645B02BA681344FB634FF4007390
:103260003B630FE03B6C0133BB63FB6B01337B6360
:10327000FB6B1A783B6C1A70FB6A3B637B6BFB63DE
:10328000BB6B3B643B6B013BFB623B6B002BE9D1AF
:10329000FB689B7923F04003DAB2FB689A717B6C80
:1032A0005B02BB6252E0FA689269B96C914216D037
:1032B000FA689168FA68D268914210D25A78FB682D
:1032C000243310461946BA6C012309F08BFE0346DD
:1032D000002B04D0FB680122DA7101235EE0FB6859
:1032E000BA6C9A61FB689B68C3F30803C3F500726C
:1032F000BA627968BA6A914201D27A68BA622033B6
:10330000FA68134404337B62BB68FB61BB6A7B6170
:103310000FE07B6A01333B62FB690133BB61FB69F0
:103320001A787B6A1A703B697B61BB69FB613B6AF7
:103330007B627B69013B3B617B69002BE9D1FB68C8
:103340009B7943F04003DAB2FB689A71BA68BB6AB2
:103350001344BB60FB689A68BB6A1A44FB689A60B6
:103360003B681A68BB6A1A443B681A607A68BB6A91
:10337000D31A7B607B68002B7FF4B7AEFB689B6839
:10338000FA68D268934201D9FA68D360FB689B79E6
:1033900043F02003DAB2FB689A71002318465837CD
:1033A000BD4680BD80B584B000AF7860786801F01C
:1033B000BBFC0346FB73FB7B002B02D17B68002226
:1033C0001A60FB7BDBB218461037BD4680BD00BFDC
:1033D00080B588B000AFF8607A600A46FA72BB72B6
:1033E000FA68174B9A4202D00323BB8201E0042300
:1033F000BB82BB8A1846FDF7EDFEB861FB7A002B55
:1034000005D0BB7A7A6802FB03F3FB6106E07A68B9
:1034100013469B0013445B001344FB61BB695A00D5
:10342000FB691A44FB695B00B2FBF3F3DBB2013BBF
:10343000FB75FB7DDBB218462037BD4680BD00BF63
:1034400000400E4080B586B000AF786039607A6881
:103450001B4B9A4202D00323FB8101E00423FB8132
:10346000FB891846012101220123FDF723FE7B6819
:103470000022DA603B68134A1A603B6800221A7126
:103480003B6800225A71786800210E4A0B23FFF72F
:103490009FFF0346FB75FB7D1B0243F400133B615A
:1034A0003B681B7903F00703DBB25B043A69134303
:1034B0003B617B683A691A601837BD4680BD00BF22
:1034C00000400E40801A060080B487B000AFF8605C
:1034D0000B467A60FB72FA7AFB68043253F82230AA
:1034E0007B617B69002B09DA7B699B099BB2C3F383
:1034F00009039AB27B681A80012300E00023184672
:103500001C37BD465DF8047B704700BF80B485B0B2
:1035100000AF786013460A46FA70BB70FB78012B47
:103520000FD9BB78002B06D07B681B6843F0006284
:103530007B681A6005E07B681B6823F000627B688B
:103540001A607B681B6823F0E063FB60FB781A0657
:10355000FB681A437B681A601437BD465DF8047B2C
:10356000704700BF80B483B000AF786013460A464E
:10357000FA70BB70BB78012B09D17B681A68FB78A5
:10358000012101FA03F31A437B681A600FE07B689C
:103590001B6823F0E0627B681A607B681A68FB781E
:1035A000012101FA03F3DB431A407B681A600C37F0
:1035B000BD465DF8047B704780B485B000AF78608D
:1035C0000B46FB707B681B6823F0E063FB607B6845
:1035D000FA681A60FB78002B06D17B681B6823F41D
:1035E00080327B681A6005E07B681B6843F4803298
:1035F0007B681A601437BD465DF8047B704700BFD6
:1036000080B500AF6920FDF7E5FD0246014B1A6069
:1036100080BD00BF1476081080B485B000AF4FF4B1
:103620007A737B60144B9B69FB60FB6823F0020399
:10363000BB60114B9A69BB689A4202D00E4BBA68C4
:103640009A61FB6823F00303FB600C4B1A680C4B78
:103650009A4203D9FB6843F00403FB60064BFA6807
:103660009A617B685A1E7A60002BFAD11437BD46E6
:103670005DF8047B704700BF00000540E0E2011ADE
:10368000FF2C310180B58CB000AFB9607A603B602F
:103690000346FB73FB7B184600F074F978627B6885
:1036A000B3F1FF3F63D07A687B6AB2FBF3F33B620E
:1036B0007B6A3A6A02FB03F37B61BA687B699A42D0
:1036C00007D87A69474B9A4203D83A687B699A428D
:1036D00001D200237B613B6A0133FB617B6AFA699B
:1036E00002FB03F33B61BA683B699A4207D83A6927
:1036F0003C4B9A4203D83A683B699A4201D2002374
:103700003B617B69002B09D03B69002B06D1FB7B19
:103710001846396A00F068F803465FE07B69002BC1
:1037200009D13B69002B06D0FB7B1846F96900F0F4
:103730005BF8034652E07B69002B18D03B69002BF5
:1037400015D07A687B69D21A39697B68CB1A9A429C
:1037500006D9FB7B1846396A00F046F803463DE07F
:10376000FB7B1846F96900F03FF8034636E0BA687B
:103770007B6AB2FBF3F3FB623A687B6AB2FBF3F35A
:10378000BB610023BB62FB6A7A6A02FB03F37B61C5
:10379000BA687B699A4207D87A69124B9A4203D871
:1037A0003A687B699A4201D200237B617B69002BD6
:1037B00001D0FB6ABB62FA6ABB699A4203D2FB6A18
:1037C0000133FB62DFE7BB6A002B06D0FB7B1846A8
:1037D000B96A00F009F8034600E0002318463037C4
:1037E000BD4680BD00CB280C80B588B000AF034635
:1037F0003960FB71FA23BB60FB79184600F0C2F810
:1038000038612C4B5B6C7B613B693A6802FB03F3CC
:103810003B613B68013BFB607B6923F0F8537B61B4
:10382000FB791B067A6913437B617A69224B13404B
:103830007B613A69214B9A421DD80123BB61002369
:10384000FB6105E0FB690133FB61BB695B00BB61A8
:10385000BB693A6902FB03F35A00184B9A42F1D94B
:10386000FB681A04FB691B021A437B69134343F08C
:1038700040037B610FE03A69114B9A4207D8FB681D
:103880001A047B69134343F0C0037B6103E0FDF737
:103890002BFD03460AE07B6923F00102054B5A64C5
:1038A000BB685A1EBA60002BFAD13B691846203714
:1038B000BD4680BD000005403DCC00FFFF5E4C09C9
:1038C000FFCF121380B58CB000AF2C4B5B6CFB624A
:1038D000FB6A1B0EDBB203F00F03DBB2184600F0ED
:1038E00051F8B862264A3B1D10681860234B1B6CC8
:1038F00003F00103002B3CD0FB6A1B0CDBB27B62A4
:10390000FB6A1B0B03F003033B62FB6A1B0A03F019
:103910000303FB61FB6ADB0903F00103BB61FB6A84
:103920009B0903F001037B617B6A01333B613B6AC6
:103930000133FB603A1DFB6913441B78BB60BB6914
:10394000002B02D17B69002B07D0BA6AFB68B2FB5F
:10395000F3F33A6902FB03F30CE0BB685B003A69DE
:10396000B2FBF3F3B96AFA68B1FBF2F202FB03F3BC
:1039700000E0002318463037BD4680BD00000540FA
:103980002CE3011A80B584B000AF0346FB71FB79CC
:10399000102B6DD801A252F823F000BFE139001AB4
:1039A000E939001AEF39001A033A001A173A001AD7
:1039B000713A001A1F3A001A273A001A2F3A001AD1
:1039C000373A001A713A001A713A001A3F3A001A4F
:1039D000493A001A533A001A5D3A001A673A001A37
:1039E0004FF40043FB604BE0284BFB6048E0284B62
:1039F000D3F82C3103F00703042B3CD0254BFB609C
:103A00003EE0234BD3F82C3103F00703042B35D1D0
:103A1000214BFB6034E0214B1B68FB6030E0204B06
:103A20001B68FB602CE01F4B1B68FB6028E01D4BF4
:103A30005B68FB6024E0FFF745FFF86020E00020B2
:103A4000FDF764FCF8601BE00120FDF75FFCF86007
:103A500016E00220FDF75AFCF86011E00320FDF7A4
:103A600055FCF8600CE00420FDF750FCF86007E01E
:103A70000023FB6004E00023FB6001E0054BFB60DA
:103A8000FB6818461037BD4680BD00BF001BB7005D
:103A90000030044040787D0180F0FA0288D0011A9D
:103AA000E0E2011A1876081080B582B000AF034634
:103AB000FB71FB791B2B05D8FB791846FDF75AFCE7
:103AC000034600E011231846FFF75CFF0346184643
:103AD0000837BD4680BD00BF80B586B000AF7860B6
:103AE00039603B68002B0DD17B68DB687B617B69AB
:103AF000002B04D07B685A697B699A4222D8012343
:103B00003B6121E03B68012B0AD97B685B693A681D
:103B10009A4207D278683968FEF7E0FF034602E070
:103B2000012300E00123012B40F28A80B3F1FF3F23
:103B300000F08B807A6852699A4200F286803B6876
:103B40003B6101E07B693B613B697B617B690133E0
:103B50007B617B685B697A69934204D83A69012A80
:103B600070D902227A617A69012A08D97A699A425F
:103B700007D278687969FEF7B1FF034602E00123B6
:103B800000E00123002B09D0B3F1FF3F5DD0012BF2
:103B90005BD07A693B699A42D8D155E07B69012BA9
:103BA0000DD97B685B697A699A420BD2786879692A
:103BB0006FF07042FFF73AF80346FB7304E002230C
:103BC000FB7301E00223FB73FB7B002B17D13B68E7
:103BD000002B14D03B68012B0CD97B685B693A68D9
:103BE0009A420AD2786839687A69FFF71FF8034663
:103BF000FB7304E00223FB7301E00223FB73FB7BF6
:103C0000002B12D17B687A69DA607B681B69B3F19B
:103C1000FF3F13D05A1E7B681A617B685B7943F0C3
:103C20000103DAB27B685A7108E0FB7B012B02D0FA
:103C300001237B6102E04FF0FF337B617B6904E08D
:103C4000012302E0002300E0002318461837BD4698
:103C500080BD00BF80B586B000AF786039603B683A
:103C60009AB27B68DA807B689B687B617B69012BF9
:103C70006CD07B681B6859697A69914268D97A6906
:103C8000002A04D11A78032A01D15A6A7A617A6922
:103C9000002A07D11A8911463A6891425AD95B6ABB
:103CA0003B613BE09B781B01FB6020E07B681A686E
:103CB0007B69012B09D953697969994207D210466A
:103CC0007969FEF70BFF034602E0012300E00123C0
:103CD000B3F1FF3F40D0012B40D97A681268526996
:103CE0009A423DD93968FA688A1A3A607B613A6823
:103CF000FB689A42DAD27B681B687A69023ABA603A
:103D00005A69023AB968914206D29A78B96801FBB9
:103D100002F29B6A134400E000233B617B687A69EE
:103D2000DA603B69002B1DD03B681A093B691A44D5
:103D30007B681A617B681A683B6803F00F035B01BC
:103D400030331A447B685A6100230CE002230AE0F6
:103D5000022308E0022306E0012304E0022302E03C
:103D6000022300E0022318461837BD4680BD00BF7D
:103D7000B0B58CB000AF786039607B68DB885C1CC4
:103D80007C627B6A9BB2002B00F0DA807B681B6947
:103D9000002B00F0D7807A6A02F00F05002D40F06A
:103DA000C3805A1C7B681A617B68DB68002B08D1D2
:103DB0007B681B681B891A467B6A9A4240F2C48062
:103DC000B2E07A6A10097A68126891780139014084
:103DD000002940F0A980012B08D951698B4207D2F4
:103DE00010461946FEF77AFE034602E0012300E082
:103DF0000123012B40F2AA80B3F1FF3F00F0A8801D
:103E00007A6812685169994276D83B68002B00F0B5
:103E1000A1807B68DB6810461946FFF75DFEF862FB
:103E2000FB6A002B00F09880FB6A012B00F0968063
:103E3000FB6AB3F1FF3F00F093807B681B681A793F
:103E4000002A04D01846FEF7DBFB034600E00023FF
:103E5000002B40F087807B681B6830333B624FF457
:103E60000073BB6109E03B6A0133FB613B6A0022DE
:103E70001A707B69BB61FB693B62BB69013B7B617B
:103E8000BB69002BEFD17B681B68FA6A023A3A6182
:103E90005A69023A3969914206D29A78396901FB26
:103EA00002F19A6A0A4400E00022DA620023BB624F
:103EB00016E001221A717B681B681A79002A04D067
:103EC0001846FEF79DFB034600E00023002B4BD174
:103ED0007B681B68DA6A0132DA62BB6A0133BB6253
:103EE0007B681B689A781146BA6A9142E1D8D96A10
:103EF000BA6A8A1ADA6200E0FB627B68FA6ADA6000
:103F00007B681B68FA6A023AFA605A69023AF968F1
:103F1000914206D29A78F96801FB02F29B6A1A4430
:103F200000E000227B681A61A2B27B68DA807B68BD
:103F30001A686B0130331A447B685A61002314E01D
:103F4000042312E0042310E004230EE002230CE01B
:103F500001230AE0042308E0072306E0022304E02B
:103F6000012302E0012300E0012318463037BD465B
:103F7000B0BD00BF80B584B000AF786039607868AC
:103F80000021FFF767FE0346FB73FB7B002B28D164
:103F90000023BB607B681A687B681B691046194662
:103FA00002F0B4FA0346FB73FB7B002B19D17B684C
:103FB0005B691B78E52B01D0002B07D1BB6801336F
:103FC000BB60BA683B689A4202D10AE00023BB603A
:103FD00078680121FFF7CCFE0346FB73FB7B002BC7
:103FE000D8D0FB7B042B01D10723FB73FB7BDBB217
:103FF00018461037BD4680BD80B586B000AF7860EA
:1040000039603B681B7823F040035A1E13465B005F
:1040100013449B0013447B610123FB8100233B611C
:104020002B4A3B6913441B785A1C39680A4412789E
:10403000120292B239680B441B7813439BB2BB81C6
:10404000FB89002B1AD0BB89184602F015FA0346EB
:10405000FB817B69FE2B2FD87B690133BB607B69B9
:104060005B007A6813441B88184602F005FA034681
:10407000FA899A4222D1BB687B6104E0BA894FF683
:10408000FF739A421CD13B6901333B613B690C2BA6
:10409000C6D93B681B7803F04003DBB2002B09D084
:1040A000FB89002B06D07B695B007A6813441B8870
:1040B000002B07D1012306E0002304E0002302E0E7
:1040C000002300E0002318461837BD4680BD00BF1E
:1040D0001CE2011A80B489B000AFF860B960FA71CF
:1040E000BB71BB68BA795A73BB680F22DA72BB68BE
:1040F00000221A73BB6800229A76BB680022DA7627
:10410000FB795A1E13465B0013449B001344FB616A
:104110000023FB820023BB61FA8A4FF6FF739A42A9
:104120000AD0FB6901333B61FB695B00FA68134409
:104130001B88FB823B69FB611A4ABB6913441B78ED
:10414000BA681A44F98AC9B211700133BA681344C3
:10415000FA8A120A92B2D2B21A70FB8A002B02D1EA
:104160004FF6FF73FB82BB690133BB61BB690C2B4C
:10417000D2D9FA8A4FF6FF739A4206D0FB695B00E8
:10418000FA6813441B88002B03D1FB7943F04003EA
:10419000FB71BB68FA791A702437BD465DF8047B61
:1041A000704700BF1CE2011A80B493B000AFF86002
:1041B000B9607A603B60FB68BB620B23FB610FE078
:1041C000BB6A01337B62BB6801333B62BB681A7810
:1041D000BB6A1A70BB69FB613B6ABB607B6ABB62EE
:1041E000FB69013BBB61FB69002BE9D13B68052BF7
:1041F00025D807237B642BE07A6802327A607B87BC
:1042000000237B6418E03B685A007B8F03F00103B6
:104210009BB213443B607B8F5B087B873B6803F456
:104220008033002B05D03B6883F4883383F021036F
:104230003B607B6C01337B647B6C0F2BE3D97B6829
:104240001B88002BD8D107237B6401E07B6B7B6448
:104250003B68DBB203F00F03DBB203F1300287F8F7
:10426000432097F84320392A02D9373387F843305F
:104270007B6C013B7B6307F110027B6C134497F866
:1042800043201A703B681B093B603B68002BDDD163
:1042900007F110027B6B13447E221A700023FB632C
:1042A00002E0FB6B0133FB63FA6B7B6B9A4208D233
:1042B000FA68FB6B13441B78202BF2D17B6B7B6479
:1042C00001E07B6B7B64FB6B01333B63FA68FB6B48
:1042D00013447A6C072A0AD87A6C0132FA6207F121
:1042E00010017A6C0A441278F96A796400E020229D
:1042F0001A703B6BFB633B6B072BE4D94C37BD4615
:104300005DF8047B704700BF80B584B000AF786073
:1043100078680021FFF79EFC0346FB73FB7B002BB4
:1043200004D17868FEF76EFD034600E0FB7B18467B
:104330001037BD4680BD00BF80B59EB000AF78602D
:104340007B689B69BB667B68DB697B66BB6EBB6415
:1043500007F108033B650C233B640FE03B6D013321
:10436000FB64BB6C01337B64BB6C1A783B6D1A70C9
:10437000FB6B3B647B6CBB64FB6C3B653B6C013B48
:10438000FB633B6C002BE9D1FB7C03F00103DBB248
:10439000002B2FD0BB6E0022DA727B680022DA611C
:1043A00001233B6714E007F10803B86E19467A6EE3
:1043B0003B6FFFF7F9FE7868FFF7A6FF034687F823
:1043C000773097F87730002B05D13B6F01333B678F
:1043D0003B6F632BE7D93B6F642B00F0EF8097F8BE
:1043E0007730042B40F0EC80FA7CBB6EDA727B688D
:1043F0007A6EDA61FB7C03F00203DBB2002B15D08E
:1044000000233B6702E03B6F01333B673B6F5B0080
:104410007A6E13441B88002BF5D13B6F03F1190210
:104420006A4BA3FB02139B08FB6601E00123FB66BA
:104430007868F96EFFF79EFD034687F8773097F8A6
:104440007730002B62D1FB6E013BFB66FB6E002BCD
:104450005CD07B68DB881A46FB6ED31A78681946F5
:10446000FFF7F8FB034687F8773097F87730002B93
:104470004CD17B689B693B660B233B63002387F829
:104480003B3097F83B30DAB25208DB011343DAB223
:104490003B6E01337B633B6E1B78134487F83B30E4
:1044A0003B6B013B3B637B6B3B663B6B002BE8D17B
:1044B0007B681A687B681B691046194602F026F86B
:1044C000034687F8773097F87730002B1ED17B684A
:1044D000D8697B685969FB6EDAB297F83B30FFF711
:1044E000F9FD7B681B6801221A7178680021FFF7CB
:1044F0003FFC034687F8773097F87730002B05D1DB
:10450000FB6E013BFB66FB6E002BD1D197F8773039
:10451000002B50D17B681A687B681B6910461946CE
:1045200001F0F4FF034687F8773097F87730002BD7
:1045300041D17B685B69FB652023BB6209E0FB6DB1
:104540000133FB62FB6D00221A707B6ABB62FB6A5F
:10455000FB65BB6A013B7B62BB6A002BEFD17B68CA
:104560005B69BB657B689B697B650B23BB610FE067
:10457000BB6D01333B627B6D0133FB617B6D1A7850
:10458000BB6D1A707B69BB61FB697B653B6ABB6570
:10459000BB69013B7B61BB69002BE9D17B685B692F
:1045A0007A689269D27A02F01802D2B21A737B68E2
:1045B0001B6801221A7197F8773003E0072301E0A6
:1045C00097F8773018467837BD4680BD4FECC44E1B
:1045D00080B586B000AF786039603A6813782F2BC9
:1045E00001D05C2B01D1531C3B607B6800229A6098
:1045F0003B681B781F2B09D878680021FFF72AFB3E
:104600000346FB757B6800225A615AE07B6803F120
:1046100018017B6803F11C023B46084611461A4606
:10462000FEF770F80346FB75FB7D002B49D17868D7
:10463000FFF76AFE0346FB757B689B69DB7ABB75F7
:10464000FB7D002B0BD0FB7D042B3AD1BB7D03F00F
:104650000403DBB2002B34D10523FB7531E0BB7DB5
:1046600003F00403DBB2002B2BD17B685B693B6159
:104670003B69DB7A03F01003DBB2002B1FD07B68B1
:104680001B681B783A69D27E120291B23A69927E17
:104690000A4392B292B2FA60032B0CD13B695B7D64
:1046A0001B029AB23B691B7D13439BB29BB21B0456
:1046B000FA681343FB607B68FA689A60A6E70523F3
:1046C000FB75FB7DDBB218461837BD4680BD00BFC9
:1046D00080B487B000AF78607B681A68002A2FD05A
:1046E0007A6102E07B6901337B617B691B781F2B58
:1046F00001D93A2BF6D13A2B26D1531CFB60137803
:10470000303BBB60BA68092A0ED8F9687A699142D1
:104710000ED1BA68002A0FD17A6901327A617A68BB
:10472000796911603B6111E04FF0FF333B610DE0AF
:104730004FF0FF333B6109E04FF0FF333B6105E091
:104740004FF0FF333B6101E000233B613B691846BA
:104750001C37BD465DF8047B704700BF80B582B052
:1047600000AF786039607B6800221A717B684FF077
:10477000FF32DA627868396801F0C8FE0346002B20
:1047800029D17B6893F82F321B029AB27B6893F889
:104790002E3213439BB21AB2134B9A421DD17B683F
:1047A00093F869301A067B6893F868301B041A4343
:1047B0007B6893F867301B021A437B6893F8663076
:1047C000134323F07F42094B9A4208D07868FDF7E3
:1047D00073FF034604E0032302E0022300E000230A
:1047E00018460837BD4680BD55AAFFFF4641540014
:1047F00090B597B000AFF860B9601346FB71FB68E5
:1048000000221A60B868FFF763FFF863FB6B002BA8
:10481000C0F25A82B44BFA6B53F82230BB63BB6BC5
:10482000002B00F05382FB68BA6B1A60BB6B1B78DD
:10483000002B1BD0BB6B5B78184608F0C1FB03460E
:1048400087F8373097F8373003F00103DBB2002BDD
:104850000CD1FB79002B07D097F8373003F0040315
:10486000DBB2002B40F03482002350E2BB6B00220D
:104870001A70FB6BDBB2BA6B19465170184608F020
:1048800083FB034687F8373097F8373003F001038E
:10489000DBB2002B40F01E82FB79002B07D097F88B
:1048A000373003F00403DBB2002B40F01582B86B05
:1048B0000021FFF753FF034687F8573097F857302A
:1048C000012B4ED100233B6425E03B6C1B0103F51B
:1048D000DF733033BA6B13443B633B6B1B79002BA4
:1048E0000ED03B6BDB7A1A063B6B9B7A1B041A4398
:1048F0003B6B5B7A1B021A433B6B1B7A1A4300E04B
:1049000000223B6C9B0007F158010B4443F8482CF4
:104910003B6C01333B643B6C032BD6D900233B64D7
:104920003B6C9B0007F15802134453F8483C3B652D
:104930003B6D002B07D0B86B396DFFF70FFF0346B7
:1049400087F8573002E0022387F8573097F857303E
:10495000002B08D03B6C01333B643B6C032BDFD94D
:1049600001E000233B6597F85730032B00F0B68138
:1049700097F85730002B40F0B381BB6B93F83C3075
:104980001B029AB2BB6B93F83B3013439BB21BB232
:10499000B3F5007F40F0A681BB6B93F847301B0254
:1049A0009AB2BB6B93F8463013439BB29BB2FB6445
:1049B000FB6C002B12D1BB6B93F857301A06BB6B04
:1049C00093F856301B041A43BB6B93F855301B0207
:1049D0001A43BB6B93F854301343FB64BB6BFA6C04
:1049E0009A61BB6B93F84030BA6B1946D1705A1E6E
:1049F000D2B2012A00F27881FA6C02FB03F3FB6267
:104A0000BB6B93F83D30BA6B19469170002B00F0E8
:104A10006D811A46511E0A40002A40F06981BA6B26
:104A200092F84220120291B2BA6B92F841200A43E6
:104A300092B292B2B96B1046088102F00F0189B2AE
:104A4000002940F05781B96B91F84410090288B2EF
:104A5000B96B91F84310014389B289B2B964B96C5A
:104A6000002912D1B96B91F853100806B96B91F86F
:104A7000521009040843B96B91F851100902084318
:104A8000B96B91F850100143B964B96B91F83F10BC
:104A9000090288B2B96B91F83E10014389B2798559
:104AA000798D002900F02881798DF86A0C18100999
:104AB00080B220447862BC6C786A8442C0F01E8167
:104AC000BC6C786A201AB0FBF3F33B623B6A002BA4
:104AD00000F01681386A40F6F573984206D9022331
:104AE00087F8573005E000BF0C740810012387F8E1
:104AF0005730386A4FF6F573984202D9032387F886
:104B000057303B6A0233B86B4361B86B3C6DC4618C
:104B1000386D0144B86B01623C6D786A0444B86B2F
:104B2000846297F85700032819D1002A40F0EA80E0
:104B3000BA6B92F85F201106BA6B92F85E201204ED
:104B40001143BA6B92F85D2012021143BA6B92F8CE
:104B50005C201143BA6B51629B007B6415E0002A14
:104B600000F0D280FA6A1144BA6B516297F857206C
:104B7000022A02D15B007B6407E01A4652001A4405
:104B8000520803F0010313447B647B6C03F2FF13B0
:104B90005B0AFA6C9A42C0F0B980BB6B4FF0FF32EF
:104BA0001A61BB6B4FF0FF32DA60BB6B80225A7127
:104BB00097F85730032B78D1BB6B93F861301B0209
:104BC0009AB2BB6B93F8603013439BB21BB2012BBC
:104BD0006BD13B6D0133B86B194601F097FC03466E
:104BE000002B62D1BB6B00225A71BB6B93F82F3242
:104BF0001B029AB2BB6B93F82E3213439BB21AB2CC
:104C0000454B9A4251D1BB6B93F833301A06BB6BBC
:104C100093F832301B041A43BB6B93F831301B02FC
:104C20001A43BB6B93F830301A433C4B9A423CD149
:104C3000BB6B93F817321A06BB6B93F816321B0442
:104C40001A43BB6B93F815321B021A43BB6B93F8E4
:104C500014321A43324B9A4227D1BB6B93F81B3262
:104C60001A06BB6B93F81A321B041A43BB6B93F8FA
:104C700019321B021A43BB6B93F818321A43BB6BF1
:104C80001A61BB6B93F81F321A06BB6B93F81E3286
:104C90001B041A43BB6B93F81D321B021A43BB6BF8
:104CA00093F81C321A43BB6BDA60BB6B97F8572042
:104CB0001A701C4B1B8801339BB21A4A194611808B
:104CC000BA6BD380002322E00B2320E00C231EE0EC
:104CD0000A231CE003231AE00A2318E0012316E04C
:104CE0000D2314E00D2312E00D2310E00D230EE040
:104CF0000D230CE00D230AE00D2308E00D2306E050
:104D00000D2304E00D2302E00D2300E00D231846DF
:104D10005C37BD4690BD00BF55AAFFFF52526141AE
:104D2000727241611074081080B582B000AF786073
:104D30007B68002B17D07B681B68002B15D01A7876
:104D4000002A14D0D9887A689288914211D15B7870
:104D5000184608F035F9034603F00103DBB2002BD7
:104D600009D1002308E0092306E0092304E0092310
:104D700002E0092300E0032318460837BD4680BD42
:104D800080B588B000AFF860B9601346FB71BB68AE
:104D90003B6107F110031846FFF79AFCF861FB69C5
:104DA000002B25DB174BFA6953F82230BB61BB6936
:104DB000002B02D0BB6900221A70FB68002B01D0C7
:104DC00000221A700F4AF96942F82130002B11D0E5
:104DD000FB79012B10D107F10C0207F108031046F3
:104DE00019460022FFF704FD0346FB75FB7D04E036
:104DF0000B2302E0002300E0002318462037BD46C5
:104E000080BD00BF0C74081080B596B000AFF8608C
:104E1000B9601346FB71FB68002B00F08981FB68C9
:104E200000221A60FB7903F01F0387F84F30FB79EB
:104E300003F01E03DBB207F11C0107F1080208466C
:104E400011461A46FFF7D4FC034687F8573097F807
:104E50005730002B40F0698107F110037B63844BCE
:104E6000BB63BB6807F11C0210461946FFF7B0FB95
:104E7000034687F857303B6B3B6597F85730002B5C
:104E800005D13B6D002B02D1062387F85730FB7903
:104E900003F01C03DBB2002B00F0BD8097F8573005
:104EA000002B13D097F85730042B07D107F11C03C0
:104EB0001846FFF741FA034687F8573097F84F3006
:104EC00043F00803FB713B6B3B651DE03B6DDB7AF8
:104ED00003F01103DBB2002B0CD1FB7903F00403C8
:104EE000DBB2002B0DD097F84F30FB71082387F809
:104EF000573009E097F84F30FB71072387F8573098
:104F000002E097F84F30FB7197F85730002B40F0D4
:104F1000B480FB7903F00803DBB2002B00F0AD8016
:104F200008F006F8B864BB6CDAB23B6D9A73BB6CE0
:104F30009BB21B0A9BB2DAB23B6DDA73BB6C1B0CE3
:104F4000DAB23B6D1A74BB6C1B0EDAB23B6D5A744D
:104F50003B6D0022DA723B6D00221A773B6D002216
:104F60005A773B6D00229A773B6D0022DA77FB6916
:104F70001A78396DC97E090288B2396D897E01437C
:104F800089B289B27964032A0CD13A6D527D12023A
:104F900091B23A6D127D0A4392B292B21204796CC8
:104FA0000A437A643A6D002191763A6D0021D176F8
:104FB0003A6D002111753A6D0021517501221A7167
:104FC0007A6C002A59D0DA6ABA647A6C012A0BD951
:104FD0005A69796C91420BD21846796CFEF71CF82D
:104FE000034687F8573006E0022387F8573002E07F
:104FF000022387F8573097F85730002B3DD1FB69D3
:105000007A6C013ADA601846B96C01F07FFA03460F
:1050100087F8573031E097F85730002B18D13B6DA7
:10502000DB7A03F01002D2B2002A15D1FA7902F02D
:105030000202D2B2002A16D003F00103DBB2002B29
:1050400018D097F84F30FB71072387F8573014E0DA
:1050500097F84F30FB7110E097F84F30FB71042345
:1050600087F8573009E097F84F30FB7105E000BF33
:105070001474081097F84F30FB7197F85730002BD5
:1050800010D1FB7903F00803DBB2002B03D0FB79CE
:1050900043F02003FB71FB69DA6AFB68DA61FB68A5
:1050A0003A6D1A6297F85730002B3ED1FB68FA79B7
:1050B0009A71FB680022DA71FB691A78396DC97E32
:1050C000090288B2396D897E014389B289B2396497
:1050D000032A0CD13A6D527D120291B23A6D127DC3
:1050E0000A4392B292B21204396C0A433A64FA68E3
:1050F000396C11613A6DD27F11063A6D927F1204BC
:1051000011433A6D527F120211433A6D127F1143DF
:10511000FA68D160FA6800219160FA680021916113
:10512000FA681360DA88FB689A8097F8573000E0D5
:10513000092318465837BD4680BD00BF80B584B0EE
:1051400000AF012002F040F80C23FB7310E0FA7B63
:105150003B1D1046002101220AF022FAB860BB680C
:10516000002B02D13B79482B05D0FB7B0133FB732D
:10517000FB7B0F2BEBD9FB7B0F2B05D9A54806F04A
:1051800021F84FF0FF3340E1A34BFA7B83F82A204C
:1051900000233B71FA7B3B1D10460A2101220AF0D5
:1051A000CFF90346002B40F00781012005F00AFDEE
:1051B0000F233B71984B93F82A203B1D10460A2180
:1051C00001220AF0BDF90346002B40F0F8800120CF
:1051D00005F0F8FC904B93F82A203B1D1046102157
:1051E00003220AF0DDF90346002B40F0EB803B7907
:1051F00080339BB29AB2884B9A857B7980339BB27D
:105200009AB2854BDA85BB7980339BB29AB2824BD6
:105210001A8600233B71804B93F82A203B1D1046D1
:105220000A2101220AF08CF90346002B40F0CD80C0
:10523000012005F0C7FC002001F0C6FF40233B71B0
:10524000754B5B681978744B1B689A7E3B1D08464A
:10525000114601220AF074F90346002B40F0B88091
:105260006D4B93F82A3063F07F03DBB23B716A4BDE
:105270005B681978684B1B689A7F3B1D084611468E
:1052800001220AF05DF90346002B40F0A4800223BE
:105290003B71614B5B6819785F4B1B68DA7F3B1D84
:1052A0000846114601220AF04BF90346002B40F054
:1052B000958088233B71584B5B681978564B1B6867
:1052C00093F820203B1D0846114601220AF038F9C8
:1052D0000346002B40F085804F4B93F82A303B71FA
:1052E0004D4B5B6819784C4B1B6893F821203B1D94
:1052F0000846114601220AF023F90346002B73D118
:105300000A233B71444B5B681978434B1B6893F845
:1053100022203B1D0846114601220AF011F90346DE
:10532000002B64D181233B713B4B5B6819783A4B6E
:105330001B6893F823203B1D0846114601220AF002
:10534000FFF80346002B55D101233B71324B5B68BC
:105350001978314B1B6893F826203B1D08461146EF
:1053600001220AF0EDF80346002B46D103233B71DE
:10537000294B5B681978284B1B6893F827203B1D45
:105380000846114601220AF0DBF80346002B37D10C
:1053900080233B71204B5B6819781F4B1B6893F887
:1053A00029203B1D0846114601220AF0C9F8034690
:1053B000002B28D1002328E04FF0FF3325E04FF0E9
:1053C000FF3322E04FF0FF331FE04FF0FF331CE0CC
:1053D0004FF0FF3319E04FF0FF3316E04FF0FF338B
:1053E00013E04FF0FF3310E04FF0FF330DE04FF0CC
:1053F000FF330AE04FF0FF3307E04FF0FF3304E0E4
:105400004FF0FF3301E04FF0FF3318461037BD4631
:1054100080BD00BF30E3011A3060081090B587B03E
:1054200000AF786039603E4B9B7A03F00103DBB23A
:10543000002B61D03A4B5B681978394B1B6893F8A5
:10544000282007F10C030846114608220AF0A8F8A4
:105450000346002B53D13B7B03F00103DBB2002B4F
:1054600050D0FB7CDAB252B2002A4EDB03F040038C
:10547000DBB2002B4CD1BB7B1B029AB27B7B13436C
:1054800099B27B680A461A803B7C1B029AB2FB7B6E
:1054900013439AB27B6810465880BB7C1B0298B2BB
:1054A0007B7C03439BB278681C46848009B21C480D
:1054B000808D00B200FB01F1091288B27968088082
:1054C00012B21749C98D09B201FB02F2121291B250
:1054D0007A6851801BB2124A128E12B202FB03F399
:1054E0001B129AB27B689A803B68002B13D03868F5
:1054F00005F09AFB00230FE04FF0FF330CE04FF074
:10550000FF3309E06FF0010306E06FF0020303E0F0
:105510006FF0020300E0002318461C37BD4690BD23
:105520003060081080B483B000AF7860054B5B68D2
:105530009A897B681A80002318460C37BD465DF8AF
:10554000047B70473060081080B584B000AF03461C
:10555000FB71FB79002B02D00123FB7301E00023D8
:10556000FB730D4B5B6819780B4B1B685A7C07F17A
:105570000F0308461146012209F0E2FF0346002B03
:1055800004D1FA7B044B5A74002301E04FF0FF333F
:1055900018461037BD4680BD3060081080B584B015
:1055A00000AF0346FB80012001F0F4FE20233B7393
:1055B000FB88012B05D100237B73052001F026FB1E
:1055C00016E0FB88052B05D801237B73052001F02D
:1055D0001DFB0DE0FB88142B05D802237B730A20EA
:1055E00001F014FB04E003237B73142001F00EFB95
:1055F0007B7B9B01DBB243F00703DBB2DBB27B7347
:10560000114B5B681978104B1B685A7D07F10C032E
:1056100008461146022209F093FF0346002B0DD1E4
:10562000094B08229A72084B00221A73064B01227A
:105630001A75002001F00AFC002301E04FF0FF334F
:1056400018461037BD4680BD3060081080B588B060
:1056500000AF02460B46FA80BB80FB881B0A9BB258
:10566000DBB23B73FB88DBB27B730F4B5B68197853
:105670000D4B1B685A7F07F10C03084611460222A6
:1056800009F05EFF0346002B08D1074B012283F887
:105690002520054BBA88DA84002301E04FF0FF3360
:1056A00018462037BD4680BD3060081080B582B0F6
:1056B00000AF002002F0C8FE0B4B1B7CFB710A4BB5
:1056C0005B681A78FB1D10462321012209F038FF80
:1056D000054B002283F8242001F04AF800231846E5
:1056E0000837BD4680BD00BF3060081080B500AFF0
:1056F00040F6F63004494FF48062C82301F03CFFC5
:105700000346184680BD00BFE4D0011A80B588B0BA
:1057100000AF0346FB806A4A07F1140311889278B0
:1057200019809A70674A07F11003118892781980DE
:105730009A70654A07F10C031188927819809A7063
:10574000624A07F108031188927819809A70FB88E1
:1057500003F003039BB2194607F120030B4413F82F
:105760000C3C3B77FB88DB089BB203F003039BB246
:105770001A4607F12003134413F80C3C7B77FB888F
:105780009B099BB203F003039BB207F1200018446E
:1057900010F80C0CB87707F12000014411F8101C28
:1057A000397607F120010A4412F8102C7A7607F1B5
:1057B0002002134413F8103CBB7607F11C0340F29F
:1057C000264003211A4601F02BFE0346002B67D129
:1057D00007F1180340F22A4003211A4601F020FE87
:1057E0000346002B5FD107F11C0207F10C031046A2
:1057F0001946032213F066FE07F1180207F10803A9
:1058000010461946032213F05DFEFB8803F00403E3
:105810009BB2002B09D03B7F43F00103DBB23B7707
:105820003B7E43F00103DBB23B76FB8803F02003B1
:105830009BB2002B09D07B7F43F00103DBB27B7767
:105840007B7E43F00103DBB27B76FB8803F480733D
:105850009BB2002B09D0BB7F43F00103DBB2BB77C7
:10586000BB7E43F00103DBB2BB7607F11C034FF4B0
:10587000886003211A4601F0D3FD0346002B15D1A1
:1058800007F1180340F2314003211A4601F0C8FD28
:105890000346002B0DD10E4BFA881A8100230AE033
:1058A0004FF0FF3307E04FF0FF3304E04FF0FF33DA
:1058B00001E04FF0FF3318462037BD4680BD00BFE2
:1058C00044E3011A48E3011A4CE3011A50E3011AB8
:1058D000FC73081080B588B000AF0346FB80204AF7
:1058E00007F1100310685168926807C3FB88C82B42
:1058F00029D8FB88C82292FBF3F39BB2013BFB83C0
:10590000FB8B1B0A9BB2DBB23B72FB8BDBB27B7265
:1059100007F1080340F2162002211A4601F080FD2B
:105920000346002B12D107F1100340F6C1200C21D1
:105930001A4601F075FD0346002B0AD1094BFA887F
:105940009A81002307E04FF0FF3304E04FF0FF336C
:1059500001E04FF0FF3318462037BD4680BD00BF41
:1059600054E3011AFC73081080B586B000AF0246FC
:105970000B46FA71BB80FB7903F00703DBB2002B07
:1059800000F00081BB88B3F5C86F00F2FE80BB88D1
:1059900007EE903AB8EE677ADFED8A7AC7EE277A9B
:1059A000C7ED047A07F10B03184601F08BF8FB7A78
:1059B000023B0E2B00F2EC8001A252F823F000BF54
:1059C000FD59001A915B001A2B5A001A915B001ABC
:1059D000915B001A915B001A595A001A915B001AE8
:1059E000915B001A915B001A915B001A915B001A9F
:1059F000915B001A915B001A875A001A97ED047A9E
:105A0000DFED717A67EE277AFCEEE77A17EE903ACF
:105A1000FB8297ED047ADFED6D7A67EE277AFCEE74
:105A2000E77A17EE903ABB8243E097ED047ADFED18
:105A3000687A67EE277AFCEEE77A17EE903AFB82F7
:105A400097ED047ADFED637A67EE277AFCEEE77A6A
:105A500017EE903ABB822CE097ED047ADFED5E7A88
:105A600067EE277AFCEEE77A17EE903AFB8297ED25
:105A7000047ADFED5A7A67EE277AFCEEE77A17EEC2
:105A8000903ABB8215E097ED047ADFED557A67EE28
:105A9000277AFCEEE77A17EE903AFB8297ED047ACC
:105AA000DFED507A67EE277AFCEEE77A17EE903A50
:105AB000BB82FB8A1B0A9BB2DBB23B73FB8ADBB265
:105AC0007B73BB8A1B0A9BB2DBB2BB73BB8ADBB2A4
:105AD000FB73FB7903F00103DBB2002B16D007F157
