:0A13EF0000010202030304040505D7
:100B2B00C200C202C201120A59C2AF75240F752549
:100B3B0000752C0F752D1275220F75231C752A0F3E
:100B4B00752B3C752E0F752F5CD2E890E668E04450
:100B5B0009F090E65CE04435F0D2AF90E680E020FF
:100B6B00E105D2071211C490E680E054F7F0538EE2
:100B7B00F8C203120DCC300105120746C201300337
:100B8B00F21213F950EDC20312124A20001690E62E
:100B9B0082E030E704E020E1EF90E682E030E6040B
:0C0BAB00E020E0E41211F312139880C760
:020EFD00D322FE
:1007460090E6B9E070030207EE1470030208632412
:10075600FE70030208DE24FB70030207E814700330
:1007660002094914607614700302094924056003DE
:1007760002093D90E6BBE024FE602714603824FDA4
:10078600601114602724067050E52490E6B3F0E566
:1007960025803C120EFD503EE52C90E6B3F0E52D8B
:1007A600802DE52690E6B3F0E5278023E52890E640
:1007B600B3F0E529801990E6BAE0FF12121FAA06E7
:1007C600A9077B01EA494B600DEE90E6B3F0EF9086
:1007D600E6B4F00209490209380209381213D002B8
:1007E60009491213C002094990E6B8E0247F601552
:1007F60014601924027063A200E43325E0FFA2020C
:10080600E4334F8041E490E740F0803F90E6BCE05F
:10081600547EFF7E00E0D394807C0040047D0180FE
:10082600027D00EC4EFEED4F24EFF58274133EF58B
:1008360083E493FF3395E0FEEF24A1FFEE34E68FC9
:1008460082F583E0540190E740F0E4A3F090E68A55
:10085600F090E68B7402F002094902093890E6B876
:10086600E024FE60162402600302094990E6BAE01D
:10087600B40105C20002094902093890E6BAE070DF
:100886005590E6BCE0547EFF7E00E0D394807C0069
:1008960040047D0180027D00EC4EFEED4F24EFF515
:1008A6008274133EF583E493FF3395E0FEEF24A1B3
:1008B600FFEE34E68F82F583E054FEF090E6BCE06E
:1008C6005480131313541FFFE0540F2F90E683F048
:1008D600E04420F0806D805A90E6B8E024FE60196E
:1008E6002402704E90E6BAE0B40104D2008054901F
:1008F600E6BAE06402604C803990E6BCE0547EFFC4
:100906007E00E0D394807C0040047D0180027D005F
:10091600EC4EFEED4F24EFF58274133EF583E4931F
:10092600FF3395E0FEEF24A1FFEE34E68F82F583D8
:10093600800D90E6A08008120200500790E6A0E025
:0A0946004401F090E6A0E04480F0C8
:010950002284
:03003300020EF9C1
:040EF90053D8EF32A9
:100F000012010002000000402A150D8402000102B7
:100F100000010A0600020000004001000902200052
:100F2000010100804B0904000002FF0000000705DA
:100F3000810240000107058602000200090220002C
:100F400001010080960904000002FF00000007056F
:100F500081024000000705860240000004030904E6
:100F6000080349004E004900140353006500650062
:0E0F700042006500740074006500720000000D
:1011F30090E682E030E004E020E60B90E682E03007
:10120300E119E030E71590E680E04401F07F147EB9
:0C1213000012103D90E680E054FEF02236
:1011C40030070990E680E0440AF0800790E680E06A
:1011D4004408F07FDC7E0512103D90E65D74FFF05C
:0F11E40090E65FF05391EF90E680E054F7F02231
:02121F00A9071D
:10122100AE2EAF2F8F828E83A3E064037017AD01C2
:1012310019ED7001228F828E83E07C002FFDEC3E40
:08124100FEAF0580DFE4FEFFB3
:011249002282
:10124A0090E682E044C0F090E681F0438701000016
:04125A00000000226E
:10103D008E088F0990E600E054187012E50924011E
:10104D00FFE43508C313F508EF13F509801590E695
:10105D0000E05418FFBF100BE50925E0F509E50880
:10106D0033F508E5091509AE08700215084E60053F
:06107D0012125E80EE225B
:10125E007400F58690FDA57C05A3E582458370F9A3
:01126E00225D
:03004300020C00AC
:03005300020C009C
:100C000002133E000213820002136C00020BFF006D
:100C10000210BB000210F200020EFF0002140900D5
:100C200002140A0002140B0002140C0002140D003E
:100C300002140E0002140F0002141000021411001E
:100C4000021412000214090002141300021414000A
:100C500002141500021416000214170002141800E2
:100C600002141900021409000214090002140900F8
:100C700002141A0002141B0002141C0002141D00AE
:100C800002141E0002141F0002142000021421008E
:100C9000021422000214230002142400021425006E
:100CA000021426000214270002142800021429004E
:080CB00002142A0002142B00BB
:100BB7007E0874CF55B1F9741045B1FA74DF5AFA4B
:100BC700742045B1FB74EF5BFB743045B1FCEF3328
:100BD700FF40108BB10000000089B1000000008BBE
:100BE700B1800E8CB1000000008AB1000000008CBB
:080BF700B100000000DED7226E
:100F7E006061220000000000000000000000000080
:100F8E000000000000000000000000000000000053
:100F9E000000000000000000000000000000000043
:100FAE000000000000000000000000000000000033
:100FBE000000000000000000000000000000000023
:100FCE000000000000000000000000000000000013
:050FDE0000000000000E
:100A590090E600E054E74410F0E054FDF090E60120
:100A690074A3F053B17F75A80053E8E3000000E4D4
:100A790090E671F000000090E670F000000090E64A
:100A890072F075B40F75B6FF75B289F5A0F580756A
:100A9900B12043B10490E610F000000090E6117413
:100AA900B0F0000000E490E612F000000090E613B8
:100AB900F000000090E61474E0F0000000E490E615
:100AC90015F000000090E60B7403F090E62414F092
:100AD900E490E625F000000090E61A7409F00000A1
:100AE9000090E60274E8F0E4F53AF539F538F5379F
:100AF90043B12053B1EF43B10212140190E67A7465
:100B090001F0120E4B43E80253B1F7D288C2A8D2C2
:100B19008AC2AAC2041212D143B1807F647E000244
:020B2900103D7D
:100E4B00902263746BF0A37402F07A227B63FD7FB4
:100E5B0068121309902263741AF0A37401F07A22BA
:100E6B007B637D027F681213099022637419F0E48F
:100E7B00A3F07A227B637D027F68121309902263B1
:100E8B00741BF0A37408F07A227B637D027F6812D7
:100E9B001309902263741CF0A37408F07A227B630D
:070EAB007D027F68021309BC
:1012D100E4F58E75C80475CBFE75CA7043A820F578
:0C12E100CCF5CDF533F532F531F53022B7
:100DCC001212B3920530057690E6A2E06402606ED2
:100DDC0030AFFDC2ADAF33AE32AD31AC307818129E
:100DEC000D9390E7C1EFF0AF33AE32AD31AC30784C
:100DFC0010120D93A3EFF0AF33AE32AD31AC3078AF
:100E0C0008120D93A3EFF0A3E533F0D2AD9022635B
:100E1C00743BF07A227B637D017F681213097AE7B9
:100E2C007BC57D0E7F681212ED90E7C074FFF00059
:0E0E3C00000090E68F7413F00000001213E027
:010E4A002285
:1012B3009022657438F07A227B657D017F68121372
:0D12C300097A227B647D017F681212EDD351
:0112D00022FB
:0F13E00030040653B1BFC2042243B140D20422ED
:1013560053B1FDE4FFFE000FBF00010EEF64324EF5
:0513660070F443B10228
:01136B00225F
:1013AD00D283D287C287E4F533F532F531F5305368
:0313BD00B1FB225F
:1012930090E6047480F00000007406F0000000E49F
:1012A300F000000090E61A7409F0000000C28322E7
:10132500E4FE7D80C2A1EF5D24FF92A3D2A1C2A1FC
:08133500EDC313FD0EBE08EE2E
:01133D00228D
:040EB200AA06AC05DB
:100EB600E4FD7E000DEE2463F582E43422F583EA38
:100EC600F00E0D74632EF582E43422F583EFF00DF7
:100ED60074632402F582E43422F583ECF043B140D6
:100EE6007A227B637F5112130953B1BFC2047F512B
:030EF60002108364
:0A1129008E118F128D138A148B159E
:10113300E4F516E516C3951350200512E512AE111A
:101143007002051114FFE5152516F582E43514F533
:0A11530083E0FD120EB2051680D9EC
:01115D00226F
:0A0FE4008E118F128D138A148B15E5
:100FEE00E4FDE511FF7E000DEE2463F582E434226C
:100FFE00F583EFF00E0D74632EF582E43422F58343
:10100E00E512F07A227B637F51121309E4FFEFC3DE
:10101E0095135010E5152FF582E43514F58374CD34
:0F102E00F00F80EAAB15AA14AD137F510212ED3B
:0813F90053B17F53B1F7D32279
:1013980043B18043B108E4F5CCF5CDF533F532F52A
:0513A80031F530D322F5
:1013C000E490E740F090E68AF090E68B04F0D322B8
:1013D000E490E740F090E68AF090E68B04F0D322A8
:1002000090E6B9E0120DA605A5A205A5A30229B3A3
:10021000022FB4026EB8026EBA025EBB0581BC0545
:100220008EBD0235C4000007291213AD02072B1240
:10023000129302072B00000090E61A7401F00000F0
:100240000090E6047480F00000007406F0000000E6
:10025000E4F000000090E61A7409F002072BD28740
:10026000C287E4F533F532F531F53002072B000093
:100270000090E6BAE0FDA3E0FEEEFCA3E0FBA3E005
:10028000FEEEFAA3E0750800F509A3E0FEEE4208D1
:10029000AF05ED243A700302052924C5B4080040D7
:1002A000030205719002B275F003A4C58325F0C561
:1002B00083730202CA020331020450020452020391
:1002C000A50205710205710204C1902261E508F0E2
:1002D000A3E509F0E50945086055E490E68AF09049
:1002E000E68BF000000090E6A0E020E1F990E68BBC
:1002F000E0750A00F50BE4F50EF50FC3E50F950B5D
:10030000E50E950A501A7440250FF582E434E7F59E
:1003100083E0FF120BB7050FE50F70DF050E80DBE2
:10032000C3E509950BF509E508950AF50880A58050
:1003300062E490E68AF090E68BF0C28053B1FE0052
:10034000000090E6A0E020E1F990E68BE0750A005D
:10035000F50B90E740E0FF120BB753B1FD00000032
:1003600000000000000043B10243B101750E0075AA
:100370000F017440250FF582E434E7F583E0FF12A6
:100380000BB7050FE50F7002050EC39403E50E943D
:100390000040DF53B1FD00000000000000000043FA
:1003A000B102020573E490E68AF090E68BF000005B
:0803B0000090E6A0E020E1F955
:1003B80090E740E0139208E030E103D38001C39254
:1003C8000990E6BCE0F510A3E014602614603F1421
:1003D800605824037070E51030080442808003F4EC
:1003E8005280E510300906F452B202057342B20297
:1003F8000573E51030080442A08003F452A0E5100C
:10040800300906F452B402057342B4020573E510CC
:1004180030080442B08003F452B0E510300906F405
:1004280052B502057342B5020573E510300804425F
:10043800B18003F452B1E510300906F452B6020552
:080448007342B6020573D322D2
:10045000D322D280902261E508F0A3E509F0E509F6
:1004600045086055E490E68AF090E68BF0000000C5
:1004700090E6A0E020E1F990E68BE0750A00F50B2C
:10048000E4F50EF50FC3E50F950BE50E950A501A2E
:100490007440250FF582E434E7F583E0FF120BB7D3
:1004A000050FE50F70DF050E80DBC3E509950BF541
:1004B00009E508950AF50880A5121356C2800205C1
:1004C00073A2A09207C2A0E50945086052E490E635
:1004D0008AF090E68BF090E6A0E020E1F990E68BC0
:1004E000E0750A00F50BE4F50EF50FC3E50F950B6B
:1004F000E50E950A501A7440250FF582E434E7F5AD
:1005000083E0FF121325050FE50F70DF050E80DB7A
:10051000C3E509950BF509E508950AF50880A8C219
:10052000A2D2A2A20792A0804A00000090E6BAE000
:1005300024FE60100470367AE67BBB7D027F681271
:100540001309802B7AE67BBB7D017F68121309902B
:10055000E6A0E020E1F97AE77B427D017F68121294
:10056000EDE490E68AF090E68B04F08002D322C39B
:1005700022D322E490E68AF090E68BF01213E0C3D7
:100580002290E6BAE030E01753B1F702072B53B1DF
:10059000F700000000000000000000000000004321
:1005A000B10802072B90E6BAE0750C00F50DA3E048
:1005B000FEEE420C90E6BEE0750800F509A3E0FEF1
:1005C000EE420890E6B8E064C06003020691E509D7
:1005D0004508700302072790E6A0E020E1F9C3E593
:1005E000099440E5089400500885080A85090B80A5
:1005F00006750A00750B4090E6B9E0B4A335E4F542
:100600000EF50FC3E50F950BE50E950A505EE50D4F
:10061000250FF582E50C350EF583E0FF7440250FBC
:10062000F582E434E7F583EFF0050FE50F70D405AC
:100630000E80D0E4F50EF50FC3E50F950BE50E9592
:100640000A50187440250FF582E434E7F58374CD21
:10065000F0050FE50F70E1050E80DDAD0B7AE7794F
:10066000407F40AB07AF0DAE0C120FE4E490E68A7A
:10067000F090E68BE50BF0250DF50DE50A350CF550
:100680000CC3E509950BF509E508950AF50802057F
:10069000CE90E6B8E064406003020727E50945080C
:1006A0007003020727E490E68AF090E68BF090E66C
:1006B000A0E020E1F990E68BE0750A00F50B90E6EA
:1006C000B9E0B4A335E4F50EF50FC3E50F950BE5DE
:1006D0000E950A50367440250FF582E434E7F58311
:1006E000E0FFE50D250FF582E50C350EF583EFF003
:1006F000050FE50F70D4050E80D0AD0B7AE7794079
:100700007F40AB07AF0DAE0C121129E50B250DF59F
:100710000DE50A350CF50CC3E509950BF509E5085F
:10072000950AF50802069CC322D32290E6B9E09010
:10073000E740F0E490E68AF090E68B04F090E6A0C3
:05074000E04480F0C35D
:010745002291
:10126F00C0E0C0D0C2AFE5332464F533E43532F5C6
:10127F0032E43531F531E43530F530C2CFD2AFD06D
:04128F00D0D0E032A9
:10133E00C0E0C083C082D2015391EF90E65D74018C
:08134E00F0D082D083D0E03220
:10136C00C0E0C083C0825391EF90E65D7404F0D06E
:06137C0082D083D0E032B4
:10138200C0E0C083C0825391EF90E65D7402F0D05A
:0613920082D083D0E0329E
:1010BB00C0E0C083C08290E680E030E70E85222638
:1010CB00852327852A28852B29800C852A26852B85
:1010DB00278522288523295391EF90E65D7410F024
:0710EB00D082D083D0E03277
:010BFF0032C3
:1010F200C0E0C083C08290E680E030E70E85222601
:10110200852327852A28852B29800C852A26852B4D
:10111200278522288523295391EF90E65D7420F0DC
:07112200D082D083D0E0323F
:010EFF0032C0
:0114090032B0
:01140A0032AF
:01140B0032AE
:01140C0032AD
:01140D0032AC
:01140E0032AB
:01140F0032AA
:0114100032A9
:0114110032A8
:0114120032A7
:0114130032A6
:0114140032A5
:0114150032A4
:0114160032A3
:0114170032A2
:0114180032A1
:0114190032A0
:01141A00329F
:01141B00329E
:01141C00329D
:01141D00329C
:01141E00329B
:01141F00329A
:011420003299
:011421003298
:011422003297
:011423003296
:011424003295
:011425003294
:011426003293
:011427003292
:011428003291
:011429003290
:01142A00328F
:01142B00328E
:03002B0002126F4F
:08140100E4F51CD2E9D2AF2290
:10108300AD0790E678E020E6F9C2E990E678E0441F
:1010930080F0ED25E090E679F090E678E030E0F935
:1010A30090E678E04440F090E678E020E6F990E6B8
:0810B30078E030E1D6D2E92219
:10119200AC0790E678E020E6F9E51C702390E6784B
:1011A200E04480F0EC25E090E679F08D17AF03A9DA
:1011B200077518018A19891AE4F51B751C01D322D7
:0211C200C32246
:10115E00AC0790E678E020E6F9E51C702590E6787D
:10116E00E04480F0EC25E0440190E679F08D17AF75
:10117E0003A9077518018A19891AE4F51B751C0352
:04118E00D322C32283
:03004B0002095156
:10095100C0E0C083C082C085C084C086758600C0E7
:10096100D075D000C000C001C002C003C006C007DE
:1009710090E678E030E206751C06020A3B90E678C4
:10098100E020E10CE51C64026006751C07020A3BCD
:10099100E51C24FE605F14603624FE7003020A2CFD
:1009A10024FC7003020A3824086003020A3BAB18D6
:1009B100AA19A91AAF1B051B8F82758300120D445A
:1009C10090E679F0E51B65177070751C05806B90DA
:1009D100E679E0AB18AA19A91AAE1B8E82758300BD
:1009E100120D71751C02E5176401704E90E678E0F6
:1009F1004420F08045E51724FEB51B0790E678E01A
:100A01004420F0E51714B51B0A90E678E04440F065
:100A1100751C0090E679E0AB18AA19A91AAE1B8ED5
:100A210082758300120D71051B800F90E678E044FA
:100A310040F0751C008003751C005391DFD007D076
:100A410006D003D002D001D000D0D0D086D084D03F
:080A510085D082D083D0E03291
:1012ED0012115EE51C24FA600E146006240770F3DB
:0C12FD00D322E4F51CD322E4F51CD3221C
:10130900121192E51C24FA600E146006240770F38A
:0C131900D322E4F51CD322E4F51CD322FF
:03000000020CB837
:0C0CB800787FE4F6D8FD75813A020CFF4D
:100D4400BB010CE58229F582E5833AF583E0225064
:100D540006E92582F8E622BBFE06E92582F8E222AE
:0D0D6400E58229F582E5833AF583E49322C8
:100D7100F8BB010DE58229F582E5833AF583E8F0B8
:100D8100225006E92582C8F622BBFE05E92582C864
:020D9100F2224C
:100D9300E8600FECC313FCED13FDEE13FEEF13FF3E
:030DA300D8F12262
:100DA600D083D082F8E4937012740193700DA3A3DC
:100DB60093F8740193F5828883E4737402936860F0
:060DC600EFA3A3A380DFF0
:100CC400020B2BE493A3F8E493A34003F68001F210
:100CD40008DFF48029E493A3F85407240CC8C33331
:100CE400C4540F4420C8834004F456800146F6DF00
:100CF400E4800B0102040810204080900F7EE47E03
:100D0400019360BCA3FF543F30E509541FFEE493F4
:100D1400A360010ECF54C025E060A840B8E493A3BB
:100D2400FAE493A3F8E493A3C8C582C8CAC583CAE6
:100D3400F0A3C8C582C8CAC583CADFE9DEE780BE9E
:010FE300000D
:00000001FF
