:0A142B00000102020303040405059A
:100DB800C200C202C201120B74C2AF75240F75259E
:100DC80000752C0F752D1275220F75231C752A0FAF
:100DD800752B43752E0F752F6AD2E890E668E044AC
:100DE80009F090E65CE04435F0D2AF90E680E02070
:100DF800E105D204120ED090E680E054F7F0538E4D
:100E0800F8C203120C343001051206EBC20130039C
:100E1800F212143550EDC2031212C420001690E6E7
:100E280082E030E704E020E1EF90E682E030E6047B
:0C0E3800E020E0E412126D12143D80C7AF
:02145700D3229E
:1006EB0090E6B9E070030207931470030208082424
:1006FB00FE700302088324FB700302078D14700342
:10070B000208EE1460761470030208EE24056003F1
:10071B000208E290E6BBE024FE602714603824FD5B
:10072B00601114602724067050E52490E6B3F0E5C1
:10073B0025803C121457503EE52C90E6B3F0E52D86
:10074B00802DE52690E6B3F0E5278023E52890E69B
:10075B00B3F0E529801990E6BAE0FF121299AA06C8
:10076B00A9077B01EA494B600DEE90E6B3F0EF90E1
:10077B00E6B4F00208EE0208DD0208DD12140C02EA
:10078B0008EE1213FC0208EE90E6B8E0247F601529
:10079B0014601924027063A200E43325E0FFA20267
:1007AB00E4334F8041E490E740F0803F90E6BCE0BB
:1007BB00547EFF7E00E0D394807C0040047D01805A
:1007CB00027D00EC4EFEED4F242BF58274143EF5AA
:1007DB0083E493FF3395E0FEEF24A1FFEE34E68F25
:1007EB0082F583E0540190E740F0E4A3F090E68AB1
:1007FB00F090E68B7402F00208EE0208DD90E6B88A
:10080B00E024FE6016240260030208EE90E6BAE0D4
:10081B00B40105C2000208EE0208DD90E6BAE070F2
:10082B005590E6BCE0547EFF7E00E0D394807C00C4
:10083B0040047D0180027D00EC4EFEED4F242BF534
:10084B008274143EF583E493FF3395E0FEEF24A10D
:10085B00FFEE34E68F82F583E054FEF090E6BCE0C9
:10086B005480131313541FFFE0540F2F90E683F0A3
:10087B00E04420F0806D805A90E6B8E024FE6019C9
:10088B002402704E90E6BAE0B40104D2008054907A
:10089B00E6BAE06402604C803990E6BCE0547EFF1F
:1008AB007E00E0D394807C0040047D0180027D00BB
:1008BB00EC4EFEED4F242BF58274143EF583E4933E
:1008CB00FF3395E0FEEF24A1FFEE34E68F82F58334
:1008DB00800D90E6A08008120200500790E6A0E081
:0A08EB004401F090E6A0E04480F024
:0108F50022E0
:0300330002145361
:0414530053D8EF3249
:100F000012010002000000402A150D8402000102B7
:100F100000010A060002000000400100090227004B
:100F200001010080960904000003FF00000007058E
:100F30008103400000070502020002000705860247
:100F40000002000902270001010080960904000048
:100F500003FF0000000705810240000007050202B0
:100F6000400000070586024000000403090408034E
:100F700049004E004900140353006500650042001B
:0C0F800065007400740065007200000041
:10126D0090E682E030E004E020E60B90E682E0308C
:10127D00E119E030E71590E680E04401F07F147E3F
:0C128D00001210DA90E680E054FEF0221F
:100ED00030040990E680E0440AF0800790E680E064
:100EE0004408F07FDC7E051210DA90E65D74FFF0B6
:0F0EF00090E65FF05391EF90E680E054F7F02228
:02129900A907A3
:10129B00AE2EAF2F8F828E83A3E064037017AD0148
:1012AB0019ED7001228F828E83E07C002FFDEC3EC6
:0812BB00FEAF0580DFE4FEFF39
:0112C3002208
:1012C40090E682E044C0F090E681F043870100009C
:0412D40000000022F4
:1010DA008E088F0990E600E054187012E509240181
:1010EA00FFE43508C313F508EF13F509801590E6F8
:1010FA0000E05418FFBF100BE50925E0F509E508E3
:10110A0033F508E5091509AE08700215084E6005A1
:06111A001212D880EE2243
:1012D8007400F58690FDA57C05A3E582458370F929
:0112E80022E3
:03004300020D00AB
:03005300020D009B
:100D000002137E000213C2000213AC00020CFF00AB
:100D10000211640002119B00020EFF000214590030
:100D200002145A0002145B0002145C0002145D00FD
:100D300002145E0002145F000214600002146100DD
:100D400002146200021459000214630002146400C9
:100D500002146500021466000214670002146800A1
:100D600002146900021459000214590002145900B7
:100D700002146A0002146B0002146C0002146D006D
:100D800002146E0002146F0002147000021471004D
:100D9000021472000214730002147400021475002D
:100DA000021476000214770002147800021479000D
:080DB00002147A0002147B001A
:10104B007E0874CF55B1F9741045B1FA74DF5AFAB2
:10105B00742045B1FB74EF5BFB743045B1FCEF338F
:10106B00FF40108BB10000000089B1000000008B25
:10107B00B1800E8CB1000000008AB1000000008C22
:08108B00B100000000DED722D5
:100F8C006061220000000000000000000000000072
:100F9C000000000000000000000000000000000045
:100FAC000000000000000000000000000000000035
:100FBC000000000000000000000000000000000025
:100FCC000000000000000000000000000000000015
:100FDC000000000000000000000000000000000005
:050FEC00000000000000
:100B740090E600E054E74410F0E054FDF090E60104
:100B840074A3F075A80053E8E31213EC000000E42A
:100B940090E671F000000090E670F000000090E62E
:100BA40072F075B40F75B6FF75B289F5A0F580754E
:100BB400B12043B10490E610F000000090E61174F7
:100BC400A0F0000000E490E612F000000090E613AC
:100BD400F000000090E61474E0F0000000E490E6F9
:100BE40015F000000090E60B7403F090E62414F076
:100BF400E490E625F000000090E61A7409F0000085
:100C04000090E60274E8F0E4F53AF539F538F53782
:100C140043B12053B1EF43B1021214451213D85318
:100C2400B1F7D288C2A8D28AC2AAC20743B180222D
:1013D800902263746BF0A37402F07A227B63FD7F22
:0413E800680213493B
:1013EC00E4F58E75C80475CBFE75CA7043A820222F
:100C34007837120958E47B0AFAF9F8121120AC004B
:100C4400AD01AE02AF03EC4D4E4F707690E6A2E0DC
:040C54006402606E68
:100C5800902263743BF07A227B637D017F681213D4
:100C68004930AFFDC2ADAF33AE32AD31AC307818DC
:100C780012094590E7C1EFF0AF33AE32AD31AC3079
:100C88007810120945A3EFF0AF33AE32AD31AC3076
:100C98007808120945A3EFF0A3E533F0D2AD7AE75F
:100CA8007BC57D0E7F6812132D90E7C074FFF0009E
:0E0CB800000090E68F7413F000000012141C70
:010CC600220B
:0F141C0030070653B1BFC2072243B140D20722A7
:1013960053B1FDE4FFFE000FBF00010EEF64324EB5
:0513A60070F443B102E8
:0113AB00221F
:06144D00D28353B1FB2223
:10130D0090E6047480F00000007406F0000000E424
:10131D00F000000090E61A7409F0000000C283226C
:10136500E4FE7D80C2A1EF5D24FF92A3D2A1C2A1BC
:08137500EDC313FD0EBE08EEEE
:01137D00224D
:04109300AA06AC05F8
:10109700E4FD7E000DEE2463F582E43422F583EA55
:1010A700F00E0D74632EF582E43422F583EFF00D14
:1010B70074632402F582E43422F583ECF043B140F3
:1010C7007A227B637F5112134953B1BFC2077F5105
:0310D700020CC741
:0A11D2008E118F128D138A148B15F5
:1011DC00E4F516E516C3951350200512E512AE1171
:1011EC007002051114FFE5152516F582E43514F58A
:0A11FC0083E0FD121093051680D960
:0112060022C5
:0A0FF2008E118F128D138A148B15D7
:100FFC00E4FDE511FF7E000DEE2463F582E434225E
:10100C00F583EFF00E0D74632EF582E43422F58334
:10101C00E512F07A227B637F51121349E4FFEFC390
:10102C0095135010E5152FF582E43514F58374CD26
:0F103C00F00F80EAAB15AA14AD137F5102132DEC
:0814350053B17F53B1F7D3223C
:08143D0043B18043B108D32242
:1013FC00E490E740F090E68AF090E68B04F0D3227C
:10140C00E490E740F090E68AF090E68B04F0D3226B
:1002000090E6B9E0120978054AA2054AA30229B38B
:10021000022FB4026EB8026EBA025EBB0526BC05A0
:1002200033BD0235C4000006CE12144D0206D012B2
:10023000130D0206D000000090E61A7401F00000D1
:100240000090E6047480F00000007406F0000000E6
:10025000E4F000000090E61A7409F00206D0D2879C
:10026000C287E4F533F532F531F5300206D00000EF
:100270000090E6BAE0FDA3E0FEEEFCA3E0FBA3E005
:10028000FEEEFAA3E0750800F509A3E0FEEE4208D1
:10029000AF05ED24FE70030203211470030205165E
:1002A00014700302044014700302039524FD7003CC
:1002B0000204AE24076003020516902261E508F0EF
:1002C000A3E509F0E50945086055E490E68AF09059
:1002D000E68BF000000090E6A0E020E1F990E68BCC
:1002E000E0750A00F50BE4F50EF50FC3E50F950B6D
:1002F000E50E950A501A7440250FF582E434E7F5AF
:1003000083E0FF12104B050FE50F70DF050E80DB59
:10031000C3E509950BF509E508950AF50880A58060
:1003200062E490E68AF090E68BF0C28053B1FE0062
:10033000000090E6A0E020E1F990E68BE0750A006D
:10034000F50B90E740E0FF12104B53B1FD000000A9
:1003500000000000000043B10243B101750E0075BA
:100360000F017440250FF582E434E7F583E0FF12B6
:10037000104B050FE50F7002050EC39403E50E94B4
:100380000040DF53B1FD000000000000000000430A
:10039000B102020518E490E68AF090E68BF00000C6
:0803A0000090E6A0E020E1F965
:1003A80090E740E0139205E030E103D38001C39267
:1003B8000690E6BCE0F510A3E014602614603F1434
:1003C800605824037070E51030050442808003F4FF
:1003D8005280E510300606F452B202051842B20205
:1003E8000518E51030050442A08003F452A0E5107A
:1003F800300606F452B402051842B4020518E51096
:1004080030050442B08003F452B0E510300606F41B
:1004180052B502051842B5020518E5103005044228
:10042800B18003F452B1E510300606F452B6020565
:080438001842B6020518D32298
:10044000D280902261E508F0A3E509F0E5094508AE
:100450006055E490E68AF090E68BF000000090E6AC
:10046000A0E020E1F990E68BE0750A00F50BE4F5D9
:100470000EF50FC3E50F950BE50E950A501A744063
:10048000250FF582E434E7F583E0FF12104B050FEA
:10049000E50F70DF050E80DBC3E509950BF509E577
:1004A00008950AF50880A5121396C280806AA2A05A
:1004B0009204C2A0E50945086052E490E68AF090F3
:1004C000E68BF090E6A0E020E1F990E68BE0750A7B
:1004D00000F50BE4F50EF50FC3E50F950BE50E9552
:1004E0000A501A7440250FF582E434E7F583E0FFE3
:1004F000121365050FE50F70DF050E80DBC3E509FC
:10050000950BF509E508950AF50880A8C2A2D2A2C4
:10051000A20492A08002D322E490E68AF090E68BB7
:10052000F012141CC32290E6BAE030E01753B1F782
:100530000206D053B1F700000000000000000000E8
:100540000000000043B1080206D090E6BAE0750C46
:1005500000F50DA3E0FEEE420C90E6BEE07508004B
:10056000F509A3E0FEEE420890E6B8E064C060033F
:10057000020636E509450870030206CC90E6A0E0C5
:1005800020E1F9C3E5099440E50894005008850886
:100590000A85090B8006750A00750B4090E6B9E0E4
:1005A000B4A335E4F50EF50FC3E50F950BE50E95F5
:1005B0000A505EE50D250FF582E50C350EF583E05A
:1005C000FF7440250FF582E434E7F583EFF0050F63
:1005D000E50F70D4050E80D0E4F50EF50FC3E50FDE
:1005E000950BE50E950A50187440250FF582E434FA
:1005F000E7F58374CDF0050FE50F70E1050E80DDA2
:10060000AD0B7AE779407F40AB07AF0DAE0C120F10
:10061000F2E490E68AF090E68BE50BF0250DF50DFF
:10062000E50A350CF50CC3E509950BF509E50895C8
:100630000AF50802057390E6B8E06440600302061C
:10064000CCE509450870030206CCE490E68AF090F8
:10065000E68BF090E6A0E020E1F990E68BE0750AE9
:1006600000F50B90E6B9E0B4A335E4F50EF50FC341
:10067000E50F950BE50E950A50367440250FF5826F
:10068000E434E7F583E0FFE50D250FF582E50C3551
:100690000EF583EFF0050FE50F70D4050E80D0AD99
:1006A0000B7AE779407F40AB07AF0DAE0C1211D249
:1006B000E50B250DF50DE50A350CF50CC3E509959F
:1006C0000BF509E508950AF508020641C322D32275
:1006D00090E6B9E090E740F0E490E68AF090E68B8F
:0A06E00004F090E6A0E04480F0C3AF
:0106EA0022ED
:1012E900C0E0C0D0C2AFE5332464F533E43532F54C
:1012F90032E43531F531E43530F530C2CFD2AFD0F3
:04130900D0D0E0322E
:10137E00C0E0C083C082D2015391EF90E65D74014C
:08138E00F0D082D083D0E032E0
:1013AC00C0E0C083C0825391EF90E65D7404F0D02E
:0613BC0082D083D0E03274
:1013C200C0E0C083C0825391EF90E65D7402F0D01A
:0613D20082D083D0E0325E
:10116400C0E0C083C08290E680E030E70E8522268E
:10117400852327852A28852B29800C852A26852BDB
:10118400278522288523295391EF90E65D7410F07A
:07119400D082D083D0E032CD
:010CFF0032C2
:10119B00C0E0C083C08290E680E030E70E85222657
:1011AB00852327852A28852B29800C852A26852BA4
:1011BB00278522288523295391EF90E65D7420F033
:0711CB00D082D083D0E03296
:010EFF0032C0
:011459003260
:01145A00325F
:01145B00325E
:01145C00325D
:01145D00325C
:01145E00325B
:01145F00325A
:011460003259
:011461003258
:011462003257
:011463003256
:011464003255
:011465003254
:011466003253
:011467003252
:011468003251
:011469003250
:01146A00324F
:01146B00324E
:01146C00324D
:01146D00324C
:01146E00324B
:01146F00324A
:011470003249
:011471003248
:011472003247
:011473003246
:011474003245
:011475003244
:011476003243
:011477003242
:011478003241
:011479003240
:01147A00323F
:01147B00323E
:03002B000212E9D5
:08144500E4F51CD2E9D2AF224C
:100CC700AD0790E678E020E6F9C2E990E678E044DF
:100CD70080F0ED25E090E679F090E678E030E0F9F5
:100CE70090E678E04440F090E678E020E6F990E678
:080CF70078E030E1D6D2E922D9
:10123B00AC0790E678E020E6F9E51C702390E678A1
:10124B00E04480F0EC25E090E679F08D17AF03A930
:10125B00077518018A19891AE4F51B751C01D3222D
:02126B00C3229C
:10120700AC0790E678E020E6F9E51C702590E678D3
:10121700E04480F0EC25E0440190E679F08D17AFCB
:1012270003A9077518018A19891AE4F51B751C03A8
:04123700D322C322D9
:03004B00020A6C3A
:100A6C00C0E0C083C082C085C084C086758600C0CB
:100A7C00D075D000C000C001C002C003C006C007C2
:100A8C0090E678E030E206751C06020B5690E6788C
:100A9C00E020E10CE51C64026006751C07020B5695
:100AAC00E51C24FE605F14603624FE7003020B47C5
:100ABC0024FC7003020B5324086003020B56AB1882
:100ACC00AA19A91AAF1B051B8F827583001208F691
:100ADC0090E679F0E51B65177070751C05806B90BE
:100AEC00E679E0AB18AA19A91AAE1B8E82758300A1
:100AFC00120923751C02E5176401704E90E678E02C
:100B0C004420F08045E51724FEB51B0790E678E0FD
:100B1C004420F0E51714B51B0A90E678E04440F049
:100B2C00751C0090E679E0AB18AA19A91AAE1B8EB9
:100B3C0082758300120923051B800F90E678E04430
:100B4C0040F0751C008003751C005391DFD007D05A
:100B5C0006D003D002D001D000D0D0D086D084D023
:080B6C0085D082D083D0E03275
:10132D00121207E51C24FA600E146006240770F3F0
:0C133D00D322E4F51CD322E4F51CD322DB
:1013490012123BE51C24FA600E146006240770F3A0
:0C135900D322E4F51CD322E4F51CD322BF
:03000000020E44A9
:0C0E4400787FE4F6D8FD75813A020E8B31
:1008F600BB010CE58229F582E5833AF583E02250B7
:1009060006E92582F8E622BBFE06E92582F8E22200
:0D091600E58229F582E5833AF583E493221A
:10092300F8BB010DE58229F582E5833AF583E8F00A
:10093300225006E92582C8F622BBFE05E92582C8B6
:02094300F2229E
:10112000C2D5E830E70FB2D5E4C39BFBE49AFAE4FA
:1011300099F9E498F8EC30E717B2D5121156120974
:10114000DAE4C39BFBE49AFAE499F9E498F88003A3
:101150001209DA30D50DE4C39FFFE49EFEE49DFD45
:04116000E49CFC22ED
:10094500E8600FECC313FCED13FDEE13FEEF13FF90
:03095500D8F122B4
:100958007401FF3395E0FEFDFC080808E6CF2FF68A
:1009680018E6CE3EF618E6CD3DF618E6CC3CF62263
:10097800D083D082F8E4937012740193700DA3A30E
:1009880093F8740193F5828883E473740293686022
:06099800EFA3A3A380DF22
:100E5000020DB8E493A3F8E493A34003F68001F2F3
:100E600008DFF48029E493A3F85407240CC8C333A3
:100E7000C4540F4420C8834004F456800146F6DF72
:100E8000E4800B0102040810204080900F8CE47E67
:100E9000019360BCA3FF543F30E509541FFEE49367
:100EA000A360010ECF54C025E060A840B8E493A32E
:100EB000FAE493A3F8E493A3C8C582C8CAC583CA59
:100EC000F0A3C8C582C8CAC583CADFE9DEE780BE11
:010FF10000FF
:10099E0075F008758200EF2FFFEE33FECD33CDCC10
:1009AE0033CCC58233C5829BED9AEC99E582984093
:1009BE000CF582EE9BFEED9AFDEC99FC0FD5F0D670
:1009CE00E4CEFBE4CDFAE4CCF9A88222B800C1B99A
:1009DE000059BA002DEC8BF084CFCECDFCE5F0CBD8
:1009EE00F97818EF2FFFEE33FEED33FDEC33FCEB11
:1009FE0033FB10D703994004EB99FB0FD8E5E4F9CC
:100A0E00FA227818EF2FFFEE33FEED33FDEC33FCB8
:100A1E00C933C910D7059BE99A4007EC9BFCE99AAC
:100A2E00F90FD8E0E4C9FAE4CCFB2275F010EF2FF1
:100A3E00FFEE33FEED33FDCC33CCC833C810D707F1
:100A4E009BEC9AE899400AED9BFDEC9AFCE899F82C
:0E0A5E000FD5F0DAE4CDFBE4CCFAE4C8F922BF
:00000001FF
