:1019000012010002000000402A151C8400000102A0
:1019100003010A060002000000400100090219004C
:1019200001010080C80904000001FF000000070554
:1019300086020002000902190001010080C80904A2
:10194000000001FF000000070586024000000403BC
:101950000904080349004E004900160344005600DC
:101960005300310032003800200046005800320099
:101970001203300030003000300030003000300002
:041980003000000033
:03004300021400A4
:0300530002140094
:101400000221A5000221D3000221BD0002004A00F2
:10141000021EC700021EFE00020052000213FF005F
:101420000218FF0002229E0002229F000222A0005A
:101430000222A1000222A2000222A3000222A40092
:101440000222A5000213FF000222A6000222A7002A
:101450000222A8000222A9000222AA000222AB0056
:101460000222AC000213FF000213FF000213FF0070
:101470000222AD000222AE000222AF000222B00022
:101480000222B1000222B2000222B3000222B40002
:101490000222B5000222B6000222B7000222B800E2
:1014A0000222B9000222BA000222BB000222BC00C2
:0814B0000222BD000222BE0071
:0A226D00000102020303040405054A
:10175700C200C202C201121305C2AF750A19750B86
:101767000075121975131275081975091C7510196A
:1017770075113575141975154ED2E890E668E04471
:1017870009F090E65CE04435F0D2AF90E680E020C7
:10179700E105D20412000390E680E054F7F0538E7F
:1017A700F8C203121C44120032300105120A32C279
:1017B700013003F212004E50EDC2031220A62000A2
:1017C7001690E682E030E704E020E1EF90E682E061
:0F17D70030E604E020E0E4121FFE1213FB80C78F
:02229C00D3224B
:100A320090E6B9E07003020ADA147003020B4F2445
:100A4200FE7003020BCA24FB7003020AD414700363
:100A5200020C36146076147003020C36240560030F
:100A6200020C2A90E6BBE024FE602714603824FDC5
:100A7200601114602724067050E50A90E6B3F0E591
:100A82000B803C12229C503EE51290E6B3F0E51337
:100A9200802DE50C90E6B3F0E50D8023E50E90E69F
:100AA200B3F0E50F801990E6BAE0FF12202AAA06F9
:100AB200A9077B01EA494B600DEE90E6B3F0EF9097
:100AC200E6B4F0020C36020C25020C25122220029A
:100AD2000C36122210020C3690E6B8E0247F601524
:100AE20014601924027063A200E43325E0FFA2021D
:100AF200E4334F8041E490E740F0803F90E6BCE071
:100B0200547EFF7E00E0D394807C0040047D01800F
:100B1200027D00EC4EFEED4F246DF58274223EF50F
:100B220083E493FF3395E0FEEF24A1FFEE34E68FDA
:100B320082F583E0540190E740F0E4A3F090E68A66
:100B4200F090E68B7402F0020C36020C2590E6B8A7
:100B5200E024FE601624026003020C3690E6BAE03E
:100B6200B40105C200020C36020C2590E6BAE07010
:100B72005590E6BCE0547EFF7E00E0D394807C007A
:100B820040047D0180027D00EC4EFEED4F246DF5A8
:100B92008274223EF583E493FF3395E0FEEF24A1B5
:100BA200FFEE34E68F82F583E054FEF090E6BCE07F
:100BB2005480131313541FFFE0540F2F90E683F059
:100BC200E04420F0806E805B90E6B8E024FE601A7C
:100BD2002402704F90E6BAE0B40104D2008055902E
:100BE200E6BAE0B40202804C803990E6BCE0547E62
:100BF200FF7E00E0D394807C0040047D0180027D72
:100C020000EC4EFEED4F246DF58274223EF583E436
:100C120093FF3395E0FEEF24A1FFEE34E68F82F5D9
:100C220083800D90E6A0800812040E500790E6A083
:0B0C3200E04401F090E6A0E04480F0F8
:010C3D002294
:0300330002004682
:0400460053D8EF326A
:0B223E00412C2201412E2300011C0056
:1013050090E6007410F090E60174A3F000000090E0
:10131500E60B7403F000000090E609F00000009071
:10132500E60274E6F0000000E490E610F00000002C
:1013350090E611F000000090E612F000000090E643
:1013450013F000000090E61474E0F0000000E49053
:10135500E615F000000090E61A7409F090E6247492
:1013650002F0E490E625F090E63474C1F090E6359D
:1013750074F2F0000000E490E670F000000090E6E2
:1013850071F000000090E672F0F58075A00875B167
:101395002375B28875B40E75B63EF5A875E8E312E7
:1013A500229490E67AE04401F0D283E4F51C00052E
:0913B5001CE51CB414F8C28322EB
:1021100053B1EFE4FEEF30E70543B108800353B15C
:0F212000F743B11053B1EFEF25E0FF0EBE08E615
:01212F00228D
:0620EF00FF1220F5AF0511
:1020F500C2A2E4FEEF30E704D2A18002C2A1D2A2BF
:0A210500C2A2EF25E0FF0EBE08EABB
:01210F0022AD
:10213000E4FFC2A2FED2A230A0054307018000C284
:0E214000A2EE64076004EF25E0FF0EBE08E784
:01214E00226E
:0A1C97008E2B8F2C8D2D8A2E8B2FA3
:101CA100C287E4F530E530C3952D503AE52B902EEF
:101CB10024F0E52CA3F0E52F2530F582E4352EF54F
:101CC10083E0902E26F0D2877A2E7B247D037F51EC
:101CD1001221897F51121E8F052CE52C7002052BD4
:061CE100C287053080BF40
:011CE70022DA
:0A1D39008E2B8F2C8D2D8A2E8B2F00
:101D4300C287E52B902E2CF0EFA3F0D2877A2E7B5F
:101D53002C7D027F51122189C287E4FFEFC3952DA9
:101D63005010E52F2FF582E4352EF58374CDF00F57
:101D730080EAD287AB2FAA2EAD2D7F5112216DC2DF
:011D830087D8
:011D8400223C
:101C44007F0312202AEF2402FFE43EA90775210135
:101C5400F52289237A2E7B247D087FF87E7F121D4E
:101C640039E4FF74242FF582E4342EF583E0FEC3B7
:101C74009420401AEED3947E5014AB21AA22A923B7
:101C840075F002EFA4F58285F083EE1200D00FBF49
:021C940008D175
:011C9600222B
:0100320022AB
:04004E00D283D32264
:0413FB00C283D322B4
:10221000E490E740F090E68AF090E68B04F0D32259
:10222000E490E740F090E68AF090E68B04F0D32249
:10040E0000000090E6BAE0752100F522A3E0FEEEB2
:10041E004221A3E0FDA3E0FEEEFCA3E0752300F570
:10042E0024A3E0FEEE422390E6B8E05480FEA3E063
:10043E00FBEBFF8EF012025E05E700BD069200BEDA
:10044E00050300BF046E00C004DD00C104F000C24D
:10045E00063380BD077C80BE056C80BF0000079709
:10046E00E52445236055E490E68AF090E68BF00093
:10047E00000090E6A0E020E1F990E68BE075270001
:10048E00F528E4F525F526C3E5269528E5259527D7
:10049E00501A74402526F582E434E7F583E0FF1206
:1004AE0021100526E52670DF052580DBC3E52495A2
:1004BE0028F524E5239527F52380A553B1FDE4F512
:1004CE001C00051CE51CB432F843B102020630E5EF
:1004DE002264014521700553B1FB800343B1040230
:1004EE000630E52264014521700553B1DF800343D8
:1004FE00B120020630C2A3E522547F1220EFE5247C
:10050E0045236055E490E68AF090E68BF0000000FB
:10051E0090E6A0E020E1F990E68BE0752700F52843
:10052E00E4F525F526C3E5269528E5259527501AE9
:10053E0074402526F582E434E7F583E0FF1220F5BA
:10054E000526E52670DF052580DBC3E5249528F515
:10055E0024E5239527F52380A5D2A3020771C2A314
:10056E00E52244801220EFE5244523606790E6A043
:10057E00E020E1F9C3E5249440E52394005008857A
:10058E0023278524288006752700752840E4F52545
:10059E00F526C3E5269528E5259527501A12213014
:1005AE0074402526F582E434E7F583EFF00526E561
:1005BE002670DF052580DBE490E68AF090E68BE579
:1005CE0028F0000000C3E5249528F524E52395279F
:1005DE00F5238093D2A3020799E52445236043E4D3
:1005EE0090E68AF090E68BF000000090E6A0E02006
:1005FE00E1F990E68BE0752700F528FD7AE77B4060
:10060E00AF22AE21121C97E5282522F522E52735CB
:10061E0021F521C3E5249528F524E5239527F52317
:10062E0080B7020771E5244523700302079990E60F
:10063E00A0E020E1F9C3E5249440E523940050089E
:10064E008523278524288006752700752840AD2828
:10065E007AE77B40AF22AE21121D39E5282522F51F
:10066E0022E5273521F521E490E68AF090E68BE528
:10067E0028F0000000C3E5249528F524E5239527EE
:10068E00F52380A1902C22E0600E53A00F75B4BE0E
:10069E00122277E4902C22F0D3E5249400E52394E3
:1006AE0002401275B40E902E23740AF0902C227410
:1006BE0001F0020799E4F529F52A7B017A2C7923BA
:1006CE00122256E52445236074E490E68AF090E603
:1006DE008BF000000090E6A0E020E1F990E68BE0C0
:1006EE00752700F528E4F525F526C3E5269528E5BA
:1006FE00259527502D74402526F582E434E7F583A1
:10070E00E0FFE52A2526FDE5293525FC74232DF588
:10071E0082742C3CF583EFF00526E52670CC05257A
:10072E0080C8E528252AF52AE5273529F529C3E5C8
:10073E00249528F524E5239527F5238086E5224583
:10074E0021700A75B40E902C2204F08016122281AC
:10075E00902E23EFF0D39400400975B40E902C2206
:10076E007401F0E490E68AF090E68BF0801D90E73D
:10077E004074BEF0902E23E090E741F0E490E68ABC
:0C078E00F090E68B7402F08002D322C3CE
:01079A00223C
:1021A500C0E0C083C082D2015391EF90E65D740117
:0821B500F0D082D083D0E032AB
:1021BD00C0E0C083C0825391EF90E65D7404F0D00F
:0621CD0082D083D0E03255
:1021D300C0E0C083C0825391EF90E65D7402F0D0FB
:0621E30082D083D0E0323F
:101EC700C0E0C083C08290E680E030E70E85080C52
:101ED70085090D85100E85110F800C85100C851155
:101EE7000D85080E85090F5391EF90E65D7410F08C
:071EF700D082D083D0E0325D
:01004A003283
:101EFE00C0E0C083C08290E680E030E70E85080C1B
:101F0E0085090D85100E85110F800C85100C85111D
:101F1E000D85080E85090F5391EF90E65D7420F044
:071F2E00D082D083D0E03225
:01005200327B
:0113FF0032BB
:0118FF0032B6
:01229E00320D
:01229F00320C
:0122A000320B
:0122A100320A
:0122A2003209
:0122A3003208
:0122A4003207
:0122A5003206
:0122A6003205
:0122A7003204
:0122A8003203
:0122A9003202
:0122AA003201
:0122AB003200
:0122AC0032FF
:0122AD0032FE
:0122AE0032FD
:0122AF0032FC
:0122B00032FB
:0122B10032FA
:0122B20032F9
:0122B30032F8
:0122B40032F7
:0122B50032F6
:0122B60032F5
:0122B70032F4
:0122B80032F3
:0122B90032F2
:0122BA0032F1
:0122BB0032F0
:0122BC0032EF
:0122BD0032EE
:0122BE0032ED
:0D003600ED4C7005EFF452A022EF42A02225
:0C224A00E4FDFC7F201200360D0200367F
:10207F008B528A538954AB7DAA7EA97F057CE57C60
:10208F00AE7B7002057B14F5828E8312006FAB520C
:07209F00AA53A9540200BE80
:0C225600E4F57BF57C8B7D8A7E897F227D
:0B226200E5A05440C413135403FF22F6
:1020CB007C007D301200F2AB07AA06900000C3E53E
:1020DB00829BEA6480F8E583648098500612224A5A
:0320EB00A380EBE4
:0120EE0022CF
:101D8500FF228BFF2055FF1159FF1243FF1F69FFEB
:101D950021E9FF21E9FF2230FF1984FF156BFF219F
:101DA500E9FF21E9FF16BEFF16BEFF16BEFF161B93
:101DB500FF161BFF161BFF1E57FF1B7BFF1B7BFF21
:081DC5001061FF21FDFF14B8BD
:101BE800E41200BE9000011200D090000212023AE6
:101BF80000000000900006E4F5F012018690000B4A
:101C0800E41200D0900008E41200D090000974019A
:101C18001200D090000A74011200D0900010120235
:101C28003A00000000900014E4F5F01201869000DC
:0C1C38000C12023A00000000E4FEFF2243
:0E1FCD00902E24E0FCA3E0FDA3E0FEA3E0FFC5
:101FDB008F348E338D328C31E5342407FFE4353367
:101FEB00FEE43532FDE43531FCE47B08FAF9F812F6
:031FFB001E132290
:04214F007F017E008E
:10215300AD07AC067F10120036E4FDFC7F201200B1
:0A216300367D017C007F200200366B
:08079B00AB4DAA4EA94F7D01F0
:0807A3008B678A6889698D6A81
:1007AB00E4902E31F0A3F0E56A703C7F01FE12213C
:1007BB0053E4F56BF56CE4FDFC7F201200367D01F4
:1007CB007C007F20120036056CE56C7002056BC354
:1007DB009405E56B6480948040DCAB67AA68A969DB
:1007EB00E41200BE020A29AB67AA68A96912005677
:1007FB00FF656A601FE56AB40704EFB4060AE56A91
:10080B00B40E11EF640D600C902E31E4F0A374055F
:10081B00F0020A29E56AB5070EB40603020905E5DD
:10082B006AB40D030209C1AB67AA68A96912005625
:10083B00FF656A7003020A29EFB410004003020A35
:10084B0012900853F82828730208830208860208BE
:10085B00890208AF0208D30208E102090502091355
:10086B0002093702095B02096C02099002099E0218
:10087B0009C10209CE0209F002093C02094DE56AE1
:10088B00C39409400E12214FAB67AA68A96974097A
:10089B00020A23E4FFFE122153AB67AA68A969740D
:1008AB0003020A23E56AB40411E4FFFE122153ABE1
:1008BB0067AA68A9697404020A2312214FAB67AABD
:1008CB0068A9697405020A2312214FAB67AA68A9AC
:1008DB00697405020A23E56AB40611E4FFFE1221CE
:1008EB0053AB67AA68A9697406020A2312214FAB9E
:1008FB0067AA68A9697408020A2312214FAB67AA79
:10090B0068A9697407020A23E56AB40411E4FFFEBF
:10091B00122153AB67AA68A9697404020A23122136
:10092B004FAB67AA68A9697408020A23E56AB40188
:10093B0011E4FFFE122153AB67AA68A96974010287
:10094B000A2312214FAB67AA68A9697402020A2312
:10095B00E4FFFE122153AB67AA68A969740A020A65
:10096B0023E56AB40B11E4FFFE122153AB67AA68AF
:10097B00A969740B020A2312214FAB67AA68A969F4
:10098B00740C020A2312214FAB67AA68A969740C75
:10099B00020A23E56AB40D11E4FFFE122153AB6783
:1009AB00AA68A969740D020A2312214FAB67AA68C2
:1009BB00A969740F806212214FAB67AA68A9697489
:1009CB000E8055E56AB40B10E4FFFE122153AB67A2
:1009DB00AA68A969740B804012214FAB67AA68A95A
:1009EB0069740F8033E56AB40110E4FFFE122153E2
:1009FB00AB67AA68A9697401801E12214FAB67AA65
:100A0B0068A96974028011902E31E4F0A37405F08B
:100A1B00AB67AA68A969E56A1200BE020832902E7C
:060A2B0031E0FEA3E0FF34
:010A310022A2
:0E0DDC008F6A8E698D688C678B6B8A6C896D4F
:100DEA00757600757700757800E56F4570456E6019
:100DFA003C120104FFAB6EAA6FA970E5F08FF012E6
:100E0A000167AB6EE5702402F9E4356FFAC003C0DE
:100E1A0002C001AB6BAA6CA96D120104D001D00209
:100E2A00D00329F9EA35F08B76F5778978AB6BE54B
:100E3A006D2402F9E4356CFAC002C001AA6CA96DEE
:100E4A00120104D001D00229F9EA35F08B73F57446
:100E5A008975AF6AAE69AD68AC67EC4D4E4F7003E9
:100E6A00020F58AB73E57515757002157414F9AA5B
:100E7A0074120056902E31F0E4A3F0F579F57AAFAA
:100E8A006AAE69AD68AC67EC4D4E4F7003020F3322
:100E9A00C3E57A9408E579648094804003020F33AD
:100EAA0074FF2FF56AEE34FFF569ED34FFF568EC4F
:100EBA0034FFF567E57245716016AF6AAE69AD68D1
:100ECA00AC67EC4D4E4F70087D01FC7F1012003666
:100EDA00902E31E05401FD7C007F80120036902E66
:100EEA0031E0C313F0E4FDFC7F20120036E57745BC
:100EFA007845766020122262902E33EFF0902E32DF
:100F0A00E0FFAE7AA3E0FDA806088002C333D8FC4E
:100F1A004F902E32F07D017C007F20120036057A38
:100F2A00E57A70020579020E89E57745784576708B
:100F3A0003020E5C902E32E0FFAB76E578157870EE
:0E0F4A0002157714F9AA77EF1200BE020E5CB2
:010F58002276
:080C3E008B4D8A4E894F8D5049
:100C4600E4902E2AF0A3F0A3F0A3F0A3F0E55065FC
:100C5600617E0060047F0180027F00902E2FEEF0FF
:100C6600A3EFF0AF54AE53AD52AC51EC4D4E4F70B6
:100C76001EAF65AE64AD63AC62EC4D4E4F700302C1
:100C86000DA812079BAE64AF651220CB020DA8AB70
:100C96004DAA4EA94FAD501207A3AF54AE53AD5255
:100CA600AC5185586E85596F855A70902E2FE0F598
:100CB60071A3E0F572AB55AA56A957120DDCE55C97
:100CC600455D455B602D85586A85596B855A6C85EF
:100CD6005E6D855F6E85606FAB5BAA5CA95D121A5F
:100CE60004EF4E70047F0180027F00902E2CE4F00A
:100CF600A3EFF0902E2FE07002A3E07003020D8E9A
:100D0600AB4DAA4EA94F740112009C902E2CE07098
:100D160002A3E06050AF65AE64AD63AC62EC4D4ECD
:100D26004F6042902E2EE0C395665039AB4DAA4EC9
:100D3600A94F7D061207A3AB4DAA4EA94F7D0412FB
:100D460007A3AF65AE64AD63AC6278021201B3E58A
:100D5600652FF565E5643EF564E5633DF563E5629B
:100D66003CF562800BAB4DAA4EA94FAD611207A3AD
:100D7600AF65AE64AD63AC62EC4D4E4F600A1207D0
:100D86009BAE64AF651220CB902E2CE07002A3E0E0
:100D96006010902E2EE0FF04F0EFC395665003021C
:100DA6000C95902E2CE07002A3E06021E56660149D
:100DB600902E2EE0D39566400B902E2AE4F0A37475
:100DC60003F08009902E2AE4F0A37402F0902E2AF4
:050DD600E0FEA3E0FFB8
:010DDB0022F5
:101A84008B328A3389348F388E378D368C35AB3B25
:101A9400AA3CA93DAD3AAC391213BEE542454345D3
:101AA40041600DAB41AA42A943AD3AAC391213BE11
:101AB400853854853753853652853551853B558550
:101AC4003C56853D57853E58853F5985405A85414A
:101AD4005B85425C85435D85445E85455F854660E4
:101AE400854761854B65854A648549638548628578
:0E1AF4004C66AB32AA33A9347D04120C3E229C
:1021E900900006E475F00412018690000612012F92
:0421F900FFAEF02223
:09228B0074011200BEE4FEFF2202
:102055008B2E8A2F8930E9241FF9EA3406FAC0024B
:10206500C001AA2FA93090001412012FFDACF0D0A9
:0A20750001D0021213BEE4FEFF22A8
:061159008B2E8A2F893065
:10115F007B017A2E792412207F902E24E0FFE4FC6D
:10116F00FDFE121FDB902E25EEF0A3EFF0D39400BF
:10117F00EE648094824010AB2EAA2FA93090000607
:10118F00E475F006021230902E24E0FFE4FCFDFE21
:10119F00121FDBAC06AD07AB2EE5302416F9E43594
:1011AF002FFA1213BEAB2EE5302408F9E4352FFACF
:1011BF00C003C002C001902E24E0FFE48F54F5530A
:1011CF00F552F551E5302416F9E4352F8B55F556C8
:1011DF008957755800755900755A00755B00755C15
:1011EF0000755D00755E00755F00756000AA2FA920
:1011FF003090000912006FF56190000C1201DA8F28
:10120F00658E648D638C62E4F566D001D002D003E5
:10121F007D0B120C3EAB2EAA2FA930900006EE8F3D
:10122F00F0120186AB2EAA2FA93090000612012FC3
:03123F00FFAEF00F
:011242002289
:061061008B2E8A2F89305E
:10106700E92416F9E43AFA7D027C001213BEAB2E8E
:10107700E5302416F9E4352FFA121B02902E2412BC
:10108700022E121FCD902E28EEF0A3EFF0D394007E
:10109700EE648094824010AB2EAA2FA930900006F0
:1010A700E475F006021146121FCDAC06AD07AB2E54
:1010B700E5302416F9E4352FFA1213BEAB2EE530CE
:1010C7002408F9E4352FFAC003C002C001902E248A
:1010D700E0FCA3E0FDA3E0FEA3E0F5548E538D52A0
:1010E7008C51E5302416F9E4352F8B55F556895781
:1010F700755800755900755A00755B00755C007569
:101107005D00755E00755F00756000AA2FA93090BD
:10111700000912006FF56190000C1201DA8F658EDD
:10112700648D638C62E4F566D001D002D0037D0B39
:10113700120C3EAB2EAA2FA930900006EE8FF012AC
:101147000186AB2EAA2FA93090000612012FFFAE01
:01115700F0A7
:011158002274
:101243008B2E8A2F8930E92416F9E43AFAC002C0BA
:1012530001AA2FA93090001412012FFDACF0D00188
:10126300D0021213BEAB2EE5302408F9E4352FFA71
:10127300C003C002C001AA2FA9309000101201DAE6
:101283008F548E538D528C51E92416F9E43A8B55C1
:10129300F5568957E530241CF9EA34048B58F5597F
:1012A300895AE5302419F9EA34028B5BF55C895DD0
:1012B300E530241FF9EA34068B5EF55F8960A930B7
:1012C30090000A12006FF56190000C1201DA8F652D
:1012D3008E648D638C6290000B12006FF566D001F3
:1012E300D002D0037D04120C3EAB2EAA2FA930905E
:1012F3000006EE8FF012018690000612012FFFAE5A
:02130300F022D6
:101F69008B2E8A2F8930E92416F9E43AFA7D047C0C
:101F7900001213BEAB2EE5302416F9E4352FFA1200
:101F89001B02AB2EAA2FA93090000C12020AE4FE04
:021F9900FF2225
:0E223000E9240BF9E43AFA12207FE4FEFF22C3
:101984008B2E8A2F8930900006E4F5F0120186E947
:101994002416F9E43AFA7D047C001213BEAB2EE55A
:1019A400302416F9E4352FFA121B02AB2EAA2FA904
:1019B4003090001012020A9000101201DA121FDB9C
:1019C400AB2EAA2FA930900014EE8FF0120186904E
:1019D400001412012FD39400E5F064809482401027
:1019E400AB2EAA2FA930900006E475F006120186EA
:1019F400AB2EAA2FA93090000612012FFFAEF022C1
:10156B008B2E8A2F8930E92408F9E43AFAC003C09C
:10157B0002C001AA2FA9309000101201DAC004C0DA
:10158B0005C006C00790001412012FF53A85F039FB
:10159B00E92416F9E43A8B3BF53C893DE530241CF4
:1015AB00F9EA34048B3EF53F8940E5302419F9EA1A
:1015BB0034028B41F5428943E530241FF9EA3406A6
:1015CB008B44F5458946A93090000A12006FF54708
:1015DB0090000C1201DA8F4B8E4A8D498C4890008B
:1015EB000B12006FF54CD007D006D005D004D001FC
:1015FB00D002D003121A84AB2EAA2FA9309000066A
:10160B00EE8FF012018690000612012FFFAEF02232
:0616BE008B2E8A2F8930FB
:1016C40090000112006FB40E0990000A12006FFF1F
:1016D40080027F048F31AB2EE5302408F9E4352FE6
:1016E400FAC003C002C001AA2FA930900010120151
:1016F400DA90001412012FF53A85F039E92416F92D
:10170400E43A8B3BF53C893D753E00753F007540DE
:10171400007541007542007543007544007545002D
:10172400754600853147E4F54BF54AF549F548F52A
:101734004CD001D002D003121A84AB2EAA2FA930A8
:10174400900006EE8FF012018690000612012FFF22
:02175400AEF0F5
:011756002270
:06161B008B2E8A2F89309E
:1016210090000112006FB4110990000A12006FFFBF
:1016310080027F048F31AB2EE5302408F9E4352F89
:10164100FAC003C002C001AA2FA9309000101201F4
:10165100DA90001412012FF53A85F039E92416F9D0
:10166100E43A8B3BF53C893DE530241CF9EA34042E
:101671008B3EF53F8940E5302419F9EA34028B416C
:10168100F54289437544007545007546008531472B
:10169100E4F54BF54AF549F548F54CD001D002D0B7
:1016A10003121A84AB2EAA2FA930900006EE8FF0F8
:0C16B10012018690000612012FFFAEF01F
:0116BD00220A
:061E57008B2E8A2F89305A
:101E5D007B007A00793112207FAB2EE5302408F912
:101E6D00E4352FFAAD311207A3AB2EAA2FA930906E
:101E7D000006EE8FF012018690000612012FFFAEC4
:011E8D00F064
:011E8E002231
:061B7B008B2E8A2F893039
:101B8100900006E4F5F01201867B007A00793112AB
:101B9100207FE531601664016012AB2EAA2FA930B7
:101BA100900006E475F005120186802BAB2EAA2F5A
:101BB100A93090000112006FB4130DE531900009B6
:101BC1007002800B740D800CE53190000A700304E3
:101BD100800274061200D0AB2EAA2FA93090000605
:061BE10012012FFFAEF01F
:011BE70022DB
:1021FD00900006E4F5F012018690000612012FFF03
:03220D00AEF0220E
:0614B8008B2E8A2F893003
:1014BE00E92416F9E43AFA7D017C001213BEAB2E34
:1014CE00AA2FA93090001812006F902E24F0E92454
:1014DE0016F9E43AFA7D017C001213BEAB2EAA2F48
:1014EE00A93090001812006F902E25F0E92416F9FD
:1014FE00E43AFA7D047C001213BEAB2EE5302416BE
:10150E00F9E4352FFA121B02902E2612022EAB2E64
:10151E00AA2FA93090000812006FFF902E24E0FD34
:10152E006F600AE92408F9E43AFA1207A3902E260E
:10153E00A3A3E0FEA3E0FF1220CBAB2EAA2FA9306F
:10154E0090000812006FFF902E25E0FD6F600AE9F3
:0C155E002408F9E43AFA1207A3E4FEFFA7
:01156A00225E
:101CE8008B2B8A2C892D121BE8AB2BAA2CA92D90A3
:101CF8000006EE8FF012018690000612012F45F0C3
:101D0800701FAB2BE52D2408F9E4352CFAE4FD12FD
:101D180007A3AB2BAA2CA92D900006EE8FF0120179
:101D280086AB2BAA2CA92D90000612012FFFAEF02E
:011D38002288
:1017E6008B2B8A2C892D90000612012F45F0706DE7
:1017F6001200567068E92401F9E43AFA12207FAB28
:101806002BAA2CA92D9000021201DAE4FAF9F8EFBE
:101816002401FFEA3EFEE93DFDE83CFCAA2CA92D89
:1018260090000212020A90000112006FFFC3941882
:10183600AB2BAA2CA92D5022C002EF75F003A424CD
:1018460085F582E4341DF583740193FA740293F5E9
:10185600828A83D00212028F80031221E9AB2BAA5F
:0D1866002CA92D90000612012FFFAEF022DC
:0A2277007B017A247900121CE82292
:0A2281007B017A2479001217E6228F
:061B02008B318A328933A9
:101B0800E4F537F536F535F534F538F539AB31AA5E
:101B180032A933120104FFC3E5399FE5F06480F868
:101B2800E5386480985043AF37AE36AD35AC34787D
:101B3800081201C78F378E368D358C34E92402F9A7
:101B4800E43AFAE92539F9EA3538FA120056FFE598
:101B5800374FF537E536F536E535F535E534F534FF
:101B68000539E53970A7053880A3AF37AE36AD35EE
:021B7800AC348B
:011B7A002248
:061A04008B678A68896906
:101A0A00757000757101120104FFAEF0E571457041
:101A1A006063EF1FAC0670011E4C6059AB67E56945
:101A2A002402F9E43568FAE92FF9EA3EFA12005677
:101A3A00F572AB6AE56C2402F9E4356BFAE92FF921
:101A4A00EA3EFA120056F573E56E456F456D601869
:101A5A00AB6DE56F2402F9E4356EFAE92FF9EA3E37
:101A6A00FA12005652725273E5726573609EE4F57B
:091A7A0070F5718097AE70AF7138
:011A83002240
:0413BE008C4D8D4E77
:1013C200E54D854EF0120167E92402F9E43A8B4FAC
:1013D200F5508951E54E454D601EAB4FAA50A951BB
:1013E20012207FE54E154E7002154D74012551F500
:0813F20051E43550F55080DC98
:0113FA0022D0
:101FFE0090E682E030E004E020E60B90E682E030EE
:10200E00E119E030E71590E680E04401F07F147EA0
:0C201E0000121DCD90E680E054FEF02280
:1000030030040990E680E0440AF0800790E680E03F
:100013004408F07FDC7E05121DCD90E65D74FFF091
:0F00230090E65FF05391EF90E680E054F7F02203
:08229400E4F51BD2E9D2AF22F0
:101E8F00AD0790E678E020E6F9C2E990E678E04405
:101E9F0080F0ED25E090E679F090E678E030E0F91B
:101EAF0090E678E04440F090E678E020E6F990E69E
:081EBF0078E030E1D6D2E922FF
:101F9B00AC0790E678E020E6F9E51B702390E67835
:101FAB00E04480F0EC25E090E679F08D16AF03A9C4
:101FBB00077517018A188919E4F51A751B01D322C5
:021FCB00C3222F
:101F3500AC0790E678E020E6F9E51B702590E67899
:101F4500E04480F0EC25E0440190E679F08D16AF91
:101F550003A9077517018A188919E4F51A751B0372
:041F6500D322C3229E
:03004B00020F5948
:100F5900C0E0C083C082C085C084C086758600C0D9
:100F6900D075D000C000C001C002C003C006C007D0
:100F790090E678E030E206751B0602104390E678A9
:100F8900E020E10CE51B64026006751B07021043B3
:100F9900E51B24FE605F14603624FE7003021034E2
:100FA90024FC700302104024086003021043AB17AD
:100FB900AA18A919AF1A051A8F8275830012006F32
:100FC90090E679F0E51A65167070751B05806B90CF
:100FD900E679E0AB17AA18A919AE1A8E82758300B3
:100FE9001200D0751B02E5166401704E90E678E098
:100FF9004420F08045E51624FEB51A0790E678E00E
:101009004420F0E51614B51A0A90E678E04440F059
:10101900751B0090E679E0AB17AA18A919AE1A8ECC
:10102900827583001200D0051A800F90E678E0449B
:1010390040F0751B008003751B005391DFD007D06A
:1010490006D003D002D001D000D0D0D086D084D031
:0810590085D082D083D0E03283
:02202A00A90704
:10202C00AE14AF158F828E83A3E064037017AD01DD
:10203C0019ED7001228F828E83E07C002FFDEC3E27
:08204C00FEAF0580DFE4FEFF9A
:012054002269
:10216D00121F35E51B24FA600E146006240770F368
:0C217D00D322E4F51BD322E4F51BD3228F
:10218900121F9BE51B24FA600E146006240770F3E6
:0C219900D322E4F51BD322E4F51BD32273
:1020A60090E682E044C0F090E681F04387010000AC
:0420B6000000002204
:101DCD008E218F2290E600E054187012E522240136
:101DDD00FFE43521C313F521EF13F522801590E6AD
:101DED0000E05418FFBF100BE52225E0F522E52198
:101DFD0033F521E5221522AE21700215214E600525
:061E0D001220BA80EE2253
:1020BA007400F58690FDA57C05A3E582458370F939
:0120CA0022F3
:0300000002187370
:0C187300787FE4F6D8FD75817F0218BA7A
:10005600BB010689828A83E0225002E722BBFE02A8
:09006600E32289828A83E49322DB
:10006F00BB010CE58229F582E5833AF583E0225046
:10007F0006E92582F8E622BBFE06E92582F8E22290
:0D008F00E58229F582E5833AF583E49322AA
:10009C00BB010989828A83F8E028F022500327F7F4
:1000AC0022BBFE05F8E328F3228A838982F8E493C5
:0200BC002822F8
:1000BE00BB010689828A83F0225002F722BBFE0121
:0200CE00F3221B
:1000D000F8BB010DE58229F582E5833AF583E8F066
:1000E000225006E92582C8F622BBFE05E92582C812
:0200F000F222FA
:1000F200EF8DF0A4A8F0CF8CF0A428CE8DF0A42E22
:02010200FE22DB
:10010400BB010A89828A83E0F5F0A3E022500687C6
:10011400F009E71922BBFE07E3F5F009E319228988
:0B012400828A83E493F5F074019322BB
:10012F00BB0110E58229F582E5833AF583E0F5F00E
:10013F00A3E0225009E92582F886F008E622BBFEEB
:10014F000AE92582F8E2F5F008E222E5832AF58331
:08015F00E993F5F0A3E99322F6
:10016700BB010A89828A83F0E5F0A3F0225006F7E3
:0F01770009A7F01922BBFE06F3E5F009F31922E0
:10018600F8BB0111E58229F582E5833AF583E8F0AB
:10019600E5F0A3F0225009E92582C8F608A6F02268
:0D01A600BBFE09E92582C8F2E5F008F2224F
:101E1300C2D5E830E70FB2D5E4C39BFBE49AFAE4FA
:101E230099F9E498F8EC30E717B2D5121E4912027B
:101E3300CDE4C39BFBE49AFAE499F9E498F88003B0
:101E43001202CD30D50DE4C39FFFE49EFEE49DFD59
:041E5300E49CFC22ED
:1001B300E86010ECA2E713FCED13FDEE13FEEF1362
:0401C300FFD8F0224F
:1001C700E8600FEFC333FFEE33FEED33FDEC33FC96
:0301D700D8F1223A
:1001DA00BB010DE58229F582E5833AF58302036BBB
:1001EA005007E92582F802035FBBFE07E92582F87A
:1001FA00020377E58229F582E5833AF583020383D0
:10020A00BB010DE58229F582E5833AF58302022EC8
:10021A005007E92582F8020393BBFE07E92582F815
:04022A0002039F220A
:0C022E00ECF0A3EDF0A3EEF0A3EFF02243
:10023A00BB010DE58229F582E5833AF5830203C401
:10024A005007E92582F80203ABBBFE07E92582F8CD
:04025A000203F52284
:10025E00D083D082F8E4937012740193700DA3A32F
:10026E0093F8740193F5828883E473740293B5F066
:0D027E00067403936860E9A3A3A3A380D8CE
:06028B008A838982E473FE
:10187F00021757E493A3F8E493A34003F68001F211
:10188F0008DFF48029E493A3F85407240CC8C3336A
:10189F00C4540F4420C8834004F456800146F6DF39
:1018AF00E4800B010204081020408090223EE47E69
:1018BF00019360BCA3FF543F30E509541FFEE4932E
:1018CF00A360010ECF54C025E060A840B8E493A3F5
:1018DF00FAE493A3F8E493A3C8C582C8CAC583CA20
:1018EF00F0A3C8C582C8CAC583CADFE9DEE780BED8
:012249000094
:1002910075F008758200EF2FFFEE33FECD33CDCC24
:1002A10033CCC58233C5829BED9AEC99E5829840A7
:1002B1000CF582EE9BFEED9AFDEC99FC0FD5F0D684
:1002C100E4CEFBE4CDFAE4CCF9A88222B800C1B9AE
:1002D1000059BA002DEC8BF084CFCECDFCE5F0CBEC
:1002E100F97818EF2FFFEE33FEED33FDEC33FCEB25
:1002F10033FB10D703994004EB99FB0FD8E5E4F9E0
:10030100FA227818EF2FFFEE33FEED33FDEC33FCCC
:10031100C933C910D7059BE99A4007EC9BFCE99AC0
:10032100F90FD8E0E4C9FAE4CCFB2275F010EF2F05
:10033100FFEE33FEED33FDCC33CCC833C810D70705
:100341009BEC9AE899400AED9BFDEC9AFCE899F840
:0E0351000FD5F0DAE4CDFBE4CCFAE4C8F922D3
:0C035F00E6FC08E6FD08E6FE08E6FF22CA
:0C036B00E0FCA3E0FDA3E0FEA3E0FF2205
:0C037700E2FC08E2FD08E2FE08E2FF22C2
:10038300E493FC740193FD740293FE740393FF22C0
:0C039300ECF608EDF608EEF608EFF62296
:0C039F00ECF208EDF208EEF208EFF2229A
:1003AB00D083D082E493F608740193F60874029319
:0903BB00F608740393F674047350
:1003C400A8828583F0D083D0821203DB1203DB1270
:1003D40003DB1203DBE473E493A3C583C5F0C58395
:1003E400C8C582C8F0A3C583C5F0C583C8C582C883
:0103F40022E6
:1003F500D083D082E493F208740193F208740293D7
:09040500F208740393F27404730D
:00000001FF
