:1019000012010002000000402A151C8400000102A0
:1019100003010A060002000000400100090219004C
:1019200001010080C80904000001FF000000070554
:1019300086020002000902190001010080C80904A2
:10194000000001FF000000070586024000000403BC
:101950000904080349004E004900160344005600DC
:101960005300310032003800200046005800320099
:101970001203300030003000300030003000300002
:041980003000000033
:03004300021400A4
:0300530002140094
:101400000220BE000220EC000220D60002004A00AA
:10141000021DB500021DEC00020052000218FF0080
:101420000221AB000221AC000221AD000221AE007E
:101430000221AF000221B0000221B1000221B2005E
:101440000221B3000218FF000221B4000221B500FE
:101450000221B6000221B7000221B8000221B90022
:101460000221BA000218FF000218FF000218FF0054
:101470000221BB000221BC000221BD000221BE00EE
:101480000221BF000221C0000221C1000221C200CE
:101490000221C3000221C4000221C5000221C600AE
:1014A0000221C7000221C8000221C9000221CA008E
:0814B0000221CB000221CC0057
:0A217A00000102020303040405053E
:10168F00C200C202C201121254C2AF750A19750B01
:10169F000075121975131275081975091C75101933
:1016AF0075113575141975154ED2E890E668E0443A
:1016BF0009F090E65CE04435F0D2AF90E680E02090
:1016CF00E105D20512000390E680E054F7F0538E47
:1016DF00F8C2031213B8120032300105120A07C202
:1016EF00013003F212004E50EDC203121FBF200053
:1016FF001690E682E030E704E020E1EF90E682E02A
:0F170F0030E604E020E0E4121EEE1218FB80C763
:0221A900D3223F
:100A070090E6B9E07003020AAF147003020B2424C6
:100A1700FE7003020B9F24FB7003020AA9147003E4
:100A2700020C0B146076147003020C0B2405600390
:100A3700020BFF90E6BBE024FE602714603824FD1C
:100A4700601114602724067050E50A90E6B3F0E5BC
:100A57000B803C1221A9503EE51290E6B3F0E51356
:100A6700802DE50C90E6B3F0E50D8023E50E90E6CA
:100A7700B3F0E50F801990E6BAE0FF121F1AAA0635
:100A8700A9077B01EA494B600DEE90E6B3F0EF90C2
:100A9700E6B4F0020C0B020BFA020BFA1221390230
:100AA7000C0B122129020C0B90E6B8E0247F60158D
:100AB70014601924027063A200E43325E0FFA20248
:100AC700E4334F8041E490E740F0803F90E6BCE09C
:100AD700547EFF7E00E0D394807C0040047D01803B
:100AE700027D00EC4EFEED4F247AF58274213EF52F
:100AF70083E493FF3395E0FEEF24A1FFEE34E68F06
:100B070082F583E0540190E740F0E4A3F090E68A91
:100B1700F090E68B7402F0020C0B020BFA90E6B829
:100B2700E024FE601624026003020C0B90E6BAE094
:100B3700B40105C200020C0B020BFA90E6BAE07092
:100B47005590E6BCE0547EFF7E00E0D394807C00A5
:100B570040047D0180027D00EC4EFEED4F247AF5C6
:100B67008274213EF583E493FF3395E0FEEF24A1E1
:100B7700FFEE34E68F82F583E054FEF090E6BCE0AA
:100B87005480131313541FFFE0540F2F90E683F084
:100B9700E04420F0806E805B90E6B8E024FE601AA7
:100BA7002402704F90E6BAE0B40104D20080559059
:100BB700E6BAE0B40202804C803990E6BCE0547E8D
:100BC700FF7E00E0D394807C0040047D0180027D9D
:100BD70000EC4EFEED4F247AF58274213EF583E456
:100BE70093FF3395E0FEEF24A1FFEE34E68F82F505
:100BF70083800D90E6A0800812040E500790E6A0AF
:0B0C0700E04401F090E6A0E04480F023
:010C120022BF
:0300330002004682
:0400460053D8EF326A
:081BB900C184011D00011C00A4
:1012540090E6007410F090E60174A3F00000009092
:10126400E60B7403F000000090E609F00000009023
:10127400E60274E6F0000000E490E610F0000000DE
:1012840090E611F000000090E612F000000090E6F5
:1012940013F000000090E61474E0F0000000E49005
:1012A400E615F000000090E61A7409F090E6247444
:1012B40002F0E490E625F090E63474C1F090E6354F
:1012C40074F2F0000000E490E670F000000090E694
:1012D40071F000000090E672F0F58075A00875B119
:1012E4002375B28875B40E75B63EF5A875E8E31299
:1012F40021A190E67AE04401F0D283E4F51C0005D4
:091304001CE51CB414F8C283229C
:1020290053B1EFE4FEEF30E70543B108800353B144
:0F203900F743B11053B1EFEF25E0FF0EBE08E6FD
:012048002275
:06200800FF12200EAF05DF
:10200E00C2A2E4FEEF30E704D2A18002C2A1D2A2A6
:0A201E00C2A2EF25E0FF0EBE08EAA3
:012028002295
:10204900E4FFC2A2FED2A230A0054307018000C26C
:0E205900A2EE64076004EF25E0FF0EBE08E76C
:012067002256
:0A1C0E008E2B8F2C8D2D8A2E8B2F2C
:101C1800C287E4F530E530C3952D503AE52B901492
:101C28006AF0E52CA3F0E52F2530F582E4352EF592
:101C380083E090146CF0D2877A147B6A7D037F511D
:101C48001220A27F51121D7D052CE52C7002052B58
:061C5800C287053080BFC9
:011C5E002263
:0A1CB0008E2B8F2C8D2D8A2E8B2F8A
:101CBA00C287E52B901472F0EFA3F0D2877A147BD7
:101CCA00727D027F511220A2C287E4FFEFC3952DD5
:101CDA005010E52F2FF582E4352EF58374CDF00FE1
:101CEA0080EAD287AB2FAA2EAD2D7F51122086C251
:011CFA008762
:011CFB0022C6
:1013B8007F03121F1AEF2402FFE43EA907752101DB
:1013C800F52289237A147B6A7D087FF87E7F121CB8
:1013D800B0E4FF746A2FF582E43414F583E0FEABC1
:1013E80021AA22A92375F002EFA4F58285F083EEE5
:0713F8001200D00FBF08DC5A
:0113FF0022CB
:0100320022AB
:04004E00D283D32264
:0418FB00C283D322AF
:10212900E490E740F090E68AF090E68B04F0D32241
:10213900E490E740F090E68AF090E68B04F0D32231
:10040E0000000090E6BAE0752100F522A3E0FEEEB2
:10041E004221A3E0FDA3E0FEEEFCA3E0752300F570
:10042E0024A3E0FEEE422390E6B8E05480FEA3E063
:10043E00FBEBFF8EF012025205E700BD069200BEE6
:10044E00050300BF046E00C004DD00C104F000C24D
:10045E00063380BD076280BE056C80BF0000077941
:10046E00E52445236055E490E68AF090E68BF00093
:10047E00000090E6A0E020E1F990E68BE075270001
:10048E00F528E4F525F526C3E5269528E5259527D7
:10049E00501A74402526F582E434E7F583E0FF1206
:1004AE0020290526E52670DF052580DBC3E524958A
:1004BE0028F524E5239527F52380A553B1FDE4F512
:1004CE001C00051CE51CB432F843B102020630E5EF
:1004DE002264014521700553B1FB800343B1040230
:1004EE000630E52264014521700553B1DF800343D8
:1004FE00B120020630C2A3E522547F122008E52463
:10050E0045236055E490E68AF090E68BF0000000FB
:10051E0090E6A0E020E1F990E68BE0752700F52843
:10052E00E4F525F526C3E5269528E5259527501AE9
:10053E0074402526F582E434E7F583E0FF12200EA1
:10054E000526E52670DF052580DBC3E5249528F515
:10055E0024E5239527F52380A5D2A3020757C2A32E
:10056E00E5224480122008E5244523606790E6A02A
:10057E00E020E1F9C3E5249440E52394005008857A
:10058E0023278524288006752700752840E4F52545
:10059E00F526C3E5269528E5259527501A122049FC
:1005AE0074402526F582E434E7F583EFF00526E561
:1005BE002670DF052580DBE490E68AF090E68BE579
:1005CE0028F0000000C3E5249528F524E52395279F
:1005DE00F5238093D2A302077BE52445236043E4F1
:1005EE0090E68AF090E68BF000000090E6A0E02006
:1005FE00E1F990E68BE0752700F528FD7AE77B4060
:10060E00AF22AE21121C0EE5282522F522E5273554
:10061E0021F521C3E5249528F524E5239527F52317
:10062E0080B7020757E5244523700302077B90E647
:10063E00A0E020E1F9C3E5249440E523940050089E
:10064E008523278524288006752700752840AD2828
:10065E007AE77B40AF22AE21121CB0E5282522F5A9
:10066E0022E5273521F521E490E68AF090E68BE528
:10067E0028F0000000C3E5249528F524E5239527EE
:10068E00F52380A130040B53A00F75B4BE12218444
:10069E00C204D3E5249400E5239404400B75B40EF4
:1006AE00751D0AD20402077BE4F529F52A7B017A2F
:1006BE0010796A122163E52445236074E490E68A7A
:1006CE00F090E68BF000000090E6A0E020E1F990BB
:1006DE00E68BE0752700F528E4F525F526C3E5261B
:1006EE009528E5259527502D74402526F582E4346E
:1006FE00E7F583E0FFE52A2526FDE5293525FC747F
:10070E006A2DF58274103CF583EFF00526E5267010
:10071E00CC052580C8E528252AF52AE5273529F5B3
:10072E0029C3E5249528F524E5239527F52380860E
:10073E00E52245217002800C12218E8F1DE51DD3FE
:10074E009400400575B40ED204E490E68AF090E66B
:10075E008BF0801990E74074BEF0A3E51DF0E49095
:0E076E00E68AF090E68B7402F08002D322C37C
:01077C00225A
:1020BE00C0E0C083C082D2015391EF90E65D7401FF
:0820CE00F0D082D083D0E03293
:1020D600C0E0C083C0825391EF90E65D7404F0D0F7
:0620E60082D083D0E0323D
:1020EC00C0E0C083C0825391EF90E65D7402F0D0E3
:0620FC0082D083D0E03227
:101DB500C0E0C083C08290E680E030E70E85080C65
:101DC50085090D85100E85110F800C85100C851168
:101DD5000D85080E85090F5391EF90E65D7410F09F
:071DE500D082D083D0E03270
:01004A003283
:101DEC00C0E0C083C08290E680E030E70E85080C2E
:101DFC0085090D85100E85110F800C85100C851131
:101E0C000D85080E85090F5391EF90E65D7420F057
:071E1C00D082D083D0E03238
:01005200327B
:0118FF0032B6
:0121AB003201
:0121AC003200
:0121AD0032FF
:0121AE0032FE
:0121AF0032FD
:0121B00032FC
:0121B10032FB
:0121B20032FA
:0121B30032F9
:0121B40032F8
:0121B50032F7
:0121B60032F6
:0121B70032F5
:0121B80032F4
:0121B90032F3
:0121BA0032F2
:0121BB0032F1
:0121BC0032F0
:0121BD0032EF
:0121BE0032EE
:0121BF0032ED
:0121C00032EC
:0121C10032EB
:0121C20032EA
:0121C30032E9
:0121C40032E8
:0121C50032E7
:0121C60032E6
:0121C70032E5
:0121C80032E4
:0121C90032E3
:0121CA0032E2
:0121CB0032E1
:0121CC0032E0
:0D003600ED4C7005EFF452A022EF42A02225
:0C215700E4FDFC7F201200360D02003673
:101F98008B458A468947AB79AA7AA97B0578E57883
:101FA800AE777002057714F5828E8312006FAB4509
:071FB800AA46A9470200BE82
:0C216300E4F577F5788B798A7A897B2285
:0B216F00E5A05440C413135403FF22EA
:101FE4007C007D301200F2AB07AA06900000C3E526
:101FF400829BEA6480F8E583648098500612215736
:03200400A380EBCB
:0120070022B6
:101BC10060480000FF2198FF1F45FF10D0FF1197CB
:101BD100FF1E8AFF2102FF2102FF2149FF1A7BFF1D
:101BE100130DFF2102FF2102FF15FBFF15FBFF155E
:101BF100FBFF155DFF155DFF155DFF1E57FF1AF316
:0C1C0100FF1AF3FF0FE4FF2116FF14B8D8
:101B5D00E41200BE9000011200D090000212022E7D
:101B6D0000000000900006E4F5F012018690000BD5
:101B7D00E41200D0900008E41200D0900009740126
:101B8D001200D090000A74011200D09000101202C1
:101B9D002E00000000900014E4F5F0120186900074
:0C1BAD000C12022E00000000E4FEFF22DB
:061F6F00AF24E4FCFDFEBE
:101F75008F2D8E2C8D2B8C2AE52D2407FFE4352CF7
:101F8500FEE4352BFDE4352AFCE47B08FAF9F8126A
:031F95001CFC220F
:042068007F017E0076
:10206C00AD07AC067F10120036E4FDFC7F20120099
:0A207C00367D017C007F2002003653
:08077D00AB40AA41A9427D0135
:080785008B618A6289638D64B7
:10078D00E4F567F568E564703C7F01FE12206CE4CA
:10079D00F565F566E4FDFC7F201200367D017C00D9
:1007AD007F201200360566E56670020565C3940567
:1007BD00E5656480948040DCAB61AA62A963E412B4
:1007CD0000BE020A02AB61AA62A963120056FF6560
:1007DD0064601CE564B40704EFB4060AE564B40E66
:1007ED000EEF640D6009756700756805020A02E574
:1007FD0064B5070EB406030208E2E564B40D030206
:10080D00099DAB61AA62A963120056FF656470036E
:10081D00020A02EFB4100040030209EE900830F80E
:10082D0028287302086002086302086602088C0219
:10083D0008B00208BE0208E20208F002091402091B
:10084D003802094902096D02097B02099D0209AAB4
:10085D000209CC02091902092AE564C39409400E64
:10086D00122068AB61AA62A96374090209FCE4FF56
:10087D00FE12206CAB61AA62A96374030209FCE548
:10088D0064B40411E4FFFE12206CAB61AA62A9638B
:10089D0074040209FC122068AB61AA62A963740595
:1008AD000209FC122068AB61AA62A96374050209F2
:1008BD00FCE564B40611E4FFFE12206CAB61AA6284
:1008CD00A96374060209FC122068AB61AA62A963D0
:1008DD0074080209FC122068AB61AA62A96374074F
:1008ED000209FCE564B40411E4FFFE12206CAB6157
:1008FD00AA62A96374040209FC122068AB61AA62A2
:10090D00A96374080209FCE564B40111E4FFFE1249
:10091D00206CAB61AA62A96374010209FC12206804
:10092D00AB61AA62A96374020209FCE4FFFE122006
:10093D006CAB61AA62A963740A0209FCE564B40B8D
:10094D0011E4FFFE12206CAB61AA62A963740B0265
:10095D0009FC122068AB61AA62A963740C0209FC40
:10096D00122068AB61AA62A963740C0209FCE564EC
:10097D00B40D10E4FFFE12206CAB61AA62A9637482
:10098D000D806C122068AB61AA62A963740F805F41
:10099D00122068AB61AA62A963740E8052E564B43B
:1009AD000B10E4FFFE12206CAB61AA62A963740BFD
:1009BD00803D122068AB61AA62A963740F8030E597
:1009CD0064B40110E4FFFE12206CAB61AA62A9634E
:1009DD007401801B122068AB61AA62A96374028046
:1009ED000E756700756805AB61AA62A963E56412AF
:0909FD0000BE02080FAE67AF68EE
:010A060022CD
:0E0D7A008F648E638D628C618B658A668967DB
:100D8800757000757100757200E569456A4568609F
:100D98003C120104FFAB68AA69A96AE5F08FF0125A
:100DA8000167AB68E56A2402F9E43569FAC003C053
:100DB80002C001AB65AA66A967120104D001D0027E
:100DC800D00329F9EA35F08B70F5718972AB65E5C6
:100DD800672402F9E43566FAC002C001AA66A96769
:100DE800120104D001D00229F9EA35F08B6DF56EB5
:100DF800896FAF64AE63AD62AC61EC4D4E4F70036A
:100E0800020EDBAB6DE56F156F7002156E14F9AA53
:100E18006E120056F573E4F574F575F576AF64AEA9
:100E280063AD62AC61EC4D4E4F7003020EBAC3E580
:100E3800769408E57564809480507774FF2FF56484
:100E4800EE34FFF563ED34FFF562EC34FFF561E550
:100E58006C456B6016AF64AE63AD62AC61EC4D4E31
:100E68004F70087D01FC7F10120036E5735401FDB8
:100E78007C007F80120036E573C313F573E4FDFC34
:100E88007F20120036E57145724570601112216F9E
:100E9800AE76EFA806088002C333D8FC42747D0101
:100EA8007C007F201200360576E576700205750213
:100EB8000E25E571457245707003020DFAAB70E5B9
:100EC8007215727002157114F9AA71E5741200BED8
:030ED800020DFA0E
:010EDB0022F4
:080C13008B408A4189428D43A8
:100C1B00E4F55AF55BF55CF55DF55EE54365547EF1
:100C2B000060047F0180027F008E5F8F60AF47AE54
:100C3B0046AD45AC44EC4D4E4F701EAF58AE57AD64
:100C4B0056AC55EC4D4E4F7003020D5612077DAE50
:100C5B0057AF58121FE4020D56AB40AA41A942AD43
:100C6B0043120785AF47AE46AD45AC44854B68850F
:100C7B004C69854D6A855F6B85606CAB48AA49A949
:100C8B004A120D7AE54F4550454E602A854B6485D7
:100C9B004C65854D66855167855268855369AB4EAA
:100CAB00AA4FA950121835EF4E70047F0180027FB6
:100CBB0000755C008F5DE560455F607CAB40AA41D1
:100CCB00A942740112009CE55D455C6048AF58AECB
:100CDB0057AD56AC55EC4D4E4F603AE55EC395594A
:100CEB0050337D06120785AB40AA41A9427D041201
:100CFB000785AF58AE57AD56AC5578021201B3E528
:100D0B00582FF558E5573EF557E5563DF556E55541
:100D1B003CF555800BAB40AA41A942AD5412078557
:100D2B00AF58AE57AD56AC55EC4D4E4F600A12074F
:100D3B007DAE57AF58121FE4E55D455C600DAF5EAD
:100D4B00055EEFC395595003020C64E55D455C608D
:100D5B0019E559600FE55ED395594008755A007532
:0E0D6B005B038006755A00755B02AE5AAF5BE3
:010D79002257
:101984008B258A2689278F2B8E2A8D298C28AB2E8E
:10199400AA2FA930AD2DAC2C121D40E53545364596
:1019A40034600DAB34AA35A936AD2DAC2C121D40D4
:1019B400852B47852A46852945852844852E4885D3
:1019C4002F4985304A85314B85324C85334D8534DA
:1019D4004E85354F85365085375185385285395374
:1019E400853A54853E58853D57853C56853B5585FB
:0E19F4003F59AB25AA26A9277D04120C132209
:10210200900006E475F00412018690000612012F79
:04211200FFAEF0220A
:0921980074011200BEE4FEFF22F6
:101F45008B218A228923E9241FF9EA340CFAC0027D
:101F5500C001AA22A92390001412012FFDACF0D0D4
:0A1F650001D002121D40E4FEFF222D
:0610D0008B218A22892316
:1010D6007B007A007924121F98121F6FD3EF9400B9
:1010E600EE64809484400975250075260602117BFE
:1010F600121F6FAC06AD07AB21E5232416F9E435C4
:1011060022FA121D40AB21E5232408F9E43522FA20
:10111600C003C002C001E4852447F546F545F54401
:10112600E5232416F9E435228B48F549894A754B9F
:1011360000754C00754D00754E00754F00755000DA
:10114600755100755200755300AA22A92390000913
:1011560012006FF55490000C1201DA8F588E578DDD
:10116600568C55E4F559D001D002D0037D0B120CF4
:10117600138E258F26E52645256011AB21AA22A9C7
:1011860023900006E5258526F0120186AE25AF26BA
:011196002236
:060FE4008B218A22892303
:100FEA00E92416F9E43AFA7D027C00121D40AB218D
:100FFA00E5232416F9E43522FA121A028F278E26DF
:10100A008D258C24121F75D3EF9400EE648094848E
:10101A0040097528007529060210B4AF27AE26AD1F
:10102A0025AC24121F75AC06AD07AB21E5232416A7
:10103A00F9E43522FA121D40AB21E5232408F9E42C
:10104A003522FAC003C002C0018527478526468596
:10105A002545852444E5232416F9E435228B48F5F1
:10106A0049894A754B00754C00754D00754E0075DF
:10107A004F00755000755100755200755300AA2231
:10108A00A92390000912006FF55490000C1201DA9E
:10109A008F588E578D568C55E4F559D001D002D011
:1010AA00037D0B120C138E288F29E5294528601120
:1010BA00AB21AA22A923900006E5288529F012016E
:0510CA0086AE28AF29ED
:0110CF0022FE
:061197008B218A2289234E
:10119D00E92416F9E43AFAC002C001AA22A9239063
:1011AD00001412012FFDACF0D001D002121D40AB86
:1011BD0021E5232408F9E43522FAC003C002C00159
:1011CD00AA22A9239000101201DA8F478E468D4571
:1011DD008C44E92416F9E43A8B48F549894AE5230C
:1011ED00241CF9EA34088B4BF54C894DE523241961
:1011FD00F9EA34048B4EF54F8950E523241FF9EAA3
:10120D00340C8B51F5528953A92390000A12006FAB
:10121D00F55490000C1201DA8F588E578D568C555F
:10122D0090000B12006FF559D001D002D0037D0450
:10123D00120C13EF4E600FAB21AA22A923900006CA
:06124D00EE8FF012018695
:011253002278
:101E8A008B218A228923E92416F9E43AFA7D047C13
:101E9A0000121D40AB21E5232416F9E43522FA127B
:101EAA001A02AB21AA22A92390000C12020AE4FE0C
:021EBA00FF2205
:0E214900E9240BF9E43AFA121F98E4FEFF2293
:061A7B008B218A22892361
:101A8100E4F524F525E92416F9E43AFA7D047C000D
:101A9100121D40AB21E5232416F9E43522FA121A6E
:101AA10002AB21AA22A92390001012020A90001071
:101AB1001201DA121F75AB21AA22A923900014EE9C
:101AC1008FF012018690001412012FD39400E5F0DB
:101AD100648094844017752400752506AB21AA22E1
:101AE100A923900006E5248525F0120186AE24AFD6
:011AF10025CF
:011AF20022D1
:06130D008B218A228923D6
:10131300E92408F9E43AFAC003C002C001AA22A9E9
:10132300239000101201DAC004C005C006C0079064
:10133300001412012FF52D85F02CE92416F9E43A57
:101343008B2EF52F8930E523241CF9EA34088B31E1
:10135300F5328933E5232419F9EA34048B34F5355E
:101363008936E523241FF9EA340C8B37F53889399C
:10137300A92390000A12006FF53A90000C1201DACB
:101383008F3E8E3D8D3C8C3B90000B12006FF53FE2
:10139300D007D006D005D004D001D002D003121953
:1013A30084EF4E600FAB21AA22A923900006EE8F93
:0413B300F0120186AD
:0113B7002213
:0615FB008B218A228923E6
:1016010090000112006FB40E0990000A12006FFFE2
:1016110080027F048F24AB21E5232408F9E43522DD
:10162100FAC003C002C001AA22A92390001012012E
:10163100DA90001412012FF52D85F02CE92416F90A
:10164100E43A8B2EF52F89307531007532007533F0
:101651000075340075350075360075370075380032
:1016610075390085243AE4F53EF53DF53CF53BF549
:101671003FD001D002D003121984EF4E600FAB218D
:0D168100AA22A923900006EE8FF012018628
:01168E002239
:06155D008B218A22892384
:1015630090000112006FB4110990000A12006FFF7E
:1015730080027F048F24AB21E5232408F9E435227C
:10158300FAC003C002C001AA22A9239000101201CD
:10159300DA90001412012FF52D85F02CE92416F9A9
:1015A300E43A8B2EF52F8930E523241CF9EA34081D
:1015B3008B31F5328933E5232419F9EA34048B346A
:1015C300F535893675370075380075390085243A45
:1015D300E4F53EF53DF53CF53BF53FD001D002D0B7
:1015E30003121984EF4E600FAB21AA22A9239000A6
:0715F30006EE8FF0120186E5
:0115FA0022CE
:061E57008B218A22892381
:101E5D007B007A007924121F98AB21E5232408F921
:101E6D00E43522FAAD24120785EF4E600FAB21AA9F
:0C1E7D0022A923900006EE8FF0120186CF
:011E89002236
:061AF3008B218A228923E9
:101AF900E4F524F525FB7A007926121F98E526607E
:101B09000C64016008752400752505802BAB21AA9A
:101B190022A92390000112006FB4130DE52690004D
:101B2900097002800B740D800CE52690000A700381
:101B390004800274061200D0E52545246011AB210A
:101B4900AA22A923900006E5248525F0120186AE74
:031B590024AF2591
:011B5C002266
:10211600900006E4F5F012018690000612012FFFEA
:03212600AEF022F6
:0614B8008B218A2289232A
:1014BE00E92416F9E43AFA7D017C00121D40AB21B5
:1014CE00AA22A92390001812006FF524E92416F918
:1014DE00E43AFA7D017C00121D40AB21AA22A92319
:1014EE0090001812006FF525E92416F9E43AFA7DFA
:1014FE00047C00121D40AB21E5232416F9E43522AD
:10150E00FA121A028F298E288D278C26AB21AA2239
:10151E00A92390000812006F6524600CE92408F9D5
:10152E00E43AFAAD24120785AE28AF29121FE4ABB8
:10153E0021AA22A92390000812006F6525600CE9EC
:0E154E002408F9E43AFAAD25120785E4FEFF01
:01155C00226C
:101C5F008B2B8A2C892D121B5DAB2BAA2CA92D90B7
:101C6F000006EE8FF012018690000612012F45F04C
:101C7F00701FAB2BE52D2408F9E4352CFAE4FD1287
:101C8F000785AB2BAA2CA92D900006EE8FF0120121
:101C9F0086AB2BAA2CA92D90000612012FFFAEF0B8
:011CAF002212
:1017AA008B2B8A2C892D90000612012F45F0706B25
:1017BA001200567066E92401F9E43AFA121F98AB4E
:1017CA002BAA2CA92D9000021201DAE4FAF9F8EFFB
:1017DA002401FFEA3EFEE93DFDE83CFCAA2CA92DC6
:1017EA0090000212020A90000112006FFFC39418BF
:1017FA00AB2BAA2CA92D5020C002EF75F003A4240C
:10180A0000F582E43400F583A3E0FAA3E0F5828AC6
:10181A0083D0021202838003122102AB2BAA2CA9C5
:0B182A002D90000612012FFFAEF022EF
:0A2184007B017A007948121C5F22EB
:0A218E007B017A0079481217AA229B
:061A02008B2A8A2B892CBF
:101A0800E4F530F52FF52EF52DF531F532AB2AAA90
:101A18002BA92C120104FFC3E5329FE5F06480F87E
:101A2800E5316480985043AF30AE2FAD2EAC2D78A1
:101A3800081201C78F308E2F8D2E8C2DE92402F9C4
:101A4800E43AFAE92532F9EA3531FA120056FFE5A7
:101A5800304FF530E52FF52FE52EF52EE52DF52D38
:101A68000532E53270A7053180A3AF30AE2FAD2E19
:021A7800AC2D93
:011A7A002249
:061835008B618A628963E9
:10183B00756A00756B01120104FFAEF0E56B456A2A
:10184B006063EF1FAC0670011E4C6059AB61E56322
:10185B002402F9E43562FAE92FF9EA3EFA1200564E
:10186B00F56CAB64E5662402F9E43565FAE92FF90A
:10187B00EA3EFA120056F56DE56845694567601852
:10188B00AB67E5692402F9E43568FAE92FF9EA3E1A
:10189B00FA120056526C526DE56C656D609EE4F564
:0918AB006AF56B8097AE6AAF6B21
:0118B4002211
:041D40008C408D4105
:101D4400E5408541F0120167E92402F9E43A8B4247
:101D5400F5438944E5414540601EAB42AA43A9448A
:101D6400121F98E54115417002154074012544F590
:081D740044E43543F54380DC33
:011D7C002244
:101EEE0090E682E030E004E020E60B90E682E030FF
:101EFE00E119E030E71590E680E04401F07F147EB2
:0C1F0E00001218B590E680E054FEF022AE
:1000030030050990E680E0440AF0800790E680E03E
:100013004408F07FDC7E051218B590E65D74FFF0AE
:0F00230090E65FF05391EF90E680E054F7F02203
:0821A100E4F51BD2E9D2AF22E4
:101D7D00AD0790E678E020E6F9C2E990E678E04418
:101D8D0080F0ED25E090E679F090E678E030E0F92E
:101D9D0090E678E04440F090E678E020E6F990E6B1
:081DAD0078E030E1D6D2E92212
:101EBC00AC0790E678E020E6F9E51B702390E67815
:101ECC00E04480F0EC25E090E679F08D16AF03A9A4
:101EDC00077517018A188919E4F51A751B01D322A5
:021EEC00C3220F
:101E2300AC0790E678E020E6F9E51B702590E678AC
:101E3300E04480F0EC25E0440190E679F08D16AFA4
:101E430003A9077517018A188919E4F51A751B0385
:041E5300D322C322B1
:03004B00020EDCC6
:100EDC00C0E0C083C082C085C084C086758600C057
:100EEC00D075D000C000C001C002C003C006C0074E
:100EFC0090E678E030E206751B06020FC690E678A5
:100F0C00E020E10CE51B64026006751B07020FC6AE
:100F1C00E51B24FE605F14603624FE7003020FB7DD
:100F2C0024FC7003020FC324086003020FC6AB1726
:100F3C00AA18A919AF1A051A8F8275830012006FAF
:100F4C0090E679F0E51A65167070751B05806B904C
:100F5C00E679E0AB17AA18A919AE1A8E8275830030
:100F6C001200D0751B02E5166401704E90E678E015
:100F7C004420F08045E51624FEB51A0790E678E08B
:100F8C004420F0E51614B51A0A90E678E04440F0D7
:100F9C00751B0090E679E0AB17AA18A919AE1A8E4A
:100FAC00827583001200D0051A800F90E678E04419
:100FBC0040F0751B008003751B005391DFD007D0E8
:100FCC0006D003D002D001D000D0D0D086D084D0AF
:080FDC0085D082D083D0E03201
:021F1A00A90715
:101F1C00AE14AF158F828E83A3E064037017AD01EE
:101F2C0019ED7001228F828E83E07C002FFDEC3E38
:081F3C00FEAF0580DFE4FEFFAB
:011F4400227A
:10208600121E23E51B24FA600E146006240770F363
:0C209600D322E4F51BD322E4F51BD32277
:1020A200121EBCE51B24FA600E146006240770F3AE
:0C20B200D322E4F51BD322E4F51BD3225B
:101FBF0090E682E044C0F090E681F0438701000094
:041FCF0000000022EC
:1018B5008E218F2290E600E054187012E522240153
:1018C500FFE43521C313F521EF13F522801590E6CA
:1018D50000E05418FFBF100BE52225E0F522E521B5
:1018E50033F521E5221522AE21700215214E600542
:0618F500121FD380EE2259
:101FD3007400F58690FDA57C05A3E582458370F921
:011FE30022DB
:0300000002171EC6
:0C171E00787FE4F6D8FD75817B0217652A
:10005600BB010689828A83E0225002E722BBFE02A8
:09006600E32289828A83E49322DB
:10006F00BB010CE58229F582E5833AF583E0225046
:10007F0006E92582F8E622BBFE06E92582F8E22290
:0D008F00E58229F582E5833AF583E49322AA
:10009C00BB010989828A83F8E028F022500327F7F4
:1000AC0022BBFE05F8E328F3228A838982F8E493C5
:0200BC002822F8
:1000BE00BB010689828A83F0225002F722BBFE0121
:0200CE00F3221B
:1000D000F8BB010DE58229F582E5833AF583E8F066
:1000E000225006E92582C8F622BBFE05E92582C812
:0200F000F222FA
:1000F200EF8DF0A4A8F0CF8CF0A428CE8DF0A42E22
:02010200FE22DB
:10010400BB010A89828A83E0F5F0A3E022500687C6
:10011400F009E71922BBFE07E3F5F009E319228988
:0B012400828A83E493F5F074019322BB
:10012F00BB0110E58229F582E5833AF583E0F5F00E
:10013F00A3E0225009E92582F886F008E622BBFEEB
:10014F000AE92582F8E2F5F008E222E5832AF58331
:08015F00E993F5F0A3E99322F6
:10016700BB010A89828A83F0E5F0A3F0225006F7E3
:0F01770009A7F01922BBFE06F3E5F009F31922E0
:10018600F8BB0111E58229F582E5833AF583E8F0AB
:10019600E5F0A3F0225009E92582C8F608A6F02268
:0D01A600BBFE09E92582C8F2E5F008F2224F
:101CFC00C2D5E830E70FB2D5E4C39BFBE49AFAE413
:101D0C0099F9E498F8EC30E717B2D5121D321202AB
:101D1C00C1E4C39BFBE49AFAE499F9E498F88003D4
:101D2C001202C130D50DE4C39FFFE49EFEE49DFD7D
:041D3C00E49CFC2205
:1001B300E86010ECA2E713FCED13FDEE13FEEF1362
:0401C300FFD8F0224F
:1001C700E8600FEFC333FFEE33FEED33FDEC33FC96
:0301D700D8F1223A
:1001DA00BB010DE58229F582E5833AF58302035FC7
:1001EA005007E92582F8020353BBFE07E92582F886
:1001FA0002036BE58229F582E5833AF583020377E8
:10020A00BB010DE58229F582E5833AF58302039362
:10021A005007E92582F8020387BBFE07E92582F821
:04022A0002039F220A
:10022E00BB010DE58229F582E5833AF5830203C40D
:10023E005007E92582F80203ABBBFE07E92582F8D9
:04024E000203F52290
:10025200D083D082F8E4937012740193700DA3A33B
:1002620093F8740193F5828883E473740293B5F072
:0D027200067403936860E9A3A3A3A380D8DA
:06027F008A838982E4730A
:10172A0002168FE493A3F8E493A34003F68001F230
:10173A0008DFF48029E493A3F85407240CC8C333C0
:10174A00C4540F4420C8834004F456800146F6DF8F
:10175A00E4800B0102040810204080901BB9E47E4B
:10176A00019360BCA3FF543F30E509541FFEE49384
:10177A00A360010ECF54C025E060A840B8E493A34B
:10178A00FAE493A3F8E493A3C8C582C8CAC583CA76
:10179A00F0A3C8C582C8CAC583CADFE9DEE780BE2E
:011C0D0000D6
:1002850075F008758200EF2FFFEE33FECD33CDCC30
:1002950033CCC58233C5829BED9AEC99E5829840B3
:1002A5000CF582EE9BFEED9AFDEC99FC0FD5F0D690
:1002B500E4CEFBE4CDFAE4CCF9A88222B800C1B9BA
:1002C5000059BA002DEC8BF084CFCECDFCE5F0CBF8
:1002D500F97818EF2FFFEE33FEED33FDEC33FCEB31
:1002E50033FB10D703994004EB99FB0FD8E5E4F9EC
:1002F500FA227818EF2FFFEE33FEED33FDEC33FCD9
:10030500C933C910D7059BE99A4007EC9BFCE99ACC
:10031500F90FD8E0E4C9FAE4CCFB2275F010EF2F11
:10032500FFEE33FEED33FDCC33CCC833C810D70711
:100335009BEC9AE899400AED9BFDEC9AFCE899F84C
:0E0345000FD5F0DAE4CDFBE4CCFAE4C8F922DF
:0C035300E6FC08E6FD08E6FE08E6FF22D6
:0C035F00E0FCA3E0FDA3E0FEA3E0FF2211
:0C036B00E2FC08E2FD08E2FE08E2FF22CE
:10037700E493FC740193FD740293FE740393FF22CC
:0C038700ECF608EDF608EEF608EFF622A2
:0C039300ECF0A3EDF0A3EEF0A3EFF022DD
:0C039F00ECF208EDF208EEF208EFF2229A
:1003AB00D083D082E493F608740193F60874029319
:0903BB00F608740393F674047350
:1003C400A8828583F0D083D0821203DB1203DB1270
:1003D40003DB1203DBE473E493A3C583C5F0C58395
:1003E400C8C582C8F0A3C583C5F0C583C8C582C883
:0103F40022E6
:1003F500D083D082E493F208740193F208740293D7
:09040500F208740393F27404730D
:00000001FF
