:0A2392000001020203030404050524
:10183A00C200C202C20112142EC2AF750A1A750B77
:10184A000075121A75131275081A75091C75101A83
:10185A0075113575141A75154ED2E890E668E0448C
:10186A0009F090E65CE04435F0D2AF90E680E020E3
:10187A00E105D20512210290E680E054F7F0538E7A
:10188A00F8C203121E821223CB300105120C04C2C5
:10189A00013003F21223C350EDC2031222022000C8
:1018AA001690E682E030E704E020E1EF90E682E07D
:0F18BA0030E604E020E0E41221311223C780C79A
:0214FE00D322F7
:100C040090E6B9E01204220C9C000D11010D8C0336
:100C14000C27060C96080DF7090C900A0DF70B002B
:100C2400000DEB90E6BBE024FE602714603824FD41
:100C3400601114602724067050E50A90E6B3F0E5CD
:100C44000B803C1214FE503EE51290E6B3F0E5131F
:100C5400802DE50C90E6B3F0E50D8023E50E90E6DB
:100C6400B3F0E50F801990E6BAE0FF12215DAA0601
:100C7400A9077B01EA494B600DEE90E6B3F0EF90D3
:100C8400E6B4F0020DF7020DE6020DE6122344026B
:100C94000DF7122334020DF790E6B8E0247F6015B7
:100CA40014601924027063A200E43325E0FFA20259
:100CB400E4334F8041E490E740F0803F90E6BCE0AD
:100CC400547EFF7E00E0D394807C0040047D01804C
:100CD400027D00EC4EFEED4F2492F58274233EF526
:100CE40083E493FF3395E0FEEF24A1FFEE34E68F17
:100CF40082F583E0540190E740F0E4A3F090E68AA3
:100D0400F090E68B7402F0020DF7020DE690E6B85F
:100D1400E024FE601624026003020DF790E6BAE0B8
:100D2400B40105C200020DF7020DE690E6BAE070C8
:100D34005590E6BCE0547EFF7E00E0D394807C00B6
:100D440040047D0180027D00EC4EFEED4F2492F5BF
:100D54008274233EF583E493FF3395E0FEEF24A1F0
:100D6400FFEE34E68F82F583E054FEF090E6BCE0BB
:100D74005480131313541FFFE0540F2F90E683F095
:100D8400E04420F0806D805A90E6B8E024FE6019BB
:100D94002402704E90E6BAE0B40104D2008054906C
:100DA400E6BAE06402604C803990E6BCE0547EFF11
:100DB4007E00E0D394807C0040047D0180027D00AD
:100DC400EC4EFEED4F2492F58274233EF583E493BA
:100DD400FF3395E0FEEF24A1FFEE34E68F82F58326
:100DE400800D90E6A08008120613500790E6A0E05C
:0B0DF4004401F090E6A0E04480F022F3
:030033000223BFE6
:0423BF0053D8EF32CE
:101A000012010002000000402A151C84000001029F
:101A100003010A060002000000400100090219004B
:101A200001010080C80904000001FF000000070553
:101A300086020002000902190001010080C80904A1
:101A4000000001FF000000070586024000000403BB
:101A50000904080349004E004900140344004100F2
:101A6000560069005300200046005800320012035F
:101A700030003000300030003000300030003000E6
:021A8000000064
:1021310090E682E030E004E020E60B90E682E030B9
:10214100E119E030E71590E680E04401F07F147E6C
:0C21510000121ECA90E680E054FEF0224E
:1021020030050990E680E0440AF0800790E680E01E
:102112004408F07FDC7E05121ECA90E65D74FFF073
:0F21220090E65FF05391EF90E680E054F7F022E3
:02215D00A907D0
:10215F00AE14AF158F828E83A3E064037017AD01A9
:10216F0019ED7001228F828E83E07C002FFDEC3EF3
:08217F00FEAF0580DFE4FEFF66
:012187002235
:1022020090E682E044C0F090E681F043870100004E
:0422120000000022A6
:101ECA008E218F2290E600E054187012E522240138
:101EDA00FFE43521C313F521EF13F522801590E6AF
:101EEA0000E05418FFBF100BE52225E0F522E5219A
:101EFA0033F521E5221522AE21700215214E600527
:061F0A0012221680EE22F7
:102216007400F58690FDA57C05A3E582458370F9DB
:012226002295
:03004300021500A3
:0300530002150093
:101500000214E6000222F7000222E1000223CC00CE
:10151000021FC900022000000223CD000223CE00DA
:101520000223CF000223D0000223D1000223D200E5
:101530000223D3000223D4000223D5000223D600C5
:101540000223D7000223CE000223D8000223D900B1
:101550000223DA000223DB000223DC000223DD0089
:101560000223DE000223CE000223CE000223CE009F
:101570000223DF000223E0000223E1000223E20055
:101580000223E3000223E4000223E5000223E60035
:101590000223E7000223E8000223E9000223EA0015
:1015A0000223EB000223EC000223ED000223EE00F5
:0815B0000223EF000223F0000A
:081D3A00C184011D00011C0021
:10142E0090E6007410F090E60174A3F000000090B6
:10143E00E60B7403F000000090E609F00000009047
:10144E00E60274E6F0000000E490E610F000000002
:10145E0090E611F000000090E612F000000090E619
:10146E0013F000000090E61474E0F0000000E49029
:10147E00E615F000000090E61A7409F090E6247468
:10148E0002F0E490E625F090E63474C1F090E63573
:10149E0074F2F0000000E490E670F000000090E6B8
:1014AE0071F000000090E672F0F58075A00875B13D
:1014BE002375B28875B40E75B63EF5A875E8E312BD
:1014CE0023B790E67A7401F0D283E4F51C00051C74
:0814DE00E51CB414F8C28322DE
:1019E00053B1EFE4FEEF30E70543B108800353B194
:1019F000F743B11053B1EFEF25E0FF0EBE08E6222A
:06224B00FF122251AF0555
:10225100C2A2E4FEEF30E704D2A18002C2A1D2A261
:0B226100C2A2EF25E0FF0EBE08EA223B
:10226C00E4FFC2A2FED2A230A0054307018000C247
:0F227C00A2EE64076004EF25E0FF0EBE08E72224
:101D8F008E2B8F2C8D2D8A2E8B2FC287E4F530E56D
:101D9F0030C3952D503AE52B90466AF0E52CA3F011
:101DAF00E52F2530F582E4352EF583E090466CF073
:101DBF00D2877A467B6A7D037F511222C57F5112EB
:101DCF001F91052CE52C7002052BC287053080BFB3
:011DDF0022E1
:101DE0008E2B8F2C8D2D8A2E8B2FC287E52B904624
:101DF00072F0EFA3F0D2877A467B727D027F511298
:101E000022C57F51121F91C287E4FFEFC3952D5069
:101E100010E52F2FF582E4352EF58374CDF00F8079
:101E2000EAD287AB2FAA2EAD2D7F511222A9C287ED
:011E3000228F
:101E82007F0312215DEF2402FFE43EA907752101C1
:101E9200F52289237A467B6A7D087FF87E3F121DF0
:101EA200E0E4FF746A2FF582E43446F583E0FEAB8A
:101EB20021AA22A92375F002EFA4F58285F083EE10
:081EC20012027A0FBF08DC22B6
:0123CB0022EF
:0423C300D283D322CC
:0423C700C283D322D8
:10233400E490E740F090E68AF090E68B04F0D32234
:10234400E490E740F090E68AF090E68B04F0D32224
:1006130000000090E6BAE0752100F522A3E0FEEEAB
:100623004221A3E0FDA3E0FEEEFCA3E0752300F569
:1006330024A3E0FEEE422390E6B8E05480FEA3E05C
:10064300FBEBFF8EF012044807EC00BD089700BED9
:10065300070800BF067300C006E200C106F500C22A
:10066300083880BD096780BE077180BF0000097E1E
:10067300E52445236055E490E68AF090E68BF0008C
:10068300000090E6A0E020E1F990E68BE0752700FA
:10069300F528E4F525F526C3E5269528E5259527D0
:1006A300501A74402526F582E434E7F583E0FF12FF
:1006B30019E00526E52670DF052580DBC3E52495D3
:1006C30028F524E5239527F52380A553B1FDE4F50B
:1006D3001C00051CE51CB432F843B102020835E5E1
:1006E3002264014521700553B1FB800343B1040229
:1006F3000835E52264014521700553B1DF800343CA
:10070300B120020835C2A3E522547F12224BE5240F
:1007130045236055E490E68AF090E68BF0000000F4
:1007230090E6A0E020E1F990E68BE0752700F5283C
:10073300E4F525F526C3E5269528E5259527501AE2
:1007430074402526F582E434E7F583E0FF12225155
:100753000526E52670DF052580DBC3E5249528F50E
:1007630024E5239527F52380A5D2A302095CC2A320
:10077300E522448012224BE5244523606790E6A0DE
:10078300E020E1F9C3E5249440E523940050088573
:1007930023278524288006752700752840E4F5253E
:1007A300F526C3E5269528E5259527501A12226CD0
:1007B30074402526F582E434E7F583EFF00526E55A
:1007C3002670DF052580DBE490E68AF090E68BE572
:1007D30028F0000000C3E5249528F524E523952798
:1007E300F5238093D2A3020980E52445236043E4E3
:1007F30090E68AF090E68BF000000090E6A0E020FF
:10080300E1F990E68BE0752700F528FD7AE77B4058
:10081300AF22AE21121D8FE5282522F522E52735CB
:1008230021F521C3E5249528F524E5239527F52310
:1008330080B702095CE5244523700302098090E632
:10084300A0E020E1F9C3E5249440E5239400500897
:100853008523278524288006752700752840AD2821
:100863007AE77B40AF22AE21121DE0E5282522F571
:1008730022E5273521F521E490E68AF090E68BE521
:1008830028F0000000C3E5249528F524E5239527E7
:10089300F52380A130040B53A00F75B4BE1223A51A
:1008A300C204D3E5249400E5239404400B75B40EED
:1008B300751D0AD204020980E4F529F52A7B017A21
:1008C30042796A12237BE52445236074E490E68A27
:1008D300F090E68BF000000090E6A0E020E1F990B4
:1008E300E68BE0752700F528E4F525F526C3E52614
:1008F3009528E5259527502D74402526F582E43467
:10090300E7F583E0FFE52A2526FDE5293525FC7477
:100913006A2DF58274423CF583EFF00526E52670D7
:10092300CC052580C8E528252AF52AE5273529F5AC
:1009330029C3E5249528F524E5239527F523808607
:10094300E52245217002800C1223AE8F1DE51DD3D5
:100953009400400575B40ED204E490E68AF090E664
:100963008BF0801990E74074BEF0A3E51DF0E4908E
:0F097300E68AF090E68B7402F08002D322C32252
:1014E600C0E0C083C082D2015391EF90E65D7401E3
:0814F600F0D082D083D0E03277
:1022E100C0E0C083C0825391EF90E65D7404F0D0EA
:0622F10082D083D0E03230
:1022F700C0E0C083C0825391EF90E65D7402F0D0D6
:0623070082D083D0E03219
:101FC900C0E0C083C08290E680E030E70E85080C4F
:101FD90085090D85100E85110F800C85100C851152
:101FE9000D85080E85090F5391EF90E65D7410F089
:071FF900D082D083D0E0325A
:0123CC0032DE
:10200000C0E0C083C08290E680E030E70E85080C17
:1020100085090D85100E85110F800C85100C85111A
:102020000D85080E85090F5391EF90E65D7420F041
:07203000D082D083D0E03222
:0123CD0032DD
:0123CE0032DC
:0123CF0032DB
:0123D00032DA
:0123D10032D9
:0123D20032D8
:0123D30032D7
:0123D40032D6
:0123D50032D5
:0123D60032D4
:0123D70032D3
:0123D80032D2
:0123D90032D1
:0123DA0032D0
:0123DB0032CF
:0123DC0032CE
:0123DD0032CD
:0123DE0032CC
:0123DF0032CB
:0123E00032CA
:0123E10032C9
:0123E20032C8
:0123E30032C7
:0123E40032C6
:0123E50032C5
:0123E60032C4
:0123E70032C3
:0123E80032C2
:0123E90032C1
:0123EA0032C0
:0123EB0032BF
:0123EC0032BE
:0123ED0032BD
:0123EE0032BC
:0123EF0032BB
:0123F00032BA
:0D236200ED4C7005EFF452A022EF42A022D6
:0C236F00E4FDFC7F201223620D022362BB
:1021DB008B458A468947AB79AA7AA97B0578E5783E
:1021EB00AE777002057714F5828E83120219AB4518
:0721FB00AA46A94702026891
:0C237B00E4F577F5788B798A7A897B226B
:0B238700E5A05440C413135403FF22D0
:102227007C007D3012029CAB07AA06900000C3E534
:10223700829BEA6480F8E583648098500612236FD6
:04224700A380EB2263
:101D420060483200FF239CFF2188FF12AAFF137113
:101D5200FF209EFF230DFF230DFF2354FF1BFCFFDB
:101D620015B8FF230DFF230DFF17A6FF17A6FF17B8
:101D7200A6FF1708FF1708FF1708FF206BFF1C7448
:0C1D8200FF1C74FF11BEFF2321FF16633D
:101CDE00E412026890000112027A9000021203E5EB
:101CEE0000000000900006E4F5F012033090000BA7
:101CFE00E412027A900008E412027A90000974014C
:101D0E0012027A90000A740112027A9000101203E5
:101D1E00E500000000900014E4F5F012033090008E
:0C1D2E000C1203E500000000E4FEFF22A0
:0621B200AF24E4FCFDFE79
:1021B8008F2D8E2C8D2B8C2AE52D2407FFE4352CB2
:1021C800FEE4352BFDE4352AFCE47B08FAF9F81225
:0321D8001F1022B3
:04228B007F017E0051
:10228F00AD07AC067F10122362E4FDFC7F20122302
:0A229F00627D017C007F20022362B3
:08098200AB40AA41A9427D012E
:10098A008B618A6289638D64E4F567F568E5647052
:10099A003C7F01FE12228FE4F565F566E4FDFC7FDB
:1009AA00201223627D017C007F201223620566E506
:1009BA006670020565C39405E5656480948040DC31
:1009CA00AB61AA62A963E4120268020BFFAB61AAD7
:1009DA0062A963120200FF6564601CE564B407043F
:1009EA00EFB4060AE564B40E0EEF640D600975678C
:1009FA0000756805020BFFE564B5070EB40603022D
:100A0A000ADFE564B40D03020B9AAB61AA62A9631B
:100A1A00120200FF65647003020BFFEF1204220A40
:100A2A005D000A60010A63020A89030AAD040ABB6F
:100A3A00050ADF060AED070B11080B35090B460AF2
:100A4A000B6A0B0B780C0B9A0D0BA70E0BC90F0038
:100A5A00000BEB020B16020B27E564C39409400E48
:100A6A0012228BAB61AA62A9637409020BF9E4FF33
:100A7A00FE12228FAB61AA62A9637403020BF9E525
:100A8A0064B40411E4FFFE12228FAB61AA62A96367
:100A9A007404020BF912228BAB61AA62A963740572
:100AAA00020BF912228BAB61AA62A9637405020BCD
:100ABA00F9E564B40611E4FFFE12228FAB61AA6263
:100ACA00A9637406020BF912228BAB61AA62A963AD
:100ADA007408020BF912228BAB61AA62A96374072C
:100AEA00020BF9E564B40411E4FFFE12228FAB6134
:100AFA00AA62A9637404020BF912228BAB61AA627F
:100B0A00A9637408020BF9E564B40111E4FFFE124B
:100B1A00228FAB61AA62A9637401020BF912228BBC
:100B2A00AB61AA62A9637402020BF9E4FFFE122206
:100B3A008FAB61AA62A963740A020BF9E564B40B6C
:100B4A0011E4FFFE12228FAB61AA62A963740B0241
:100B5A000BF912228BAB61AA62A963740C020BF91E
:100B6A0012228BAB61AA62A963740C020BF9E564C9
:100B7A00B40D10E4FFFE12228FAB61AA62A963745E
:100B8A000D806C12228BAB61AA62A963740F805F1D
:100B9A0012228BAB61AA62A963740E8052E564B417
:100BAA000B10E4FFFE12228FAB61AA62A963740BD9
:100BBA00803D12228BAB61AA62A963740F8030E573
:100BCA0064B40110E4FFFE12228FAB61AA62A9632A
:100BDA007401801B12228BAB61AA62A96374028022
:100BEA000E756700756805AB61AA62A963E56412B0
:0A0BFA000268020A14AE67AF682219
:100F6C008F648E638D628C618B658A668967757000
:100F7C0000757100757200E569456A4568603C1240
:100F8C0002AEFFAB68AA69A96AE5F08FF0120311F3
:100F9C00AB68E56A2402F9E43569FAC003C002C003
:100FAC0001AB65AA66A9671202AED001D002D003CC
:100FBC0029F9EA35F08B70F5718972AB65E5672418
:100FCC0002F9E43566FAC002C001AA66A9671202EA
:100FDC00AED001D00229F9EA35F08B6DF56E896F30
:100FEC00AF64AE63AD62AC61EC4D4E4F700302105A
:100FFC00B5786D74FFF5F0120409120200F573E474
:10100C00F574F575F576AF64AE63AD62AC61EC4D1D
:10101C004E4F6079C3E5769408E5756480948050F2
:10102C006C74FFFBFAF9F812035D8F648E638D62AA
:10103C008C61E56C456B600EEC4D4E4F70087D017C
:10104C00FC7F10122362E5735401FD7C007F80123B
:10105C002362E573C313F573E4FDFC7F2012236256
:10106C00E571457245706011122387AE76EFA806C4
:10107C00088002C333D8FC42747D017C007F2012AF
:10108C0023620576E57670020575021012E571454E
:10109C007245707003020FEC787074FFF5F0120457
:0A10AC0009E574120268020FEC223D
:100DFF008B408A4189428D43E4F55AF55BF55CF5EA
:100E0F005DF55EE54365547E0060047F0180027FDF
:100E1F00008E5F8F60AF47AE46AD45AC44EC4D4E94
:100E2F004F701EAF58AE57AD56AC55EC4D4E4F7080
:100E3F0003020F48120982AE57AF58122227020F32
:100E4F0048AB40AA41A942AD4312098AAF47AE460B
:100E5F00AD45AC44854B68854C69854D6A855F6BA4
:100E6F0085606CAB48AA49A94A120F6CE54F4550F3
:100E7F00454E602A854B64854C65854D6685516767
:100E8F00855268855369AB4EAA4FA950121A82EF4B
:100E9F004E70047F0180027F00755C008F5DE560FE
:100EAF00455F7003020F35AB40AA41A9427401128E
:100EBF000246E55D455C604BAF58AE57AD56AC553D
:100ECF00EC4D4E4F603DE55EC3955950367D061291
:100EDF00098AAB40AA41A9427D0412098AAF58AED4
:100EEF0057AD56AC55780212036AE5582FFFE557F8
:100EFF003EFEE5563DFDE5553C8F588E578D56F518
:100F0F0055800BAB40AA41A942AD5412098AAF5884
:100F1F00AE57AD56AC55EC4D4E4F600A120982AE2E
:100F2F0057AF58122227E55D455C600DAF5E055E39
:100F3F00EFC395595003020E50E55D455C6019E50E
:100F4F0059600FE55ED395594008755A00755B03DC
:0D0F5F008006755A00755B02AE5AAF5B222A
:101B02008B258A2689278F2B8E2A8D298C28AB2E0E
:101B1200AA2FA930AD2DAC2C121F54E53545364500
:101B220034600DAB34AA35A936AD2DAC2C121F543E
:101B3200852B47852A46852945852844852E488553
:101B42002F4985304A85314B85324C85334D85345A
:101B52004E85354F853650853751853852853953F4
:101B6200853A54853E58853D57853C56853B55857B
:0E1B72003F59AB25AA26A9277D04120DFF229C
:10230D00900006E475F0041203309000061202D915
:04231D00FFAEF022FD
:09239C007401120268E4FEFF2244
:102188008B218A228923E9241FF9EA340CFAC00238
:10219800C001AA22A9239000141202D9FDACF0D0E4
:0A21A80001D002121F54E4FEFF22D2
:1012AA008B218A2289237B007A0079241221DB127E
:1012BA0021B2D3EF9400EE6480948440097525002E
:1012CA007526060213551221B2AC06AD07AB21E50D
:1012DA00232416F9E43522FA121F54AB21E52324FC
:1012EA0008F9E43522FAC003C002C001E4852447A4
:1012FA00F546F545F544E5232416F9E435228B48ED
:10130A00F549894A754B00754C00754D00754E00BC
:10131A00754F00755000755100755200755300AA3B
:10132A0022A923900009120219F55490000C120305
:10133A00918F588E578D568C55E4F559D001D002AD
:10134A00D0037D0B120DFF8E258F26E526452560DD
:10135A0011AB21AA22A923900006E5258526F012C1
:07136A000330AE25AF26227F
:1011BE008B218A228923E92416F9E43AFA7D027CEE
:1011CE0000121F54AB21E5232416F9E43522FA123E
:1011DE001B808F278E268D258C241221B8D3EF9459
:1011EE0000EE648094844009752800752906021269
:1011FE008EAF27AE26AD25AC241221B8AC06AD07B6
:10120E00AB21E5232416F9E43522FA121F54AB2143
:10121E00E5232408F9E43522FAC003C002C0018593
:10122E002747852646852545852444E5232416F93A
:10123E00E435228B48F549894A754B00754C00758B
:10124E004D00754E00754F0075500075510075526A
:10125E0000755300AA22A923900009120219F55411
:10126E0090000C1203918F588E578D568C55E4F5C5
:10127E0059D001D002D0037D0B120DFF8E288F297D
:10128E00E52945286011AB21AA22A923900006E585
:0C129E00288529F0120330AE28AF292269
:101371008B218A228923E92416F9E43AFAC002C0B2
:1013810001AA22A9239000141202D9FDACF0D001C8
:10139100D002121F54AB21E5232408F9E43522FAC7
:1013A100C003C002C001AA22A92390001012039118
:1013B1008F478E468D458C44E92416F9E43A8B48D3
:1013C100F549894AE523241CF9EA34088B4BF54C8D
:1013D100894DE5232419F9EA34048B4EF54F8950E0
:1013E100E523241FF9EA340C8B51F5528953A923C3
:1013F10090000A120219F55490000C1203918F58B3
:101401008E578D568C5590000B120219F559D0014B
:10141100D002D0037D04120DFFEF4E600FAB21AA65
:0D14210022A923900006EE8FF01203302266
:10209E008B218A228923E92416F9E43AFA7D047CFD
:1020AE0000121F54AB21E5232416F9E43522FA124F
:1020BE001B80AB21AA22A92390000C1203C1E4FEBF
:0220CE00FF22EF
:0E235400E9240BF9E43AFA1221DBE4FEFF2241
:101BFC008B218A228923E4F524F525E92416F9E4BE
:101C0C003AFA7D047C00121F54AB21E5232416F90B
:101C1C00E43522FA121B80AB21AA22A923900010D2
:101C2C001203C19000101203911221B8AB21AA2209
:101C3C00A923900014EE8FF01203309000141202BE
:101C4C00D9D39400E5F06480948440177524007512
:101C5C002506AB21AA22A923900006E5248525F0B0
:081C6C00120330AE24AF252263
:1015B8008B218A228923E92408F9E43AFAC003C076
:1015C80002C001AA22A923900010120391C004C0EE
:1015D80005C006C0079000141202D9F52D85F02C1D
:1015E800E92416F9E43A8B2EF52F8930E523241CDB
:1015F800F9EA34088B31F5328933E5232419F9EAFD
:1016080034048B34F5358936E523241FF9EA340C84
:101618008B37F5388939A92390000A120219F53A4F
:1016280090000C1203918F3E8E3D8D3C8C3B9000B8
:101638000B120219F53FD007D006D005D004D0010F
:10164800D002D003121B02EF4E600FAB21AA22A9D1
:0B16580023900006EE8FF012033022FA
:1017A6008B218A228923900001120219B40E099016
:1017B600000A120219FF80027F048F24AB21E52361
:1017C6002408F9E43522FAC003C002C001AA22A9FE
:1017D600239000101203919000141202D9F52D8562
:1017E600F02CE92416F9E43A8B2EF52F8930753161
:1017F6000075320075330075340075350075360096
:1018060075370075380075390085243AE4F53EF5DC
:101816003DF53CF53BF53FD001D002D003121B024B
:10182600EF4E600FAB21AA22A923900006EE8FF09F
:041836001203302247
:101708008B218A228923900001120219B4110990B1
:10171800000A120219FF80027F048F24AB21E523FF
:101728002408F9E43522FAC003C002C001AA22A99C
:10173800239000101203919000141202D9F52D8500
:10174800F02CE92416F9E43A8B2EF52F8930E5239D
:10175800241CF9EA34088B31F5328933E52324193E
:10176800F9EA34048B34F535893675370075380055
:1017780075390085243AE4F53EF53DF53CF53BF531
:101788003FD001D002D003121B02EF4E600FAB21F5
:0E179800AA22A923900006EE8FF01203302241
:10206B008B218A2289237B007A0079241221DBAB16
:10207B0021E5232408F9E43522FAAD2412098AEF6D
:10208B004E600FAB21AA22A923900006EE8FF0120F
:03209B00033022ED
:101C74008B218A228923E4F524F525FB7A00792631
:101C84001221DBE526600C640160087524007525CB
:101C940005802BAB21AA22A923900001120219B4BA
:101CA400130DE5269000097002800B740D800CE57D
:101CB4002690000A7003048002740612027AE52555
:101CC40045246011AB21AA22A923900006E52485AE
:0A1CD40025F0120330AE24AF2522E4
:10232100900006E4F5F01203309000061202D9FF86
:03233100AEF022E9
:101663008B218A228923E92416F9E43AFA7D017C45
:1016730000121F54AB21AA22A923900018120219A9
:10168300F524E92416F9E43AFA7D017C00121F548B
:10169300AB21AA22A923900018120219F525E924E7
:1016A30016F9E43AFA7D047C00121F54AB21E523BA
:1016B3002416F9E43522FA121B808F298E288D27F0
:1016C3008C26AB21AA22A9239000081202196524B3
:1016D300600CE92408F9E43AFAAD2412098AAE2829
:1016E300AF29122227AB21AA22A9239000081202B4
:1016F300196525600CE92408F9E43AFAAD251209C5
:051703008AE4FEFF2254
:101E31008B2B8A2C892D121CDEAB2BAA2CA92D9061
:101E41000006EE8FF01203309000061202D945F021
:101E5100701FAB2BE52D2408F9E4352CFAE4FD12B3
:101E6100098AAB2BAA2CA92D900006EE8FF0120344
:101E710030AB2BAA2CA92D9000061202D9FFAEF08F
:011E8100223E
:101955008B2B8A2C892D9000061202D945F0706BCD
:101965001202007066E92401F9E43AFA1221DBABB0
:101975002BAA2CA92D900002120391E47B01FAF900
:10198500F812035DAB2BAA2CA92D9000021203C1FE
:10199500900001120219FFC39418AB2BAA2CA92D94
:1019A5005026C003C002C001EF75F003A42400F562
:1019B50082E43432F58312041989828A83D001D0F6
:1019C50002D003120479800312230DAB2BAA2CA994
:0B19D5002D9000061202D9FFAEF02298
:0923A5007B017A327948021E31F5
:0923AE007B017A327948021955CD
:101B80008B2A8A2B892CE4F530F52FF52EF52DF5CF
:101B900031F532AB2AAA2BA92C1202AEFFC3E532D3
:101BA0009FE5F06480F8E5316480985046AF30AE30
:101BB0002FAD2EAC2D780812037E8F308E2F8D2EF8
:101BC0008C2DE92402F9E43AFAE92532F9EA3531B3
:101BD000FA120200FFE5304FFFE52FFEE52EFDE58E
:101BE0002D8F308E2F8D2EF52D0532E53270A40508
:0C1BF0003180A0AF30AE2FAD2EAC2D2206
:101A82008B618A628963756A00756B011202AEFF0F
:101A9200AEF0E56B456A6063EF1FAC0670011E4C49
:101AA2006059AB61E5632402F9E43562FAE92FF982
:101AB200EA3EFA120200F56CAB64E5662402F9E430
:101AC2003565FAE92FF9EA3EFA120200F56DE5688A
:101AD200456945676018AB67E5692402F9E4356832
:101AE200FAE92FF9EA3EFA120200526C526DE56CE5
:101AF200656D609EE4F56AF56B8097AE6AAF6B2206
:101F54008C408D41E5408541F0120311E92402F9DA
:101F6400E43A8B42F5438944E5414540601EAB4267
:101F7400AA43A9441221DBE54115417002154074BE
:0D1F8400012544F544E43543F54380DC229B
:0823B700E4F51BD2E9D2AF22CC
:101F9100AD0790E678E020E6F9C2E990E678E04402
:101FA10080F0ED25E090E679F090E678E030E0F918
:101FB10090E678E04440F090E678E020E6F990E69B
:081FC10078E030E1D6D2E922FC
:1020D000AC0790E678E020E6F9E51B702390E678FF
:1020E000E04480F0EC25E090E679F08D16AF03A98E
:1020F000077517018A188919E4F51A751B01D3228F
:02210000C322F8
:10203700AC0790E678E020E6F9E51B702590E67896
:10204700E04480F0EC25E0440190E679F08D16AF8E
:1020570003A9077517018A188919E4F51A751B036F
:04206700D322C3229B
:03004B000210B6EA
:1010B600C0E0C083C082C085C084C086758600C07B
:1010C600D075D000C000C001C002C003C006C00772
:1010D60090E678E030E206751B060211A090E678ED
:1010E600E020E10CE51B64026006751B070211A0F7
:1010F600E51B24FE605F14603624FE700302119126
:1011060024FC700302119D240860030211A0AB1792
:10111600AA18A919AF1A051A8F8275830012021927
:1011260090E679F0E51A65167070751B05806B9070
:10113600E679E0AB17AA18A919AE1A8E8275830054
:1011460012027A751B02E5166401704E90E678E08D
:101156004420F08045E51624FEB51A0790E678E0AF
:101166004420F0E51614B51A0A90E678E04440F0FB
:10117600751B0090E679E0AB17AA18A919AE1A8E6E
:101186008275830012027A051A800F90E678E04491
:1011960040F0751B008003751B005391DFD007D00C
:1011A60006D003D002D001D000D0D0D086D084D0D3
:0811B60085D082D083D0E03225
:1022A900122037E51B24FA600E146006240770F328
:0C22B900D322E4F51BD322E4F51BD32252
:1022C5001220D0E51B24FA600E146006240770F373
:0C22D500D322E4F51BD322E4F51BD32236
:030000000218C91A
:0C18C900787FE4F6D8FD75817B021910D1
:10020000BB010689828A83E0225002E722BBFE02FC
:09021000E32289828A83E493222F
:10021900BB010CE58229F582E5833AF583E022509A
:1002290006E92582F8E622BBFE06E92582F8E222E4
:0D023900E58229F582E5833AF583E49322FE
:10024600BB010989828A83F8E028F022500327F748
:1002560022BBFE05F8E328F3228A838982F8E49319
:0202660028224C
:10026800BB010689828A83F0225002F722BBFE0175
:02027800F3226F
:10027A00F8BB010DE58229F582E5833AF583E8F0BA
:10028A00225006E92582C8F622BBFE05E92582C866
:02029A00F2224E
:10029C00EF8DF0A4A8F0CF8CF0A428CE8DF0A42E76
:0202AC00FE2230
:1002AE00BB010A89828A83E0F5F0A3E0225006871B
:1002BE00F009E71922BBFE07E3F5F009E3192289DD
:0B02CE00828A83E493F5F07401932210
:1002D900BB0110E58229F582E5833AF583E0F5F063
:1002E900A3E0225009E92582F886F008E622BBFE40
:1002F9000AE92582F8E2F5F008E222E5832AF58386
:08030900E993F5F0A3E993224A
:10031100BB010A89828A83F0E5F0A3F0225006F737
:0F03210009A7F01922BBFE06F3E5F009F3192234
:10033000F8BB0111E58229F582E5833AF583E8F0FF
:10034000E5F0A3F0225009E92582C8F608A6F022BC
:0D035000BBFE09E92582C8F2E5F008F222A3
:0D035D00EF2BFFEE3AFEED39FDEC38FC22EF
:101F1000C2D5E830E70FB2D5E4C39BFBE49AFAE4FC
:101F200099F9E498F8EC30E717B2D5121F4612047D
:101F3000B7E4C39BFBE49AFAE499F9E498F88003C8
:101F40001204B730D50DE4C39FFFE49EFEE49DFD6F
:041F5000E49CFC22EF
:10036A00E86010ECA2E713FCED13FDEE13FEEF13A9
:04037A00FFD8F02296
:10037E00E8600FEFC333FFEE33FEED33FDEC33FCDD
:03038E00D8F12281
:10039100BB010DE58229F582E5833AF58302055516
:1003A1005007E92582F8020549BBFE07E92582F8D5
:1003B100020561E58229F582E5833AF58302056D3F
:1003C100BB010DE58229F582E5833AF583020589B2
:1003D1005007E92582F802057DBBFE07E92582F871
:0403E100020595225A
:1003E500BB010DE58229F582E5833AF5830205C057
:1003F5005007E92582F80205A1BBFE07E92582F829
:040405000205F422D6
:10040900FAE6FB0808E625F0F9F618E63AFAF622C4
:09041900E0FBA3E0FAA3E0F922E4
:10042200D083D082F8E4937012740193700DA3A369
:1004320093F8740193C0E0E8C0E02274029368600C
:06044200EFA3A3A380DF7D
:10044800D083D082F8E4937012740193700DA3A343
:1004580093F8740193C0E0E8C0E022740293B5F009
:0D046800067403936860E9A3A3A3A380D8E2
:060475008A838982E47312
:1018D50002183AE493A3F8E493A34003F68001F2D7
:1018E50008DFF48029E493A3F85407240CC8C33314
:1018F500C4540F4420C8834004F456800146F6DFE3
:10190500E4800B0102040810204080901D3AE47E1B
:10191500019360BCA3FF543F30E509541FFEE493D7
:10192500A360010ECF54C025E060A840B8E493A39E
:10193500FAE493A3F8E493A3C8C582C8CAC583CAC9
:10194500F0A3C8C582C8CAC583CADFE9DEE780BE81
:011D8E000054
:10047B0075F008758200EF2FFFEE33FECD33CDCC38
:10048B0033CCC58233C5829BED9AEC99E5829840BB
:10049B000CF582EE9BFEED9AFDEC99FC0FD5F0D698
:1004AB00E4CEFBE4CDFAE4CCF9A88222B800C1B9C2
:1004BB000059BA002DEC8BF084CFCECDFCE5F0CB00
:1004CB00F97818EF2FFFEE33FEED33FDEC33FCEB39
:1004DB0033FB10D703994004EB99FB0FD8E5E4F9F4
:1004EB00FA227818EF2FFFEE33FEED33FDEC33FCE1
:1004FB00C933C910D7059BE99A4007EC9BFCE99AD5
:10050B00F90FD8E0E4C9FAE4CCFB2275F010EF2F19
:10051B00FFEE33FEED33FDCC33CCC833C810D70719
:10052B009BEC9AE899400AED9BFDEC9AFCE899F854
:0E053B000FD5F0DAE4CDFBE4CCFAE4C8F922E7
:0C054900E6FC08E6FD08E6FE08E6FF22DE
:0C055500E0FCA3E0FDA3E0FEA3E0FF2219
:0C056100E2FC08E2FD08E2FE08E2FF22D6
:10056D00E493FC740193FD740293FE740393FF22D4
:0C057D00ECF608EDF608EEF608EFF622AA
:0C058900ECF0A3EDF0A3EEF0A3EFF022E5
:0C059500ECF208EDF208EEF208EFF222A2
:1005A100D083D082E493F608740193F60874029321
:0F05B100F608740393F6A3A3A3A3C082C083220A
:1005C000A8828583F0D083D0821205DA1205DA1270
:1005D00005DA1205DAC082C08322E493A3C583C57D
:1005E000F0C583C8C582C8F0A3C583C5F0C583C85C
:0405F000C582C822D6
:1005F400D083D082E493F208740193F208740293D6
:0F060400F208740393F2A3A3A3A3C082C08322BE
:00000001FF
