:1016000012010002000000402A151B8400000102A4
:1016100003010A060002000000400100090219004F
:1016200001010080C80904000001FF000000070557
:1016300082020002000902190001010080C80904A9
:10164000000001FF000000070582024000000403C3
:101650000904080349004E004900140344004100F6
:101660005600690053002000460058003200120363
:1016700030003000300030003000300030003000EA
:1016800012034D005300460054003100300030007A
:04169000AF000000A7
:03004300021400A4
:0300530002140094
:101400000222C700022304000222F100020042006F
:1014100002221500022237000213FF00022390006F
:1014200002239100022392000223930002239400DE
:1014300002239500022396000223970002239800BE
:10144000022399000223900002239A0002239B00AA
:1014500002239C0002239D0002239E0002239F0082
:101460000223A00002239000022390000223900098
:101470000223A1000223A2000223A3000223A4004E
:101480000223A5000223A6000223A7000223A8002E
:101490000223A9000223AA000223AB000223AC000E
:1014A0000223AD000223AE000223AF000223B000EE
:0814B0000223B1000223B20087
:0A233B00000102020303040405057B
:10205000EC4EFEED4F243BF58274233EF583E49372
:10206000FF3395E0FEEF24A1FFEE34E68F82F58387
:102070002290E6BCE0547EFF7E00E0D394807C009A
:01208000223D
:10155800C200C202C201120FCFC2AF750C16750DC0
:1015680000751416751512750A16750B1C7512166A
:1015780075133575161675174E750816750980D2C8
:10158800E890E668E04409F090E65CE04435F0D283
:10159800AF90E680E020E105D20412208190E68039
:1015A800E054F7F0538EF8C203121D4A1212CD12FE
:1015B80000323001051209E4C2013003F21200467C
:1015C80050EDC20312218520001690E682E030E734
:1015D80004E020E1EF90E682E030E604E020E0E479
:0815E8001220DE12004E80C744
:0215FE00D322F6
:1009E40090E6B9E07003020AA0147003020AEC2432
:1009F400FE7003020B3E24FB7003020A9A14700378
:100A0400020B81147003020A94147003020B8124F4
:100A1400056003020B7590E6BBE024FE60271460BA
:100A24003824FD601114602724067061E50C90E6FB
:100A3400B3F0E50D804D1215FE504FE51490E6B36A
:100A4400F0E515803EE50E90E6B3F0E50F8034E561
:100A54001090E6B3F0E511802A90E6BAE0B4EE0A0D
:100A6400E50890E6B3F0E509801990E6BAE0FF12D4
:100A7400210AAA06A9077B01EA494B600DEE90E61C
:100A8400B3F0EF90E6B4F0020B81020B70020B702E
:100A9400122317020B81120036020B8190E6B8E094
:100AA400247F60151460192402703AA200E43325EF
:100AB400E0FFA202E4334F8018E490E740F0801690
:100AC40012207140047D0180027D00122050E05408
:100AD4000190E740F0E4A3F090E68AF090E68B748E
:100AE40002F0020B81020B7090E6B8E024FE60165F
:100AF40024026003020B8190E6BAE0B40105C2004F
:100B0400020B81020B7090E6BAE0702C1220714047
:100B1400047D0180027D00122050E054FEF090E636
:100B2400BCE05480131313541FFFE0540F2F90E6BE
:100B340083F0E04420F08045803290E6B8E024FE63
:100B4400601A2402702690E6BAE0B40104D2008050
:100B54002C90E6BAE0B40202802380101220714087
:100B6400047D0180027D00122050800D90E6A0805B
:100B740008120424500790E6A0E04401F090E6A097
:040B8400E04480F0D9
:010B8800224A
:0300330002238C19
:04238C0053D8EF3201
:0B232300412E220141302300011E006A
:1011E500F0E4A3F0A3F0A3F0A3F0A3F0A3F0A3F021
:1011F500A3F0A322E490E68AF090E68B22C3E524CF
:101205009528F524E5239527F5232274402526F511
:1012150082E434E7F58322142423F582742E3AF50B
:1012250083EFF00526E52622F582E43CF583E0FF11
:101235000220BE90E68BE0FFC3E5249FF524E5235D
:101245009400F5232290E68BE0752700F52822C34C
:10125500E5269528E5259527225391EF90E65D2211
:1012650090E68BE0FFC3E5269FE525940022E5285F
:101275002522F522E5273521F52122850A0E850B44
:101285000F8512108513112285120E85130F850AFD
:1012950010850B1122E0FF0528E528AA27228D825B
:1012A5008C83E0FF0220BE53B1FDE4F51E22FF1240
:1012B50021B3AF050221B3C3E5249440E52394008F
:0812C5002275B40E902E2222C6
:100FCF0090E6007410F090E60174A3F0E4F5A875B4
:100FDF00E8E30000000090E60B7403F0000000004F
:100FEF00E490E670F00000000090E671F000000061
:100FFF000090E672F000000000F58075A0B875B1A2
:10100F002300000000F5B275B40E75B6F7000000AE
:10101F000090E61274E0F00000000090E610E0543B
:10102F007FF00000000090E611E0547FF000000018
:10103F000090E613E0547FF00000000090E614E00B
:10104F00547FF00000000090E615E0547FF00000A0
:10105F00000090E6047480F0000000007482F0003D
:10106F00000000E4F00000000090E6187409F000A2
:10107F0000000090E60274C4F000000000E490E667
:10108F0003F00000000090E6097403F00000000078
:10109F0090E62014F000000000E490E621F000003C
:1010AF00000090E63074C1F00000000090E631744B
:1010BF00F2F012237E90E67AE04401F043B180E42F
:0E10CF00F51E00051EE51EB414F853B17F2275
:0E20B000A3E0FF1220BE8D828C83A3A3E0FF6D
:1020BE0043B120E4FEEF30E70543B110800353B186
:0F20CE00EF53B1DF43B120EF25E0FF0EBE08E670
:0120DD0022E0
:101F4600AD07AC0643B1041212A31220B08D828CE9
:101F560083A31220BAED240412122DED24051212C9
:101F66002DED240612122D1212AC00051EE51EB42C
:091F760032F843B10253B1FB2221
:101B2400AD07AC0653B1FB53B1FE1212A31212ACB3
:101B340000051EE51EB432F843B10243B1018D82A3
:101B44008C83E0C39414502CA3E06470F08D828CD9
:101B540083A3E0FF54401313543FFEEF54AF4EFFF2
:101B64008D828C83A3E05410FE25E025E04F8D8206
:101B74008C83A3F08D828C831220B01212AC0005EA
:0A1B84001EE51EB432F843B1022240
:0921AA00A3E0FF1221B3A3E0FF42
:1021B300C2A2E4FEEF30E704D2A18002C2A1D2A200
:0A21C300C2A2EF25E0FF0EBE08EAFD
:0121CD0022EF
:10225900E4FFC2A2FED2A230A0054307018000C25A
:0E226900A2EE64076004EF25E0FF0EBE08E75A
:012277002244
:0A1D9D008E2B8F2C8D2D8A2E8B2F9C
:101DA70043B140E4F530E530C3952D5036E52B902F
:101DB7003024F0E52CA3F0E52F2530F582E4352E0D
:101DC700F583E0903026F07A307B247D037F511233
:101DD70022947F51121F7F052CE52C7002052B05DD
:061DE7003080C353B1BFC0
:011DED0022D3
:0A1DEE008E2B8F2C8D2D8A2E8B2F4B
:101DF80043B140E52B90302CF0E52CA3F07A307BF2
:101E08002C7D027F51122294E4FFEFC3952D5010D0
:101E1800E52F2FF582E4352EF58374CDF00F80EA97
:0E1E2800AB2FAA2EAD2D7F5112227853B1BFE1
:011E36002289
:101D4A007F0312210AEF2402FFE43EA9077521014D
:101D5A00F52289237A307B247D087FF87E7F121D45
:101D6A00EEE4FF74242FF582E43430F583E0FEC3F9
:101D7A009420401AEED3947E5014AB21AA22A923B0
:101D8A0075F002EFA4F58285F083EE1200D00FBF42
:021D9A0008D16E
:011D9C002224
:1012CD007A307B247D027F3E7E74121DEE90302499
:1012DD00E0FEA3E04E7003021393E4F521F5229096
:1012ED003024E0FEA3E0D39522EE952150030213A6
:1012FD0093AE21AF227C007D061200F2EF2440FF59
:10130D00EE3474FE7A307B26121DEE903026E0FB13
:10131D006405704EA3E0FA6420902E237029F0A38B
:10132D00F0903029E0902E25F090302AE0902E2676
:10133D00F090302BE0902E27F0E4A3F0A3F07E2E5A
:10134D007F23121F468034EAF090302AE0902E243D
:10135D00F090302BE0902E25F07E2E7F23121B2453
:10136D008019C2A3EB547FFF1221B3903027E0FF09
:10137D001221B31221AA1221AAD2A30522E52270AD
:06138D000205210212EC32
:011393002237
:0100320022AB
:0500460043B180D3224C
:05004E0053B17FD32235
:0C003600E490E740F01211FA04F0D3222D
:0C231700E490E740F01211FA04F0D32229
:100424000000000090E6BAE0752100F522A3E0FE8A
:10043400EE4221A3E0FDA3E0FEEEFCA3E075230061
:10044400F524A3E0FEEE422390E6B8E05480FEA338
:10045400E0FBEBFF8EF0120274064700BD06B80005
:10046400BE059300BF04DF00C0054300C1048580BE
:10047400AF067680BD076D80BE05E480BF0000072F
:100484008DED64044C705290E7407428F0E412112E
:10049400EF04F0A37404F0E4A3F0A3041211E50440
:1004A400F0A37457F0A37449F0A3744EF0A37455E9
:1004B400F0A37453F0A374421211E51211EAF0D3BD
:1004C400E5249428E5239400400675230075242828
:1004D4001211F9E524F002078FD322E524640245C2
:1004E400236002D322E4F527F52812129C7002053A
:1004F40027142423F582742E3AF583E522F0E524AB
:10050400452360311211F9F00000000090E6A0E0EC
:1005140020E1F9E4F525F5261212655013121210A4
:1005240012129A7002052712121C70EC052580E83D
:1005340012123880C97E2E7F23121B24020673E513
:1005440024640745236002D322E4F527F528E52433
:10055400452360311211F9F00000000090E6A0E09C
:1005640020E1F9E4F525F526121265501312121054
:1005740012129A7002052712121C70EC052580E8ED
:1005840012123880C97E2E7F23121F46020673E59D
:1005940024640445236002D322C2A3E522547F12BB
:1005A40012B3E524452360331211F9F00000000072
:1005B40090E6A0E020E1F912124AE4F525F52612AE
:1005C40012545012121210E0FF1221B30526E52630
:1005D40070ED052580E912120280C7D2A3020767D5
:1005E400E524640445236002D322C2A3E5224480A7
:1005F4001212B3E5244523604590E6A0E020E1F91A
:100604001212BC50088523278524288006752700EC
:10061400752840E4F525F526121254501212225979
:10062400121210EFF00526E52670ED052580E9127B
:1006340011F9E528F00000000012120280B5D2A3DF
:1006440002078FE524452360261211F9F00000000B
:100654000090E6A0E020E1F912124AFD7AE77B401F
:10066400AF22AE21121D9D12127312120280D40207
:100674000767E5244523700302078F90E6A0E02076
:10068400E1F91212BC5008852327852428800675B9
:100694002700752840AD287AE77B40AF22AE2112AF
:1006A4001DEE1212731211F9E528F0000000001279
:1006B400120280BE902E22E0600E43A0B075B4BE3C
:1006C40012234FE4902E22F0D3E5249400E52394E2
:1006D40002400F903023740AF01212C67401F00223
:1006E400078FE4F529F52A7B017A2E792312232F2B
:1006F400E5244523604D1211F9F00000000090E656
:10070400A0E020E1F912124AE4F525F5261212546C
:100714005020121210E0FFE52A2526FDE529352593
:10072400FC74232DF582742E3C12122470DF0525EF
:1007340080DBE528252AF52AE5273529F529121233
:100744000280ADE522452170071212C604F0801321
:10075400122359903023EFF0D3940040061212C6AE
:100764007401F01211F9F08022E52464024523603B
:1007740002D32290E74074BEF0903023E090E7412A
:0C078400F01211F97402F08002D322C3BD
:010790002246
:1022C700C0E0C083C082D20112125E7401F0D082D6
:0522D700D083D0E032CD
:1022F100C0E0C083C08212125E7404F0D082D08329
:03230100D0E032F7
:10230400C0E0C083C08212125E7402F0D082D08317
:03231400D0E032E4
:10221500C0E0C083C08290E680E030E705121280FE
:10222500800312128D12125E7410F0D082D083D00A
:02223500E03295
:01004200328B
:10223700C0E0C083C08290E680E030E705121280DC
:10224700800312128D12125E7420F0D082D083D0D8
:02225700E03273
:0113FF0032BB
:01239000321A
:012391003219
:012392003218
:012393003217
:012394003216
:012395003215
:012396003214
:012397003213
:012398003212
:012399003211
:01239A003210
:01239B00320F
:01239C00320E
:01239D00320D
:01239E00320C
:01239F00320B
:0123A000320A
:0123A1003209
:0123A2003208
:0123A3003207
:0123A4003206
:0123A5003205
:0123A6003204
:0123A7003203
:0123A8003202
:0123A9003201
:0123AA003200
:0123AB0032FF
:0123AC0032FE
:0123AD0032FD
:0123AE0032FC
:0123AF0032FB
:0123B00032FA
:0123B10032F9
:0123B20032F8
:1022B000BF0206ED24FF92A422EDBF040524FF9285
:0722C000A72224FF92A522D2
:10215E008B528A538954AB7DAA7EA97F057CE57C80
:10216E00AE7B7002057B14F5828E8312006FAB522C
:07217E00AA53A9540200BEA0
:0C232F00E4F57BF57C8B7D8A7E897F22A3
:06238600A2A6E433FF22D1
:081942008F6A8E698D688C67C5
:10194A007F407E427D0F7C00AB6AAA69A968A867BE
:10195A00D31201B34019AF6AAE69AD68AC67E47BD4
:10196A000AFAF9F8121EC58F6A8E698D688C67E4C7
:10197A00F56EF56DF56CF56BAF6AAE69AD68AC677F
:10198A00AB6EAA6DA96CA86BC31201B35026E4FD15
:10199A007F011222B00D1222B0E4FAF9F8E56E24A2
:1019AA0001F56EEA356DF56DE9356CF56CE8356B68
:0419BA00F56B80C485
:0119BE002206
:101E3700FF236DFF21CEFF1728FF1694FF0003FF36
:101E47002376FF2376FF15F0FF1BEDFF1AB3FF2361
:101E570076FF2376FF1B8EFF1B8EFF1B8EFF1C4812
:101E6700FF1C48FF1C48FF2135FF1CF5FF1CF5FF31
:081E770014B8FF2345FF18C455
:100D0A00EE8FF090000612018690000612012FFF66
:100D1A00AEF0229000101201F090001412012FF58B
:100D2A003A85F039E92416F9E43A229000091200CA
:100D3A006FF56190000C1201F08F658E648D638CE3
:100D4A0062228B55F5568957755800755900755AA0
:100D5A0000755B00755C00755D00755E00755F006F
:100D6A0075600022AB2BAA2CA92DEE8FF0900006FD
:100D7A00020186903024E0FCA3E0FDA3E0FEA3E09C
:100D8A0022AF6AAE69AD68AC67EC4D4E4F22AF65D3
:100D9A00AE64AD63AC62EC4D4E4F22AC06AD072497
:100DAA0016F9E422AB67AA68A96922EEF0A3EFF06C
:100DBA00D39400EE6480948222AB2EAA2FA930022B
:100DCA000186AB2EAA2FA93090000812006FFF22CD
:100DDA00900006E4F5F0020186241CF9EA34048B3B
:100DEA003EF53F8940222419F9EA34028B41F54243
:100DFA0089432290000102006F900006E475F00614
:100E0A0022E92408F9E43AFA22E4F54BF54AF549CD
:100E1A00F548F54C22903031E4F0A37405F022AB8A
:100E2A004DAA4EA94F22241FF9EA34062290001433
:100E3A0002012FAB2EAA2FA93022AB2EAA2FA9303E
:100E4A00229000100201F08B3BF53C893D22900074
:100E5A000A02006F75440075450075460022AB2EE4
:0C0E6A00AA2FA93022AB2BAA2CA92D2204
:101C9F00E41200BE9000011200D090000212025018
:101CAF0000000000E4F5F0120D7790000BE4120035
:101CBF00D0900008E41200D090000974011200D0F7
:101CCF0090000A74011200D0900010120250000010
:101CDF000000900014120DDD90000C120250000055
:061CEF000000E4FEFF22EC
:1021F2008F348E338D328C31E5342407FFE435334E
:10220200FEE43532FDE43531FCE47B08FAF9F812DC
:032212001EC522C4
:1022DC00AD077F021222B0E4FD7F011222B07D0116
:0522EC007F010222B099
:080791008B678A6889698D6A93
:10079900E4903031F0A3F0E56A70357F011222DC74
:1007A900E4F56BF56CE4FD7F011222B07D017F0158
:1007B9001222B0056CE56C7002056BC39405E56BFC
:1007C9006480948040DF120DAEE41200BE02095726
:1007D900120DAE120056FF656A6019E56AB4070486
:1007E900EFB4060AE56AB40E0BEF640D6006120E4B
:1007F9001F020957E56AB5070EB406030208ADE5FD
:100809006AB40D03020917120DAE120056FF656A8C
:100819007003020957EFB410004003020949900818
:100829002EF828287302085E02086102086402088B
:100839007B0208900208980208AD0208B50208CAAE
:100849000208DF0208E70208FC020904020917028C
:10085900091E0209310208CF0208D7E56AC39409C3
:1008690040081209607409020951120978740302D7
:100879000951E56AB404081209787404020951128D
:100889000960740502095112096C7405020951E5E0
:100899006AB40608120990740602095112096C74A7
:1008A900080209511209847407020951E56AB4045E
:1008B9000812099074040209511209847408020982
:1008C90051E56AB401081209A87401020951120913
:1008D9009C74020209511209A8740A020951E56AB5
:1008E900B40B081209C0740B02095112099C740C4B
:1008F9000209511209B4740C020951E56AB40D07D1
:100909001209C0740D80411209B4740F803A12099A
:10091900CC740E8033E56AB40B071209D8740B80C6
:10092900271209CC740F8020E56AB401071209D88F
:10093900740180147F011222DC120DAE740280084A
:10094900120E1F120DAEE56A1200BE020810903099
:0609590031E0FEA3E0FF07
:10095F00227F011222DCAB67AA68A969227F0112EC
:10096F0022DCAB67AA68A96922E4FF1222DCAB671D
:10097F00AA68A969227F011222DCAB67AA68A9695C
:10098F0022E4FF1222DCAB67AA68A969227F011259
:10099F0022DCAB67AA68A96922E4FF1222DCAB67ED
:1009AF00AA68A969227F011222DCAB67AA68A9692C
:1009BF0022E4FF1222DCAB67AA68A969227F011229
:1009CF0022DCAB67AA68A96922E4FF1222DCAB67BD
:0509DF00AA68A96922CD
:0E0E76008F6A8E698D688C678B6B8A6C896DB4
:100E8400757600757700757800E56F4570456E607E
:100E94003C120104FFAB6EAA6FA970E5F08FF0124B
:100EA4000167AB6EE5702402F9E4356FFAC003C044
:100EB40002C001AB6BAA6CA96D120104D001D0026F
:100EC400D00329F9EA35F08B76F5778978AB6BE5B1
:100ED4006D2402F9E4356CFAC002C001AA6CA96D54
:100EE400120104D001D00229F9EA35F08B73F574AC
:100EF4008975120D8B7003020FCEAB73E5751575F2
:100F04007002157414F9AA74120056903031F0E48A
:100F1400A3F0F579F57A120D8B7003020FA9C3E5DE
:100F24007A9408E57964809480507A74FF2FF56A86
:100F3400EE34FFF569ED34FFF568EC34FFF567E551
:100F4400724571600C120D8B70077D017F021222B5
:100F5400B0903031E05401FD7F041222B090303162
:100F6400E0C313F0E4FD7F011222B0E57745784534
:100F7400766020122386903033EFF0903032E0FF19
:100F8400AE7AA3E0FDA806088002C333D8FC4F90D4
:100F94003032F07D017F011222B0057AE57A7002C9
:100FA4000579020F1AE577457845767003020EF647
:100FB400903032E0FFAB76E578157870021577143F
:0A0FC400F9AA77EF1200BE020EF644
:010FCE002200
:080B89008B4D8A4E894F8D50FF
:100B9100E490302AF0A3F0A3F0A3F0A3F0E55065B0
:100BA100617E0060047F0180027F0090302FEEF0B3
:100BB100A3EFF0AF54AE53AD52AC51EC4D4E4F706C
:100BC10011120D987003020CB8120CEC12194202AA
:100BD1000CB8AD50120D00AF54AE53AD52AC5185AF
:100BE100586E85596F855A7090302FE0F571A3E0EA
:100BF100F572AB55AA56A957120E76E55C455D45CF
:100C01005B602D85586A85596B855A6C855E6D854B
:100C11005F6E85606FAB5BAA5CA95D121394EF4EAA
:100C210070047F0180027F0090302CE4F0A3EFF08C
:100C310090302FE07002A3E06063120E297401125C
:100C4100009C90302CE07002A3E0603E120D986091
:100C51003990302EE0C3956650307D06120D00129A
:100C61000E297D04120791AF65AE64AD63AC627865
:100C7100021201C9E5652FF565E5643EF564E5639A
:100C81003DF563E5623CF5628008120E29AD611203
:100C91000791120D986006120CEC12194290302C3B
:100CA100E07002A3E0601090302EE0FF04F0EFC38B
:100CB10095665003020BD390302CE07002A3E060E4
:100CC10021E566601490302EE0D39566400B90309C
:100CD1002AE4F0A37403F0800990302AE4F0A374AD
:0A0CE10002F090302AE0FEA3E0FFCD
:100CEB0022AB4DAA4EA94F7D01120791AF65AE64A1
:0F0CFB00AD63AC6222AB4DAA4EA94F12079122F6
:101846008B328A3389348F388E378D368C35AB3B65
:10185600AA3CA93DAD3AAC39121F09E542454345BC
:1018660041600DAB41AA42A943AD3AAC39121F09FA
:10187600853854853753853652853551853B558590
:101886003C56853D57853E58853F5985405A85418A
:101896005B85425C85435D85445E85455F85466024
:1018A600854761854B65854A6485496385486285B8
:0E18B6004C66AB32AA33A9347D04120B892292
:08237600E475F004120D0D22C4
:09236D0074011200BEE4FEFF221F
:1021CE008B2E8A2F8930E9120E30FAC002C001AA76
:1021DE002FA930120E37FDACF0D001D002121F091C
:0421EE00E4FEFF22EA
:061728008B2E8A2F893090
:10172E007B017A30792412215E1217AD903025128A
:10173E000DB54009120E3D120E030217A31217AD7E
:10174E00AB2EE530120DA5352FFA121F09AB2EE583
:10175E00302408F9E4352FFAC003C002C0019030DE
:10176E0024E0FFE48F54F553F552F551E53024167D
:10177E00F9E4352F120D4CAA2FA930120D35E4F5D0
:10178E0066D001D002D0037D0B120B89120E3D9054
:0E179E000006EE8FF0120186120E3D120D13A2
:0E17AC0022903024E0FFE4FCFDFE1221F22228
:0614B8008B2E8A2F893003
:1014BE00120D2EFA7D027C00121F09AB2EE5302490
:1014CE0016F9E4352FFA121A3A9030241202441209
:1014DE000D7DFF1221F2903028120DB54009120E2B
:1014EE0044120E0302154E120D7DFF1221F2AB2E89
:1014FE00E530120DA5352FFA121F09AB2EE530245B
:10150E0008F9E4352FFAC003C002C001120D7DF5B3
:10151E00548E538D528C51E5302416F9E4352F122A
:10152E000D4CAA2FA930120D35E4F566D001D0026C
:10153E00D0037D0B120B89120E44900006EE8FF035
:09154E00120186120E44120D1365
:011557002271
:101694008B2E8A2F8930120D2EFAC002C001AA2F78
:1016A400A930120E37FDACF0D001D002121F09ABE5
:1016B4002EE5302408F9E4352FFAC003C002C00136
:1016C400AA2FA930120E4B8F548E538D528C511267
:1016D4000D2E8B55F5568957E530241CF9EA340450
:1016E4008B58F559895AE5302419F9EA34028B5B91
:1016F400F55C895DE530120E308B5EF55F8960A97B
:101704003090000A120D3890000B12006FF566D06D
:1017140001D002D0037D04120B89AB2EAA2FA9306D
:04172400120D0A2276
:100003008B2E8A2F8930120D2EFA7D047C00121F4D
:1000130009AB2EE5302416F9E4352FFA121A3AAB60
:0F0023002EAA2FA93090000C120220E4FEFF221B
:0E15F000E9240BF9E43AFA12215EE4FEFF2230
:101BED008B2E8A2F8930120DDA120D2EFA7D047C80
:101BFD0000121F09AB2EE5302416F9E4352FFA1229
:101C0D001A3AAB2EAA2FA930900010120220120EF4
:101C1D004B1221F2900014EE8FF0120DC3120E37FD
:101C2D00D39400E5F0648094824006120E03120DE9
:0B1C3D00C3AB2EAA2FA930120D1322FA
:101AB3008B2E8A2F8930120E0BC003C002C001AADD
:101AC3002FA930120E4BC004C005C006C007120D6B
:101AD30023120E51E530120DE3E530120DF0E5301F
:101AE300120E308B44F5458946A930120E58F5473E
:101AF30090000C1201F08F4B8E4A8D498C48900058
:101B03000B12006FF54CD007D006D005D004D001DE
:101B1300D002D003121846AB2EAA2FA930120D0AF9
:011B2300229F
:061B8E008B2E8A2F893026
:101B9400120DFDB40E06120E58FF80027F048F3121
:101BA400AB2EE5302408F9E4352FFAC003C002C097
:101BB40001AA2FA930120D1D120E51753E00753F5A
:101BC40000754000754100754200754300120E5EB9
:101BD400853147120E13D001D002D003121846AB40
:081BE4002EAA2FA930120D0AF0
:011BEC0022D6
:061C48008B2E8A2F89306B
:101C4E00120DFDB41106120E58FF80027F048F3163
:101C5E00AB2EE5302408F9E4352FFAC003C002C0DC
:101C6E0001AA2FA930120D1D120E51E530120DE3EF
:101C7E00E530120DF0120E5E853147120E13D001B3
:101C8E00D002D003121846AB2EAA2FA930120D0A7D
:011C9E002223
:062135008B2E8A2F893079
:10213B007B007A00793112215EAB2EE5302408F951
:10214B00E4352FFAAD31120791AB2EAA2FA930121D
:02215B000D0A6B
:01215D00225F
:061CF5008B2E8A2F8930BE
:101CFB00120DDA7B007A00793112215EE531601327
:101D0B006401600F120E68900006E475F005120175
:101D1B00868025120E68120DFDB4130DE53190006F
:101D2B00097002800B740D800CE53190000A700372
:0E1D3B0004800274061200D0120E68120D13FE
:011D49002277
:0A234500900006E4F5F0120D1022DE
:0618C4008B2E8A2F8930F3
:1018CA00120D2E12192D903024F0120D2E12192DF0
:1018DA00903025F0120D2EFA7D047C00121F09AB00
:1018EA002EE5302416F9E4352FFA121A3A903026EA
:1018FA00120244120DCC903024E0FD6F6006120EE5
:10190A000B120791903026120D80FF121942120D08
:10191A00CC903025E0FD6F6006120E0B120791E4A1
:02192A00FEFFBE
:10192C0022FA7D017C00121F09AB2EAA2FA9309040
:06193C00001812006F22EA
:101FEB008B2B8A2C892D121C9F120D6E90000612C2
:101FFB00012F45F07013AB2BE52D2408F9E4352C9C
:10200B00FAE4FD120791120D6EAB2BAA2CA92D121F
:03201B000D132280
:1019BF008B2B8A2C892D90000612012F45F0706415
:1019CF00120056705FE92401F9E43AFA12215E120F
:1019DF000E6F9000021201F0E4FAF9F8EF2401FF04
:1019EF00EA3EFEE93DFDE83CFCAA2CA92D90000241
:1019FF00120220120DFDFFC39418120E6F5022C059
:101A0F0002EF75F003A42437F582E4341EF58374D6
:101A1F000193FA740293F5828A83D0021202A58091
:0B1A2F0003122376120E6F120D13221B
:0A234F007B017A267900121FEB22B1
:0A2359007B017A2679001219BF22D9
:0A236300FAE92FF9EA3EFA020056EB
:061A3A008B318A32893372
:101A4000E4F537F536F535F534F538F539AB31AA27
:101A500032A933120104FFC3E5399FE5F06480F831
:101A6000E5386480985043AF37AE36AD35AC347846
:101A7000081201DD8F378E368D358C34E92402F95A
:101A8000E43AFAE92539F9EA3538FA120056FFE561
:101A9000374FF537E536F536E535F535E534F534C8
:101AA0000539E53970A7053880A3AF37AE36AD35B7
:021AB000AC3454
:011AB2002211
:061394008B678A6889697D
:10139A00757000757101120104FFAEF0E5714570B8
:1013AA00604EEF1FAC0670011E4C6044AB67E569E6
:1013BA002402F9E43568122363F572AB6AE56C24FA
:1013CA0002F9E4356B122363F573E56E456F456DDB
:1013DA006011AB6DE56F2402F9E4356E1223635296
:1013EA00725273E572657360B3E4F570F57180AC9F
:0413FA00AE70AF71B1
:0113FE0022CC
:041F09008C4D8D4E20
:101F0D00E54D854EF0120167E92402F9E43A8B4F55
:101F1D00F5508951E54E454D601EAB4FAA50A95164
:101F2D0012215EE54E154E7002154D74012551F5C9
:081F3D0051E43550F55080DC41
:011F45002279
:1020DE0090E682E030E004E020E60B90E682E0300D
:1020EE00E119E030E71590E680E04401F07F147EC0
:0C20FE0000121E7F90E680E054FEF022ED
:1020810030040990E680E0440AF0800790E680E0A1
:102091004408F07FDC7E05121E7F90E65D74FFF040
:0F20A10090E65FF05391EF90E680E054F7F02265
:08237E00E4F51DD2E9D2AF2203
:101F7F00AD0790E678E020E6F9C2E990E678E04414
:101F8F0080F0ED25E090E679F090E678E030E0F92A
:101F9F0090E678E04440F090E678E020E6F990E6AD
:081FAF0078E030E1D6D2E9220E
:10201E00AC0790E678E020E6F9E51D702390E678AF
:10202E00E04480F0EC25E090E679F08D18AF03A93E
:10203E00077519018A1A891BE4F51C751D01D32237
:02204E00C322AB
:101FB700AC0790E678E020E6F9E51D702590E67815
:101FC700E04480F0EC25E0440190E679F08D18AF0D
:101FD70003A9077519018A1A891BE4F51C751D03E6
:041FE700D322C3221C
:03004B000210DDC3
:1010DD00C0E0C083C082C085C084C086758600C054
:1010ED00D075D000C000C001C002C003C006C0074B
:1010FD0090E678E030E206751D060211C790E6789D
:10110D00E020E10CE51D64026006751D070211C7A4
:10111D00E51D24FE605F14603624FE70030211B8D5
:10112D0024FC70030211C4240860030211C7AB191B
:10113D00AA1AA91BAF1C051C8F8275830012006FA4
:10114D0090E679F0E51C65187070751D05806B9043
:10115D00E679E0AB19AA1AA91BAE1C8E8275830025
:10116D001200D0751D02E5186401704E90E678E00E
:10117D004420F08045E51824FEB51C0790E678E084
:10118D004420F0E51814B51C0A90E678E04440F0D0
:10119D00751D0090E679E0AB19AA1AA91BAE1C8E3D
:1011AD00827583001200D0051C800F90E678E04414
:1011BD0040F0751D008003751D005391DFD007D0E1
:1011CD0006D003D002D001D000D0D0D086D084D0AC
:0811DD0085D082D083D0E032FE
:02210A00A90723
:10210C00AE16AF178F828E83A3E064037017AD01F8
:10211C0019ED7001228F828E83E07C002FFDEC3E46
:08212C00FEAF0580DFE4FEFFB9
:012134002288
:10227800121FB7E51D24FA600E146006240770F3D8
:0C228800D322E4F51DD322E4F51DD3227F
:1022940012201EE51D24FA600E146006240770F354
:0C22A400D322E4F51DD322E4F51DD32263
:1021850090E682E044C0F090E681F04387010000CC
:042195000000002224
:101E7F008E218F2290E600E054187012E522240183
:101E8F00FFE43521C313F521EF13F522801590E6FA
:101E9F0000E05418FFBF100BE52225E0F522E521E5
:101EAF0033F521E5221522AE21700215214E600572
:061EBF0012219980EE22C1
:102199007400F58690FDA57C05A3E582458370F959
:0121A9002213
:030000000217BA2A
:0C17BA00787FE4F6D8FD75817F021801ED
:10005600BB010689828A83E0225002E722BBFE02A8
:09006600E32289828A83E49322DB
:10006F00BB010CE58229F582E5833AF583E0225046
:10007F0006E92582F8E622BBFE06E92582F8E22290
:0D008F00E58229F582E5833AF583E49322AA
:10009C00BB010989828A83F8E028F022500327F7F4
:1000AC0022BBFE05F8E328F3228A838982F8E493C5
:0200BC002822F8
:1000BE00BB010689828A83F0225002F722BBFE0121
:0200CE00F3221B
:1000D000F8BB010DE58229F582E5833AF583E8F066
:1000E000225006E92582C8F622BBFE05E92582C812
:0200F000F222FA
:1000F200EF8DF0A4A8F0CF8CF0A428CE8DF0A42E22
:02010200FE22DB
:10010400BB010A89828A83E0F5F0A3E022500687C6
:10011400F009E71922BBFE07E3F5F009E319228988
:0B012400828A83E493F5F074019322BB
:10012F00BB0110E58229F582E5833AF583E0F5F00E
:10013F00A3E0225009E92582F886F008E622BBFEEB
:10014F000AE92582F8E2F5F008E222E5832AF58331
:08015F00E993F5F0A3E99322F6
:10016700BB010A89828A83F0E5F0A3F0225006F7E3
:0F01770009A7F01922BBFE06F3E5F009F31922E0
:10018600F8BB0111E58229F582E5833AF583E8F0AB
:10019600E5F0A3F0225009E92582C8F608A6F02268
:0D01A600BBFE09E92582C8F2E5F008F2224F
:101EC500C2D5E830E70FB2D5E4C39BFBE49AFAE448
:101ED50099F9E498F8EC30E717B2D5121EFB120217
:101EE500E3E4C39BFBE49AFAE499F9E498F88003E8
:101EF5001202E330D50DE4C39FFFE49EFEE49DFD91
:041F0500E49CFC223A
:1001B300EB9FF5F0EA9E42F0E99D42F0EC6480C8C3
:0601C30064809845F02263
:1001C900E86010ECA2E713FCED13FDEE13FEEF134C
:0401D900FFD8F02239
:1001DD00E8600FEFC333FFEE33FEED33FDEC33FC80
:0301ED00D8F12224
:1001F000BB010DE58229F582E5833AF5830203818F
:100200005007E92582F8020375BBFE07E92582F84D
:1002100002038DE58229F582E5833AF5830203998D
:10022000BB010DE58229F582E5833AF5830202449C
:100230005007E92582F80203A9BBFE07E92582F8E9
:040240000203B522DE
:0C024400ECF0A3EDF0A3EEF0A3EFF0222D
:10025000BB010DE58229F582E5833AF5830203DAD5
:100260005007E92582F80203C1BBFE07E92582F8A1
:0402700002040B2257
:10027400D083D082F8E4937012740193700DA3A319
:1002840093F8740193F5828883E473740293B5F050
:0D029400067403936860E9A3A3A3A380D8B8
:0602A1008A838982E473E8
:1017C600021558E493A3F8E493A34003F68001F2CC
:1017D60008DFF48029E493A3F85407240CC8C33324
:1017E600C4540F4420C8834004F456800146F6DFF3
:1017F600E4800B0102040810204080902323E47E3D
:10180600019360BCA3FF543F30E509541FFEE493E7
:10181600A360010ECF54C025E060A840B8E493A3AE
:10182600FAE493A3F8E493A3C8C582C8CAC583CAD9
:10183600F0A3C8C582C8CAC583CADFE9DEE780BE91
:01232E0000AE
:1002A70075F008758200EF2FFFEE33FECD33CDCC0E
:1002B70033CCC58233C5829BED9AEC99E582984091
:1002C7000CF582EE9BFEED9AFDEC99FC0FD5F0D66E
:1002D700E4CEFBE4CDFAE4CCF9A88222B800C1B998
:1002E7000059BA002DEC8BF084CFCECDFCE5F0CBD6
:1002F700F97818EF2FFFEE33FEED33FDEC33FCEB0F
:1003070033FB10D703994004EB99FB0FD8E5E4F9C9
:10031700FA227818EF2FFFEE33FEED33FDEC33FCB6
:10032700C933C910D7059BE99A4007EC9BFCE99AAA
:10033700F90FD8E0E4C9FAE4CCFB2275F010EF2FEF
:10034700FFEE33FEED33FDCC33CCC833C810D707EF
:100357009BEC9AE899400AED9BFDEC9AFCE899F82A
:0E0367000FD5F0DAE4CDFBE4CCFAE4C8F922BD
:0C037500E6FC08E6FD08E6FE08E6FF22B4
:0C038100E0FCA3E0FDA3E0FEA3E0FF22EF
:0C038D00E2FC08E2FD08E2FE08E2FF22AC
:10039900E493FC740193FD740293FE740393FF22AA
:0C03A900ECF608EDF608EEF608EFF62280
:0C03B500ECF208EDF208EEF208EFF22284
:1003C100D083D082E493F608740193F60874029303
:0903D100F608740393F67404733A
:1003DA00A8828583F0D083D0821203F11203F1122E
:1003EA0003F11203F1E473E493A3C583C5F0C58353
:1003FA00C8C582C8F0A3C583C5F0C583C8C582C86D
:01040A0022CF
:10040B00D083D082E493F208740193F208740293C0
:09041B00F208740393F2740473F7
:00000001FF
