:1017000012010002000000402A151B8400000102A3
:1017100003010A060002000000400100090219004E
:1017200001010080C80904000001FF000000070556
:1017300082020002000902190001010080C80904A8
:10174000000001FF000000070582024000000403C2
:101750000904080349004E004900140344004100F5
:101760005600690053002000460058003200120362
:1017700030003000300030003000300030003000E9
:1017800012034D0053004600540031003000300079
:04179000AF000000A6
:03004300021500A3
:0300530002150093
:10150000022365000223A20002238F000200420092
:101510000222CF000222F10002243E0002243F00FA
:10152000022440000224410002244200022443001D
:1015300002244400022445000224460002244700FD
:101540000224480002243F000224490002244A00E9
:1015500002244B0002244C0002244D0002244E00C1
:1015600002244F0002243F0002243F0002243F00D7
:10157000022450000224510002245200022453008D
:10158000022454000224550002245600022457006D
:10159000022458000224590002245A0002245B004D
:1015A00002245C0002245D0002245E0002245F002D
:0815B000022460000224610026
:0A23E70000010202030304040505CF
:1014CF00EC4EFEED4F24E7F58274233EF583E49353
:1014DF00FF3395E0FEEF24A1FFEE34E68F82F58314
:1014EF002290E6BCE0547EFF7E00E0D394807C0027
:0114FF0022CA
:1015B800C200C202C20112102CC2AF750C17750D01
:1015C80000751417751512750A17750B1C75121707
:1015D80075133575161775174E750817750980D266
:1015E800E890E668E04409F090E65CE04435F0D223
:1015F800AF121E2412124290E680E020E105D204C8
:1016080012213B90E680E054F7F0538EF8C20312A3
:101618000032300105120A41C2013003F2120046BD
:1016280050EDC20312223F20001690E682E030E718
:1016380004E020E1EF90E682E030E604E020E0E418
:0816480012219812004E80C728
:02243C00D322A9
:100A410090E6B9E07003020AFD147003020B492419
:100A5100FE7003020B9B24FB7003020AF714700360
:100A6100020BDE147003020AF1147003020BDE2480
:100A7100056003020BD290E6BBE024FE6027146000
:100A81003824FD601114602724067061E50C90E69E
:100A9100B3F0E50D804D12243C504FE51490E6B3C0
:100AA100F0E515803EE50E90E6B3F0E50F8034E504
:100AB1001090E6B3F0E511802A90E6BAE0B4EE0AB0
:100AC100E50890E6B3F0E509801990E6BAE0FF1277
:100AD10021C4AA06A9077B01EA494B600DEE90E605
:100AE100B3F0EF90E6B4F0020BDE020BCD020BCDBA
:100AF1001223C3020BDE120036020BDE90E6B8E0D1
:100B0100247F60151460192402703AA200E4332591
:100B1100E0FFA202E4334F8018E490E740F0801632
:100B21001214F040047D0180027D001214CFE054C4
:100B31000190E740F0E4A3F090E68AF090E68B7430
:100B410002F0020BDE020BCD90E6B8E024FE601647
:100B510024026003020BDE90E6BAE0B40105C20094
:100B6100020BDE020BCD90E6BAE0702C1214F040BD
:100B7100047D0180027D001214CFE054FEF090E666
:100B8100BCE05480131313541FFFE0540F2F90E661
:100B910083F0E04420F08045803290E6B8E024FE06
:100BA100601A2402702690E6BAE0B40104D20080F3
:100BB1002C90E6BAE0B40202802380101214F040B7
:100BC100047D0180027D001214CF800D90E6A0808B
:100BD10008120479500790E6A0E04401F090E6A0E5
:040BE100E04480F07C
:010BE50022ED
:030033000224386C
:0424380053D8EF3254
:0B23CF00412E220141302300011E00BE
:10134700F0E4A3F0A3F0A3F0A3F0A3F0A3F0A3F0BD
:10135700A3F0A322E490E68AF090E68B22C3E5246B
:101367009528F524E5239527F5232274402526F5AE
:1013770082E434E7F58322142423F582742E3AF5A8
:1013870083EFF00526E52622F582E43CF583E0FFAE
:1013970002217890E68BE0FFC3E5249FF524E5233F
:1013A7009400F5232290E68BE0752700F52822C3E9
:1013B700E5269528E5259527225391EF90E65D22AE
:1013C70090E68BE0FFC3E5269FE525940022E528FC
:1013D7002522F522E5273521F52122850A0E850BE1
:1013E7000F8512108513112285120E85130F850A9A
:1013F70010850B1122E0FF0528E528AA27228D82F8
:101407008C83E0FF02217853B1FDE4F51E22FF1221
:10141700226DAF0502226DC3E5249440E5239400B5
:081427002275B40E902E222262
:10102C0090E6007410F090E60174A3F0E4F5A87556
:10103C00E8E30000000090E60B7403F000000000F1
:10104C00E490E670F00000000090E671F000000003
:10105C000090E672F000000000F58075A0B875B144
:10106C002300000000F5B275B40E75B6F700000051
:10107C000090E61274E0F00000000090E610E054DE
:10108C007FF00000000090E611E0547FF0000000BB
:10109C000090E613E0547FF00000000090E614E0AE
:1010AC00547FF00000000090E615E0547FF0000043
:1010BC00000090E6047480F0000000007482F000E0
:1010CC00000000E4F00000000090E6187409F00045
:1010DC0000000090E60274C4F000000000E490E60A
:1010EC0003F00000000090E6097403F0000000001B
:1010FC0090E62014F000000000E490E621F00000DF
:10110C00000090E63074C1F00000000090E63174ED
:10111C00F2F012242A90E67AE04401F043B180E424
:0E112C00F51E00051EE51EB414F853B17F2217
:0E216A00A3E0FF1221788D828C83A3A3E0FFF7
:1021780043B120E4FEEF30E70543B110800353B1CB
:0F218800EF53B1DF43B120EF25E0FF0EBE08E6B5
:012197002225
:10203100AD07AC0643B10412140512216A8D828CDE
:1020410083A3122174ED240412138FED24051213BE
:102051008FED240612138F12140E00051EE51EB417
:0920610032F843B10253B1FB2235
:101BFB00AD07AC0653B1FB53B1FE12140512140E14
:101C0B0000051EE51EB432F843B10243B1018D82CB
:101C1B008C83E0C39414502CA3E06470F08D828C01
:101C2B0083A3E0FF54401313543FFEEF54AF4EFF1A
:101C3B008D828C83A3E05410FE25E025E04F8D822E
:101C4B008C83A3F08D828C8312216A12140E0005F3
:0A1C5B001EE51EB432F843B1022268
:09226400A3E0FF12226DA3E0FFCC
:10226D00C2A2E4FEEF30E704D2A18002C2A1D2A245
:0A227D00C2A2EF25E0FF0EBE08EA42
:012287002234
:10231300E4FFC2A2FED2A230A0054307018000C29F
:0E232300A2EE64076004EF25E0FF0EBE08E79F
:012331002289
:0A1D1F008E2B8F2C8D2D8A2E8B2F1A
:101D290043B140E4F530E530C3952D503CE52B90A7
:101D39003024F0E52CA3F0E52F2530F582E4352E8B
:101D4900F583E0903026F07A307B247D037F5112B1
:101D59002332400453B1BF227F5112206A052CE57A
:0D1D69002C7002052B053080BD53B1BFD397
:011D7600224A
:0A1ECE008E2B8F2C8D2D8A2E8B2F6A
:101ED80043B140E52B903032F0E52CA3F07A307B0B
:101EE800327D027F5112233240028025E4FFEFC386
:101EF800952D5010E52F2FF582E4352EF58374CDFE
:101F0800F00F80EAAB2FAA2EAD2D7F511216E440B8
:091F18000453B1BF2253B1BFD341
:011F2100229D
:101E24007F031221C4EF2402FFE43EA907752101B8
:101E3400F52289237A307B247D087FF87E7F121E69
:101E4400CE5031E4FF74242FF582E43430F583E07E
:101E5400FEC39420401AEED3947E5014AB21AA22E0
:101E6400A92375F002EFA4F58285F083EE1200D069
:041E74000FBF08D1C3
:011E78002247
:101242007A307B247D087F387E74121ECE400302E2
:101252001346903024E064436003021346A3E06423
:101262004F6003021346A3E0644E6003021346A3D9
:10127200E064466003021346903028E0F523A3E0C1
:10128200F524E52445237003021346AE23AF247CE4
:10129200007D061201048E238F24E4F521F522C37A
:1012A200E5229524E52195234003021346AE21AFA2
:1012B200227C007D061200F2EF2440FFEE3474FE21
:1012C2007A307B2C121ECE507090302CE0FB6405DD
:1012D200704EA3E0FA6420902E237029F0A3F090C0
:1012E200302FE0902E25F0903030E0902E26F090B6
:1012F2003031E0902E27F0E4A3F0A3F07E2E7F237E
:101302001220318034EAF0903030E0902E24F090B8
:101312003031E0902E25F07E2E7F23121BFB8019A8
:10132200C2A3EB547FFF12226D90302DE0FF1222F8
:101332006D122264122264D2A30522E522700205F4
:04134200210212A1D1
:011346002284
:0100320022AB
:0500460043B180D3224C
:05004E0053B17FD32235
:0C003600E490E740F012135C04F0D322C9
:0C23C300E490E740F012135C04F0D32219
:100479000000000090E6BAE0752100F522A3E0FE35
:10048900EE4221A3E0FDA3E0FEEEFCA3E07523000C
:10049900F524A3E0FEEE422390E6B8E05480FEA3E3
:1004A900E0FBEBFF8EF01202C9069C00BD071500A8
:1004B900BE05E800BF053400C0059800C104DA8014
:1004C900AF06CF80BD07CA80BE063980BF000007CE
:1004D900EAED64044C705290E7407428F0E412137A
:1004E9005104F0A37404F0E4A3F0A3041213470425
:1004F900F0A37457F0A37449F0A3744EF0A3745594
:10050900F0A37453F0A3744212134712134CF0D39F
:10051900E5249428E52394004006752300752428D2
:1005290012135BE524F00207ECD322E524640245AB
:10053900236002D322E4F527F5281213FE70020581
:1005490027142423F582742E3AF583E522F0E52455
:100559004523603112135BF00000000090E6A0E033
:1005690020E1F9E4F525F5261213C7501312137289
:100579001213FC7002052712137E70EC052580E822
:1005890012139A80C97E2E7F23121BFB0206CCE52B
:1005990024640745236002D322E4F527F528E524DE
:1005A9004523603112135BF00000000090E6A0E0E3
:1005B90020E1F9E4F525F5261213C7501312137239
:1005C9001213FC7002052712137E70EC052580E8D2
:1005D90012139A80C97E2E7F231220310206CCE5A0
:1005E90024640445236002D322C2A3E522547F1266
:1005F9001415E5244523603312135BF00000000055
:1006090090E6A0E020E1F91213ACE4F525F52612F5
:1006190013B65012121372E0FF12226D0526E52659
:1006290070ED052580E912136480C7D2A30207C4BF
:10063900E524640445236002D322C2A3E522448051
:10064900121415E5244523604590E6A0E020E1F960
:1006590012141E5008852327852428800675270033
:10066900752840E4F525F5261213B6501212231306
:10067900121372EFF00526E52670ED052580E912C3
:10068900135BE528F00000000012136480B5D2A3C3
:100699000207ECE5244523602A12135BF0000000F1
:1006A9000090E6A0E020E1F91213ACFD7AE77B4067
:1006B900AF22AE21121D1F4002D3221213D51213ED
:1006C9006480D00207C4E524452370030207EC9037
:1006D900E6A0E020E1F912141E500885232785249D
:1006E900288006752700752840AD287AE77B40AF3A
:1006F90022AE21121ECE4002D3221213D512135B51
:10070900E528F00000000012136480BA902E22E060
:10071900600E43A0B075B4BE1223FBE4902E22F004
:10072900D3E5249400E5239402400F903023740A02
:10073900F01214287401F00207ECE4F529F52A7B7C
:10074900017A2E79231223DBE5244523604D121308
:100759005BF00000000090E6A0E020E1F91213AC84
:10076900E4F525F5261213B65020121372E0FFE5C1
:100779002A2526FDE5293525FC74232DF582742EBD
:100789003C12138670DF052580DBE528252AF52A2A
:10079900E5273529F52912136480ADE52245217035
:1007A9000712142804F08013122405903023EFF067
:1007B900D3940040061214287401F012135BF080E0
:1007C90022E524640245236002D32290E74074BEE7
:1007D900F0903023E090E741F012135B7402F0804F
:0407E90002D322C352
:0107ED0022E9
:10236500C0E0C083C082D2011213C07401F0D082D4
:05237500D083D0E0322E
:10238F00C0E0C083C0821213C07404F0D082D08327
:03239F00D0E03259
:1023A200C0E0C083C0821213C07402F0D082D08316
:0323B200D0E03246
:1022CF00C0E0C083C08290E680E030E7051213E2E1
:1022DF0080031213EF1213C07410F0D082D083D08A
:0222EF00E032DB
:01004200328B
:1022F100C0E0C083C08290E680E030E7051213E2BF
:1023010080031213EF1213C07420F0D082D083D057
:02231100E032B8
:01243E00326B
:01243F00326A
:012440003269
:012441003268
:012442003267
:012443003266
:012444003265
:012445003264
:012446003263
:012447003262
:012448003261
:012449003260
:01244A00325F
:01244B00325E
:01244C00325D
:01244D00325C
:01244E00325B
:01244F00325A
:012450003259
:012451003258
:012452003257
:012453003256
:012454003255
:012455003254
:012456003253
:012457003252
:012458003251
:012459003250
:01245A00324F
:01245B00324E
:01245C00324D
:01245D00324C
:01245E00324B
:01245F00324A
:012460003249
:012461003248
:10234E00BF0206ED24FF92A422EDBF040524FF92E6
:07235E00A72224FF92A52233
:102218008B528A538954AB7DAA7EA97F057CE57CC5
:10222800AE7B7002057B14F5828E8312006FAB5271
:07223800AA53A9540200BEE5
:0C23DB00E4F57BF57C8B7D8A7E897F22F7
:06243200A2A6E433FF2224
:0819AE008F6A8E698D688C6759
:1019B6007F407E427D0F7C00AB6AAA69A968A86752
:1019C600D31202084019AF6AAE69AD68AC67E47B12
:1019D6000AFAF9F8121FB08F6A8E698D688C67E46F
:1019E600F56EF56DF56CF56BAF6AAE69AD68AC6713
:1019F600AB6EAA6DA96CA86BC31202085026E4FD53
:101A06007F0112234E0D12234EE4FAF9F8E56E24F7
:101A160001F56EEA356DF56DE9356CF56CE8356BFB
:041A2600F56B80C418
:011A2A002299
:101F2200FF2419FF2288FF1794FF1650FF0003FFBA
:101F32002422FF2422FF23B5FF1CC4FF1B1FFF2402
:101F420022FF2422FF1C65FF1C65FF1C65FF1D7715
:101F5200FF1D77FF1D77FF21EFFF1E79FF1E79FF1F
:081F6200142FFF23F1FF1930D9
:100D6700EE8FF09000061201DB900006120184FF5F
:100D7700AEF022900010120245900014120184F583
:100D87003A85F039E92416F9E43A2290000912006D
:100D97006FF56190000C1202458F658E648D638C30
:100DA70062228B55F5568957755800755900755A43
:100DB70000755B00755C00755D00755E00755F0012
:100DC70075600022AB2BAA2CA92DEE8FF0900006A0
:100DD7000201DB903024E0FCA3E0FDA3E0FEA3E0EA
:100DE70022AF6AAE69AD68AC67EC4D4E4F22AF6576
:100DF700AE64AD63AC62EC4D4E4F22AC06AD07243A
:100E070016F9E422AB67AA68A96922EEF0A3EFF00E
:100E1700D39400EE6480948222AB2EAA2FA93002CD
:100E270001DBAB2EAA2FA93090000812006FFF221A
:100E3700900006E4F5F00201DB241CF9EA34048B88
:100E47003EF53F8940222419F9EA34028B41F542E5
:100E570089432290000102006F900006E475F006B6
:100E670022E92408F9E43AFA22E4F54BF54AF54970
:100E7700F548F54C22903031E4F0A37405F022AB2D
:100E87004DAA4EA94F22241FF9EA340622900014D6
:100E9700020184AB2EAA2FA93022AB2EAA2FA9308C
:100EA700229000100202458B3BF53C893D229000C1
:100EB7000A02006F75440075450075460022AB2E87
:0C0EC700AA2FA93022AB2BAA2CA92D22A7
:101DCE00E41200BE9000011200D09000021202A593
:101DDE0000000000E4F5F0120DD490000BE41200A8
:101DEE00D0900008E41200D090000974011200D0C7
:101DFE0090000A74011200D09000101202A500008B
:101E0E000000900014120E3A90000C1202A5000071
:061E1E000000E4FEFF22BB
:1022AC008F348E338D328C31E5342407FFE4353393
:1022BC00FEE43532FDE43531FCE47B08FAF9F81222
:0322CC001FB0221E
:10237A00AD077F0212234EE4FD7F0112234E7D0139
:05238A007F0102234E5B
:0807EE008B678A6889698D6A36
:1007F600E4903031F0A3F0E56A70357F0112237A78
:10080600E4F56BF56CE4FD7F0112234E7D017F015B
:1008160012234E056CE56C7002056BC39405E56BFF
:100826006480948040DF120E0BE41200BE0209B40D
:10083600120E0B120056FF656A6019E56AB40704CA
:10084600EFB4060AE56AB40E0BEF640D6006120EED
:100856007C0209B4E56AB5070EB4060302090AE587
:100866006AB40D03020974120E0B120056FF656A74
:1008760070030209B4EFB4100040030209A6900801
:100886008BF82828730208BB0208BE0208C10208BA
:10089600D80208ED0208F502090A02091202092720
:1008A60002093C020944020959020961020974025B
:1008B600097B02098E02092C020934E56AC39409F0
:1008C60040081209BD74090209AE1209D574030263
:1008D60009AEE56AB404081209D574040209AE1219
:1008E60009BD74050209AE1209C974050209AEE50F
:1008F6006AB406081209ED74060209AE1209C97433
:10090600080209AE1209E174070209AEE56AB404E9
:10091600081209ED74040209AE1209E1740802090D
:10092600AEE56AB40108120A0574010209AE12099D
:10093600F974020209AE120A05740A0209AEE56AE2
:10094600B40B08120A1D740B0209AE1209F9740CD5
:100956000209AE120A11740C0209AEE56AB40D075B
:10096600120A1D740D8041120A11740F803A120A80
:1009760029740E8033E56AB40B07120A35740B80AE
:1009860027120A29740F8020E56AB40107120A3576
:10099600740180147F0112237A120E0B74028008F0
:1009A600120E7C120E0BE56A1200BE02086D903024
:0609B60031E0FEA3E0FFAA
:1009BC00227F0112237AAB67AA68A969227F0112F0
:1009CC00237AAB67AA68A96922E4FF12237AAB6782
:1009DC00AA68A969227F0112237AAB67AA68A96960
:1009EC0022E4FF12237AAB67AA68A969227F01125D
:1009FC00237AAB67AA68A96922E4FF12237AAB6752
:100A0C00AA68A969227F0112237AAB67AA68A9692F
:100A1C0022E4FF12237AAB67AA68A969227F01122C
:100A2C00237AAB67AA68A96922E4FF12237AAB6721
:050A3C00AA68A969226F
:0E0ED3008F6A8E698D688C678B6B8A6C896D57
:100EE100757600757700757800E56F4570456E6021
:100EF1003C120159FFAB6EAA6FA970E5F08FF01299
:100F010001BCAB6EE5702402F9E4356FFAC003C091
:100F110002C001AB6BAA6CA96D120159D001D002BC
:100F2100D00329F9EA35F08B76F5778978AB6BE553
:100F31006D2402F9E4356CFAC002C001AA6CA96DF6
:100F4100120159D001D00229F9EA35F08B73F574F9
:100F51008975120DE8700302102BAB73E5751575D9
:100F61007002157414F9AA74120056903031F0E42D
:100F7100A3F0F579F57A120DE87003021006C3E5C6
:100F81007A9408E57964809480507A74FF2FF56A29
:100F9100EE34FFF569ED34FFF568EC34FFF567E5F4
:100FA100724571600C120DE870077D017F021223FA
:100FB1004E903031E05401FD7F0412234E903031C8
:100FC100E0C313F0E4FD7F0112234EE57745784538
:100FD100766020122432903033EFF0903032E0FF0F
:100FE100AE7AA3E0FDA806088002C333D8FC4F9077
:100FF1003032F07D017F0112234E057AE57A7002CD
:101001000579020F77E577457845767003020F532E
:10101100903032E0FFAB76E57815787002157714E1
:0A102100F9AA77EF1200BE020F5388
:01102B0022A2
:080BE6008B4D8A4E894F8D50A2
:100BEE00E490302AF0A3F0A3F0A3F0A3F0E5506553
:100BFE00617E0060047F0180027F0090302FEEF056
:100C0E00A3EFF0AF54AE53AD52AC51EC4D4E4F700E
:100C1E0011120DF57003020D15120D491219AE02C7
:100C2E000D15AD50120D5DAF54AE53AD52AC518596
:100C3E00586E85596F855A7090302FE0F571A3E08C
:100C4E00F572AB55AA56A957120ED3E55C455D4514
:100C5E005B602D85586A85596B855A6C855E6D85EE
:100C6E005F6E85606FAB5BAA5CA95D121B90EF4E49
:100C7E0070047F0180027F0090302CE4F0A3EFF02F
:100C8E0090302FE07002A3E06063120E86740112A2
:100C9E00009C90302CE07002A3E0603E120DF560D7
:100CAE003990302EE0C3956650307D06120D5D12E0
:100CBE000E867D041207EEAF65AE64AD63AC62784E
:100CCE000212021EE5652FF565E5643EF564E563E7
:100CDE003DF563E5623CF5628008120E86AD611249
:100CEE0007EE120DF56006120D491219AE90302C5A
:100CFE00E07002A3E0601090302EE0FF04F0EFC32E
:100D0E0095665003020C3090302CE07002A3E06028
:100D1E0021E566601490302EE0D39566400B90303E
:100D2E002AE4F0A37403F0800990302AE4F0A3744F
:0A0D3E0002F090302AE0FEA3E0FF6F
:100D480022AB4DAA4EA94F7D011207EEAF65AE64E6
:0F0D5800AD63AC6222AB4DAA4EA94F1207EE223B
:1018B2008B328A3389348F388E378D368C35AB3BF9
:1018C200AA3CA93DAD3AAC39121FF4E54245434565
:1018D20041600DAB41AA42A943AD3AAC39121FF4A3
:1018E200853854853753853652853551853B558524
:1018F2003C56853D57853E58853F5985405A85411E
:101902005B85425C85435D85445E85455F854660B7
:10191200854761854B65854A64854963854862854B
:0E1922004C66AB32AA33A9347D04120BE622C8
:08242200E475F004120D6A22BA
:0924190074011200BEE4FEFF2272
:102288008B2E8A2F8930E9120E8DFAC002C001AA5E
:102298002FA930120E94FDACF0D001D002121FF419
:0422A800E4FEFF222F
:061794008B2E8A2F893024
:10179A007B017A30792412221812181990302512F6
:1017AA000E124009120E9A120E6002180F12181920
:1017BA00AB2EE530120E02352FFA121FF4AB2EE5CE
:1017CA00302408F9E4352FFAC003C002C001903072
:1017DA0024E0FFE48F54F553F552F551E530241611
:1017EA00F9E4352F120DA9AA2FA930120D92E4F5AA
:1017FA0066D001D002D0037D0B120BE6120E9A902E
:0E180A000006EE8FF01201DB120E9A120D7026
:0E18180022903024E0FFE4FCFDFE1222AC2200
:06142F008B2E8A2F89308C
:10143500120D8BFA7D027C00121FF4AB2EE53024D1
:1014450016F9E4352FFA121AA690302412029912D1
:101455000DDAFF1222AC903028120E124009120E3E
:10146500A1120E600214C5120DDAFF1222ACAB2ECA
:10147500E530120E02352FFA121FF4AB2EE530249B
:1014850008F9E4352FFAC003C002C001120DDAF5E0
:10149500548E538D528C51E5302416F9E4352F12B4
:1014A5000DA9AA2FA930120D92E4F566D001D0023C
:1014B500D0037D0B120BE6120EA1900006EE8FF005
:0914C5001201DB120EA1120D70E0
:0114CE0022FB
:101650008B2E8A2F8930120D8BFAC002C001AA2F5F
:10166000A930120E94FDACF0D001D002121FF4ABE1
:101670002EE5302408F9E4352FFAC003C002C0017A
:10168000AA2FA930120EA88F548E538D528C51124E
:101690000D8B8B55F5568957E530241CF9EA340437
:1016A0008B58F559895AE5302419F9EA34028B5BD5
:1016B000F55C895DE530120E8D8B5EF55F8960A962
:1016C0003090000A120D9590000B12006FF566D055
:1016D00001D002D0037D04120BE6AB2EAA2FA93055
:0416E000120D67225E
:100003008B2E8A2F8930120D8BFA7D047C00121FF0
:10001300F4AB2EE5302416F9E4352FFA121AA6AB09
:0F0023002EAA2FA93090000C120275E4FEFF22C6
:0E23B500E9240BF9E43AFA122218E4FEFF22A2
:101CC4008B2E8A2F8930120E37120D8BFA7D047CED
:101CD40000121FF4AB2EE5302416F9E4352FFA1266
:101CE4001AA6AB2EAA2FA930900010120275120E5C
:101CF400A81222AC900014EE8FF0120E20120E9453
:101D0400D39400E5F0648094824006120E60120EB3
:0B1D140020AB2EAA2FA930120D702268
:101B1F008B2E8A2F8930120E68C003C002C001AA13
:101B2F002FA930120EA8C004C005C006C007120DA1
:101B3F0080120EAEE530120E40E530120E4DE5303C
:101B4F00120E8D8B44F5458946A930120EB5F54717
:101B5F0090000C1202458F4B8E4A8D498C48900095
:101B6F000B12006FF54CD007D006D005D004D00172
:101B7F00D002D0031218B2AB2EAA2FA930120D67C4
:011B8F002233
:061C65008B2E8A2F89304E
:101C6B00120E5AB40E06120EB5FF80027F048F318E
:101C7B00AB2EE5302408F9E4352FFAC003C002C0BF
:101C8B0001AA2FA930120D7A120EAE753E00753FC8
:101C9B0000754000754100754200754300120EBB84
:101CAB00853147120E70D001D002D0031218B2AB9F
:081CBB002EAA2FA930120D67BB
:011CC30022FE
:061D77008B2E8A2F89303B
:101D7D00120E5AB41106120EB5FF80027F048F3178
:101D8D00AB2EE5302408F9E4352FFAC003C002C0AC
:101D9D0001AA2FA930120D7A120EAEE530120E40A7
:101DAD00E530120E4D120EBB853147120E70D0016B
:101DBD00D002D0031218B2AB2EAA2FA930120D6784
:011DCD0022F3
:0621EF008B2E8A2F8930BF
:1021F5007B007A007931122218AB2EE5302408F9DC
:10220500E4352FFAAD311207EEAB2EAA2FA9301205
:022215000D6753
:0122170022A4
:061E79008B2E8A2F893038
:101E7F00120E377B007A007931122218E531601388
:101E8F006401600F120EC5900006E475F005120193
:101E9F00DB8025120EC5120E5AB4130DE5319000DA
:101EAF00097002800B740D800CE53190000A7003ED
:0E1EBF0004800274061200D0120EC5120D70BF
:011ECD0022F2
:0A23F100900006E4F5F0120D6D22D5
:061930008B2E8A2F893086
:10193600120D8B121999903024F0120D8B121999F1
:10194600903025F0120D8BFA7D047C00121FF4AB4B
:101956002EE5302416F9E4352FFA121AA690302611
:10196600120299120E29903024E0FD6F6006120EC5
:10197600681207EE903026120DDDFF1219AE120E18
:1019860029903025E0FD6F6006120E681207EEE41E
:02199600FEFF52
:1019980022FA7D017C00121FF4AB2EAA2FA93090E9
:0619A800001812006F227E
:1020D6008B2B8A2C892D121DCE120DCB9000061249
:1020E600018445F07013AB2BE52D2408F9E4352C5B
:1020F600FAE4FD1207EE120DCBAB2BAA2CA92D127A
:032106000D702237
:101A2B008B2B8A2C892D90000612018445F0706453
:101A3B00120056705FE92401F9E43AFA12221812E7
:101A4B000ECC900002120245E4FAF9F8EF2401FFE4
:101A5B00EA3EFEE93DFDE83CFCAA2CA92D900002D4
:101A6B00120275120E5AFFC39418120ECC5022C0DC
:101A7B0002EF75F003A42422F582E4341FF583747E
:101A8B000193FA740293F5828A83D0021202FA80D0
:0B1A9B0003122422120ECC120D702248
:0A23FB007B017A2679001220D62219
:0A2405007B017A267900121A2B22BF
:0A240F00FAE92FF9EA3EFA0200563E
:061AA6008B318A32893306
:101AAC00E4F537F536F535F534F538F539AB31AABB
:101ABC0032A933120159FFC3E5399FE5F06480F870
:101ACC00E5386480985043AF37AE36AD35AC3478DA
:101ADC00081202328F378E368D358C34E92402F998
:101AEC00E43AFAE92539F9EA3538FA120056FFE5F5
:101AFC00374FF537E536F536E535F535E534F5345C
:101B0C000539E53970A7053880A3AF37AE36AD354A
:021B1C00AC34E7
:011B1E0022A4
:061B90008B678A68896979
:101B9600757000757101120159FFAEF0E57145705F
:101BA600604EEF1FAC0670011E4C6044AB67E569E2
:101BB6002402F9E4356812240FF572AB6AE56C2449
:101BC60002F9E4356B12240FF573E56E456F456D2A
:101BD6006011AB6DE56F2402F9E4356E12240F52E5
:101BE600725273E572657360B3E4F570F57180AC9B
:041BF600AE70AF71AD
:011BFA0022C8
:041FF4008C4D8D4E35
:101FF800E54D854EF01201BCE92402F9E43A8B4F15
:10200800F5508951E54E454D601EAB4FAA50A95178
:10201800122218E54E154E7002154D74012551F522
:0820280051E43550F55080DC55
:01203000228D
:1021980090E682E030E004E020E60B90E682E03052
:1021A800E119E030E71590E680E04401F07F147E05
:0C21B80000121F6A90E680E054FEF02246
:10213B0030040990E680E0440AF0800790E680E0E6
:10214B004408F07FDC7E05121F6A90E65D74FFF099
:0F215B0090E65FF05391EF90E680E054F7F022AA
:08242A00E4F51DD2E9D2AF2256
:10206A00AD0790E678E020E6F9C2E990E678E04428
:10207A0080F0ED25E090E679F090E678E030E0F93E
:10208A0090E678E04440F090E678E020E6F990E6C1
:08209A0078E030E1D6D2E92222
:10210900AC0790E678E020E6F9E51D702390E678C3
:10211900E04480F0EC25E090E679F08D18AF03A952
:10212900077519018A1A891BE4F51C751D01D3224B
:02213900C322BF
:1020A200AC0790E678E020E6F9E51D702590E67829
:1020B200E04480F0EC25E0440190E679F08D18AF21
:1020C20003A9077519018A1A891BE4F51C751D03FA
:0420D200D322C32230
:03004B0002113A65
:10113A00C0E0C083C082C085C084C086758600C0F6
:10114A00D075D000C000C001C002C003C006C007ED
:10115A0090E678E030E206751D0602122490E678E1
:10116A00E020E10CE51D64026006751D07021224E9
:10117A00E51D24FE605F14603624FE70030212151A
:10118A0024FC700302122124086003021224AB1902
:10119A00AA1AA91BAF1C051C8F8275830012006F47
:1011AA0090E679F0E51C65187070751D05806B90E6
:1011BA00E679E0AB19AA1AA91BAE1C8E82758300C8
:1011CA001200D0751D02E5186401704E90E678E0B1
:1011DA004420F08045E51824FEB51C0790E678E027
:1011EA004420F0E51814B51C0A90E678E04440F073
:1011FA00751D0090E679E0AB19AA1AA91BAE1C8EE0
:10120A00827583001200D0051C800F90E678E044B6
:10121A0040F0751D008003751D005391DFD007D083
:10122A0006D003D002D001D000D0D0D086D084D04E
:08123A0085D082D083D0E032A0
:0221C400A90769
:1021C600AE16AF178F828E83A3E064037017AD013E
:1021D60019ED7001228F828E83E07C002FFDEC3E8C
:0821E600FEAF0580DFE4FEFFFF
:0121EE0022CE
:1016E4001220A2E51D24FA600E146006240770F38C
:0C16F400D322E4F51DD322E4F51DD3221F
:10233200122109E51D24FA600E146006240770F3C9
:0C234200D322E4F51DD322E4F51DD322C4
:10223F0090E682E044C0F090E681F0438701000011
:04224F000000002269
:101F6A008E218F2290E600E054187012E522240197
:101F7A00FFE43521C313F521EF13F522801590E60E
:101F8A0000E05418FFBF100BE52225E0F522E521F9
:101F9A0033F521E5221522AE21700215214E600586
:061FAA0012225380EE221A
:102253007400F58690FDA57C05A3E582458370F99E
:012263002258
:03000000021826BD
:0C182600787FE4F6D8FD75817F02186D14
:10005600BB010689828A83E0225002E722BBFE02A8
:09006600E32289828A83E49322DB
:10006F00BB010CE58229F582E5833AF583E0225046
:10007F0006E92582F8E622BBFE06E92582F8E22290
:0D008F00E58229F582E5833AF583E49322AA
:10009C00BB010989828A83F8E028F022500327F7F4
:1000AC0022BBFE05F8E328F3228A838982F8E493C5
:0200BC002822F8
:1000BE00BB010689828A83F0225002F722BBFE0121
:0200CE00F3221B
:1000D000F8BB010DE58229F582E5833AF583E8F066
:1000E000225006E92582C8F622BBFE05E92582C812
:0200F000F222FA
:1000F200EF8DF0A4A8F0CF8CF0A428CE8DF0A42E22
:02010200FE22DB
:10010400BC000BBE0029EF8DF084FFADF022E4CCDF
:10011400F875F008EF2FFFEE33FEEC33FCEE9DECA8
:10012400984005FCEE9DFE0FD5F0E9E4CEFD22EDEE
:10013400F8F5F0EE8420D21CFEADF075F008EF2F38
:10014400FFED33FD4007985006D5F0F222C398FD29
:050154000FD5F0EA22C6
:10015900BB010A89828A83E0F5F0A3E02250068771
:10016900F009E71922BBFE07E3F5F009E319228933
:0B017900828A83E493F5F07401932266
:10018400BB0110E58229F582E5833AF583E0F5F0B9
:10019400A3E0225009E92582F886F008E622BBFE96
:1001A4000AE92582F8E2F5F008E222E5832AF583DC
:0801B400E993F5F0A3E99322A1
:1001BC00BB010A89828A83F0E5F0A3F0225006F78E
:0F01CC0009A7F01922BBFE06F3E5F009F319228B
:1001DB00F8BB0111E58229F582E5833AF583E8F056
:1001EB00E5F0A3F0225009E92582C8F608A6F02213
:0D01FB00BBFE09E92582C8F2E5F008F222FA
:101FB000C2D5E830E70FB2D5E4C39BFBE49AFAE45C
:101FC00099F9E498F8EC30E717B2D5121FE612033E
:101FD00038E4C39BFBE49AFAE499F9E498F88003A7
:101FE00012033830D50DE4C39FFFE49EFEE49DFD4F
:041FF000E49CFC224F
:10020800EB9FF5F0EA9E42F0E99D42F0EC6480C86D
:0602180064809845F0220D
:10021E00E86010ECA2E713FCED13FDEE13FEEF13F6
:04022E00FFD8F022E3
:10023200E8600FEFC333FFEE33FEED33FDEC33FC2A
:03024200D8F122CE
:10024500BB010DE58229F582E5833AF5830203D6E4
:100255005007E92582F80203CABBFE07E92582F8A3
:100265000203E2E58229F582E5833AF5830203EE8E
:10027500BB010DE58229F582E5833AF583020299F2
:100285005007E92582F80203FEBBFE07E92582F83F
:0402950002040A2233
:0C029900ECF0A3EDF0A3EEF0A3EFF022D8
:1002A500BB010DE58229F582E5833AF58302042F2A
:1002B5005007E92582F8020416BBFE07E92582F8F6
:0402C50002046022AD
:1002C900D083D082F8E4937012740193700DA3A3C4
:1002D90093F8740193F5828883E473740293B5F0FB
:0D02E900067403936860E9A3A3A3A380D863
:0602F6008A838982E47393
:101832000215B8E493A3F8E493A34003F68001F2FF
:1018420008DFF48029E493A3F85407240CC8C333B7
:10185200C4540F4420C8834004F456800146F6DF86
:10186200E4800B01020408102040809023CFE47E24
:10187200019360BCA3FF543F30E509541FFEE4937B
:10188200A360010ECF54C025E060A840B8E493A342
:10189200FAE493A3F8E493A3C8C582C8CAC583CA6D
:1018A200F0A3C8C582C8CAC583CADFE9DEE780BE25
:0123DA000002
:1002FC0075F008758200EF2FFFEE33FECD33CDCCB9
:10030C0033CCC58233C5829BED9AEC99E58298403B
:10031C000CF582EE9BFEED9AFDEC99FC0FD5F0D618
:10032C00E4CEFBE4CDFAE4CCF9A88222B800C1B942
:10033C000059BA002DEC8BF084CFCECDFCE5F0CB80
:10034C00F97818EF2FFFEE33FEED33FDEC33FCEBB9
:10035C0033FB10D703994004EB99FB0FD8E5E4F974
:10036C00FA227818EF2FFFEE33FEED33FDEC33FC61
:10037C00C933C910D7059BE99A4007EC9BFCE99A55
:10038C00F90FD8E0E4C9FAE4CCFB2275F010EF2F9A
:10039C00FFEE33FEED33FDCC33CCC833C810D7079A
:1003AC009BEC9AE899400AED9BFDEC9AFCE899F8D5
:0E03BC000FD5F0DAE4CDFBE4CCFAE4C8F92268
:0C03CA00E6FC08E6FD08E6FE08E6FF225F
:0C03D600E0FCA3E0FDA3E0FEA3E0FF229A
:0C03E200E2FC08E2FD08E2FE08E2FF2257
:1003EE00E493FC740193FD740293FE740393FF2255
:0C03FE00ECF608EDF608EEF608EFF6222B
:0C040A00ECF208EDF208EEF208EFF2222E
:10041600D083D082E493F608740193F608740293AD
:09042600F608740393F6740473E4
:10042F00A8828583F0D083D082120446120446122C
:10043F000446120446E473E493A3C583C5F0C58351
:10044F00C8C582C8F0A3C583C5F0C583C8C582C817
:01045F00227A
:10046000D083D082E493F208740193F2087402936B
:09047000F208740393F2740473A2
:00000001FF
