:1019000012010002000000402A151B8400000102A1
:1019100003010A060002000000400100090219004C
:1019200001010080C80904000001FF000000070554
:1019300086020002000902190001010080C80904A2
:10194000000001FF000000070586024000000403BC
:101950000904080349004E004900140344004100F3
:101960005600690053002000460058003200120360
:1019700030003000300030003000300030003000E7
:02198000000065
:03004300021400A4
:0300530002140094
:1014000002212E0002215C00022146000218FF008A
:10141000021E1800021E4F0002221B0002221C00A6
:1014200002221D0002221E0002221F0002222000B2
:101430000222210002222200022223000222240092
:101440000222250002221C0002222600022227007E
:10145000022228000222290002222A0002222B0056
:1014600002222C0002221C0002221C0002221C006C
:1014700002222D0002222E0002222F000222300022
:101480000222310002223200022233000222340002
:1014900002223500022236000222370002223800E2
:1014A0000222390002223A0002223B0002223C00C2
:0814B00002223D0002223E0071
:0A21EA0000010202030304040505CE
:10169C00C200C202C2011212A4C2AF750A19750BA4
:1016AC000075121975131275081975091C75101926
:1016BC0075113575141975154ED2E890E668E0442D
:1016CC0009F090E65CE04435F0D2AF90E680E02083
:1016DC00E105D20512000390E680E054F7F0538E3A
:1016EC00F8C203121C60120032300105120A57C2F4
:1016FC00013003F212004650EDC20312204F2000BD
:10170C001690E682E030E704E020E1EF90E682E01C
:0F171C0030E604E020E0E4121F7E12004E80C78A
:02221900D322CE
:100A570090E6B9E07003020AFF147003020B7424D6
:100A6700FE7003020BEF24FB7003020AF9147003F4
:100A7700020C5B146076147003020C5B24056003A0
:100A8700020C4F90E6BBE024FE602714603824FD7B
:100A9700601114602724067050E50A90E6B3F0E56C
:100AA7000B803C122219503EE51290E6B3F0E51395
:100AB700802DE50C90E6B3F0E50D8023E50E90E67A
:100AC700B3F0E50F801990E6BAE0FF121FAAAA0655
:100AD700A9077B01EA494B600DEE90E6B3F0EF9072
:100AE700E6B4F0020C5B020C4A020C4A1221A9027E
:100AF7000C5B122199020C5B90E6B8E0247F60152D
:100B070014601924027063A200E43325E0FFA202F7
:100B1700E4334F8041E490E740F0803F90E6BCE04B
:100B2700547EFF7E00E0D394807C0040047D0180EA
:100B3700027D00EC4EFEED4F24EAF58274213EF56E
:100B470083E493FF3395E0FEEF24A1FFEE34E68FB5
:100B570082F583E0540190E740F0E4A3F090E68A41
:100B6700F090E68B7402F0020C5B020C4A90E6B838
:100B7700E024FE601624026003020C5B90E6BAE0F4
:100B8700B40105C200020C5B020C4A90E6BAE070A1
:100B97005590E6BCE0547EFF7E00E0D394807C0055
:100BA70040047D0180027D00EC4EFEED4F24EAF506
:100BB7008274213EF583E493FF3395E0FEEF24A191
:100BC700FFEE34E68F82F583E054FEF090E6BCE05A
:100BD7005480131313541FFFE0540F2F90E683F034
:100BE700E04420F0806E805B90E6B8E024FE601A57
:100BF7002402704F90E6BAE0B40104D20080559009
:100C0700E6BAE0B40202804C803990E6BCE0547E3C
:100C1700FF7E00E0D394807C0040047D0180027D4C
:100C270000EC4EFEED4F24EAF58274213EF583E495
:100C370093FF3395E0FEEF24A1FFEE34E68F82F5B4
:100C470083800D90E6A08008120056500790E6A01A
:0B0C5700E04401F090E6A0E04480F0D3
:010C6200226F
:030033000213FCB9
:0413FC0053D8EF32A1
:081BB700C184011D00011C00A6
:1012A40090E6007410F090E60174A3F00000009042
:1012B400E60B7403F000000090E609F000000090D3
:1012C400E60274E6F0000000E490E610F00000008E
:1012D40090E611F000000090E612F000000090E6A5
:1012E40013F000000090E61474E0F0000000E490B5
:1012F400E615F000000090E61A7409F090E62474F4
:1013040002F0E490E625F090E63474C1F090E635FE
:1013140074F2F0000000E490E670F000000090E643
:1013240071F000000090E672F0F58075A00875B1C8
:1013340023F5B275B40E75B6F7F5A875E8E3122275
:101344001190E67AE04401F043B180E4F51C000515
:0A1354001CE51CB414F853B17F220D
:0D1F510074402526F582E434E7F583E0FFB7
:101F5E0043B120E4FEEF30E70543B110800353B1E7
:0F1F6E00EF53B1DF43B120EF25E0FF0EBE08E6D1
:011F7D002241
:06209800FF12209EAF05BF
:10209E00C2A2E4FEEF30E704D2A18002C2A1D2A216
:0A20AE00C2A2EF25E0FF0EBE08EA13
:0120B8002205
:1020B900E4FFC2A2FED2A230A0054307018000C2FC
:0E20C900A2EE64076004EF25E0FF0EBE08E7FC
:0120D70022E6
:0A1C0C008E2B8F2C8D2D8A2E8B2F2E
:101C160053B1BFE4F530E530C3952D503CE52B902C
:101C26002E6AF0E52CA3F0E52F2530F582E4352E5B
:101C3600F583E0902E6CF043B1407A2E7B6A7D03EB
:101C46007F511221127F51121DE0052CE52C7002E6
:091C5600052B53B1BF053080BD20
:011C5F002262
:0A1CB3008E2B8F2C8D2D8A2E8B2F87
:101CBD0053B1BFE52B902E72F0E52CA3F043B1404C
:101CCD007A2E7B727D027F5112211253B1BFE4FF38
:101CDD00EFC3952D5010E52F2FF582E4352EF583AA
:101CED0074CDF00F80EA43B140AB2FAA2EAD2D7FFE
:071CFD00511220F653B1BFA4
:011D040022BC
:101C60007F03121FAAEF2402FFE43EA9077521019A
:101C7000F52289237A2E7B6A7D087FF87E7F121CED
:101C8000B3E4FF746A2FF582E4342EF583E0FEC3DB
:101C90009420401AEED3947E5014AB21AA22A9239B
:101CA00075F002EFA4F58285F083EE12048F0FBF6A
:021CB00008D159
:011CB200220F
:0100320022AB
:0500460043B180D3224C
:05004E0053B17FD32235
:10219900E490E740F090E68AF090E68B04F0D322D1
:1021A900E490E740F090E68AF090E68B04F0D322C1
:1000560000000090E6BAE0752100F522A3E0FEEE6E
:100066004221A3E0FDA3E0FEEEFCA3E0752300F52C
:1000760024A3E0FEEE422390E6B8E05480FEA3E01F
:10008600FBEBFF8EF0120611027F00BD032A00BEB5
:10009600019B00BF00B200C0013300C102CB80BD8E
:1000A60003FA80BE020480BF0000041153B1FB5363
:1000B600B1FEAF22121F5E53B1FDE4F51C00051C14
:1000C600E51CB432F843B10243B101E5244523608F
:1000D60048E490E68AF090E68BF000000090E6A0F7
:1000E600E020E1F990E68BE0752700F528E4F52598
:1000F600F526C3E5269528E5259527500D121F51AF
:100106000526E52670EC052580E8C3E5249528F547
:1001160024E5239527F52380B253B1FDE4F51C00B1
:10012600051CE51CB432F843B1020202C843B1040F
:10013600E52445236048E490E68AF090E68BF000DB
:10014600000090E6A0E020E1F990E68BE07527003C
:10015600F528E4F525F526C3E5269528E525952712
:10016600500D121F510526E52670EC052580E8C3C3
:10017600E5249528F524E5239527F52380B253B188
:10018600FDE4F51C00051CE51CB432F843B102532E
:10019600B1FB0202C8C2A3E522547F122098E524CF
:1001A60045236055E490E68AF090E68BF000000067
:1001B60090E6A0E020E1F990E68BE0752700F528AF
:1001C600E4F525F526C3E5269528E5259527501A55
:1001D60074402526F582E434E7F583E0FF12209E7D
:1001E6000526E52670DF052580DBC3E5249528F581
:1001F60024E5239527F52380A5D2A30203EFC2A306
:10020600E5224480122098E5244523606790E6A005
:10021600E020E1F9C3E5249440E5239400500885E5
:1002260023278524288006752700752840E4F525B0
:10023600F526C3E5269528E5259527501A1220B9F7
:1002460074402526F582E434E7F583EFF00526E5CC
:100256002670DF052580DBE490E68AF090E68BE5E4
:1002660028F0000000C3E5249528F524E52395270A
:10027600F5238093D2A3020413E52445236043E4C7
:1002860090E68AF090E68BF000000090E6A0E02071
:10029600E1F990E68BE0752700F528FD7AE77B40CB
:1002A600AF22AE21121C0CE5282522F522E52735C2
:1002B60021F521C3E5249528F524E5239527F52383
:1002C60080B70203EFE5244523700302041390E68A
:1002D600A0E020E1F9C3E5249440E523940050080A
:1002E6008523278524288006752700752840AD2894
:1002F6007AE77B40AF22AE21121CB3E5282522F512
:1003060022E5273521F521E490E68AF090E68BE593
:1003160028F0000000C3E5249528F524E523952759
:10032600F52380A130040B53A00F75B4BE1221F43F
:10033600C204D3E5249400E5239402400B75B40E61
:10034600751D0AD204020413E4F529F52A7B017A05
:100356002C796A1221D3E52445236074E490E68A59
:10036600F090E68BF000000090E6A0E020E1F99026
:10037600E68BE0752700F528E4F525F526C3E52686
:100386009528E5259527502D74402526F582E434D9
:10039600E7F583E0FFE52A2526FDE5293525FC74EA
:1003A6006A2DF582742C3CF583EFF00526E5267060
:1003B600CC052580C8E528252AF52AE5273529F51F
:1003C60029C3E5249528F524E5239527F52380867A
:1003D600E52245217002800C1221FE8F1DE51DD3FA
:1003E6009400400575B40ED204E490E68AF090E6D7
:1003F6008BF0801990E74074BEF0A3E51DF0E49001
:0E040600E68AF090E68B7402F08002D322C3E7
:0104140022C5
:10212E00C0E0C083C082D2015391EF90E65D74018E
:08213E00F0D082D083D0E03222
:10214600C0E0C083C0825391EF90E65D7404F0D086
:0621560082D083D0E032CC
:10215C00C0E0C083C0825391EF90E65D7402F0D072
:06216C0082D083D0E032B6
:101E1800C0E0C083C08290E680E030E70E85080C01
:101E280085090D85100E85110F800C85100C851104
:101E38000D85080E85090F5391EF90E65D7410F03B
:071E4800D082D083D0E0320C
:0118FF0032B6
:101E4F00C0E0C083C08290E680E030E70E85080CCA
:101E5F0085090D85100E85110F800C85100C8511CD
:101E6F000D85080E85090F5391EF90E65D7420F0F4
:071E7F00D082D083D0E032D5
:01221B003290
:01221C00328F
:01221D00328E
:01221E00328D
:01221F00328C
:01222000328B
:01222100328A
:012222003289
:012223003288
:012224003287
:012225003286
:012226003285
:012227003284
:012228003283
:012229003282
:01222A003281
:01222B003280
:01222C00327F
:01222D00327E
:01222E00327D
:01222F00327C
:01223000327B
:01223100327A
:012232003279
:012233003278
:012234003277
:012235003276
:012236003275
:012237003274
:012238003273
:012239003272
:01223A003271
:01223B003270
:01223C00326F
:01223D00326E
:01223E00326D
:0D003600ED4C7005EFF452A022EF42A02225
:0C21C700E4FDFC7F201200360D02003603
:102028008B458A468947AB79AA7AA97B0578E578F2
:10203800AE777002057714F5828E8312042EAB45B5
:07204800AA46A94702047D2E
:0C21D300E4F577F5788B798A7A897B2215
:0B21DF00E5A05440C413135403FF227A
:102074007C007D301204B1AB07AA06900000C3E5D2
:10208400829BEA6480F8E58364809850061221C735
:03209400A380EB3B
:012097002226
:101BBF0060482400FF2208FF1FD5FF1120FF11E707
:101BCF00FF1EEDFF2172FF2172FF21B9FF1A79FF6E
:101BDF0014B8FF2172FF2172FF1608FF1608FF16B7
:101BEF0008FF135EFF135EFF135EFF1EBAFF1AF1AD
:0C1BFF00FF1AF1FF1034FF2186FF156370
:101B5B00E412047D90000112048F9000021205ED37
:101B6B0000000000900006E4F5F012054590000B14
:101B7B00E412048F900008E412048F9000097401A2
:101B8B0012048F90000A740112048F90001012053A
:101B9B00ED00000000900014E4F5F01205459000F4
:0C1BAB000C1205ED00000000E4FEFF221B
:061FFF00AF24E4FCFDFE2E
:102005008F2D8E2C8D2B8C2AE52D2407FFE4352C66
:10201500FEE4352BFDE4352AFCE47B08FAF9F812D9
:032025001D9C22DD
:0420D8007F017E0006
:1020DC00AD07AC067F10120036E4FDFC7F20120029
:0A20EC00367D017C007F20020036E3
:0807CD00AB40AA41A9427D01E5
:0807D5008B618A6289638D6467
:1007DD00E4F567F568E564703C7F01FE1220DCE40A
:1007ED00F565F566E4FDFC7F201200367D017C0089
:1007FD007F201200360566E56670020565C3940517
:10080D00E5656480948040DCAB61AA62A963E41263
:10081D00047D020A52AB61AA62A963120415FF6539
:10082D0064601CE564B40704EFB4060AE564B40E15
:10083D000EEF640D6009756700756805020A52E5D3
:10084D0064B5070EB40603020932E564B40D030264
:10085D0009EDAB61AA62A963120415FF656470030B
:10086D00020A52EFB410004003020A3E900880F8CD
:10087D002828730208B00208B30208B60208DC0289
:10088D00090002090E020932020940020964020937
:10089D00880209990209BD0209CB0209ED0209FA84
:1008AD00020A1C02096902097AE564C39409400E23
:1008BD001220D8AB61AA62A9637409020A4CE4FF45
:1008CD00FE1220DCAB61AA62A9637403020A4CE537
:1008DD0064B40411E4FFFE1220DCAB61AA62A963CB
:1008ED007404020A4C1220D8AB61AA62A963740584
:1008FD00020A4C1220D8AB61AA62A9637405020AE0
:10090D004CE564B40611E4FFFE1220DCAB61AA6273
:10091D00A9637406020A4C1220D8AB61AA62A963BE
:10092D007408020A4C1220D8AB61AA62A96374073D
:10093D00020A4CE564B40411E4FFFE1220DCAB6145
:10094D00AA62A9637404020A4C1220D8AB61AA6290
:10095D00A9637408020A4CE564B40111E4FFFE12A8
:10096D0020DCAB61AA62A9637401020A4C1220D883
:10097D00AB61AA62A9637402020A4CE4FFFE122065
:10098D00DCAB61AA62A963740A020A4CE564B40B7C
:10099D0011E4FFFE1220DCAB61AA62A963740B02A5
:1009AD000A4C1220D8AB61AA62A963740C020A4CDE
:1009BD001220D8AB61AA62A963740C020A4CE564DB
:1009CD00B40D10E4FFFE1220DCAB61AA62A96374C2
:1009DD000D806C1220D8AB61AA62A963740F805F81
:1009ED001220D8AB61AA62A963740E8052E564B47B
:1009FD000B10E4FFFE1220DCAB61AA62A963740B3D
:100A0D00803D1220D8AB61AA62A963740F8030E5D6
:100A1D0064B40110E4FFFE1220DCAB61AA62A9638D
:100A2D007401801B1220D8AB61AA62A96374028085
:100A3D000E756700756805AB61AA62A963E564125E
:090A4D00047D02085FAE67AF688A
:010A5600227D
:0E0DCA008F648E638D628C618B658A6689678B
:100DD800757000757100757200E569456A4568604F
:100DE8003C1204C3FFAB68AA69A96AE5F08FF01248
:100DF8000526AB68E56A2402F9E43569FAC003C040
:100E080002C001AB65AA66A9671204C3D001D0026B
:100E1800D00329F9EA35F08B70F5718972AB65E575
:100E2800672402F9E43566FAC002C001AA66A96718
:100E38001204C3D001D00229F9EA35F08B6DF56EA2
:100E4800896FAF64AE63AD62AC61EC4D4E4F700319
:100E5800020F2BAB6DE56F156F7002156E14F9AAB2
:100E68006E120415F573E4F574F575F576AF64AE96
:100E780063AD62AC61EC4D4E4F7003020F0AC3E5DF
:100E8800769408E57564809480507774FF2FF56434
:100E9800EE34FFF563ED34FFF562EC34FFF561E500
:100EA8006C456B6016AF64AE63AD62AC61EC4D4EE1
:100EB8004F70087D01FC7F10120036E5735401FD68
:100EC8007C007F80120036E573C313F573E4FDFCE4
:100ED8007F20120036E5714572457060111221DFDE
:100EE800AE76EFA806088002C333D8FC42747D01B1
:100EF8007C007F201200360576E5767002057502C3
:100F08000E75E571457245707003020E4AAB70E5C7
:100F18007215727002157114F9AA71E57412047DC4
:030F2800020E4A6C
:010F2B0022A3
:080C63008B408A4189428D4358
:100C6B00E4F55AF55BF55CF55DF55EE54365547EA1
:100C7B000060047F0180027F008E5F8F60AF47AE04
:100C8B0046AD45AC44EC4D4E4F701EAF58AE57AD14
:100C9B0056AC55EC4D4E4F7003020DA61207CDAE60
:100CAB0057AF58122074020DA6AB40AA41A942AD12
:100CBB00431207D5AF47AE46AD45AC44854B68856F
:100CCB004C69854D6A855F6B85606CAB48AA49A9F9
:100CDB004A120DCAE54F4550454E602A854B648537
:100CEB004C65854D66855167855268855369AB4E5A
:100CFB00AA4FA950121842EF4E70047F0180027F59
:100D0B0000755C008F5DE560455F607CAB40AA4180
:100D1B00A942740112045BE55D455C6048AF58AEB7
:100D2B0057AD56AC55EC4D4E4F603AE55EC39559F9
:100D3B0050337D061207D5AB40AA41A9427D041260
:100D4B0007D5AF58AE57AD56AC557802120572E5C4
:100D5B00582FF558E5573EF557E5563DF556E555F1
:100D6B003CF555800BAB40AA41A942AD541207D5B7
:100D7B00AF58AE57AD56AC55EC4D4E4F600A1207FF
:100D8B00CDAE57AF58122074E55D455C600DAF5E7C
:100D9B00055EEFC395595003020CB4E55D455C60ED
:100DAB0019E559600FE55ED395594008755A0075E2
:0E0DBB005B038006755A00755B02AE5AAF5B93
:010DC9002207
:101982008B258A2689278F2B8E2A8D298C28AB2E90
:10199200AA2FA930AD2DAC2C1218C2E5354536451B
:1019A20034600DAB34AA35A936AD2DAC2C1218C259
:1019B200852B47852A46852945852844852E4885D5
:1019C2002F4985304A85314B85324C85334D8534DC
:1019D2004E85354F85365085375185385285395376
:1019E200853A54853E58853D57853C56853B5585FD
:0E19F2003F59AB25AA26A9277D04120C6322BB
:10217200900006E475F0041205459000061204EE84
:04218200FFAEF0229A
:09220800740112047DE4FEFF22C2
:101FD5008B218A228923E9241FF9EA3406FAC002F3
:101FE500C001AA22A9239000141204EEFDACF0D082
:0A1FF50001D0021218C2E4FEFF2220
:061120008B218A228923C5
:101126007B007A007924122028121FFFD3EF940047
:10113600EE6480948240097525007526060211CB5F
:10114600121FFFAC06AD07AB21E5232416F9E435E3
:1011560022FA1218C2AB21E5232408F9E43522FA53
:10116600C003C002C001E4852447F546F545F544B1
:10117600E5232416F9E435228B48F549894A754B4F
:1011860000754C00754D00754E00754F007550008A
:10119600755100755200755300AA22A923900009C3
:1011A60012042EF55490000C1205998F588E578D07
:1011B600568C55E4F559D001D002D0037D0B120CA4
:1011C600638E258F26E52645256011AB21AA22A927
:1011D60023900006E5258526F0120545AE25AF26A7
:0111E60022E6
:061034008B218A228923B2
:10103A00E92416F9E43AFA7D027C001218C2AB21BF
:10104A00E5232416F9E43522FA121A008F278E2690
:10105A008D258C24122005D3EF9400EE64809482AF
:10106A004009752800752906021104AF27AE26AD7E
:10107A0025AC24122005AC06AD07AB21E5232416C6
:10108A00F9E43522FA1218C2AB21E5232408F9E45F
:10109A003522FAC003C002C0018527478526468546
:1010AA002545852444E5232416F9E435228B48F5A1
:1010BA0049894A754B00754C00754D00754E00758F
:1010CA004F00755000755100755200755300AA22E1
:1010DA00A92390000912042EF55490000C120599C8
:1010EA008F588E578D568C55E4F559D001D002D0C1
:1010FA00037D0B120C638E288F29E5294528601180
:10110A00AB21AA22A923900006E5288529F0120519
:05111A0045AE28AF29DD
:01111F0022AD
:0611E7008B218A228923FE
:1011ED00E92416F9E43AFAC002C001AA22A9239013
:1011FD0000141204EEFDACF0D001D0021218C2ABF7
:10120D0021E5232408F9E43522FAC003C002C00108
:10121D00AA22A9239000101205998F478E468D455D
:10122D008C44E92416F9E43A8B48F549894AE523BB
:10123D00241CF9EA34048B4BF54C894DE523241914
:10124D00F9EA34028B4EF54F8950E523241FF9EA54
:10125D0034068B51F5528953A92390000A12042E9E
:10126D00F55490000C1205998F588E578D568C554C
:10127D0090000B12042EF559D001D002D0037D043D
:10128D00120C63EF4E600FAB21AA22A9239000062A
:06129D00EE8FF012054582
:0112A3002228
:101EED008B218A228923E92416F9E43AFA7D047CB0
:101EFD00001218C2AB21E5232416F9E43522FA129B
:101F0D001A00AB21AA22A92390000C1205C9E4FEE8
:021F1D00FF22A1
:0E21B900E9240BF9E43AFA122028E4FEFF2292
:061A79008B218A22892363
:101A7F00E4F524F525E92416F9E43AFA7D047C000F
:101A8F001218C2AB21E5232416F9E43522FA121AF3
:101A9F0000AB21AA22A9239000101205C9900010B3
:101AAF00120599122005AB21AA22A923900014EE4A
:101ABF008FF01205459000141204EED39400E5F058
:101ACF00648094824017752400752506AB21AA22E5
:101ADF00A923900006E5248525F0120545AE24AF15
:011AEF0025D1
:011AF00022D3
:0614B8008B218A2289232A
:1014BE00E92408F9E43AFAC003C002C001AA22A93D
:1014CE0023900010120599C004C005C006C00790F5
:1014DE0000141204EEF52D85F02CE92416F9E43AE9
:1014EE008B2EF52F8930E523241CF9EA34048B3139
:1014FE00F5328933E5232419F9EA34028B34F535B4
:10150E008936E523241FF9EA34068B37F5388939F5
:10151E00A92390000A12042EF53A90000C12059998
:10152E008F3E8E3D8D3C8C3B90000B12042EF53F72
:10153E00D007D006D005D004D001D002D0031219A6
:10154E0082EF4E600FAB21AA22A923900006EE8FE8
:04155E00F01205453D
:011562002266
:061608008B218A228923D8
:10160E0090000112042EB40E0990000A12042EFF4F
:10161E0080027F048F24AB21E5232408F9E43522D0
:10162E00FAC003C002C001AA22A92390001012051D
:10163E00999000141204EEF52D85F02CE92416F97C
:10164E00E43A8B2EF52F89307531007532007533E3
:10165E000075340075350075360075370075380025
:10166E0075390085243AE4F53EF53DF53CF53BF53C
:10167E003FD001D002D003121982EF4E600FAB2182
:0D168E00AA22A923900006EE8FF012054558
:01169B00222C
:06135E008B218A22892385
:1013640090000112042EB4110990000A12042EFFF9
:1013740080027F048F24AB21E5232408F9E435227D
:10138400FAC003C002C001AA22A9239000101205CA
:10139400999000141204EEF52D85F02CE92416F929
:1013A400E43A8B2EF52F8930E523241CF9EA340422
:1013B4008B31F5328933E5232419F9EA34028B346D
:1013C400F535893675370075380075390085243A46
:1013D400E4F53EF53DF53CF53BF53FD001D002D0B8
:1013E40003121982EF4E600FAB21AA22A9239000A9
:0713F40006EE8FF012054523
:0113FB0022CF
:061EBA008B218A2289231E
:101EC0007B007A007924122028AB21E5232408F92D
:101ED000E43522FAAD241207D5EF4E600FAB21AAEC
:0C1EE00022A923900006EE8FF0120545A9
:011EEC0022D3
:061AF1008B218A228923EB
:101AF700E4F524F525FB7A007926122028E52660EF
:101B07000C64016008752400752505802BAB21AA9C
:101B170022A92390000112042EB4130DE52690008C
:101B2700097002800B740D800CE52690000A700383
:101B3700048002740612048FE52545246011AB2149
:101B4700AA22A923900006E5248525F0120545AEB3
:031B570024AF2593
:011B5A002268
:10218600900006E4F5F01205459000061204EEFFF5
:03219600AEF02286
:061563008B218A2289237E
:10156900E92416F9E43AFA7D017C001218C2AB218C
:10157900AA22A92390001812042EF524E92416F9A9
:10158900E43AFA7D017C001218C2AB21AA22A923F0
:1015990090001812042EF525E92416F9E43AFA7D8B
:1015A900047C001218C2AB21E5232416F9E4352284
:1015B900FA121A008F298E288D278C26AB21AA2290
:1015C900A92390000812042E6524600CE92408F967
:1015D900E43AFAAD241207D5AE28AF29122074AB2C
:1015E90021AA22A92390000812042E6525600CE97E
:0E15F9002408F9E43AFAAD251207D5E4FEFF06
:0116070022C0
:101D05008B2B8A2C892D121B5BAB2BAA2CA92D9012
:101D15000006EE8FF01205459000061204EE45F020
:101D2500701FAB2BE52D2408F9E4352CFAE4FD12E0
:101D350007D5AB2BAA2CA92D900006EE8FF0120526
:101D450045AB2BAA2CA92D9000061204EEFFAEF090
:011D5500226B
:1017B7008B2B8A2C892D9000061204EE45F0706B56
:1017C7001204157066E92401F9E43AFA122028ABED
:1017D7002BAA2CA92D900002120599E4FAF9F8EF2B
:1017E7002401FFEA3EFEE93DFDE83CFCAA2CA92DB9
:1017F7009000021205C990000112042EFFC394182D
:10180700AB2BAA2CA92D5020C002EF75F003A424FE
:1018170000F582E43424F583A3E0FAA3E0F5828A95
:1018270083D0021206428003122172AB2BAA2CA985
:0B1837002D9000061204EEFFAEF02220
:0A21F4007B017A247948121D0522B0
:0A21FE007B017A2479481217B722FA
:061A00008B2A8A2B892CC1
:101A0600E4F530F52FF52EF52DF531F532AB2AAA92
:101A16002BA92C1204C3FFC3E5329FE5F06480F8BE
:101A2600E5316480985043AF30AE2FAD2EAC2D78A3
:101A3600081205868F308E2F8D2E8C2DE92402F903
:101A4600E43AFAE92532F9EA3531FA120415FFE5E6
:101A5600304FF530E52FF52FE52EF52EE52DF52D3A
:101A66000532E53270A7053180A3AF30AE2FAD2E1B
:021A7600AC2D95
:011A7800224B
:061842008B618A628963DC
:10184800756A00756B011204C3FFAEF0E56B456A5B
:101858006063EF1FAC0670011E4C6059AB61E56315
:101868002402F9E43562FAE92FF9EA3EFA1204157E
:10187800F56CAB64E5662402F9E43565FAE92FF9FD
:10188800EA3EFA120415F56DE56845694567601882
:10189800AB67E5692402F9E43568FAE92FF9EA3E0D
:1018A800FA120415526C526DE56C656D609EE4F594
:0918B8006AF56B8097AE6AAF6B14
:0118C1002204
:0418C2008C408D4188
:1018C600E5408541F0120526E92402F9E43A8B4207
:1018D600F5438944E5414540601EAB42AA43A9440D
:1018E600122028E54115417002154074012544F582
:0818F60044E43543F54380DCB6
:0118FE0022C7
:101F7E0090E682E030E004E020E60B90E682E0306E
:101F8E00E119E030E71590E680E04401F07F147E21
:0C1F9E0000121D5690E680E054FEF02278
:1000030030050990E680E0440AF0800790E680E03E
:100013004408F07FDC7E05121D5690E65D74FFF008
:0F00230090E65FF05391EF90E680E054F7F02203
:08221100E4F51BD2E9D2AF2273
:101DE000AD0790E678E020E6F9C2E990E678E044B5
:101DF00080F0ED25E090E679F090E678E030E0F9CB
:101E000090E678E04440F090E678E020E6F990E64D
:081E100078E030E1D6D2E922AE
:101F1F00AC0790E678E020E6F9E51B702390E678B1
:101F2F00E04480F0EC25E090E679F08D16AF03A940
:101F3F00077517018A188919E4F51A751B01D32241
:021F4F00C322AB
:101E8600AC0790E678E020E6F9E51B702590E67849
:101E9600E04480F0EC25E0440190E679F08D16AF41
:101EA60003A9077517018A188919E4F51A751B0322
:041EB600D322C3224E
:03004B00020F2C75
:100F2C00C0E0C083C082C085C084C086758600C006
:100F3C00D075D000C000C001C002C003C006C007FD
:100F4C0090E678E030E206751B0602101690E67803
:100F5C00E020E10CE51B64026006751B070210160D
:100F6C00E51B24FE605F14603624FE70030210073C
:100F7C0024FC700302101324086003021016AB1734
:100F8C00AA18A919AF1A051A8F8275830012042E9C
:100F9C0090E679F0E51A65167070751B05806B90FC
:100FAC00E679E0AB17AA18A919AE1A8E82758300E0
:100FBC0012048F751B02E5166401704E90E678E002
:100FCC004420F08045E51624FEB51A0790E678E03B
:100FDC004420F0E51614B51A0A90E678E04440F087
:100FEC00751B0090E679E0AB17AA18A919AE1A8EFA
:100FFC008275830012048F051A800F90E678E04406
:10100C0040F0751B008003751B005391DFD007D097
:10101C0006D003D002D001D000D0D0D086D084D05E
:08102C0085D082D083D0E032B0
:021FAA00A90785
:101FAC00AE14AF158F828E83A3E064037017AD015E
:101FBC0019ED7001228F828E83E07C002FFDEC3EA8
:081FCC00FEAF0580DFE4FEFF1B
:011FD40022EA
:1020F600121E86E51B24FA600E146006240770F390
:0C210600D322E4F51BD322E4F51BD32206
:10211200121F1FE51B24FA600E146006240770F3D9
:0C212200D322E4F51BD322E4F51BD322EA
:10204F0090E682E044C0F090E681F0438701000003
:04205F00000000225B
:101D56008E218F2290E600E054187012E5222401AD
:101D6600FFE43521C313F521EF13F522801590E624
:101D760000E05418FFBF100BE52225E0F522E5210F
:101D860033F521E5221522AE21700215214E60059C
:061D960012206380EE2222
:102063007400F58690FDA57C05A3E582458370F990
:01207300224A
:0300000002172BB9
:0C172B00787FE4F6D8FD75817B02177210
:10041500BB010689828A83E0225002E722BBFE02E5
:09042500E32289828A83E4932218
:10042E00BB010CE58229F582E5833AF583E0225083
:10043E0006E92582F8E622BBFE06E92582F8E222CD
:0D044E00E58229F582E5833AF583E49322E7
:10045B00BB010989828A83F8E028F022500327F731
:10046B0022BBFE05F8E328F3228A838982F8E49302
:02047B00282235
:10047D00BB010689828A83F0225002F722BBFE015E
:02048D00F32258
:10048F00F8BB010DE58229F582E5833AF583E8F0A3
:10049F00225006E92582C8F622BBFE05E92582C84F
:0204AF00F22237
:1004B100EF8DF0A4A8F0CF8CF0A428CE8DF0A42E5F
:0204C100FE2219
:1004C300BB010A89828A83E0F5F0A3E02250068704
:1004D300F009E71922BBFE07E3F5F009E3192289C6
:0B04E300828A83E493F5F074019322F9
:1004EE00BB0110E58229F582E5833AF583E0F5F04C
:1004FE00A3E0225009E92582F886F008E622BBFE29
:10050E000AE92582F8E2F5F008E222E5832AF5836E
:08051E00E993F5F0A3E9932233
:10052600BB010A89828A83F0E5F0A3F0225006F720
:0F05360009A7F01922BBFE06F3E5F009F319221D
:10054500F8BB0111E58229F582E5833AF583E8F0E8
:10055500E5F0A3F0225009E92582C8F608A6F022A5
:0D056500BBFE09E92582C8F2E5F008F2228C
:101D9C00C2D5E830E70FB2D5E4C39BFBE49AFAE472
:101DAC0099F9E498F8EC30E717B2D5121DD2120667
:101DBC0080E4C39BFBE49AFAE499F9E498F8800375
:101DCC0012068030D50DE4C39FFFE49EFEE49DFD1A
:041DDC00E49CFC2265
:10057200E86010ECA2E713FCED13FDEE13FEEF139F
:04058200FFD8F0228C
:10058600E8600FEFC333FFEE33FEED33FDEC33FCD3
:03059600D8F12277
:10059900BB010DE58229F582E5833AF58302071E41
:1005A9005007E92582F8020712BBFE07E92582F800
:1005B90002072AE58229F582E5833AF5830207369F
:1005C900BB010DE58229F582E5833AF583020752DD
:1005D9005007E92582F8020746BBFE07E92582F89C
:0405E90002075E2285
:1005ED00BB010DE58229F582E5833AF58302078388
:1005FD005007E92582F802076ABBFE07E92582F854
:04060D000207B4220A
:10061100D083D082F8E4937012740193700DA3A378
:1006210093F8740193F5828883E473740293B5F0AF
:0D063100067403936860E9A3A3A3A380D817
:06063E008A838982E47347
:1017370002169CE493A3F8E493A34003F68001F216
:1017470008DFF48029E493A3F85407240CC8C333B3
:10175700C4540F4420C8834004F456800146F6DF82
:10176700E4800B0102040810204080901BB7E47E40
:10177700019360BCA3FF543F30E509541FFEE49377
:10178700A360010ECF54C025E060A840B8E493A33E
:10179700FAE493A3F8E493A3C8C582C8CAC583CA69
:1017A700F0A3C8C582C8CAC583CADFE9DEE780BE21
:011C0B0000D8
:1006440075F008758200EF2FFFEE33FECD33CDCC6D
:1006540033CCC58233C5829BED9AEC99E5829840F0
:100664000CF582EE9BFEED9AFDEC99FC0FD5F0D6CD
:10067400E4CEFBE4CDFAE4CCF9A88222B800C1B9F7
:100684000059BA002DEC8BF084CFCECDFCE5F0CB35
:10069400F97818EF2FFFEE33FEED33FDEC33FCEB6E
:1006A40033FB10D703994004EB99FB0FD8E5E4F929
:1006B400FA227818EF2FFFEE33FEED33FDEC33FC16
:1006C400C933C910D7059BE99A4007EC9BFCE99A0A
:1006D400F90FD8E0E4C9FAE4CCFB2275F010EF2F4F
:1006E400FFEE33FEED33FDCC33CCC833C810D7074F
:1006F4009BEC9AE899400AED9BFDEC9AFCE899F88A
:0E0704000FD5F0DAE4CDFBE4CCFAE4C8F9221C
:0C071200E6FC08E6FD08E6FE08E6FF2213
:0C071E00E0FCA3E0FDA3E0FEA3E0FF224E
:0C072A00E2FC08E2FD08E2FE08E2FF220B
:10073600E493FC740193FD740293FE740393FF2209
:0C074600ECF608EDF608EEF608EFF622DF
:0C075200ECF0A3EDF0A3EEF0A3EFF0221A
:0C075E00ECF208EDF208EEF208EFF222D7
:10076A00D083D082E493F608740193F60874029356
:09077A00F608740393F67404738D
:10078300A8828583F0D083D08212079A12079A1227
:10079300079A12079AE473E493A3C583C5F0C5834C
:1007A300C8C582C8F0A3C583C5F0C583C8C582C8C0
:0107B3002223
:1007B400D083D082E493F208740193F20874029314
:0907C400F208740393F27404734B
:00000001FF
