:101A000012010002000000402A151B8400000102A0
:101A100003010A060002000000400100090219004B
:101A200001010080C80904000001FF000000070553
:101A300086020002000902190001010080C80904A1
:101A4000000001FF000000070586024000000403BB
:101A50000904080349004E004900140344004100F2
:101A6000560069005300200046005800320012035F
:101A700030003000300030003000300030003000E6
:021A8000000064
:03004300021500A3
:0300530002150093
:10150000022266000222940002227E000214FF00E2
:10151000022000000220370002236300022364003F
:10152000022365000223660002236700022368008D
:101530000223690002236A0002236B0002236C006D
:1015400002236D000223640002236E0002236F0059
:101550000223700002237100022372000223730031
:101560000223740002236400022364000223640047
:1015700002237500022376000223770002237800FD
:101580000223790002237A0002237B0002237C00DD
:1015900002237D0002237E0002237F0002238000BD
:1015A000022381000223820002238300022384009D
:0815B0000223850002238600DE
:0A232E000001020203030404050588
:1017A400C200C202C201121361C2AF750A1A750BDC
:1017B4000075121A75131275081A75091C75101A1A
:1017C40075113575141A75154ED2E890E668E04423
:1017D40009F090E65CE04435F0D2AF90E680E0207A
:1017E400E105D20412000390E680E054F7F0538E32
:1017F400F8C203121D8B120032300105120A86C290
:10180400013003F212004650EDC2031221AB200056
:101814001690E682E030E704E020E1EF90E682E013
:0F18240030E604E020E0E412210312004E80C7FA
:02236100D32285
:100A860090E6B9E07003020B2E147003020BA32448
:100A9600FE7003020C1E24FB7003020B2814700365
:100AA600020C8A146076147003020C8A2405600313
:100AB600020C7E90E6BBE024FE602714603824FD1D
:100AC600601114602724067050E50A90E6B3F0E53D
:100AD6000B803C122361503EE51290E6B3F0E5131D
:100AE600802DE50C90E6B3F0E50D8023E50E90E64B
:100AF600B3F0E50F801990E6BAE0FF12212FAA069F
:100B0600A9077B01EA494B600DEE90E6B3F0EF9042
:100B1600E6B4F0020C8A020C79020C791222E10288
:100B26000C8A1222D1020C8A90E6B8E0247F601566
:100B360014601924027063A200E43325E0FFA202C8
:100B4600E4334F8041E490E740F0803F90E6BCE01C
:100B5600547EFF7E00E0D394807C0040047D0180BB
:100B6600027D00EC4EFEED4F242EF58274233EF5F9
:100B760083E493FF3395E0FEEF24A1FFEE34E68F86
:100B860082F583E0540190E740F0E4A3F090E68A12
:100B9600F090E68B7402F0020C8A020C7990E6B8AB
:100BA600E024FE601624026003020C8A90E6BAE096
:100BB600B40105C200020C8A020C7990E6BAE07014
:100BC6005590E6BCE0547EFF7E00E0D394807C0026
:100BD60040047D0180027D00EC4EFEED4F242EF593
:100BE6008274233EF583E493FF3395E0FEEF24A160
:100BF600FFEE34E68F82F583E054FEF090E6BCE02B
:100C06005480131313541FFFE0540F2F90E683F004
:100C1600E04420F0806E805B90E6B8E024FE601A27
:100C26002402704F90E6BAE0B40104D200805590D9
:100C3600E6BAE0B40202804C803990E6BCE0547E0D
:100C4600FF7E00E0D394807C0040047D0180027D1D
:100C560000EC4EFEED4F242EF58274233EF583E420
:100C660093FF3395E0FEEF24A1FFEE34E68F82F585
:100C760083800D90E6A08008120056500790E6A0EB
:0B0C8600E04401F090E6A0E04480F0A4
:010C91002240
:0300330002235D48
:04235D0053D8EF3230
:0B22FF00412C2201412E2300011C0095
:1013610090E6007410F090E60174A3F00000009084
:10137100E60B7403F000000090E609F00000009015
:10138100E60274E6F0000000E490E610F0000000D0
:1013910090E611F000000090E612F000000090E6E7
:1013A10013F000000090E61474E0F0000000E490F7
:1013B100E615F000000090E61A7409F090E6247436
:1013C10002F0E490E625F090E63474C1F090E63541
:1013D10074F2F0000000E490E670F000000090E686
:1013E10071F000000090E672F0F58075A00875B10B
:1013F10023F5B275B40E75B6F7F5A875E8E31223B7
:101401005590E67AE04401F043B180E4F51C000513
:0A1411001CE51CB414F853B17F224F
:0D14D20074402526F582E434E7F583E0FF41
:1014DF0043B120E4FEEF30E70543B110800353B171
:0F14EF00EF53B1DF43B120EF25E0FF0EBE08E65B
:0114FE0022CB
:0621D000FF1221D6AF054D
:1021D600C2A2E4FEEF30E704D2A18002C2A1D2A2DD
:0A21E600C2A2EF25E0FF0EBE08EADA
:0121F00022CC
:1021F100E4FFC2A2FED2A230A0054307018000C2C3
:0E220100A2EE64076004EF25E0FF0EBE08E7C2
:01220F0022AC
:0A1D37008E2B8F2C8D2D8A2E8B2F02
:101D410053B1BFE4F530E530C3952D503CE52B9000
:101D51002E24F0E52CA3F0E52F2530F582E4352E75
:101D6100F583E0902E26F043B1407A2E7B247D034B
:101D71007F5112224A7F51121FC8052CE52C700297
:091D8100052B53B1BF053080BDF4
:011D8A002236
:0A1DDE008E2B8F2C8D2D8A2E8B2F5B
:101DE80053B1BFE52B902E2CF0E52CA3F043B14066
:101DF8007A2E7B2C7D027F5112224A53B1BFE4FF19
:101E0800EFC3952D5010E52F2FF582E4352EF5837D
:101E180074CDF00F80EA43B140AB2FAA2EAD2D7FD1
:071E28005112222E53B1BF3D
:011E2F002290
:101D8B007F0312212FEF2402FFE43EA907752101E7
:101D9B00F52289237A2E7B247D087FF87E7F121D06
:101DAB00DEE4FF74242FF582E4342EF583E0FEC3CA
:101DBB009420401AEED3947E5014AB21AA22A9236F
:101DCB0075F002EFA4F58285F083EE1204AD0FBF20
:021DDB0008D12D
:011DDD0022E3
:0100320022AB
:0500460043B180D3224C
:05004E0053B17FD32235
:1022D100E490E740F090E68AF090E68B04F0D32298
:1022E100E490E740F090E68AF090E68B04F0D32288
:1000560000000090E6BAE0752100F522A3E0FEEE6E
:100066004221A3E0FDA3E0FEEEFCA3E0752300F52C
:1000760024A3E0FEEE422390E6B8E05480FEA3E01F
:10008600FBEBFF8EF012063F027F00BD032A00BE87
:10009600019B00BF00B200C0013300C102CB80BD8E
:1000A600041480BE020480BF0000042F53B1FB532A
:1000B600B1FEAF221214DF53B1FDE4F51C00051C9E
:1000C600E51CB432F843B10243B101E5244523608F
:1000D60048E490E68AF090E68BF000000090E6A0F7
:1000E600E020E1F990E68BE0752700F528E4F52598
:1000F600F526C3E5269528E5259527500D1214D239
:100106000526E52670EC052580E8C3E5249528F547
:1001160024E5239527F52380B253B1FDE4F51C00B1
:10012600051CE51CB432F843B1020202C843B1040F
:10013600E52445236048E490E68AF090E68BF000DB
:10014600000090E6A0E020E1F990E68BE07527003C
:10015600F528E4F525F526C3E5269528E525952712
:10016600500D1214D20526E52670EC052580E8C34D
:10017600E5249528F524E5239527F52380B253B188
:10018600FDE4F51C00051CE51CB432F843B102532E
:10019600B1FB0202C8C2A3E522547F1221D0E52496
:1001A60045236055E490E68AF090E68BF000000067
:1001B60090E6A0E020E1F990E68BE0752700F528AF
:1001C600E4F525F526C3E5269528E5259527501A55
:1001D60074402526F582E434E7F583E0FF1221D644
:1001E6000526E52670DF052580DBC3E5249528F581
:1001F60024E5239527F52380A5D2A3020409C2A3EB
:10020600E52244801221D0E5244523606790E6A0CC
:10021600E020E1F9C3E5249440E5239400500885E5
:1002260023278524288006752700752840E4F525B0
:10023600F526C3E5269528E5259527501A1221F1BE
:1002460074402526F582E434E7F583EFF00526E5CC
:100256002670DF052580DBE490E68AF090E68BE5E4
:1002660028F0000000C3E5249528F524E52395270A
:10027600F5238093D2A3020431E52445236043E4A9
:1002860090E68AF090E68BF000000090E6A0E02071
:10029600E1F990E68BE0752700F528FD7AE77B40CB
:1002A600AF22AE21121D37E5282522F522E5273596
:1002B60021F521C3E5249528F524E5239527F52383
:1002C60080B7020409E5244523700302043190E651
:1002D600A0E020E1F9C3E5249440E523940050080A
:1002E6008523278524288006752700752840AD2894
:1002F6007AE77B40AF22AE21121DDEE5282522F5E6
:1003060022E5273521F521E490E68AF090E68BE593
:1003160028F0000000C3E5249528F524E523952759
:10032600F52380A1902C22E0600E53A00F75B4BE79
:10033600122338E4902C22F0D3E5249400E523948C
:1003460002401275B40E902E23740AF0902C22747B
:1003560001F0020431E4F529F52A7B017A2C792390
:10036600122317E52445236074E490E68AF090E6AC
:100376008BF000000090E6A0E020E1F990E68BE02B
:10038600752700F528E4F525F526C3E5269528E525
:10039600259527502D74402526F582E434E7F5830C
:1003A600E0FFE52A2526FDE5293525FC74232DF5F4
:1003B60082742C3CF583EFF00526E52670CC0525E6
:1003C60080C8E528252AF52AE5273529F529C3E534
:1003D600249528F524E5239527F5238086E52245EF
:1003E60021700A75B40E902C2204F0801612234256
:1003F600902E23EFF0D39400400975B40E902C2272
:100406007401F0E490E68AF090E68BF0801D90E7A8
:100416004074BEF0902E23E090E741F0E490E68A27
:0C042600F090E68B7402F08002D322C339
:0104320022A7
:10226600C0E0C083C082D2015391EF90E65D740155
:08227600F0D082D083D0E032E9
:10227E00C0E0C083C0825391EF90E65D7404F0D04D
:06228E0082D083D0E03293
:10229400C0E0C083C0825391EF90E65D7402F0D039
:0622A40082D083D0E0327D
:10200000C0E0C083C08290E680E030E70E85080C17
:1020100085090D85100E85110F800C85100C85111A
:102020000D85080E85090F5391EF90E65D7410F051
:07203000D082D083D0E03222
:0114FF0032BA
:10203700C0E0C083C08290E680E030E70E85080CE0
:1020470085090D85100E85110F800C85100C8511E3
:102057000D85080E85090F5391EF90E65D7420F00A
:07206700D082D083D0E032EB
:012363003247
:012364003246
:012365003245
:012366003244
:012367003243
:012368003242
:012369003241
:01236A003240
:01236B00323F
:01236C00323E
:01236D00323D
:01236E00323C
:01236F00323B
:01237000323A
:012371003239
:012372003238
:012373003237
:012374003236
:012375003235
:012376003234
:012377003233
:012378003232
:012379003231
:01237A003230
:01237B00322F
:01237C00322E
:01237D00322D
:01237E00322C
:01237F00322B
:01238000322A
:012381003229
:012382003228
:012383003227
:012384003226
:012385003225
:012386003224
:0D003600ED4C7005EFF452A022EF42A02225
:0C230B00E4FDFC7F201200360D020036BD
:102184008B528A538954AB7DAA7EA97F057CE57C5A
:10219400AE7B7002057B14F5828E8312044CAB5225
:0721A400AA53A95402049B99
:0C231700E4F57BF57C8B7D8A7E897F22BB
:0B232300E5A05440C413135403FF2234
:081BF9008F6A8E698D688C670C
:101C01007F407E427D0F7C00AB6AAA69A968A86704
:101C1100D312057E4019AF6AAE69AD68AC67E47B4B
:101C21000AFAF9F8121F0F8F6A8E698D688C67E4C2
:101C3100F56EF56DF56CF56BAF6AAE69AD68AC67C5
:101C4100AB6EAA6DA96CA86BC312057E501E122340
:101C51000BE4FAF9F8E56E2401F56EEA356DF56DE0
:0C1C6100E9356CF56CE8356BF56B80CC58
:011C6D002254
:101E8100FF234CFF215AFF11B5FF129FFF206EFF68
:101E910022AAFF22AAFF22F1FF194CFF15B8FF2247
:101EA100AAFF22AAFF170BFF170BFF170BFF1668DC
:101EB100FF1668FF1668FF1F90FF1C6EFF1C6EFF68
:081EC10010BDFF22BEFF141B3F
:101CDB00E412049B9000011204AD90000212061B4B
:101CEB0000000000900006E4F5F012055190000B87
:101CFB00E41204AD900008E41204AD9000097401E5
:101D0B001204AD90000A74011204AD90001012067B
:101D1B001B00000000900014E4F5F0120551900038
:0C1D2B000C12061B00000000E4FEFF226A
:0E20D200902E24E0FCA3E0FDA3E0FEA3E0FFBF
:1020E0008F348E338D328C31E5342407FFE4353361
:1020F000FEE43532FDE43531FCE47B08FAF9F812F0
:032100001F0F228C
:042210007F017E00CC
:10221400AD07AC067F10120036E4FDFC7F201200EF
:0A222400367D017C007F20020036A9
:0807EF00AB4DAA4EA94F7D019C
:0807F7008B678A6889698D6A2D
:1007FF00E4902E31F0A3F0E56A703C7F01FE1222E7
:10080F0014E4F56BF56CE4FDFC7F201200367D01DE
:10081F007C007F20120036056CE56C7002056BC3FF
:10082F009405E56B6480948040DCAB67AA68A96986
:10083F00E412049B020A7DAB67AA68A9691204330C
:10084F00FF656A601FE56AB40704EFB4060AE56A3C
:10085F00B40E11EF640D600C902E31E4F0A374050B
:10086F00F0020A7DE56AB5070EB40603020959E5E1
:10087F006AB40D03020A15AB67AA68A9691204339B
:10088F00FF656A7003020A7DEFB410004003020A8D
:10089F00669008A7F82828730208D70208DA02081A
:1008AF00DD02090302092702093502095902096706
:1008BF0002098B0209AF0209C00209E40209F20220
:1008CF000A15020A22020A440209900209A1E56AE6
:1008DF00C39409400E122210AB67AA68A969740964
:1008EF00020A77E4FFFE122214AB67AA68A96974A3
:1008FF0003020A77E56AB40411E4FFFE122214AB77
:10090F0067AA68A9697404020A77122210AB67AA52
:10091F0068A9697405020A77122210AB67AA68A941
:10092F00697405020A77E56AB40611E4FFFE122224
:10093F0014AB67AA68A9697406020A77122210AB72
:10094F0067AA68A9697408020A77122210AB67AA0E
:10095F0068A9697407020A77E56AB40411E4FFFE17
:10096F00122214AB67AA68A9697404020A771222CB
:10097F0010AB67AA68A9697408020A77E56AB4011F
:10098F0011E4FFFE122214AB67AA68A96974010271
:10099F000A77122210AB67AA68A9697402020A7754
:1009AF00E4FFFE122214AB67AA68A969740A020A4F
:1009BF0077E56AB40B11E4FFFE122214AB67AA6845
:1009CF00A969740B020A77122210AB67AA68A9698A
:1009DF00740C020A77122210AB67AA68A969740C0B
:1009EF00020A77E56AB40D11E4FFFE122214AB6719
:1009FF00AA68A969740D020A77122210AB67AA6858
:100A0F00A969740F8062122210AB67AA68A9697472
:100A1F000E8055E56AB40B10E4FFFE122214AB678B
:100A2F00AA68A969740B8040122210AB67AA68A943
:100A3F0069740F8033E56AB40110E4FFFE122214CB
:100A4F00AB67AA68A9697401801E122210AB67AA4E
:100A5F0068A96974028011902E31E4F0A37405F037
:100A6F00AB67AA68A969E56A12049B020886902EF3
:060A7F0031E0FEA3E0FFE0
:010A8500224E
:0E0E38008F6A8E698D688C678B6B8A6C896DF2
:100E4600757600757700757800E56F4570456E60BC
:100E56003C1204CFFFAB6EAA6FA970E5F08FF012BB
:100E66000532AB6EE5702402F9E4356FFAC003C0B3
:100E760002C001AB6BAA6CA96D1204CFD001D002DF
:100E8600D00329F9EA35F08B76F5778978AB6BE5EF
:100E96006D2402F9E4356CFAC002C001AA6CA96D92
:100EA6001204CFD001D00229F9EA35F08B73F5741C
:100EB6008975AF6AAE69AD68AC67EC4D4E4F70038D
:100EC600020FB4AB73E57515757002157414F9AAA3
:100ED60074120433902E31F0E4A3F0F579F57AAF6D
:100EE6006AAE69AD68AC67EC4D4E4F7003020F8F6A
:100EF600C3E57A9408E579648094804003020F8FF5
:100F060074FF2FF56AEE34FFF569ED34FFF568ECF2
:100F160034FFF567E57245716016AF6AAE69AD6874
:100F2600AC67EC4D4E4F70087D01FC7F1012003609
:100F3600902E31E05401FD7C007F80120036902E09
:100F460031E0C313F0E4FDFC7F20120036E577455F
:100F56007845766020122323902E33EFF0902E32C0
:100F6600E0FFAE7AA3E0FDA806088002C333D8FCF2
:100F76004F902E32F07D017C007F20120036057ADC
:100F8600E57A70020579020EE5E5774578457670D3
:100F960003020EB8902E32E0FFAB76E57815787036
:0E0FA60002157714F9AA77EF12049B020EB819
:010FB400221A
:080C92008B4D8A4E894F8D50F5
:100C9A00E4902E2AF0A3F0A3F0A3F0A3F0E55065A8
:100CAA00617E0060047F0180027F00902E2FEEF0AB
:100CBA00A3EFF0AF54AE53AD52AC51EC4D4E4F7062
:100CCA0022AF65AE64AD63AC62EC4D4E4F70030269
:100CDA000E041207EFAF65AE64AD63AC62121BF986
:100CEA00020E04AB4DAA4EA94FAD501207F7AF54EE
:100CFA00AE53AD52AC5185586E85596F855A709076
:100D0A002E2FE0F571A3E0F572AB55AA56A957123A
:100D1A000E38E55C455D455B602D85586A85596BE3
:100D2A00855A6C855E6D855F6E85606FAB5BAA5C6C
:100D3A00A95D121A82EF4E70047F0180027F009033
:100D4A002E2CE4F0A3EFF0902E2FE07002A3E070B7
:100D5A0003020DEAAB4DAA4EA94F74011204799011
:100D6A002E2CE07002A3E06050AF65AE64AD63ACB8
:100D7A0062EC4D4E4F6042902E2EE0C3956650397C
:100D8A00AB4DAA4EA94F7D061207F7AB4DAA4EA945
:100D9A004F7D041207F7AF65AE64AD63AC627802AB
:100DAA00120594E5652FF565E5643EF564E5633D56
:100DBA00F563E5623CF562800BAB4DAA4EA94FADD7
:100DCA00611207F7AF65AE64AD63AC62EC4D4E4F8E
:100DDA00600E1207EFAF65AE64AD63AC62121BF929
:100DEA00902E2CE07002A3E06010902E2EE0FF04FB
:100DFA00F0EFC395665003020CED902E2CE07002C2
:100E0A00A3E06021E5666014902E2EE0D39566403B
:100E1A000B902E2AE4F0A37403F08009902E2AE4A2
:0D0E2A00F0A37402F0902E2AE0FEA3E0FF7A
:010E37002298
:101B02008B328A3389348F388E378D368C35AB3BA6
:101B1200AA3CA93DAD3AAC39121F53E542454345B3
:101B220041600DAB41AA42A943AD3AAC39121F53F1
:101B3200853854853753853652853551853B5585D1
:101B42003C56853D57853E58853F5985405A8541CB
:101B52005B85425C85435D85445E85455F85466065
:101B6200854761854B65854A6485496385486285F9
:0E1B72004C66AB32AA33A9347D04120C9222C9
:1022AA00900006E475F0041205519000061204FA33
:0422BA00FFAEF02261
:09234C00740112049BE4FEFF225F
:10215A008B2E8A2F8930E9241FF9EA3406FAC00245
:10216A00C001AA2FA9309000141204FAFDACF0D0D5
:0A217A0001D002121F53E4FEFF2201
:0611B5008B2E8A2F893009
:1011BB007B017A2E7924122184902E24E0FFE4FC0B
:1011CB00FDFE1220E0902E25EEF0A3EFF0D394005D
:1011DB00EE648094824010AB2EAA2FA930900006AB
:1011EB00E475F00602128C902E24E0FFE4FCFDFE69
:1011FB001220E0AC06AD07AB2EE5302416F9E43532
:10120B002FFA121F53AB2EE5302408F9E4352FFAD1
:10121B00C003C002C001902E24E0FFE48F54F553AD
:10122B00F552F551E5302416F9E4352F8B55F5566B
:10123B008957755800755900755A00755B00755CB8
:10124B0000755D00755E00755F00756000AA2FA9C3
:10125B003090000912044CF56190000C1205BB8F05
:10126B00658E648D638C62E4F566D001D002D00389
:10127B007D0B120C92AB2EAA2FA930900006EE8F8D
:10128B00F0120551AB2EAA2FA9309000061204FACA
:03129B00FFAEF0B3
:01129E00222D
:0610BD008B2E8A2F893002
:1010C300E92416F9E43AFA7D027C00121F53AB2E91
:1010D300E5302416F9E4352FFA121B80902E2412E2
:1010E300060F1220D2902E28EEF0A3EFF0D3940037
:1010F300EE648094824010AB2EAA2FA93090000694
:10110300E475F0060211A21220D2AC06AD07AB2E95
:10111300E5302416F9E4352FFA121F53AB2EE530D0
:101123002408F9E4352FFAC003C002C001902E242D
:10113300E0FCA3E0FDA3E0FEA3E0F5548E538D5243
:101143008C51E5302416F9E4352F8B55F556895724
:10115300755800755900755A00755B00755C00750C
:101163005D00755E00755F00756000AA2FA9309061
:10117300000912044CF56190000C1205BB8F658EBB
:10118300648D638C62E4F566D001D002D0037D0BDD
:10119300120C92AB2EAA2FA930900006EE8FF012FC
:1011A3000551AB2EAA2FA9309000061204FAFFAE08
:0111B300F04B
:0111B4002218
:10129F008B2E8A2F8930E92416F9E43AFAC002C05E
:1012AF0001AA2FA9309000141204FAFDACF0D0015E
:1012BF00D002121F53AB2EE5302408F9E4352FFA74
:1012CF00C003C002C001AA2FA9309000101205BBA5
:1012DF008F548E538D528C51E92416F9E43A8B5565
:1012EF00F5568957E530241CF9EA34048B58F55923
:1012FF00895AE5302419F9EA34028B5BF55C895D74
:10130F00E530241FF9EA34068B5EF55F8960A9305A
:10131F0090000A12044CF56190000C1205BB8F650A
:10132F008E648D638C6290000B12044CF566D001B5
:10133F00D002D0037D04120C92AB2EAA2FA93090AD
:10134F000006EE8FF01205519000061204FAFFAE60
:02135F00F0227A
:10206E008B2E8A2F8930E92416F9E43AFA7D047C06
:10207E0000121F53AB2EE5302416F9E4352FFA1259
:10208E001B80AB2EAA2FA93090000C1205EBE4FE9C
:02209E00FF221F
:0E22F100E9240BF9E43AFA122184E4FEFF22FC
:10194C008B2E8A2F8930900006E4F5F0120551E9B0
:10195C002416F9E43AFA7D047C00121F53AB2EE5F1
:10196C00302416F9E4352FFA121B80AB2EAA2FA9BE
:10197C00309000101205EB9000101205BB1220E005
:10198C00AB2EAA2FA930900014EE8FF012055190B7
:10199C0000141204FAD39400E5F064809482401091
:1019AC00AB2EAA2FA930900006E475F00612055153
:1019BC00AB2EAA2FA9309000061204FAFFAEF0222B
:1015B8008B2E8A2F8930E92408F9E43AFAC003C04F
:1015C80002C001AA2FA9309000101205BBC004C0A8
:1015D80005C006C0079000141204FAF53A85F039E0
:1015E800E92416F9E43A8B3BF53C893DE530241CA7
:1015F800F9EA34048B3EF53F8940E5302419F9EACD
:1016080034028B41F5428943E530241FF9EA340658
:101618008B44F5458946A93090000A12044CF547D9
:1016280090000C1205BB8F4B8E4A8D498C48900058
:101638000B12044CF54CD007D006D005D004D001CD
:10164800D002D003121B02AB2EAA2FA9309000069D
:10165800EE8FF01205519000061204FAFFAEF02248
:06170B008B2E8A2F8930AD
:1017110090000112044CB40E0990000A12044CFF0F
:1017210080027F048F31AB2EE5302408F9E4352F98
:10173100FAC003C002C001AA2FA9309000101205FF
:10174100BB9000141204FAF53A85F039E92416F930
:10175100E43A8B3BF53C893D753E00753F00754091
:1017610000754100754200754300754400754500E0
:10177100754600853147E4F54BF54AF549F548F5DD
:101781004CD001D002D003121B02AB2EAA2FA930DC
:10179100900006EE8FF01205519000061204FAFF38
:0217A100AEF0A8
:0117A3002223
:061668008B2E8A2F893051
:10166E0090000112044CB4110990000A12044CFFB0
:10167E0080027F048F31AB2EE5302408F9E4352F3C
:10168E00FAC003C002C001AA2FA9309000101205A3
:10169E00BB9000141204FAF53A85F039E92416F9D4
:1016AE00E43A8B3BF53C893DE530241CF9EA3404E1
:1016BE008B3EF53F8940E5302419F9EA34028B411F
:1016CE00F5428943754400754500754600853147DE
:1016DE00E4F54BF54AF549F548F54CD001D002D06A
:1016EE0003121B02AB2EAA2FA930900006EE8FF02C
:0C16FE001205519000061204FAFFAEF035
:01170A0022BC
:061F90008B2E8A2F893020
:101F96007B007A007931122184AB2EE5302408F9D2
:101FA600E4352FFAAD311207F7AB2EAA2FA93090E0
:101FB6000006EE8FF01205519000061204FAFFAEED
:011FC600F02A
:011FC70022F7
:061C6E008B2E8A2F893045
:101C7400900006E4F5F01205517B007A00793112E8
:101C84002184E531601664016012AB2EAA2FA930BD
:101C9400900006E475F005120551802BAB2EAA2F97
:101CA400A93090000112044CB4130DE531900009E1
:101CB4007002800B740D800CE53190000A700304EF
:101CC400800274061204ADAB2EAA2FA93090000630
:061CD4001204FAFFAEF05D
:011CDA0022E7
:1022BE00900006E4F5F01205519000061204FAFFA4
:0322CE00AEF0224D
:06141B008B2E8A2F8930A0
:10142100E92416F9E43AFA7D017C00121F53AB2E30
:10143100AA2FA93090001812044C902E24F0E92410
:1014410016F9E43AFA7D017C00121F53AB2EAA2F44
:10145100A93090001812044C902E25F0E92416F9B9
:10146100E43AFA7D047C00121F53AB2EE5302416BA
:10147100F9E4352FFA121B80902E2612060FAB2E9F
:10148100AA2FA93090000812044CFF902E24E0FDF1
:101491006F600AE92408F9E43AFA1207F7902E2658
:1014A100E0FCA3E0FDA3E0FEA3E0FF121BF9AB2EDD
:1014B100AA2FA93090000812044CFF902E25E0FDC0
:1014C1006F600AE92408F9E43AFA1207F7E4FEFF2B
:0114D10022F8
:101E30008B2B8A2C892D121CDBAB2BAA2CA92D9065
:101E40000006EE8FF01205519000061204FA45F0DC
:101E5000701FAB2BE52D2408F9E4352CFAE4FD12B4
:101E600007F7AB2BAA2CA92D900006EE8FF01205D8
:101E700051AB2BAA2CA92D9000061204FAFFAEF04C
:011E8000223F
:101833008B2B8A2C892D9000061204FA45F0706DCB
:101843001204337068E92401F9E43AFA122184ABF3
:101853002BAA2CA92D9000021205BBE4FAF9F8EF8C
:101863002401FFEA3EFEE93DFDE83CFCAA2CA92D3C
:101873009000021205EB90000112044CFFC3941870
:10188300AB2BAA2CA92D5022C002EF75F003A42480
:1018930081F582E4341EF583740193FA740293F59F
:1018A300828A83D00212067080031222AAAB2BAA6B
:0D18B3002CA92D9000061204FAFFAEF022C1
:0A2338007B017A247900121E302286
:0A2342007B017A247900121833227F
:061B80008B318A3289332B
:101B8600E4F537F536F535F534F538F539AB31AAE0
:101B960032A9331204CFFFC3E5399FE5F06480F81C
:101BA600E5386480985043AF37AE36AD35AC3478FF
:101BB600081205A88F378E368D358C34E92402F944
:101BC600E43AFAE92539F9EA3538FA120433FFE539
:101BD600374FF537E536F536E535F535E534F53481
:101BE6000539E53970A7053880A3AF37AE36AD3570
:021BF600AC340D
:011BF80022CA
:061A82008B678A68896988
:101A88007570007571011204CFFFAEF0E5714570F5
:101A98006063EF1FAC0670011E4C6059AB67E569C7
:101AA8002402F9E43568FAE92FF9EA3EFA12043318
:101AB800F572AB6AE56C2402F9E4356BFAE92FF9A3
:101AC800EA3EFA120433F573E56E456F456D60180A
:101AD800AB6DE56F2402F9E4356EFAE92FF9EA3EB9
:101AE800FA12043352725273E5726573609EE4F51C
:091AF80070F5718097AE70AF71BA
:011B010022C1
:041F53008C4D8D4ED6
:101F5700E54D854EF0120532E92402F9E43A8B4F3C
:101F6700F5508951E54E454D601EAB4FAA50A9511A
:101F7700122184E54E154E7002154D74012551F559
:081F870051E43550F55080DCF7
:011F8F00222F
:1021030090E682E030E004E020E60B90E682E030E7
:10211300E119E030E71590E680E04401F07F147E9A
:0C21230000121EC990E680E054FEF0227D
:1000030030040990E680E0440AF0800790E680E03F
:100013004408F07FDC7E05121EC990E65D74FFF094
:0F00230090E65FF05391EF90E680E054F7F02203
:08235500E4F51BD2E9D2AF222E
:101FC800AD0790E678E020E6F9C2E990E678E044CB
:101FD80080F0ED25E090E679F090E678E030E0F9E1
:101FE80090E678E04440F090E678E020E6F990E664
:081FF80078E030E1D6D2E922C5
:1020A000AC0790E678E020E6F9E51B702390E6782F
:1020B000E04480F0EC25E090E679F08D16AF03A9BE
:1020C000077517018A188919E4F51A751B01D322BF
:0220D000C32229
:1019CC00AC0790E678E020E6F9E51B702590E67808
:1019DC00E04480F0EC25E0440190E679F08D16AF00
:1019EC0003A9077517018A188919E4F51A751B03E1
:0419FC00D322C3220D
:03004B00020FB5EC
:100FB500C0E0C083C082C085C084C086758600C07D
:100FC500D075D000C000C001C002C003C006C00774
:100FD50090E678E030E206751B0602109F90E678F1
:100FE500E020E10CE51B64026006751B0702109FFB
:100FF500E51B24FE605F14603624FE70030210902A
:1010050024FC700302109C2408600302109FAB1798
:10101500AA18A919AF1A051A8F8275830012044CF4
:1010250090E679F0E51A65167070751B05806B9072
:10103500E679E0AB17AA18A919AE1A8E8275830056
:101045001204AD751B02E5166401704E90E678E05A
:101055004420F08045E51624FEB51A0790E678E0B1
:101065004420F0E51614B51A0A90E678E04440F0FD
:10107500751B0090E679E0AB17AA18A919AE1A8E70
:10108500827583001204AD051A800F90E678E0445E
:1010950040F0751B008003751B005391DFD007D00E
:1010A50006D003D002D001D000D0D0D086D084D0D5
:0810B50085D082D083D0E03227
:02212F00A907FE
:10213100AE14AF158F828E83A3E064037017AD01D7
:1021410019ED7001228F828E83E07C002FFDEC3E21
:08215100FEAF0580DFE4FEFF94
:012159002263
:10222E001219CCE51B24FA600E146006240770F315
:0C223E00D322E4F51BD322E4F51BD322CD
:10224A001220A0E51B24FA600E146006240770F31E
:0C225A00D322E4F51BD322E4F51BD322B1
:1021AB0090E682E044C0F090E681F04387010000A6
:0421BB0000000022FE
:101EC9008E218F2290E600E054187012E522240139
:101ED900FFE43521C313F521EF13F522801590E6B0
:101EE90000E05418FFBF100BE52225E0F522E5219B
:101EF90033F521E5221522AE21700215214E600528
:061F09001221BF80EE2250
:1021BF007400F58690FDA57C05A3E582458370F933
:0121CF0022ED
:030000000218C023
:0C18C000787FE4F6D8FD75817F021907DF
:10043300BB010689828A83E0225002E722BBFE02C7
:09044300E32289828A83E49322FA
:10044C00BB010CE58229F582E5833AF583E0225065
:10045C0006E92582F8E622BBFE06E92582F8E222AF
:0D046C00E58229F582E5833AF583E49322C9
:10047900BB010989828A83F8E028F022500327F713
:1004890022BBFE05F8E328F3228A838982F8E493E4
:02049900282217
:10049B00BB010689828A83F0225002F722BBFE0140
:0204AB00F3223A
:1004AD00F8BB010DE58229F582E5833AF583E8F085
:1004BD00225006E92582C8F622BBFE05E92582C831
:0204CD00F22219
:1004CF00BB010A89828A83E0F5F0A3E022500687F8
:1004DF00F009E71922BBFE07E3F5F009E3192289BA
:0B04EF00828A83E493F5F074019322ED
:1004FA00BB0110E58229F582E5833AF583E0F5F040
:10050A00A3E0225009E92582F886F008E622BBFE1C
:10051A000AE92582F8E2F5F008E222E5832AF58362
:08052A00E993F5F0A3E9932227
:10053200BB010A89828A83F0E5F0A3F0225006F714
:0F05420009A7F01922BBFE06F3E5F009F3192211
:10055100F8BB0111E58229F582E5833AF583E8F0DC
:10056100E5F0A3F0225009E92582C8F608A6F02299
:0D057100BBFE09E92582C8F2E5F008F22280
:101F0F00C2D5E830E70FB2D5E4C39BFBE49AFAE4FD
:101F1F0099F9E498F8EC30E717B2D5121F4512067D
:101F2F00AEE4C39BFBE49AFAE499F9E498F88003D2
:101F3F001206AE30D50DE4C39FFFE49EFEE49DFD77
:041F4F00E49CFC22F0
:10057E00EB9FF5F0EA9E42F0E99D42F0EC6480C8F4
:06058E0064809845F02294
:10059400E86010ECA2E713FCED13FDEE13FEEF137D
:0405A400FFD8F0226A
:1005A800E8600FEFC333FFEE33FEED33FDEC33FCB1
:0305B800D8F12255
:1005BB00BB010DE58229F582E5833AF58302074CF1
:1005CB005007E92582F8020740BBFE07E92582F8B0
:1005DB00020758E58229F582E5833AF58302076421
:1005EB00BB010DE58229F582E5833AF58302060FFF
:1005FB005007E92582F8020774BBFE07E92582F84C
:04060B000207802240
:0C060F00ECF0A3EDF0A3EEF0A3EFF0225E
:10061B00BB010DE58229F582E5833AF5830207A537
:10062B005007E92582F802078CBBFE07E92582F803
:04063B000207D622BA
:10063F00D083D082F8E4937012740193700DA3A34A
:10064F0093F8740193F5828883E473740293B5F081
:0D065F00067403936860E9A3A3A3A380D8E9
:06066C008A838982E47319
:1018CC000217A4E493A3F8E493A34003F68001F277
:1018DC0008DFF48029E493A3F85407240CC8C3331D
:1018EC00C4540F4420C8834004F456800146F6DFEC
:1018FC00E4800B01020408102040809022FFE47E5B
:10190C00019360BCA3FF543F30E509541FFEE493E0
:10191C00A360010ECF54C025E060A840B8E493A3A7
:10192C00FAE493A3F8E493A3C8C582C8CAC583CAD2
:10193C00F0A3C8C582C8CAC583CADFE9DEE780BE8A
:01230A0000D2
:1006720075F008758200EF2FFFEE33FECD33CDCC3F
:1006820033CCC58233C5829BED9AEC99E5829840C2
:100692000CF582EE9BFEED9AFDEC99FC0FD5F0D69F
:1006A200E4CEFBE4CDFAE4CCF9A88222B800C1B9C9
:1006B2000059BA002DEC8BF084CFCECDFCE5F0CB07
:1006C200F97818EF2FFFEE33FEED33FDEC33FCEB40
:1006D20033FB10D703994004EB99FB0FD8E5E4F9FB
:1006E200FA227818EF2FFFEE33FEED33FDEC33FCE8
:1006F200C933C910D7059BE99A4007EC9BFCE99ADC
:10070200F90FD8E0E4C9FAE4CCFB2275F010EF2F20
:10071200FFEE33FEED33FDCC33CCC833C810D70720
:100722009BEC9AE899400AED9BFDEC9AFCE899F85B
:0E0732000FD5F0DAE4CDFBE4CCFAE4C8F922EE
:0C074000E6FC08E6FD08E6FE08E6FF22E5
:0C074C00E0FCA3E0FDA3E0FEA3E0FF2220
:0C075800E2FC08E2FD08E2FE08E2FF22DD
:10076400E493FC740193FD740293FE740393FF22DB
:0C077400ECF608EDF608EEF608EFF622B1
:0C078000ECF208EDF208EEF208EFF222B5
:10078C00D083D082E493F608740193F60874029334
:09079C00F608740393F67404736B
:1007A500A8828583F0D083D0821207BC1207BC12C1
:1007B50007BC1207BCE473E493A3C583C5F0C583E6
:1007C500C8C582C8F0A3C583C5F0C583C8C582C89E
:0107D5002201
:1007D600D083D082E493F208740193F208740293F2
:0907E600F208740393F274047329
:00000001FF
