:101B000012010002000000402A151B84000001029F
:101B100003010A060002000000400100090219004A
:101B200001010080C80904000001FF000000070552
:101B300082020002000902190001010080C80904A4
:101B4000000001FF000000070582024000000403BE
:101B50000904080349004E004900140344004100F1
:101B6000560069005300200046005800320012035E
:101B700030003000300030003000300030003000E5
:021B8000000063
:03004300021500A3
:0300530002150093
:101500000222A8000222ED000222D70002004200BF
:10151000021FFF00022036000223B0000223B100A8
:101520000223B2000223B3000223B4000223B50059
:101530000223B6000223B7000223B8000223B90039
:101540000223BA000223B1000223BB000223BC0025
:101550000223BD000223BE000223BF000223C000FD
:101560000223C1000223B1000223B1000223B10013
:101570000223C2000223C3000223C4000223C500C9
:101580000223C6000223C7000223C8000223C900A9
:101590000223CA000223CB000223CC000223CD0089
:1015A0000223CE000223CF000223D0000223D10069
:0815B0000223D2000223D30044
:0A237900000102020303040405053D
:10185B00C200C202C201120FC2C2AF750A1B750BC6
:10186B000075121B75131275081B75091C75101B5F
:10187B0075113575141B75154ED2E890E668E0446A
:10188B0009F090E65CE04435F0D2AF90E680E020C2
:10189B00E105D20412000390E680E054F7F0538E7A
:1018AB00F8C203121D42120032300105120A99C20E
:1018BB00013003F212004650EDC20312220B20003E
:1018CB001690E682E030E704E020E1EF90E682E05C
:0F18DB0030E604E020E0E412216312004E80C7E3
:0223AE00D32238
:100A990090E6B9E07003020B41147003020BB6240F
:100AA900FE7003020C3124FB7003020B3B1470032C
:100AB900020C9D146076147003020C9D24056003DA
:100AC900020C9190E6BBE024FE602714603824FDF7
:100AD900601114602724067050E50A90E6B3F0E52A
:100AE9000B803C1223AE503EE51290E6B3F0E513BD
:100AF900802DE50C90E6B3F0E50D8023E50E90E638
:100B0900B3F0E50F801990E6BAE0FF12218FAA062B
:100B1900A9077B01EA494B600DEE90E6B3F0EF902F
:100B2900E6B4F0020C9D020C8C020C8C12234F02CD
:100B39000C9D12233F020C9D90E6B8E0247F6015BE
:100B490014601924027063A200E43325E0FFA202B5
:100B5900E4334F8041E490E740F0803F90E6BCE009
:100B6900547EFF7E00E0D394807C0040047D0180A8
:100B7900027D00EC4EFEED4F2479F58274233EF59B
:100B890083E493FF3395E0FEEF24A1FFEE34E68F73
:100B990082F583E0540190E740F0E4A3F090E68AFF
:100BA900F090E68B7402F0020C9D020C8C90E6B872
:100BB900E024FE601624026003020C9D90E6BAE070
:100BC900B40105C200020C9D020C8C90E6BAE070DB
:100BD9005590E6BCE0547EFF7E00E0D394807C0013
:100BE90040047D0180027D00EC4EFEED4F2479F535
:100BF9008274233EF583E493FF3395E0FEEF24A14D
:100C0900FFEE34E68F82F583E054FEF090E6BCE017
:100C19005480131313541FFFE0540F2F90E683F0F1
:100C2900E04420F0806E805B90E6B8E024FE601A14
:100C39002402704F90E6BAE0B40104D200805590C6
:100C4900E6BAE0B40202804C803990E6BCE0547EFA
:100C5900FF7E00E0D394807C0040047D0180027D0A
:100C690000EC4EFEED4F2479F58274233EF583E4C2
:100C790093FF3395E0FEEF24A1FFEE34E68F82F572
:100C890083800D90E6A08008120056500790E6A0D8
:0B0C9900E04401F090E6A0E04480F091
:010CA400222D
:030033000214FCB8
:0414FC0053D8EF32A0
:0B003600412C2201412E2300011C0080
:100FC20090E6007410F090E60174A3F0E4F5A875C1
:100FD200E8E30000000090E60B7403F0000000005C
:100FE200E490E670F00000000090E671F00000006E
:100FF2000090E672F000000000F58075A0B875B1AF
:101002002300000000F5B275B40E75B6F7000000BB
:101012000090E61274E0F00000000090E610E05448
:101022007FF00000000090E611E0547FF000000025
:101032000090E613E0547FF00000000090E614E018
:10104200547FF00000000090E615E0547FF00000AD
:10105200000090E6047480F0000000007482F0004A
:10106200000000E4F00000000090E6187409F000AF
:1010720000000090E60274C4F000000000E490E674
:1010820003F00000000090E6097403F00000000085
:1010920090E62014F000000000E490E621F0000049
:1010A200000090E63074C1F00000000090E6317458
:1010B200F2F01223A090E67AE04401F043B180E41A
:0E10C200F51C00051CE51CB414F853B17F2288
:0D21360074402526F582E434E7F583E0FFD0
:1021430043B120E4FEEF30E70543B110800353B100
:0F215300EF53B1DF43B120EF25E0FF0EBE08E6EA
:01216200225A
:06223000FF122236AF058B
:10223600C2A2E4FEEF30E704D2A18002C2A1D2A27C
:0A224600C2A2EF25E0FF0EBE08EA79
:01225000226B
:10225100E4FFC2A2FED2A230A0054307018000C262
:0E226100A2EE64076004EF25E0FF0EBE08E762
:01226F00224C
:0A1D95008E2B8F2C8D2D8A2E8B2FA4
:101D9F0043B140E4F530E530C3952D5036E52B9037
:101DAF002E24F0E52CA3F0E52F2530F582E4352E17
:101DBF00F583E0902E26F07A2E7B247D037F51123F
:101DCF00228C7F51121FC7052CE52C7002052B05A5
:061DDF003080C353B1BFC8
:011DE50022DB
:0A1E37008E2B8F2C8D2D8A2E8B2F01
:101E410043B140E52B902E2CF0E52CA3F07A2E7BAC
:101E51002C7D027F5112228CE4FFEFC3952D50108F
:101E6100E52F2FF582E4352EF58374CDF00F80EA4E
:0E1E7100AB2FAA2EAD2D7F5112227053B1BFA0
:011E7F002240
:101D42007F0312218FEF2402FFE43EA907752101D0
:101D5200F52289237A2E7B247D087FF87E7F121E4E
:101D620037E4FF74242FF582E4342EF583E0FEC3BA
:101D72009420401AEED3947E5014AB21AA22A923B8
:101D820075F002EFA4F58285F083EE1204B50FBF61
:021D920008D176
:011D9400222C
:0100320022AB
:0500460043B180D3224C
:05004E0053B17FD32235
:10233F00E490E740F090E68AF090E68B04F0D32229
:10234F00E490E740F090E68AF090E68B04F0D32219
:100056000000000090E6BAE0752100F522A3E0FE5C
:10006600EE4221A3E0FDA3E0FEEEFCA3E075230033
:10007600F524A3E0FEEE422390E6B8E05480FEA30A
:10008600E0FBEBFF8EF0120647028400BD03310051
:10009600BE019E00BF00B300C0013500C102D18081
:1000A600BD041C80BE020880BF0000043753B1FBAC
:1000B60053B1FEAF2212214353B1FDE4F51C0005F6
:1000C6001CE51CB432F843B10243B101E5244523D3
:1000D6006049E490E68AF090E68BF000000000901C
:1000E600E6A0E020E1F990E68BE0752700F528E42C
:1000F600F525F526C3E5269528E5259527500D1205
:1001060021360526E52670EC052580E8C3E524950D
:1001160028F524E5239527F52380B153B1FDE4F5B1
:100126001C00051CE51CB432F843B1020202CE43A2
:10013600B104E52445236049E490E68AF090E68B15
:10014600F00000000090E6A0E020E1F990E68BE0E8
:10015600752700F528E4F525F526C3E5269528E557
:10016600259527500D1221360526E52670EC052526
:1001760080E8C3E5249528F524E5239527F5238013
:10018600B153B1FDE4F51C00051CE51CB432F8437F
:10019600B10253B1FB0202CEC2A3E522547F122262
:1001A60030E52445236056E490E68AF090E68BF02D
:1001B6000000000090E6A0E020E1F990E68BE075F3
:1001C6002700F528E4F525F526C3E5269528E52537
:1001D6009527501A74402526F582E434E7F583E026
:1001E600FF1222360526E52670DF052580DBC3E5EE
:1001F600249528F524E5239527F52380A4D2A30288
:100206000411C2A3E5224480122230E5244523606E
:100216006890E6A0E020E1F9C3E5249440E5239444
:100226000050088523278524288006752700752811
:1002360040E4F525F526C3E5269528E525952750BE
:100246001A12225174402526F582E434E7F583EF2D
:10025600F00526E52670DF052580DBE490E68AF0CA
:1002660090E68BE528F000000000C3E5249528F50C
:1002760024E5239527F5238092D2A3020439E524A9
:1002860045236044E490E68AF090E68BF000000097
:100296000090E6A0E020E1F990E68BE0752700F5F6
:1002A60028FD7AE77B40AF22AE21121D95E5282571
:1002B60022F522E5273521F521C3E5249528F524E5
:1002C600E5239527F52380B6020411E5244523701E
:1002D6000302043990E6A0E020E1F9C3E524944046
:1002E600E523940050088523278524288006752752
:1002F60000752840AD287AE77B40AF22AE21121E5A
:1003060037E5282522F522E5273521F521E490E673
:100316008AF090E68BE528F000000000C3E52495FE
:1003260028F524E5239527F52380A0902C22E0606C
:100336000E43A0B075B4BE122383E4902C22F0D3F2
:10034600E5249400E52394024012902E23740AF0CB
:1003560075B40E902C227401F0020439E4F529F5E7
:100366002A7B017A2C792312236DE52445236075B7
:10037600E490E68AF090E68BF00000000090E6A09C
:10038600E020E1F990E68BE0752700F528E4F525F5
:10039600F526C3E5269528E5259527502D74402595
:1003A60026F582E434E7F583E0FFE52A2526FDE518
:1003B600293525FC74232DF582742C3CF583EFF04A
:1003C6000526E52670CC052580C8E528252AF52AC8
:1003D600E5273529F529C3E5249528F524E5239550
:1003E60027F5238085E5224521700A75B40E902CE9
:1003F6002204F0801612238D902E23EFF0D3940062
:10040600400975B40E902C227401F0E490E68AF04F
:1004160090E68BF0801D90E74074BEF0902E23E0AE
:1004260090E741F0E490E68AF090E68B7402F08063
:0404360002D322C308
:01043A00229F
:1022A800C0E0C083C082D2015391EF90E65D740113
:0822B800F0D082D083D0E032A7
:1022D700C0E0C083C0825391EF90E65D7404F0D0F4
:0622E70082D083D0E0323A
:1022ED00C0E0C083C0825391EF90E65D7402F0D0E0
:0622FD0082D083D0E03224
:101FFF00C0E0C083C08290E680E030E70E85080C19
:10200F0085090D85100E85110F800C85100C85111B
:10201F000D85080E85090F5391EF90E65D7410F052
:07202F00D082D083D0E03223
:01004200328B
:10203600C0E0C083C08290E680E030E70E85080CE1
:1020460085090D85100E85110F800C85100C8511E4
:102056000D85080E85090F5391EF90E65D7420F00B
:07206600D082D083D0E032EC
:0123B00032FA
:0123B10032F9
:0123B20032F8
:0123B30032F7
:0123B40032F6
:0123B50032F5
:0123B60032F4
:0123B70032F3
:0123B80032F2
:0123B90032F1
:0123BA0032F0
:0123BB0032EF
:0123BC0032EE
:0123BD0032ED
:0123BE0032EC
:0123BF0032EB
:0123C00032EA
:0123C10032E9
:0123C20032E8
:0123C30032E7
:0123C40032E6
:0123C50032E5
:0123C60032E4
:0123C70032E3
:0123C80032E2
:0123C90032E1
:0123CA0032E0
:0123CB0032DF
:0123CC0032DE
:0123CD0032DD
:0123CE0032DC
:0123CF0032DB
:0123D00032DA
:0123D10032D9
:0123D20032D8
:0123D30032D7
:1022C000BF0206ED24FF92A422EDBF040524FF9275
:0722D000A72224FF92A522C2
:1021E4008B528A538954AB7DAA7EA97F057CE57CFA
:1021F400AE7B7002057B14F5828E83120454AB52BD
:07220400AA53A9540204A330
:0C236D00E4F57BF57C8B7D8A7E897F2265
:0623A800A2A6E433FF22AF
:081A83008F6A8E698D688C6783
:101A8B007F407E427D0F7C00AB6AAA69A968A8677C
:101A9B00D31205864019AF6AAE69AD68AC67E47BBB
:101AAB000AFAF9F8121F0E8F6A8E698D688C67E43B
:101ABB00F56EF56DF56CF56BAF6AAE69AD68AC673D
:101ACB00AB6EAA6DA96CA86BC31205865026E4FDFC
:101ADB007F011222C00D1222C0E4FAF9F8E56E2440
:101AEB0001F56EEA356DF56DE9356CF56CE8356B26
:041AFB00F56B80C443
:011AFF0022C4
:101E8000FF2397FF21BAFF12D0FF13BAFF20A1FF53
:101E90002318FF2318FF235FFF147CFF166FFF2317
:101EA00018FF2318FF17C2FF17C2FF17C2FF171F23
:101EB000FF171FFF171FFF1F8FFF1C79FF1C79FFE4
:081EC00011D8FF232CFF15B817
:101CE600E41204A39000011204B590000212062328
:101CF60000000000900006E4F5F012055990000B74
:101D0600E41204B5900008E41204B59000097401C9
:101D16001204B590000A74011204B5900010120660
:101D26002300000000900014E4F5F012055990001D
:0C1D36000C12062300000000E4FEFF2257
:0E210500902E24E0FCA3E0FDA3E0FEA3E0FF8B
:102113008F348E338D328C31E5342407FFE435332D
:10212300FEE43532FDE43531FCE47B08FAF9F812BC
:032133001F0E225A
:10230300AD077F021222C0E4FD7F011222C07D01CE
:052313007F010222C061
:0807F700AB4DAA4EA94F7D0194
:0807FF008B678A6889698D6A25
:10080700E4902E31F0A3F0E56A70387F01122303DC
:10081700E4F56BF56CE4FD7F011222C07D017F01D9
:100827001222C0056CE56C7002056BC39405E56B7D
:100837006480948040DFAB67AA68A969E41204A3C7
:10084700020A90AB67AA68A96912043BFF656A6050
:100857001FE56AB40704EFB4060AE56AB40E11EFA0
:10086700640D600C902E31E4F0A37405F0020A9039
:10087700E56AB5070EB40603020962E56AB40D031B
:10088700020A24AB67AA68A96912043BFF656A706C
:1008970003020A90EFB410004003020A799008ABF4
:1008A700F82828730208DB0208DE0208E1020908BB
:1008B70002092D02093D0209620209720209970223
:1008C70009BC0209CC0209F1020A01020A24020A40
:1008D70033020A5602099C0209ACE56AC39409402F
:1008E700107F01122303AB67AA68A9697409020A7A
:1008F7008AE4FF122303AB67AA68A9697403020A93
:100907008AE56AB40410E4FF122303AB67AA68A957
:10091700697404020A8A7F01122303AB67AA68A9D4
:10092700697405020A8A7F01122303AB67AA68A9C3
:10093700697405020A8AE56AB40610E4FF12230304
:10094700AB67AA68A9697406020A8A7F01122303A2
:10095700AB67AA68A9697408020A8A7F0112230390
:10096700AB67AA68A9697407020A8AE56AB4041022
:10097700E4FF122303AB67AA68A9697404020A8A11
:100987007F01122303AB67AA68A9697408020A8A60
:10099700E56AB40110E4FF122303AB67AA68A969EB
:1009A7007401020A8A7F01122303AB67AA68A96947
:1009B7007402020A8AE4FF122303AB67AA68A969D3
:1009C700740A020A8AE56AB40B10E4FF122303AB28
:1009D70067AA68A969740B020A8A7F01122303AB0D
:1009E70067AA68A969740C020A8A7F01122303ABFC
:1009F70067AA68A969740C020A8AE56AB40D0FE44C
:100A0700FF122303AB67AA68A969740D80757F017C
:100A1700122303AB67AA68A969740F80667F011266
:100A27002303AB67AA68A969740E8057E56AB40BFC
:100A37000FE4FF122303AB67AA68A969740B80430D
:100A47007F01122303AB67AA68A969740F8034E595
:100A57006AB4010FE4FF122303AB67AA68A969749C
:100A67000180207F01122303AB67AA68A96974027A
:100A77008011902E31E4F0A37405F0AB67AA68A942
:100A870069E56A1204A302088A902E31E0FEA3E00A
:010A9700FF5F
:010A9800223B
:0E0E4B008F6A8E698D688C678B6B8A6C896DDF
:100E5900757600757700757800E56F4570456E60A9
:100E69003C1204D7FFAB6EAA6FA970E5F08FF012A0
:100E7900053AAB6EE5702402F9E4356FFAC003C098
:100E890002C001AB6BAA6CA96D1204D7D001D002C4
:100E9900D00329F9EA35F08B76F5778978AB6BE5DC
:100EA9006D2402F9E4356CFAC002C001AA6CA96D7F
:100EB9001204D7D001D00229F9EA35F08B73F57401
:100EC9008975AF6AAE69AD68AC67EC4D4E4F70037A
:100ED900020FC1AB73E57515757002157414F9AA83
:100EE9007412043B902E31F0E4A3F0F579F57AAF52
:100EF9006AAE69AD68AC67EC4D4E4F7003020F9C4A
:100F0900C3E57A9408E579648094804003020F9CD4
:100F190074FF2FF56AEE34FFF569ED34FFF568ECDF
:100F290034FFF567E57245716015AF6AAE69AD6862
:100F3900AC67EC4D4E4F70077D017F021222C090C5
:100F49002E31E05401FD7F041222C0902E31E0C3FE
:100F590013F0E4FD7F011222C0E5774578457660FC
:100F6900201223A8902E33EFF0902E32E0FFAE7AB4
:100F7900A3E0FDA806088002C333D8FC4F902E32A7
:100F8900F07D017F011222C0057AE57A70020579A8
:100F9900020EF8E577457845767003020ECB902E60
:100FA90032E0FFAB76E57815787002157714F9AA67
:080FB90077EF1204A3020ECB36
:010FC100220D
:080CA5008B4D8A4E894F8D50E2
:100CAD00E4902E2AF0A3F0A3F0A3F0A3F0E5506595
:100CBD00617E0060047F0180027F00902E2FEEF098
:100CCD00A3EFF0AF54AE53AD52AC51EC4D4E4F704F
:100CDD0022AF65AE64AD63AC62EC4D4E4F70030256
:100CED000E171207F7AF65AE64AD63AC62121A83CF
:100CFD00020E17AB4DAA4EA94FAD501207FFAF54C0
:100D0D00AE53AD52AC5185586E85596F855A709062
:100D1D002E2FE0F571A3E0F572AB55AA56A9571227
:100D2D000E4BE55C455D455B602D85586A85596BBD
:100D3D00855A6C855E6D855F6E85606FAB5BAA5C59
:100D4D00A95D121A03EF4E70047F0180027F00909F
:100D5D002E2CE4F0A3EFF0902E2FE07002A3E070A4
:100D6D0003020DFDAB4DAA4EA94F740112048190E3
:100D7D002E2CE07002A3E06050AF65AE64AD63ACA5
:100D8D0062EC4D4E4F6042902E2EE0C39566503969
:100D9D00AB4DAA4EA94F7D061207FFAB4DAA4EA92A
:100DAD004F7D041207FFAF65AE64AD63AC62780290
:100DBD0012059CE5652FF565E5643EF564E5633D3B
:100DCD00F563E5623CF562800BAB4DAA4EA94FADC4
:100DDD00611207FFAF65AE64AD63AC62EC4D4E4F73
:100DED00600E1207F7AF65AE64AD63AC62121A8385
:100DFD00902E2CE07002A3E06010902E2EE0FF04E8
:100E0D00F0EFC395665003020D00902E2CE070029A
:100E1D00A3E06021E5666014902E2EE0D395664028
:100E2D000B902E2AE4F0A37403F08009902E2AE48F
:0D0E3D00F0A37402F0902E2AE0FEA3E0FF67
:010E4A002285
:101B82008B328A3389348F388E378D368C35AB3B26
:101B9200AA3CA93DAD3AAC39121F52E54245434534
:101BA20041600DAB41AA42A943AD3AAC39121F5272
:101BB200853854853753853652853551853B558551
:101BC2003C56853D57853E58853F5985405A85414B
:101BD2005B85425C85435D85445E85455F854660E5
:101BE200854761854B65854A648549638548628579
:0E1BF2004C66AB32AA33A9347D04120CA52236
:10231800900006E475F004120559900006120502B3
:04232800FFAEF022F2
:0923970074011204A3E4FEFF220C
:1021BA008B2E8A2F8930E9241FF9EA3406FAC002E5
:1021CA00C001AA2FA930900014120502FDACF0D06C
:0A21DA0001D002121F52E4FEFF22A2
:0612D0008B2E8A2F8930ED
:1012D6007B017A2E79241221E4902E24E0FFE4FC8F
:1012E600FDFE122113902E25EEF0A3EFF0D394000D
:1012F600EE648094824010AB2EAA2FA9309000068F
:10130600E475F0060213A7902E24E0FFE4FCFDFE30
:10131600122113AC06AD07AB2EE5302416F9E435E1
:101326002FFA121F52AB2EE5302408F9E4352FFAB6
:10133600C003C002C001902E24E0FFE48F54F55391
:10134600F552F551E5302416F9E4352F8B55F5564F
:101356008957755800755900755A00755B00755C9C
:1013660000755D00755E00755F00756000AA2FA9A7
:1013760030900009120454F56190000C1205C38FD9
:10138600658E648D638C62E4F566D001D002D0036D
:101396007D0B120CA5AB2EAA2FA930900006EE8F5E
:1013A600F0120559AB2EAA2FA9309000061205029D
:0313B600FFAEF097
:0113B9002211
:0611D8008B2E8A2F8930E6
:1011DE00E92416F9E43AFA7D027C00121F52AB2E76
:1011EE00E5302416F9E4352FFA121C00902E241245
:1011FE000617122105902E28EEF0A3EFF0D39400DF
:10120E00EE648094824010AB2EAA2FA93090000677
:10121E00E475F0060212BD122105AC06AD07AB2E29
:10122E00E5302416F9E4352FFA121F52AB2EE530B5
:10123E002408F9E4352FFAC003C002C001902E2411
:10124E00E0FCA3E0FDA3E0FEA3E0F5548E538D5227
:10125E008C51E5302416F9E4352F8B55F556895708
:10126E00755800755900755A00755B00755C0075F0
:10127E005D00755E00755F00756000AA2FA9309045
:10128E000009120454F56190000C1205C38F658E8F
:10129E00648D638C62E4F566D001D002D0037D0BC1
:1012AE00120CA5AB2EAA2FA930900006EE8FF012CD
:1012BE000559AB2EAA2FA930900006120502FFAEDB
:0112CE00F02F
:0112CF0022FC
:1013BA008B2E8A2F8930E92416F9E43AFAC002C042
:1013CA0001AA2FA930900014120502FDACF0D00139
:1013DA00D002121F52AB2EE5302408F9E4352FFA59
:1013EA00C003C002C001AA2FA9309000101205C381
:1013FA008F548E538D528C51E92416F9E43A8B5549
:10140A00F5568957E530241CF9EA34048B58F55906
:10141A00895AE5302419F9EA34028B5BF55C895D57
:10142A00E530241FF9EA34068B5EF55F8960A9303E
:10143A0090000A120454F56190000C1205C38F65DE
:10144A008E648D638C6290000B120454F566D00191
:10145A00D002D0037D04120CA5AB2EAA2FA930907E
:10146A000006EE8FF0120559900006120502FFAE33
:02147A00F0225E
:1020A1008B2E8A2F8930E92416F9E43AFA7D047CD3
:1020B10000121F52AB2EE5302416F9E4352FFA1227
:1020C1001C00AB2EAA2FA93090000C1205F3E4FEE0
:0220D100FF22EC
:0E235F00E9240BF9E43AFA1221E4E4FEFF222D
:10147C008B2E8A2F8930900006E4F5F0120559E97D
:10148C002416F9E43AFA7D047C00121F52AB2EE5C7
:10149C00302416F9E4352FFA121C00AB2EAA2FA912
:1014AC00309000101205F39000101205C312211396
:1014BC00AB2EAA2FA930900014EE8FF01205599084
:1014CC000014120502D39400E5F06480948240105D
:1014DC00AB2EAA2FA930900006E475F00612055920
:1014EC00AB2EAA2FA930900006120502FFAEF022F7
:10166F008B2E8A2F8930E92408F9E43AFAC003C097
:10167F0002C001AA2FA9309000101205C3C004C0E8
:10168F0005C006C007900014120502F53A85F0391F
:10169F00E92416F9E43A8B3BF53C893DE530241CEF
:1016AF00F9EA34048B3EF53F8940E5302419F9EA15
:1016BF0034028B41F5428943E530241FF9EA3406A1
:1016CF008B44F5458946A93090000A120454F5471A
:1016DF0090000C1205C38F4B8E4A8D498C48900099
:1016EF000B120454F54CD007D006D005D004D0010E
:1016FF00D002D003121B82AB2EAA2FA93090000666
:10170F00EE8FF0120559900006120502FFAEF0227F
:0617C2008B2E8A2F8930F6
:1017C800900001120454B40E0990000A120454FF48
:1017D80080027F048F31AB2EE5302408F9E4352FE1
:1017E800FAC003C002C001AA2FA930900010120548
:1017F800C3900014120502F53A85F039E92416F968
:10180800E43A8B3BF53C893D753E00753F007540D9
:101818000075410075420075430075440075450028
:10182800754600853147E4F54BF54AF549F548F525
:101838004CD001D002D003121B82AB2EAA2FA930A4
:10184800900006EE8FF0120559900006120502FF6F
:02185800AEF0F0
:01185A00226B
:06171F008B2E8A2F893099
:10172500900001120454B4110990000A120454FFE8
:1017350080027F048F31AB2EE5302408F9E4352F84
:10174500FAC003C002C001AA2FA9309000101205EB
:10175500C3900014120502F53A85F039E92416F90B
:10176500E43A8B3BF53C893DE530241CF9EA340429
:101775008B3EF53F8940E5302419F9EA34028B4167
:10178500F542894375440075450075460085314726
:10179500E4F54BF54AF549F548F54CD001D002D0B2
:1017A50003121B82AB2EAA2FA930900006EE8FF0F4
:0C17B500120559900006120502FFAEF06C
:0117C1002205
:061F8F008B2E8A2F893021
:101F95007B007A0079311221E4AB2EE5302408F973
:101FA500E4352FFAAD311207FFAB2EAA2FA93090D9
:101FB5000006EE8FF0120559900006120502FFAEDD
:011FC500F02B
:011FC60022F8
:061C79008B2E8A2F89303A
:101C7F00900006E4F5F01205597B007A00793112D5
:101C8F0021E4E531601664016012AB2EAA2FA93052
:101C9F00900006E475F005120559802BAB2EAA2F84
:101CAF00A930900001120454B4130DE531900009CE
:101CBF007002800B740D800CE53190000A700304E4
:101CCF00800274061204B5AB2EAA2FA9309000061D
:061CDF00120502FFAEF049
:011CE50022DC
:10232C00900006E4F5F0120559900006120502FF24
:03233C00AEF022DE
:0615B8008B2E8A2F893002
:1015BE00E92416F9E43AFA7D017C00121F52AB2E93
:1015CE00AA2FA930900018120454902E24F0E9246A
:1015DE0016F9E43AFA7D017C00121F52AB2EAA2FA7
:1015EE00A930900018120454902E25F0E92416F913
:1015FE00E43AFA7D047C00121F52AB2EE53024161D
:10160E00F9E4352FFA121C00902E26120617AB2E77
:10161E00AA2FA930900008120454FF902E24E0FD4A
:10162E006F600AE92408F9E43AFA1207FF902E26B1
:10163E00E0FCA3E0FDA3E0FEA3E0FF121A83AB2EB5
:10164E00AA2FA930900008120454FF902E25E0FD19
:10165E006F600AE92408F9E43AFA1207FFE4FEFF84
:01166E002259
:101DE6008B2B8A2C892D121CE6AB2BAA2CA92D90A5
:101DF6000006EE8FF012055990000612050245F016
:101E0600701FAB2BE52D2408F9E4352CFAE4FD12FE
:101E160007FFAB2BAA2CA92D900006EE8FF012051A
:101E260059AB2BAA2CA92D900006120502FFAEF085
:011E36002289
:1018EA008B2B8A2C892D90000612050245F0706D0B
:1018FA0012043B7068E92401F9E43AFA1221E4ABD4
:10190A002BAA2CA92D9000021205C3E4FAF9F8EFCC
:10191A002401FFEA3EFEE93DFDE83CFCAA2CA92D84
:10192A009000021205F3900001120454FFC39418A8
:10193A00AB2BAA2CA92D5022C002EF75F003A424C8
:10194A0080F582E4341EF583740193FA740293F5E8
:10195A00828A83D0021206788003122318AB2BAA3C
:0D196A002CA92D900006120502FFAEF02200
:0A2383007B017A247900121DE62286
:0A238D007B017A2479001218EA227D
:061C00008B318A328933AA
:101C0600E4F537F536F535F534F538F539AB31AA5F
:101C160032A9331204D7FFC3E5399FE5F06480F893
:101C2600E5386480985043AF37AE36AD35AC34787E
:101C3600081205B08F378E368D358C34E92402F9BB
:101C4600E43AFAE92539F9EA3538FA12043BFFE5B0
:101C5600374FF537E536F536E535F535E534F53400
:101C66000539E53970A7053880A3AF37AE36AD35EF
:021C7600AC348C
:011C78002249
:061A03008B678A68896907
:101A09007570007571011204D7FFAEF0E57145706C
:101A19006063EF1FAC0670011E4C6059AB67E56946
:101A29002402F9E43568FAE92FF9EA3EFA12043B8F
:101A3900F572AB6AE56C2402F9E4356BFAE92FF922
:101A4900EA3EFA12043BF573E56E456F456D601881
:101A5900AB6DE56F2402F9E4356EFAE92FF9EA3E38
:101A6900FA12043B52725273E5726573609EE4F593
:091A790070F5718097AE70AF7139
:011A82002241
:041F52008C4D8D4ED7
:101F5600E54D854EF012053AE92402F9E43A8B4F35
:101F6600F5508951E54E454D601EAB4FAA50A9511B
:101F76001221E4E54E154E7002154D74012551F5FA
:081F860051E43550F55080DCF8
:011F8E002230
:1021630090E682E030E004E020E60B90E682E03087
:10217300E119E030E71590E680E04401F07F147E3A
:0C21830000121EC890E680E054FEF0221E
:1000030030040990E680E0440AF0800790E680E03F
:100013004408F07FDC7E05121EC890E65D74FFF095
:0F00230090E65FF05391EF90E680E054F7F02203
:0823A000E4F51BD2E9D2AF22E3
:101FC700AD0790E678E020E6F9C2E990E678E044CC
:101FD70080F0ED25E090E679F090E678E030E0F9E2
:101FE70090E678E04440F090E678E020E6F990E665
:081FF70078E030E1D6D2E922C6
:1020D300AC0790E678E020E6F9E51B702390E678FC
:1020E300E04480F0EC25E090E679F08D16AF03A98B
:1020F300077517018A188919E4F51A751B01D3228C
:02210300C322F5
:10206D00AC0790E678E020E6F9E51B702590E67860
:10207D00E04480F0EC25E0440190E679F08D16AF58
:10208D0003A9077517018A188919E4F51A751B0339
:04209D00D322C32265
:03004B000210D0D0
:1010D000C0E0C083C082C085C084C086758600C061
:1010E000D075D000C000C001C002C003C006C00758
:1010F00090E678E030E206751B060211BA90E678B9
:10110000E020E10CE51B64026006751B070211BAC2
:10111000E51B24FE605F14603624FE70030211ABF1
:1011200024FC70030211B7240860030211BAAB1744
:10113000AA18A919AF1A051A8F82758300120454D0
:1011400090E679F0E51A65167070751B05806B9056
:10115000E679E0AB17AA18A919AE1A8E827583003A
:101160001204B5751B02E5166401704E90E678E036
:101170004420F08045E51624FEB51A0790E678E095
:101180004420F0E51614B51A0A90E678E04440F0E1
:10119000751B0090E679E0AB17AA18A919AE1A8E54
:1011A000827583001204B5051A800F90E678E0443A
:1011B00040F0751B008003751B005391DFD007D0F2
:1011C00006D003D002D001D000D0D0D086D084D0B9
:0811D00085D082D083D0E0320B
:02218F00A9079E
:10219100AE14AF158F828E83A3E064037017AD0177
:1021A10019ED7001228F828E83E07C002FFDEC3EC1
:0821B100FEAF0580DFE4FEFF34
:0121B9002203
:1022700012206DE51B24FA600E146006240770F32B
:0C228000D322E4F51BD322E4F51BD3228B
:10228C001220D3E51B24FA600E146006240770F3A9
:0C229C00D322E4F51BD322E4F51BD3226F
:10220B0090E682E044C0F090E681F0438701000045
:04221B00000000229D
:101EC8008E218F2290E600E054187012E52224013A
:101ED800FFE43521C313F521EF13F522801590E6B1
:101EE80000E05418FFBF100BE52225E0F522E5219C
:101EF80033F521E5221522AE21700215214E600529
:061F080012221F80EE22F0
:10221F007400F58690FDA57C05A3E582458370F9D2
:01222F00228C
:030000000219776B
:0C197700787FE4F6D8FD75817F0219BE70
:10043B00BB010689828A83E0225002E722BBFE02BF
:09044B00E32289828A83E49322F2
:10045400BB010CE58229F582E5833AF583E022505D
:1004640006E92582F8E622BBFE06E92582F8E222A7
:0D047400E58229F582E5833AF583E49322C1
:10048100BB010989828A83F8E028F022500327F70B
:1004910022BBFE05F8E328F3228A838982F8E493DC
:0204A10028220F
:1004A300BB010689828A83F0225002F722BBFE0138
:0204B300F32232
:1004B500F8BB010DE58229F582E5833AF583E8F07D
:1004C500225006E92582C8F622BBFE05E92582C829
:0204D500F22211
:1004D700BB010A89828A83E0F5F0A3E022500687F0
:1004E700F009E71922BBFE07E3F5F009E3192289B2
:0B04F700828A83E493F5F074019322E5
:10050200BB0110E58229F582E5833AF583E0F5F037
:10051200A3E0225009E92582F886F008E622BBFE14
:100522000AE92582F8E2F5F008E222E5832AF5835A
:08053200E993F5F0A3E993221F
:10053A00BB010A89828A83F0E5F0A3F0225006F70C
:0F054A0009A7F01922BBFE06F3E5F009F3192209
:10055900F8BB0111E58229F582E5833AF583E8F0D4
:10056900E5F0A3F0225009E92582C8F608A6F02291
:0D057900BBFE09E92582C8F2E5F008F22278
:101F0E00C2D5E830E70FB2D5E4C39BFBE49AFAE4FE
:101F1E0099F9E498F8EC30E717B2D5121F4412067F
:101F2E00B6E4C39BFBE49AFAE499F9E498F88003CB
:101F3E001206B630D50DE4C39FFFE49EFEE49DFD70
:041F4E00E49CFC22F1
:10058600EB9FF5F0EA9E42F0E99D42F0EC6480C8EC
:0605960064809845F0228C
:10059C00E86010ECA2E713FCED13FDEE13FEEF1375
:0405AC00FFD8F02262
:1005B000E8600FEFC333FFEE33FEED33FDEC33FCA9
:0305C000D8F1224D
:1005C300BB010DE58229F582E5833AF583020754E1
:1005D3005007E92582F8020748BBFE07E92582F8A0
:1005E300020760E58229F582E5833AF58302076C09
:1005F300BB010DE58229F582E5833AF583020617EF
:100603005007E92582F802077CBBFE07E92582F83B
:040613000207882230
:0C061700ECF0A3EDF0A3EEF0A3EFF02256
:10062300BB010DE58229F582E5833AF5830207AD27
:100633005007E92582F8020794BBFE07E92582F8F3
:040643000207DE22AA
:10064700D083D082F8E4937012740193700DA3A342
:1006570093F8740193F5828883E473740293B5F079
:0D066700067403936860E9A3A3A3A380D8E1
:060674008A838982E47311
:1019830002185BE493A3F8E493A34003F68001F207
:1019930008DFF48029E493A3F85407240CC8C33365
:1019A300C4540F4420C8834004F456800146F6DF34
:1019B300E4800B0102040810204080900036E47E8E
:1019C300019360BCA3FF543F30E509541FFEE49329
:1019D300A360010ECF54C025E060A840B8E493A3F0
:1019E300FAE493A3F8E493A3C8C582C8CAC583CA1B
:1019F300F0A3C8C582C8CAC583CADFE9DEE780BED3
:0100410000BE
:10067A0075F008758200EF2FFFEE33FECD33CDCC37
:10068A0033CCC58233C5829BED9AEC99E5829840BA
:10069A000CF582EE9BFEED9AFDEC99FC0FD5F0D697
:1006AA00E4CEFBE4CDFAE4CCF9A88222B800C1B9C1
:1006BA000059BA002DEC8BF084CFCECDFCE5F0CBFF
:1006CA00F97818EF2FFFEE33FEED33FDEC33FCEB38
:1006DA0033FB10D703994004EB99FB0FD8E5E4F9F3
:1006EA00FA227818EF2FFFEE33FEED33FDEC33FCE0
:1006FA00C933C910D7059BE99A4007EC9BFCE99AD4
:10070A00F90FD8E0E4C9FAE4CCFB2275F010EF2F18
:10071A00FFEE33FEED33FDCC33CCC833C810D70718
:10072A009BEC9AE899400AED9BFDEC9AFCE899F853
:0E073A000FD5F0DAE4CDFBE4CCFAE4C8F922E6
:0C074800E6FC08E6FD08E6FE08E6FF22DD
:0C075400E0FCA3E0FDA3E0FEA3E0FF2218
:0C076000E2FC08E2FD08E2FE08E2FF22D5
:10076C00E493FC740193FD740293FE740393FF22D3
:0C077C00ECF608EDF608EEF608EFF622A9
:0C078800ECF208EDF208EEF208EFF222AD
:10079400D083D082E493F608740193F6087402932C
:0907A400F608740393F674047363
:1007AD00A8828583F0D083D0821207C41207C412A9
:1007BD0007C41207C4E473E493A3C583C5F0C583CE
:1007CD00C8C582C8F0A3C583C5F0C583C8C582C896
:0107DD0022F9
:1007DE00D083D082E493F208740193F208740293EA
:0907EE00F208740393F274047321
:00000001FF
