:101A000012010002000000402A151B8400000102A0
:101A100003010A060002000000400100090219004B
:101A200001010080C80904000001FF000000070553
:101A300086020002000902190001010080C80904A1
:101A4000000001FF000000070586024000000403BB
:101A50000904080349004E004900140344004100F2
:101A6000560069005300200046005800320012035F
:101A700030003000300030003000300030003000E6
:021A8000000064
:03004300021500A3
:0300530002150093
:101500000222A5000222D4000219EA0002004200D1
:10151000021FFC000220330002239B0002239C00D8
:1015200002239D0002239E0002239F000223A000AD
:101530000223A1000223A2000223A3000223A4008D
:101540000223A50002239C000223A6000223A70079
:101550000223A8000223A9000223AA000223AB0051
:101560000223AC0002239C0002239C0002239C0067
:101570000223AD000223AE000223AF000223B0001D
:101580000223B1000223B2000223B3000223B400FD
:101590000223B5000223B6000223B7000223B800DD
:1015A0000223B9000223BA000223BB000223BC00BD
:0815B0000223BD000223BE006E
:0A2360000001020203030404050556
:1017C200C200C202C2011210CAC2AF750A1A750B58
:1017D2000075121A75131275081A75091C75101AFC
:1017E20075113575141A75154ED2E890E668E04405
:1017F20009F090E65CE04435F0D2AF90E680E0205C
:10180200E105D20412000390E680E054F7F0538E13
:10181200F8C203121D3F120032300105120A99C2AA
:10182200013003F212004650EDC2031222082000DA
:101832001690E682E030E704E020E1EF90E682E0F5
:0F18420030E604E020E0E412216012004E80C77F
:02239900D3224D
:100A990090E6B9E07003020B41147003020BB6240F
:100AA900FE7003020C3124FB7003020B3B1470032C
:100AB900020C9D146076147003020C9D24056003DA
:100AC900020C9190E6BBE024FE602714603824FDF7
:100AD900601114602724067050E50A90E6B3F0E52A
:100AE9000B803C122399503EE51290E6B3F0E513D2
:100AF900802DE50C90E6B3F0E50D8023E50E90E638
:100B0900B3F0E50F801990E6BAE0FF12218CAA062E
:100B1900A9077B01EA494B600DEE90E6B3F0EF902F
:100B2900E6B4F0020C9D020C8C020C8C12233602E6
:100B39000C9D122326020C9D90E6B8E0247F6015D7
:100B490014601924027063A200E43325E0FFA202B5
:100B5900E4334F8041E490E740F0803F90E6BCE009
:100B6900547EFF7E00E0D394807C0040047D0180A8
:100B7900027D00EC4EFEED4F2460F58274233EF5B4
:100B890083E493FF3395E0FEEF24A1FFEE34E68F73
:100B990082F583E0540190E740F0E4A3F090E68AFF
:100BA900F090E68B7402F0020C9D020C8C90E6B872
:100BB900E024FE601624026003020C9D90E6BAE070
:100BC900B40105C200020C9D020C8C90E6BAE070DB
:100BD9005590E6BCE0547EFF7E00E0D394807C0013
:100BE90040047D0180027D00EC4EFEED4F2460F54E
:100BF9008274233EF583E493FF3395E0FEEF24A14D
:100C0900FFEE34E68F82F583E054FEF090E6BCE017
:100C19005480131313541FFFE0540F2F90E683F0F1
:100C2900E04420F0806E805B90E6B8E024FE601A14
:100C39002402704F90E6BAE0B40104D200805590C6
:100C4900E6BAE0B40202804C803990E6BCE0547EFA
:100C5900FF7E00E0D394807C0040047D0180027D0A
:100C690000EC4EFEED4F2460F58274233EF583E4DB
:100C790093FF3395E0FEEF24A1FFEE34E68F82F572
:100C890083800D90E6A08008120056500790E6A0D8
:0B0C9900E04401F090E6A0E04480F091
:010CA400222D
:0300330002239510
:0423950053D8EF32F8
:0B003600412C2201412E2300011C0080
:1010CA0090E6007410F090E60174A3F0E4F5A875B8
:1010DA00E8E30000000090E60B7403F00000000053
:1010EA00E490E610F00000000090E611F000000025
:1010FA000090E612F00000000090E613F0000000F5
:10110A000090E61474E0F000000000E490E615F0A8
:10111A000000000090E6047480F00000000074866D
:10112A00F000000000E4F00000000090E61A7409E4
:10113A00F00000000090E60274E6F000000000E40F
:10114A0090E603F00000000090E6097403F0000046
:10115A00000090E62414F000000000E490E625F078
:10116A000000000090E63474C1F00000000090E630
:10117A003574F2F000000000E490E670F000000020
:10118A000090E671F00000000090E672F0F58075BC
:10119A00A0B875B123F5B275B40E75B6F7122387E8
:1011AA0090E67AE04401F043B180E4F51C00051CA6
:0911BA00E51CB414F853B17F22C6
:0D21330074402526F582E434E7F583E0FFD3
:1021400043B120E4FEEF30E70543B110800353B103
:0F215000EF53B1DF43B120EF25E0FF0EBE08E6ED
:01215F00225D
:06222D00FF122233AF0591
:10223300C2A2E4FEEF30E704D2A18002C2A1D2A27F
:0A224300C2A2EF25E0FF0EBE08EA7C
:01224D00226E
:10224E00E4FFC2A2FED2A230A0054307018000C265
:0E225E00A2EE64076004EF25E0FF0EBE08E765
:01226C00224F
:0A1D92008E2B8F2C8D2D8A2E8B2FA7
:101D9C0043B140E4F530E530C3952D5036E52B903A
:101DAC002E24F0E52CA3F0E52F2530F582E4352E1A
:101DBC00F583E0902E26F07A2E7B247D037F511242
:101DCC0022897F51121FC4052CE52C7002052B05AE
:061DDC003080C353B1BFCB
:011DE20022DE
:0A1E34008E2B8F2C8D2D8A2E8B2F04
:101E3E0043B140E52B902E2CF0E52CA3F07A2E7BAF
:101E4E002C7D027F51122289E4FFEFC3952D501095
:101E5E00E52F2FF582E4352EF58374CDF00F80EA51
:0E1E6E00AB2FAA2EAD2D7F5112226D53B1BFA6
:011E7C002243
:101D3F007F0312218CEF2402FFE43EA907752101D6
:101D4F00F52289237A2E7B247D087FF87E7F121E51
:101D5F0034E4FF74242FF582E4342EF583E0FEC3C0
:101D6F009420401AEED3947E5014AB21AA22A923BB
:101D7F0075F002EFA4F58285F083EE1204B50FBF64
:021D8F0008D179
:011D9100222F
:0100320022AB
:0500460043B180D3224C
:05004E0053B17FD32235
:10232600E490E740F090E68AF090E68B04F0D32242
:10233600E490E740F090E68AF090E68B04F0D32232
:100056000000000090E6BAE0752100F522A3E0FE5C
:10006600EE4221A3E0FDA3E0FEEEFCA3E075230033
:10007600F524A3E0FEEE422390E6B8E05480FEA30A
:10008600E0FBEBFF8EF0120647028400BD03310051
:10009600BE019E00BF00B300C0013500C102D18081
:1000A600BD041C80BE020880BF0000043753B1FBAC
:1000B60053B1FEAF2212214053B1FDE4F51C0005F9
:1000C6001CE51CB432F843B10243B101E5244523D3
:1000D6006049E490E68AF090E68BF000000000901C
:1000E600E6A0E020E1F990E68BE0752700F528E42C
:1000F600F525F526C3E5269528E5259527500D1205
:1001060021330526E52670EC052580E8C3E5249510
:1001160028F524E5239527F52380B153B1FDE4F5B1
:100126001C00051CE51CB432F843B1020202CE43A2
:10013600B104E52445236049E490E68AF090E68B15
:10014600F00000000090E6A0E020E1F990E68BE0E8
:10015600752700F528E4F525F526C3E5269528E557
:10016600259527500D1221330526E52670EC052529
:1001760080E8C3E5249528F524E5239527F5238013
:10018600B153B1FDE4F51C00051CE51CB432F8437F
:10019600B10253B1FB0202CEC2A3E522547F122262
:1001A6002DE52445236056E490E68AF090E68BF030
:1001B6000000000090E6A0E020E1F990E68BE075F3
:1001C6002700F528E4F525F526C3E5269528E52537
:1001D6009527501A74402526F582E434E7F583E026
:1001E600FF1222330526E52670DF052580DBC3E5F1
:1001F600249528F524E5239527F52380A4D2A30288
:100206000411C2A3E522448012222DE52445236071
:100216006890E6A0E020E1F9C3E5249440E5239444
:100226000050088523278524288006752700752811
:1002360040E4F525F526C3E5269528E525952750BE
:100246001A12224E74402526F582E434E7F583EF30
:10025600F00526E52670DF052580DBE490E68AF0CA
:1002660090E68BE528F000000000C3E5249528F50C
:1002760024E5239527F5238092D2A3020439E524A9
:1002860045236044E490E68AF090E68BF000000097
:100296000090E6A0E020E1F990E68BE0752700F5F6
:1002A60028FD7AE77B40AF22AE21121D92E5282574
:1002B60022F522E5273521F521C3E5249528F524E5
:1002C600E5239527F52380B6020411E5244523701E
:1002D6000302043990E6A0E020E1F9C3E524944046
:1002E600E523940050088523278524288006752752
:1002F60000752840AD287AE77B40AF22AE21121E5A
:1003060034E5282522F522E5273521F521E490E676
:100316008AF090E68BE528F000000000C3E52495FE
:1003260028F524E5239527F52380A0902C22E0606C
:100336000E43A0B075B4BE12236AE4902C22F0D30B
:10034600E5249400E52394024012902E23740AF0CB
:1003560075B40E902C227401F0020439E4F529F5E7
:100366002A7B017A2C7923122354E52445236075D0
:10037600E490E68AF090E68BF00000000090E6A09C
:10038600E020E1F990E68BE0752700F528E4F525F5
:10039600F526C3E5269528E5259527502D74402595
:1003A60026F582E434E7F583E0FFE52A2526FDE518
:1003B600293525FC74232DF582742C3CF583EFF04A
:1003C6000526E52670CC052580C8E528252AF52AC8
:1003D600E5273529F529C3E5249528F524E5239550
:1003E60027F5238085E5224521700A75B40E902CE9
:1003F6002204F08016122374902E23EFF0D394007B
:10040600400975B40E902C227401F0E490E68AF04F
:1004160090E68BF0801D90E74074BEF0902E23E0AE
:1004260090E741F0E490E68AF090E68B7402F08063
:0404360002D322C308
:01043A00229F
:1022A500C0E0C083C082D2015391EF90E65D740116
:0822B500F0D082D083D0E032AA
:1019EA00C0E0C083C0825391EF90E65D7404F0D0EA
:0619FA0082D083D0E03230
:1022D400C0E0C083C0825391EF90E65D7402F0D0F9
:0622E40082D083D0E0323D
:101FFC00C0E0C083C08290E680E030E70E85080C1C
:10200C0085090D85100E85110F800C85100C85111E
:10201C000D85080E85090F5391EF90E65D7410F055
:07202C00D082D083D0E03226
:01004200328B
:10203300C0E0C083C08290E680E030E70E85080CE4
:1020430085090D85100E85110F800C85100C8511E7
:102053000D85080E85090F5391EF90E65D7420F00E
:07206300D082D083D0E032EF
:01239B00320F
:01239C00320E
:01239D00320D
:01239E00320C
:01239F00320B
:0123A000320A
:0123A1003209
:0123A2003208
:0123A3003207
:0123A4003206
:0123A5003205
:0123A6003204
:0123A7003203
:0123A8003202
:0123A9003201
:0123AA003200
:0123AB0032FF
:0123AC0032FE
:0123AD0032FD
:0123AE0032FC
:0123AF0032FB
:0123B00032FA
:0123B10032F9
:0123B20032F8
:0123B30032F7
:0123B40032F6
:0123B50032F5
:0123B60032F4
:0123B70032F3
:0123B80032F2
:0123B90032F1
:0123BA0032F0
:0123BB0032EF
:0123BC0032EE
:0123BD0032ED
:0123BE0032EC
:1022BD00BF0206ED24FF92A422EDBF040524FF9278
:0722CD00A72224FF92A522C5
:1021E1008B528A538954AB7DAA7EA97F057CE57CFD
:1021F100AE7B7002057B14F5828E83120454AB52C0
:07220100AA53A9540204A333
:0C235400E4F57BF57C8B7D8A7E897F227E
:06238F00A2A6E433FF22C8
:081B80008F6A8E698D688C6785
:101B88007F407E427D0F7C00AB6AAA69A968A8677E
:101B9800D31205864019AF6AAE69AD68AC67E47BBD
:101BA8000AFAF9F8121F0B8F6A8E698D688C67E440
:101BB800F56EF56DF56CF56BAF6AAE69AD68AC673F
:101BC800AB6EAA6DA96CA86BC31205865026E4FDFE
:101BD8007F011222BD0D1222BDE4FAF9F8E56E2448
:101BE80001F56EEA356DF56DE9356CF56CE8356B28
:041BF800F56B80C445
:011BFC0022C6
:101E7D00FF237EFF21B7FF12BBFF13A5FF209EFF9F
:101E8D0022FFFF22FFFF2346FF196AFF166FFF2275
:101E9D00FFFF22FFFF1467FF1467FF1467FF171F73
:101EAD00FF171FFF171FFF1F8CFF1C76FF1C76FFF0
:081EBD0011C3FF2313FF15B848
:101CE300E41204A39000011204B59000021206232B
:101CF30000000000900006E4F5F012055990000B77
:101D0300E41204B5900008E41204B59000097401CC
:101D13001204B590000A74011204B5900010120663
:101D23002300000000900014E4F5F0120559900020
:0C1D33000C12062300000000E4FEFF225A
:0E210200902E24E0FCA3E0FDA3E0FEA3E0FF8E
:102110008F348E338D328C31E5342407FFE4353330
:10212000FEE43532FDE43531FCE47B08FAF9F812BF
:032130001F0B2260
:1022EA00AD077F021222BDE4FD7F011222BD7D01EE
:0522FA007F010222BD7E
:0807F700AB4DAA4EA94F7D0194
:0807FF008B678A6889698D6A25
:10080700E4902E31F0A3F0E56A70387F011222EAF6
:10081700E4F56BF56CE4FD7F011222BD7D017F01DC
:100827001222BD056CE56C7002056BC39405E56B80
:100837006480948040DFAB67AA68A969E41204A3C7
:10084700020A90AB67AA68A96912043BFF656A6050
:100857001FE56AB40704EFB4060AE56AB40E11EFA0
:10086700640D600C902E31E4F0A37405F0020A9039
:10087700E56AB5070EB40603020962E56AB40D031B
:10088700020A24AB67AA68A96912043BFF656A706C
:1008970003020A90EFB410004003020A799008ABF4
:1008A700F82828730208DB0208DE0208E1020908BB
:1008B70002092D02093D0209620209720209970223
:1008C70009BC0209CC0209F1020A01020A24020A40
:1008D70033020A5602099C0209ACE56AC39409402F
:1008E700107F011222EAAB67AA68A9697409020A94
:1008F7008AE4FF1222EAAB67AA68A9697403020AAD
:100907008AE56AB40410E4FF1222EAAB67AA68A971
:10091700697404020A8A7F011222EAAB67AA68A9EE
:10092700697405020A8A7F011222EAAB67AA68A9DD
:10093700697405020A8AE56AB40610E4FF1222EA1E
:10094700AB67AA68A9697406020A8A7F011222EABC
:10095700AB67AA68A9697408020A8A7F011222EAAA
:10096700AB67AA68A9697407020A8AE56AB4041022
:10097700E4FF1222EAAB67AA68A9697404020A8A2B
:100987007F011222EAAB67AA68A9697408020A8A7A
:10099700E56AB40110E4FF1222EAAB67AA68A96905
:1009A7007401020A8A7F011222EAAB67AA68A96961
:1009B7007402020A8AE4FF1222EAAB67AA68A969ED
:1009C700740A020A8AE56AB40B10E4FF1222EAAB42
:1009D70067AA68A969740B020A8A7F011222EAAB27
:1009E70067AA68A969740C020A8A7F011222EAAB16
:1009F70067AA68A969740C020A8AE56AB40D0FE44C
:100A0700FF1222EAAB67AA68A969740D80757F0196
:100A17001222EAAB67AA68A969740F80667F011280
:100A270022EAAB67AA68A969740E8057E56AB40B16
:100A37000FE4FF1222EAAB67AA68A969740B804327
:100A47007F011222EAAB67AA68A969740F8034E5AF
:100A57006AB4010FE4FF1222EAAB67AA68A96974B6
:100A67000180207F011222EAAB67AA68A969740294
:100A77008011902E31E4F0A37405F0AB67AA68A942
:100A870069E56A1204A302088A902E31E0FEA3E00A
:010A9700FF5F
:010A9800223B
:0E0E4B008F6A8E698D688C678B6B8A6C896DDF
:100E5900757600757700757800E56F4570456E60A9
:100E69003C1204D7FFAB6EAA6FA970E5F08FF012A0
:100E7900053AAB6EE5702402F9E4356FFAC003C098
:100E890002C001AB6BAA6CA96D1204D7D001D002C4
:100E9900D00329F9EA35F08B76F5778978AB6BE5DC
:100EA9006D2402F9E4356CFAC002C001AA6CA96D7F
:100EB9001204D7D001D00229F9EA35F08B73F57401
:100EC9008975AF6AAE69AD68AC67EC4D4E4F70037A
:100ED900020FC1AB73E57515757002157414F9AA83
:100EE9007412043B902E31F0E4A3F0F579F57AAF52
:100EF9006AAE69AD68AC67EC4D4E4F7003020F9C4A
:100F0900C3E57A9408E579648094804003020F9CD4
:100F190074FF2FF56AEE34FFF569ED34FFF568ECDF
:100F290034FFF567E57245716015AF6AAE69AD6862
:100F3900AC67EC4D4E4F70077D017F021222BD90C8
:100F49002E31E05401FD7F041222BD902E31E0C301
:100F590013F0E4FD7F011222BDE5774578457660FF
:100F69002012238F902E33EFF0902E32E0FFAE7ACD
:100F7900A3E0FDA806088002C333D8FC4F902E32A7
:100F8900F07D017F011222BD057AE57A70020579AB
:100F9900020EF8E577457845767003020ECB902E60
:100FA90032E0FFAB76E57815787002157714F9AA67
:080FB90077EF1204A3020ECB36
:010FC100220D
:080CA5008B4D8A4E894F8D50E2
:100CAD00E4902E2AF0A3F0A3F0A3F0A3F0E5506595
:100CBD00617E0060047F0180027F00902E2FEEF098
:100CCD00A3EFF0AF54AE53AD52AC51EC4D4E4F704F
:100CDD0022AF65AE64AD63AC62EC4D4E4F70030256
:100CED000E171207F7AF65AE64AD63AC62121B80D1
:100CFD00020E17AB4DAA4EA94FAD501207FFAF54C0
:100D0D00AE53AD52AC5185586E85596F855A709062
:100D1D002E2FE0F571A3E0F572AB55AA56A9571227
:100D2D000E4BE55C455D455B602D85586A85596BBD
:100D3D00855A6C855E6D855F6E85606FAB5BAA5C59
:100D4D00A95D121A82EF4E70047F0180027F009020
:100D5D002E2CE4F0A3EFF0902E2FE07002A3E070A4
:100D6D0003020DFDAB4DAA4EA94F740112048190E3
:100D7D002E2CE07002A3E06050AF65AE64AD63ACA5
:100D8D0062EC4D4E4F6042902E2EE0C39566503969
:100D9D00AB4DAA4EA94F7D061207FFAB4DAA4EA92A
:100DAD004F7D041207FFAF65AE64AD63AC62780290
:100DBD0012059CE5652FF565E5643EF564E5633D3B
:100DCD00F563E5623CF562800BAB4DAA4EA94FADC4
:100DDD00611207FFAF65AE64AD63AC62EC4D4E4F73
:100DED00600E1207F7AF65AE64AD63AC62121B8087
:100DFD00902E2CE07002A3E06010902E2EE0FF04E8
:100E0D00F0EFC395665003020D00902E2CE070029A
:100E1D00A3E06021E5666014902E2EE0D395664028
:100E2D000B902E2AE4F0A37403F08009902E2AE48F
:0D0E3D00F0A37402F0902E2AE0FEA3E0FF67
:010E4A002285
:101B02008B328A3389348F388E378D368C35AB3BA6
:101B1200AA3CA93DAD3AAC39121F4FE542454345B7
:101B220041600DAB41AA42A943AD3AAC39121F4FF5
:101B3200853854853753853652853551853B5585D1
:101B42003C56853D57853E58853F5985405A8541CB
:101B52005B85425C85435D85445E85455F85466065
:101B6200854761854B65854A6485496385486285F9
:0E1B72004C66AB32AA33A9347D04120CA522B6
:1022FF00900006E475F004120559900006120502CD
:04230F00FFAEF0220B
:09237E0074011204A3E4FEFF2225
:1021B7008B2E8A2F8930E9241FF9EA3406FAC002E8
:1021C700C001AA2FA930900014120502FDACF0D06F
:0A21D70001D002121F4FE4FEFF22A8
:0612BB008B2E8A2F893002
:1012C1007B017A2E79241221E1902E24E0FFE4FCA7
:1012D100FDFE122110902E25EEF0A3EFF0D3940025
:1012E100EE648094824010AB2EAA2FA930900006A4
:1012F100E475F006021392902E24E0FFE4FCFDFE5B
:10130100122110AC06AD07AB2EE5302416F9E435F9
:101311002FFA121F4FAB2EE5302408F9E4352FFACE
:10132100C003C002C001902E24E0FFE48F54F553A6
:10133100F552F551E5302416F9E4352F8B55F55664
:101341008957755800755900755A00755B00755CB1
:1013510000755D00755E00755F00756000AA2FA9BC
:1013610030900009120454F56190000C1205C38FEE
:10137100658E648D638C62E4F566D001D002D00382
:101381007D0B120CA5AB2EAA2FA930900006EE8F73
:10139100F0120559AB2EAA2FA930900006120502B2
:0313A100FFAEF0AC
:0113A4002226
:0611C3008B2E8A2F8930FB
:1011C900E92416F9E43AFA7D027C00121F4FAB2E8E
:1011D900E5302416F9E4352FFA121BFD902E24125E
:1011E9000617122102902E28EEF0A3EFF0D39400F7
:1011F900EE648094824010AB2EAA2FA9309000068D
:10120900E475F0060212A8122102AC06AD07AB2E56
:10121900E5302416F9E4352FFA121F4FAB2EE530CD
:101229002408F9E4352FFAC003C002C001902E2426
:10123900E0FCA3E0FDA3E0FEA3E0F5548E538D523C
:101249008C51E5302416F9E4352F8B55F55689571D
:10125900755800755900755A00755B00755C007505
:101269005D00755E00755F00756000AA2FA930905A
:101279000009120454F56190000C1205C38F658EA4
:10128900648D638C62E4F566D001D002D0037D0BD6
:10129900120CA5AB2EAA2FA930900006EE8FF012E2
:1012A9000559AB2EAA2FA930900006120502FFAEF0
:0112B900F044
:0112BA002211
:1013A5008B2E8A2F8930E92416F9E43AFAC002C057
:1013B50001AA2FA930900014120502FDACF0D0014E
:1013C500D002121F4FAB2EE5302408F9E4352FFA71
:1013D500C003C002C001AA2FA9309000101205C396
:1013E5008F548E538D528C51E92416F9E43A8B555E
:1013F500F5568957E530241CF9EA34048B58F5591C
:10140500895AE5302419F9EA34028B5BF55C895D6C
:10141500E530241FF9EA34068B5EF55F8960A93053
:1014250090000A120454F56190000C1205C38F65F3
:101435008E648D638C6290000B120454F566D001A6
:10144500D002D0037D04120CA5AB2EAA2FA9309093
:101455000006EE8FF0120559900006120502FFAE48
:02146500F02273
:10209E008B2E8A2F8930E92416F9E43AFA7D047CD6
:1020AE0000121F4FAB2EE5302416F9E4352FFA122D
:1020BE001BFDAB2EAA2FA93090000C1205F3E4FEE7
:0220CE00FF22EF
:0E234600E9240BF9E43AFA1221E1E4FEFF2249
:10196A008B2E8A2F8930900006E4F5F0120559E98A
:10197A002416F9E43AFA7D047C00121F4FAB2EE5D7
:10198A00302416F9E4352FFA121BFDAB2EAA2FA923
:10199A00309000101205F39000101205C3122110A6
:1019AA00AB2EAA2FA930900014EE8FF01205599091
:1019BA000014120502D39400E5F06480948240106A
:1019CA00AB2EAA2FA930900006E475F0061205592D
:1019DA00AB2EAA2FA930900006120502FFAEF02204
:10166F008B2E8A2F8930E92408F9E43AFAC003C097
:10167F0002C001AA2FA9309000101205C3C004C0E8
:10168F0005C006C007900014120502F53A85F0391F
:10169F00E92416F9E43A8B3BF53C893DE530241CEF
:1016AF00F9EA34048B3EF53F8940E5302419F9EA15
:1016BF0034028B41F5428943E530241FF9EA3406A1
:1016CF008B44F5458946A93090000A120454F5471A
:1016DF0090000C1205C38F4B8E4A8D498C48900099
:1016EF000B120454F54CD007D006D005D004D0010E
:1016FF00D002D003121B02AB2EAA2FA930900006E6
:10170F00EE8FF0120559900006120502FFAEF0227F
:061467008B2E8A2F893054
:10146D00900001120454B40E0990000A120454FFA6
:10147D0080027F048F31AB2EE5302408F9E4352F3F
:10148D00FAC003C002C001AA2FA9309000101205A6
:10149D00C3900014120502F53A85F039E92416F9C6
:1014AD00E43A8B3BF53C893D753E00753F00754038
:1014BD000075410075420075430075440075450087
:1014CD00754600853147E4F54BF54AF549F548F584
:1014DD004CD001D002D003121B02AB2EAA2FA93083
:1014ED00900006EE8FF0120559900006120502FFCE
:0214FD00AEF04F
:0114FF0022CA
:06171F008B2E8A2F893099
:10172500900001120454B4110990000A120454FFE8
:1017350080027F048F31AB2EE5302408F9E4352F84
:10174500FAC003C002C001AA2FA9309000101205EB
:10175500C3900014120502F53A85F039E92416F90B
:10176500E43A8B3BF53C893DE530241CF9EA340429
:101775008B3EF53F8940E5302419F9EA34028B4167
:10178500F542894375440075450075460085314726
:10179500E4F54BF54AF549F548F54CD001D002D0B2
:1017A50003121B02AB2EAA2FA930900006EE8FF074
:0C17B500120559900006120502FFAEF06C
:0117C1002205
:061F8C008B2E8A2F893024
:101F92007B007A0079311221E1AB2EE5302408F979
:101FA200E4352FFAAD311207FFAB2EAA2FA93090DC
:101FB2000006EE8FF0120559900006120502FFAEE0
:011FC200F02E
:011FC30022FB
:061C76008B2E8A2F89303D
:101C7C00900006E4F5F01205597B007A00793112D8
:101C8C0021E1E531601664016012AB2EAA2FA93058
:101C9C00900006E475F005120559802BAB2EAA2F87
:101CAC00A930900001120454B4130DE531900009D1
:101CBC007002800B740D800CE53190000A700304E7
:101CCC00800274061204B5AB2EAA2FA93090000620
:061CDC00120502FFAEF04C
:011CE20022DF
:10231300900006E4F5F0120559900006120502FF3D
:03232300AEF022F7
:0615B8008B2E8A2F893002
:1015BE00E92416F9E43AFA7D017C00121F4FAB2E96
:1015CE00AA2FA930900018120454902E24F0E9246A
:1015DE0016F9E43AFA7D017C00121F4FAB2EAA2FAA
:1015EE00A930900018120454902E25F0E92416F913
:1015FE00E43AFA7D047C00121F4FAB2EE530241620
:10160E00F9E4352FFA121BFD902E26120617AB2E7B
:10161E00AA2FA930900008120454FF902E24E0FD4A
:10162E006F600AE92408F9E43AFA1207FF902E26B1
:10163E00E0FCA3E0FDA3E0FEA3E0FF121B80AB2EB7
:10164E00AA2FA930900008120454FF902E25E0FD19
:10165E006F600AE92408F9E43AFA1207FFE4FEFF84
:01166E002259
:101DE3008B2B8A2C892D121CE3AB2BAA2CA92D90AB
:101DF3000006EE8FF012055990000612050245F019
:101E0300701FAB2BE52D2408F9E4352CFAE4FD1201
:101E130007FFAB2BAA2CA92D900006EE8FF012051D
:101E230059AB2BAA2CA92D900006120502FFAEF088
:011E3300228C
:101851008B2B8A2C892D90000612050245F0706DA4
:1018610012043B7068E92401F9E43AFA1221E1AB70
:101871002BAA2CA92D9000021205C3E4FAF9F8EF66
:101881002401FFEA3EFEE93DFDE83CFCAA2CA92D1E
:101891009000021205F3900001120454FFC3941842
:1018A100AB2BAA2CA92D5022C002EF75F003A42462
:1018B1007DF582E4341EF583740193FA740293F585
:1018C100828A83D00212067880031222FFAB2BAAF0
:0D18D1002CA92D900006120502FFAEF0229A
:0A236A007B017A247900121DE322A2
:0A2374007B017A247900121851222F
:061BFD008B318A328933AE
:101C0300E4F537F536F535F534F538F539AB31AA62
:101C130032A9331204D7FFC3E5399FE5F06480F896
:101C2300E5386480985043AF37AE36AD35AC347881
:101C3300081205B08F378E368D358C34E92402F9BE
:101C4300E43AFAE92539F9EA3538FA12043BFFE5B3
:101C5300374FF537E536F536E535F535E534F53403
:101C63000539E53970A7053880A3AF37AE36AD35F2
:021C7300AC348F
:011C7500224C
:061A82008B678A68896988
:101A88007570007571011204D7FFAEF0E5714570ED
:101A98006063EF1FAC0670011E4C6059AB67E569C7
:101AA8002402F9E43568FAE92FF9EA3EFA12043B10
:101AB800F572AB6AE56C2402F9E4356BFAE92FF9A3
:101AC800EA3EFA12043BF573E56E456F456D601802
:101AD800AB6DE56F2402F9E4356EFAE92FF9EA3EB9
:101AE800FA12043B52725273E5726573609EE4F514
:091AF80070F5718097AE70AF71BA
:011B010022C1
:041F4F008C4D8D4EDA
:101F5300E54D854EF012053AE92402F9E43A8B4F38
:101F6300F5508951E54E454D601EAB4FAA50A9511E
:101F73001221E1E54E154E7002154D74012551F500
:081F830051E43550F55080DCFB
:011F8B002233
:1021600090E682E030E004E020E60B90E682E0308A
:10217000E119E030E71590E680E04401F07F147E3D
:0C21800000121EC590E680E054FEF02224
:1000030030040990E680E0440AF0800790E680E03F
:100013004408F07FDC7E05121EC590E65D74FFF098
:0F00230090E65FF05391EF90E680E054F7F02203
:08238700E4F51BD2E9D2AF22FC
:101FC400AD0790E678E020E6F9C2E990E678E044CF
:101FD40080F0ED25E090E679F090E678E030E0F9E5
:101FE40090E678E04440F090E678E020E6F990E668
:081FF40078E030E1D6D2E922C9
:1020D000AC0790E678E020E6F9E51B702390E678FF
:1020E000E04480F0EC25E090E679F08D16AF03A98E
:1020F000077517018A188919E4F51A751B01D3228F
:02210000C322F8
:10206A00AC0790E678E020E6F9E51B702590E67863
:10207A00E04480F0EC25E0440190E679F08D16AF5B
:10208A0003A9077517018A188919E4F51A751B033C
:04209A00D322C32268
:03004B00020FC2DF
:100FC200C0E0C083C082C085C084C086758600C070
:100FD200D075D000C000C001C002C003C006C00767
:100FE20090E678E030E206751B060210AC90E678D7
:100FF200E020E10CE51B64026006751B070210ACE1
:10100200E51B24FE605F14603624FE700302109D0F
:1010120024FC70030210A9240860030210ACAB1771
:10102200AA18A919AF1A051A8F82758300120454DF
:1010320090E679F0E51A65167070751B05806B9065
:10104200E679E0AB17AA18A919AE1A8E8275830049
:101052001204B5751B02E5166401704E90E678E045
:101062004420F08045E51624FEB51A0790E678E0A4
:101072004420F0E51614B51A0A90E678E04440F0F0
:10108200751B0090E679E0AB17AA18A919AE1A8E63
:10109200827583001204B5051A800F90E678E04449
:1010A20040F0751B008003751B005391DFD007D001
:1010B20006D003D002D001D000D0D0D086D084D0C8
:0810C20085D082D083D0E0321A
:02218C00A907A1
:10218E00AE14AF158F828E83A3E064037017AD017A
:10219E0019ED7001228F828E83E07C002FFDEC3EC4
:0821AE00FEAF0580DFE4FEFF37
:0121B6002206
:10226D0012206AE51B24FA600E146006240770F331
:0C227D00D322E4F51BD322E4F51BD3228E
:102289001220D0E51B24FA600E146006240770F3AF
:0C229900D322E4F51BD322E4F51BD32272
:1022080090E682E044C0F090E681F0438701000048
:0422180000000022A0
:101EC5008E218F2290E600E054187012E52224013D
:101ED500FFE43521C313F521EF13F522801590E6B4
:101EE50000E05418FFBF100BE52225E0F522E5219F
:101EF50033F521E5221522AE21700215214E60052C
:061F050012221C80EE22F6
:10221C007400F58690FDA57C05A3E582458370F9D5
:01222C00228F
:030000000218DE05
:0C18DE00787FE4F6D8FD75817F021925A3
:10043B00BB010689828A83E0225002E722BBFE02BF
:09044B00E32289828A83E49322F2
:10045400BB010CE58229F582E5833AF583E022505D
:1004640006E92582F8E622BBFE06E92582F8E222A7
:0D047400E58229F582E5833AF583E49322C1
:10048100BB010989828A83F8E028F022500327F70B
:1004910022BBFE05F8E328F3228A838982F8E493DC
:0204A10028220F
:1004A300BB010689828A83F0225002F722BBFE0138
:0204B300F32232
:1004B500F8BB010DE58229F582E5833AF583E8F07D
:1004C500225006E92582C8F622BBFE05E92582C829
:0204D500F22211
:1004D700BB010A89828A83E0F5F0A3E022500687F0
:1004E700F009E71922BBFE07E3F5F009E3192289B2
:0B04F700828A83E493F5F074019322E5
:10050200BB0110E58229F582E5833AF583E0F5F037
:10051200A3E0225009E92582F886F008E622BBFE14
:100522000AE92582F8E2F5F008E222E5832AF5835A
:08053200E993F5F0A3E993221F
:10053A00BB010A89828A83F0E5F0A3F0225006F70C
:0F054A0009A7F01922BBFE06F3E5F009F3192209
:10055900F8BB0111E58229F582E5833AF583E8F0D4
:10056900E5F0A3F0225009E92582C8F608A6F02291
:0D057900BBFE09E92582C8F2E5F008F22278
:101F0B00C2D5E830E70FB2D5E4C39BFBE49AFAE401
:101F1B0099F9E498F8EC30E717B2D5121F41120685
:101F2B00B6E4C39BFBE49AFAE499F9E498F88003CE
:101F3B001206B630D50DE4C39FFFE49EFEE49DFD73
:041F4B00E49CFC22F4
:10058600EB9FF5F0EA9E42F0E99D42F0EC6480C8EC
:0605960064809845F0228C
:10059C00E86010ECA2E713FCED13FDEE13FEEF1375
:0405AC00FFD8F02262
:1005B000E8600FEFC333FFEE33FEED33FDEC33FCA9
:0305C000D8F1224D
:1005C300BB010DE58229F582E5833AF583020754E1
:1005D3005007E92582F8020748BBFE07E92582F8A0
:1005E300020760E58229F582E5833AF58302076C09
:1005F300BB010DE58229F582E5833AF583020617EF
:100603005007E92582F802077CBBFE07E92582F83B
:040613000207882230
:0C061700ECF0A3EDF0A3EEF0A3EFF02256
:10062300BB010DE58229F582E5833AF5830207AD27
:100633005007E92582F8020794BBFE07E92582F8F3
:040643000207DE22AA
:10064700D083D082F8E4937012740193700DA3A342
:1006570093F8740193F5828883E473740293B5F079
:0D066700067403936860E9A3A3A3A380D8E1
:060674008A838982E47311
:1018EA000217C2E493A3F8E493A34003F68001F23B
:1018FA0008DFF48029E493A3F85407240CC8C333FF
:10190A00C4540F4420C8834004F456800146F6DFCD
:10191A00E4800B0102040810204080900036E47E27
:10192A00019360BCA3FF543F30E509541FFEE493C2
:10193A00A360010ECF54C025E060A840B8E493A389
:10194A00FAE493A3F8E493A3C8C582C8CAC583CAB4
:10195A00F0A3C8C582C8CAC583CADFE9DEE780BE6C
:0100410000BE
:10067A0075F008758200EF2FFFEE33FECD33CDCC37
:10068A0033CCC58233C5829BED9AEC99E5829840BA
:10069A000CF582EE9BFEED9AFDEC99FC0FD5F0D697
:1006AA00E4CEFBE4CDFAE4CCF9A88222B800C1B9C1
:1006BA000059BA002DEC8BF084CFCECDFCE5F0CBFF
:1006CA00F97818EF2FFFEE33FEED33FDEC33FCEB38
:1006DA0033FB10D703994004EB99FB0FD8E5E4F9F3
:1006EA00FA227818EF2FFFEE33FEED33FDEC33FCE0
:1006FA00C933C910D7059BE99A4007EC9BFCE99AD4
:10070A00F90FD8E0E4C9FAE4CCFB2275F010EF2F18
:10071A00FFEE33FEED33FDCC33CCC833C810D70718
:10072A009BEC9AE899400AED9BFDEC9AFCE899F853
:0E073A000FD5F0DAE4CDFBE4CCFAE4C8F922E6
:0C074800E6FC08E6FD08E6FE08E6FF22DD
:0C075400E0FCA3E0FDA3E0FEA3E0FF2218
:0C076000E2FC08E2FD08E2FE08E2FF22D5
:10076C00E493FC740193FD740293FE740393FF22D3
:0C077C00ECF608EDF608EEF608EFF622A9
:0C078800ECF208EDF208EEF208EFF222AD
:10079400D083D082E493F608740193F6087402932C
:0907A400F608740393F674047363
:1007AD00A8828583F0D083D0821207C41207C412A9
:1007BD0007C41207C4E473E493A3C583C5F0C583CE
:1007CD00C8C582C8F0A3C583C5F0C583C8C582C896
:0107DD0022F9
:1007DE00D083D082E493F208740193F208740293EA
:0907EE00F208740393F274047321
:00000001FF
