:0A24C70000010202030304040505EE
:1019BD00C200C202C201121608C2AF750A1D750B14
:1019CD000075121D75131275081D75091C75101DF6
:1019DD0075113C75141D75155CD2E890E668E044F0
:1019ED0009F090E65CE04435F0D2AF90E680E0205F
:1019FD00E105D20512221190E680E054F7F0538EE6
:101A0D00F8C203121CFF300105120C8EC201300307
:101A1D00F21224F450EDC20312233E20001690E67C
:101A2D0082E030E704E020E1EF90E682E030E6046A
:0C1A3D00E020E0E412226D1224F980C7C2
:0224FE00D322E7
:100C8E0090E6B9E01204500D26000D9B010E1603DE
:100C9E000CB1060D20080E81090D1A0A0E810B00EB
:100CAE00000E7590E6BBE024FE602714603824FD2C
:100CBE00601114602724067050E50A90E6B3F0E543
:100CCE000B803C1224FE503EE51290E6B3F0E51385
:100CDE00802DE50C90E6B3F0E50D8023E50E90E651
:100CEE00B3F0E50F801990E6BAE0FF122299AA063A
:100CFE00A9077B01EA494B600DEE90E6B3F0EF9049
:100D0E00E6B4F0020E81020E70020E701224790209
:100D1E000E81122469020E8190E6B8E0247F6015E0
:100D2E0014601924027063A200E43325E0FFA202CE
:100D3E00E4334F8041E490E740F0803F90E6BCE022
:100D4E00547EFF7E00E0D394807C0040047D0180C1
:100D5E00027D00EC4EFEED4F24C7F58274243EF565
:100D6E0083E493FF3395E0FEEF24A1FFEE34E68F8C
:100D7E0082F583E0540190E740F0E4A3F090E68A18
:100D8E00F090E68B7402F0020E81020E7090E6B8BF
:100D9E00E024FE601624026003020E8190E6BAE0A3
:100DAE00B40105C200020E81020E7090E6BAE07028
:100DBE005590E6BCE0547EFF7E00E0D394807C002C
:100DCE0040047D0180027D00EC4EFEED4F24C7F500
:100DDE008274243EF583E493FF3395E0FEEF24A165
:100DEE00FFEE34E68F82F583E054FEF090E6BCE031
:100DFE005480131313541FFFE0540F2F90E683F00B
:100E0E00E04420F0806D805A90E6B8E024FE601930
:100E1E002402704E90E6BAE0B40104D200805490E1
:100E2E00E6BAE06402604C803990E6BCE0547EFF86
:100E3E007E00E0D394807C0040047D0180027D0022
:100E4E00EC4EFEED4F24C7F58274243EF583E493F9
:100E5E00FF3395E0FEEF24A1FFEE34E68F82F5839B
:100E6E00800D90E6A08008120629500790E6A0E0BB
:0B0E7E004401F090E6A0E04480F02268
:030033000216FCB6
:0416FC0053D8EF329E
:101D000012010002000000402A150D8402010102A8
:101D100000010A0600020000004001000902200044
:101D2000010100804B0904000002FF0000000705CC
:101D3000810240000107058602000200090220001E
:101D400001010080960904000002FF000000070561
:101D500081024000000705860240000004030904D8
:101D6000080349004E004900140353006500650054
:0E1D70004200650074007400650072000000FF
:10226D0090E682E030E004E020E60B90E682E0307C
:10227D00E119E030E71590E680E04401F07F147E2F
:0C228D0000121FFE90E680E054FEF022DC
:1022110030050990E680E0440AF0800790E680E00E
:102221004408F07FDC7E05121FFE90E65D74FFF02E
:0F22310090E65FF05391EF90E680E054F7F022D3
:02229900A90793
:10229B00AE14AF158F828E83A3E064037017AD016C
:1022AB0019ED7001228F828E83E07C002FFDEC3EB6
:0822BB00FEAF0580DFE4FEFF29
:0122C30022F8
:10233E0090E682E044C0F090E681F0438701000011
:04234E000000002269
:101FFE008E218F2290E600E054187012E522240103
:10200E00FFE43521C313F521EF13F522801590E679
:10201E0000E05418FFBF100BE52225E0F522E52164
:10202E0033F521E5221522AE21700215214E6005F1
:06203E0012235280EE2285
:102352007400F58690FDA57C05A3E582458370F99E
:012362002258
:03004300021700A1
:0300530002170091
:101700000223FE0002242C00022416000225000001
:1017100002210B00022142000225010002250200E5
:10172000022503000225040002250500022506000B
:1017300002250700022508000225090002250A00EB
:1017400002250B000225020002250C0002250D00D7
:1017500002250E0002250F000225100002251100AF
:1017600002251200022502000225020002250200C5
:10177000022513000225140002251500022516007B
:1017800002251700022518000225190002251A005B
:1017900002251B0002251C0002251D0002251E003B
:1017A00002251F000225200002252100022522001B
:0817B00002252300022524009C
:081EC400C184011D00011C0096
:1016080090E6007410F090E60174A3F000000090DA
:10161800E60B7403F000000090E609F0000000906B
:10162800E60274E6F0000000E490E610F000000026
:1016380090E61174B0F0000000E490E612F00000AB
:101648000090E613F000000090E61474E0F000004B
:1016580000E490E615F000000090E61A7409F09096
:10166800E6247402F0E490E625F090E63474C1F0C4
:1016780090E63574F2F0000000E490E670F00000A7
:101688000090E671F000000090E672F0F58075A019
:101698000875B123F5B275B40E75B6F7F5A875E8F7
:1016A800E31224EC90E67A7401F043B180E4F51C6F
:0C16B80000051CE51CB40AF853B17F22A9
:0D22400074402525F582E434E7F583E0FFC6
:10224D0043B120E4FEEF30E70543B110800353B1F5
:10225D00EF53B1DF43B120EF25E0FF0EBE08E622BC
:06238700FF12238DAF05DB
:10238D00C2A2E4FEEF30E704D2A18002C2A1D2A224
:0B239D00C2A2EF25E0FF0EBE08EA22FE
:101CE000E4FFC2A2FED2A230A0054307018000C2D9
:0F1CF000A2EE64076004EF25E0FF0EBE08E722B6
:101F6A008E278F288D298A2A8B2BE4F52CE52CC302
:101F7A0095295036E5279037FAF0E528A3F0E52BA6
:101F8A00252CF582E4352AF583E09037FCF07A3780
:101F9A007BFA7D037F511223E27F511216C4052872
:0B1FAA00E52870020527052C80C322EB
:102044008E278F288D298A2A8B2BE5279037FAF043
:10205400EFA3F07A377BFA7D027F511223E27F519E
:102064001216C4E4FFEFC395295010E52B2FF58217
:10207400E4352AF58374CDF00F80EAAB2BAA2AADA0
:06208400297F510223C672
:011CFF0022C2
:0524F40043B180D3227A
:0524F90053B17FD32266
:10246900E490E740F090E68AF090E68B04F0D322FE
:10247900E490E740F090E68AF090E68B04F0D322EE
:1006290000000090E6BAE0752100F522A3E0FEEE95
:100639004221A3E0FDA3E0FEEEFCA3E0752300F553
:1006490024A3E0FEEE422390E6B8E05480FEA3E046
:10065900FBEBFF8EF0120476081B00BC081B00BDE3
:10066900091D00BE075800BF068D00C006FF00C166
:10067900089480BC089480BD09DA80BE07B280BFA7
:10068900000009F153B1FB53B1FEAF2212224D53C1
:10069900B1FDE4F51C00051CE51CB432F843B102B8
:1006A90043B101E52445236039E490E68AF090E6F8
:1006B9008BF000000090E6A0E020E1F990E68BE0E5
:1006C900F526E4F525E525C39526500712224005B0
:1006D9002580F2C3E5249526F524E5239400F52326
:1006E90080C153B1FDE4F51C00051CE51CB432F8CA
:1006F90043B10202089143B104E52445236039E47A
:1007090090E68AF090E68BF000000090E6A0E020E9
:10071900E1F990E68BE0F526E4F525E525C3952674
:100729005007122240052580F2C3E5249526F524B9
:10073900E5239400F52380C153B1FDE4F51C0005C0
:100749001CE51CB432F843B10253B1FB020891C253
:10075900A3E522547F122387E52445236046E490CC
:10076900E68AF090E68BF000000090E6A0E020E138
:10077900F990E68BE0F526E4F525E525C3952650A5
:100789001474402525F582E434E7F583E0FF12234C
:100799008D052580E5C3E5249526F524E5239400F8
:1007A900F52380B4D2A30209CFC2A3E52244801263
:1007B9002387E5244523605590E6A0E020E1F9C3AD
:1007C900E5249440E523940050058524268003758B
:1007D9002640E4F525E525C395265014121CE0743E
:1007E900402525F582E434E7F583EFF0052580E51A
:1007F900E490E68AF090E68BE526F0000000FFC35E
:10080900E5249FF524E5239400F52380A5D2A302CE
:1008190009F3E52445236070E490E68AF090E68BBD
:10082900F000000090E6A0E020E1F990E68BE0F509
:100839002690E6B9E0B4BC28E4F525E525C395265C
:10084900502B74402525F582E434E7F583E0FFE574
:10085900222525F582E43521F583EFF0052580DB96
:100869007AE77B40AD26AF22AE21121F6AAF267E02
:1008790000EF2522F522EE3521F521C3E5249FF568
:1008890024E5239EF523808A0209CFE524452370B8
:10089900030209F390E6A0E020E1F9C3E5249440BE
:1008A900E52394005005852426800375264090E6AB
:1008B900B9E0B4BC28E4F525E525C39526502BE518
:1008C900222525F582E43521F583E0FF74402525AD
:1008D900F582E434E7F583EFF0052580DB7AE77BE1
:1008E90040AD26AF22AE21122044AF267E00EF256F
:1008F90022F522EE3521F521E490E68AF090E68B87
:10090900E526F0000000C3E5249FF524E5239EF5C4
:100919002302089430040B53A00F75B4BE1224DAD5
:10092900C204D3E5249490E5239401400B75B40ED9
:10093900751D0AD2040209F37B017A36796A1224F9
:10094900B0E52445236066E490E68AF090E68BF0F2
:1009590000000090E6A0E020E1F990E68BE0F526A2
:10096900E4F525E525C39526502874402525F5820B
:10097900E434E7F583E0FFE5257C002522FDEC352D
:1009890021FC746A2DF58274363CF583EFF0052558
:1009990080D1AF267E00EF2522F522EE3521F52103
:1009A900C3E5249FF524E5239EF5238094E522459C
:1009B900217002800C1224E38F1DE51DD3940040A1
:1009C9000575B40ED204E490E68AF090E68BF080C7
:1009D9001990E74074BEF0A3E51DF0E490E68AF0B3
:0C09E90090E68B7402F08002D322C3223F
:1023FE00C0E0C083C082D2015391EF90E65D7401BC
:08240E00F0D082D083D0E0324F
:10241600C0E0C083C0825391EF90E65D7404F0D0B3
:0624260082D083D0E032F9
:10242C00C0E0C083C0825391EF90E65D7402F0D09F
:06243C0082D083D0E032E3
:10210B00C0E0C083C08290E680E030E70E85080C0B
:10211B0085090D85100E85110F800C85100C85110E
:10212B000D85080E85090F5391EF90E65D7410F045
:07213B00D082D083D0E03216
:0125000032A8
:10214200C0E0C083C08290E680E030E70E85080CD4
:1021520085090D85100E85110F800C85100C8511D7
:102162000D85080E85090F5391EF90E65D7420F0FE
:07217200D082D083D0E032DF
:0125010032A7
:0125020032A6
:0125030032A5
:0125040032A4
:0125050032A3
:0125060032A2
:0125070032A1
:0125080032A0
:01250900329F
:01250A00329E
:01250B00329D
:01250C00329C
:01250D00329B
:01250E00329A
:01250F003299
:012510003298
:012511003297
:012512003296
:012513003295
:012514003294
:012515003293
:012516003292
:012517003291
:012518003290
:01251900328F
:01251A00328E
:01251B00328D
:01251C00328C
:01251D00328B
:01251E00328A
:01251F003289
:012520003288
:012521003287
:012522003286
:012523003285
:012524003284
:0D249700ED4C7005EFF452A022EF42A022A0
:0C24A400E4FDFC7F201224970D02249719
:102317008B458A468947AB6EAA6FA970056DE56D37
:10232700AE6C7002056C14F5828E83120219AB45F0
:07233700AA46A94702026853
:0C24B000E4F56CF56D8B6E8A6F8970226C
:0B24BC00E5A05440C413135403FF229A
:102363007C007D3012029CAB07AA06900000C3E5F7
:10237300829BEA6480F8E58364809850061224A463
:04238300A380EB2226
:101ECC0060483200FF24D1FF22C4FF1475FF13A217
:101EDC00FF21ADFF2442FF2442FF2489FF1B60FF3A
:101EEC001547FF2442FF2442FF186CFF186CFF18A3
:101EFC006CFF17B8FF17B8FF17B8FF1FB5FF1DFA17
:0C1F0C00FF1DFAFF12A7FF2456FF191654
:101E6800E412026890000112027A90000212041330
:101E780000000000900006E4F5F012034690000B05
:101E8800E412027A900008E412027A9000097401C0
:101E980012027A90000A740112027A900010120459
:101EA8001300000000900014E4F5F01203469000BF
:0C1EB8000C12041300000000E4FEFF22E6
:0622EE00AF24E4FCFDFE3C
:1022F4008F288E278D268C25E5282407FFE4352793
:10230400FEE43526FDE43525FCE47B08FAF9F812F1
:03231400208A22FA
:0423A8007F017E0033
:1023AC00AD07AC067F10122497E4FDFC7F201224AD
:0A23BC00977D017C007F200224972A
:0809F500AB40AA41A9427D01BB
:1009FD008B5A8A5B895C8D5DE490380BF0A3F0E532
:100A0D005D70467F01FE1223ACE4903809F0A3F02F
:100A1D00E4FDFC7F201224977D017C007F201224B1
:100A2D0097903809E475F0011202AEC390380AE0D0
:100A3D009405903809E06480948040D4AB5AAA5B49
:100A4D00A95CE4120268020C85AB5AAA5BA95C1280
:100A5D000200FF655D601FE55DB40704EFB4060A93
:100A6D00E55DB40E11EF640D600C90380BE4F0A34E
:100A7D007405F0020C85E55DB5070EB40603020B97
:100A8D0061E55DB40D03020C1DAB5AAA5BA95C12A6
:100A9D000200FF655D7003020C85EF1204500ADF42
:100AAD00000AE2010AE5020B0B030B2F040B3D05B7
:100ABD000B61060B6F070B93080BB7090BC80A0BDD
:100ACD00EC0B0BFA0C0C1D0D0C2A0E0C4C0F000030
:100ADD000C6E020B98020BA9E55DC39409400E1232
:100AED0023A8AB5AAA5BA95C7409020C7FE4FFFE34
:100AFD001223ACAB5AAA5BA95C7403020C7FE55DB3
:100B0D00B40411E4FFFE1223ACAB5AAA5BA95C74CA
:100B1D0004020C7F1223A8AB5AAA5BA95C740502D0
:100B2D000C7F1223A8AB5AAA5BA95C7405020C7F3B
:100B3D00E55DB40611E4FFFE1223ACAB5AAA5BA926
:100B4D005C7406020C7F1223A8AB5AAA5BA95C74D5
:100B5D0008020C7F1223A8AB5AAA5BA95C7407028A
:100B6D000C7FE55DB40411E4FFFE1223ACAB5AAA71
:100B7D005BA95C7404020C7F1223A8AB5AAA5BA973
:100B8D005C7408020C7FE55DB40111E4FFFE1223D5
:100B9D00ACAB5AAA5BA95C7401020C7F1223A8AB03
:100BAD005AAA5BA95C7402020C7FE4FFFE1223AC0F
:100BBD00AB5AAA5BA95C740A020C7FE55DB40B11FC
:100BCD00E4FFFE1223ACAB5AAA5BA95C740B020CBA
:100BDD007F1223A8AB5AAA5BA95C740C020C7F127E
:100BED0023A8AB5AAA5BA95C740C020C7FE55DB41B
:100BFD000D11E4FFFE1223ACAB5AAA5BA95C740D78
:100C0D00020C7F1223A8AB5AAA5BA95C740F8062F9
:100C1D001223A8AB5AAA5BA95C740E8055E55DB48E
:100C2D000B10E4FFFE1223ACAB5AAA5BA95C740B4C
:100C3D0080401223A8AB5AAA5BA95C740F8033E5E0
:100C4D005DB40110E4FFFE1223ACAB5AAA5BA95CA4
:100C5D007401801E1223A8AB5AAA5BA95C74028092
:100C6D001190380BE4F0A37405F0AB5AAA5BA95CA4
:100C7D00E55D120268020A9690380BE0FEA3E0FFD4
:010C8D002244
:10102A008F5D8E5C8D5B8C5A8B5E8A5F8960756979
:10103A0000756A00756B00E56245634561603C12A4
:10104A0002C4FFAB61AA62A963E5F08FF01203271D
:10105A00AB61E5632402F9E43562FAC003C002C059
:10106A0001AB5EAA5FA9601202C4D001D002D0030C
:10107A0029F9EA35F08B69F56A896BAB5EE560247C
:10108A0002F9E4355FFAC002C001AA5FA960120240
:10109A00C4D001D00229F9EA35F08B66F567896870
:1010AA00AF5DAE5CAD5BAC5AEC4D4E4F70030211B6
:1010BA009E786674FFF5F012043712020090380920
:1010CA00F0E4A3F090380CF0A3F0AF5DAE5CAD5B3A
:1010DA00AC5AEC4D4E4F700302117EC390380DE0AE
:1010EA00940890380CE064809480400302117E7466
:1010FA00FFFBFAF9F81203738F5D8E5C8D5B8C5AD5
:10110A00E5654564600EEC4D4E4F70087D01FC7F2D
:10111A0010122497903809E05401FD7C007F801258
:10112A002497903809E0C313F0E4FDFC7F201224D1
:10113A0097E56A456B456960251224BC90380BEF28
:10114A00F090380AE0FF90380DE0FE90380BE0FD91
:10115A00A806088002C333D8FC4F90380AF07D01F4
:10116A007C007F2012249790380CE475F00112025B
:10117A00AE0210D4E56A456B456970030210AA9065
:10118A00380AE0FF786974FFF5F0120437EF1202AB
:05119A00680210AA220A
:100E89008B408A4189428D43E4903802F0A3F0A354
:100E9900F0A3F0A3F0E54365547E0060047F018070
:100EA900027F00903807EEF0A3EFF0AF47AE46ADF2
:100EB90045AC44EC4D4E4F701EAF58AE57AD56ACD5
:100EC90055EC4D4E4F7003020FF61209F5AE57AFB0
:100ED90058122363020FF6AB40AA41A942AD43124F
:100EE90009FDAF47AE46AD45AC44854B61854C62C3
:100EF900854D63903807E0F564A3E0F565AB48AA32
:100F090049A94A12102AE54F4550454E602D854B97
:100F19005D854C5E854D5F85516085526185536263
:100F2900AB4EAA4FA950121BE2EF4E70047F01800D
:100F3900027F00903804E4F0A3EFF0903807E070E6
:100F490002A3E07003020FDCAB40AA41A94274017D
:100F5900120246903804E07002A3E06053AF58AE25
:100F690057AD56AC55EC4D4E4F6045903806E0C331
:100F79009559503CAB40AA41A9427D061209FDABE7
:100F890040AA41A9427D041209FDAF58AE57AD569A
:100F9900AC557802120380E5582FFFE5573EFEE570
:100FA900563DFDE5553C8F588E578D56F555800BAE
:100FB900AB40AA41A942AD541209FDAF58AE57AD95
:100FC90056AC55EC4D4E4F600A1209F5AE57AF5865
:100FD900122363903804E07002A3E0601090380691
:100FE900E0FF04F0EFC395595003020EE090380476
:100FF900E07002A3E06021E5596014903806E0D35F
:101009009559400B903802E4F0A37403F0800990DD
:101019003802E4F0A37402F0903802E0FEA3E0FF86
:0110290022A4
:101C62008B258A2689278F2B8E2A8D298C28AB2EAD
:101C7200AA2FA930AD2DAC2C1220CEE53545364524
:101C820034600DAB34AA35A936AD2DAC2C1220CE62
:101C9200852B47852A46852945852844852E4885F2
:101CA2002F4985304A85314B85324C85334D8534F9
:101CB2004E85354F85365085375185385285395393
:101CC200853A54853E58853D57853C56853B55851A
:0E1CD2003F59AB25AA26A9277D04120E8922B0
:10244200900006E475F0041203469000061202EFB3
:04245200FFAEF022C7
:0924D1007401120268E4FEFF220E
:1022C4008B218A228923E9241FF9EA3403FAC00204
:1022D400C001AA22A9239000141202EFFDACF0D091
:0A22E40001D0021220CEE4FEFF221A
:101475008B218A2289237B007A0079241223171273
:1014850022EE9037FAEEF0A3EFF0D39400EE6480ED
:101495009481400AA3E4F0A37406F002152C1222ED
:1014A500EEAC06AD07AB21E5232416F9E43522FAA7
:1014B5001220CEAB21E5232408F9E43522FAC00336
:1014C500C002C001E4852447F546F545F544E5230A
:1014D5002416F9E435228B48F549894A754B007580
:1014E5004C00754D00754E00754F007550007551D7
:1014F50000755200755300AA22A923900009120213
:1015050019F55490000C1203A78F588E578D568CE1
:1015150055E4F559D001D002D0037D0B120E899008
:1015250037FCEEF0A3EFF09037FCE0FEA3E0FF4EB2
:10153500600FAB21AA22A923900006EE8FF01203BB
:0215450046223C
:1012A7008B218A228923E92416F9E43AFA7D027C04
:1012B700001220CEAB21E5232416F9E43522FA12D9
:1012C7001D7E9037FA1204079037FA1203FB122299
:1012D700F49037FEEEF0A3EFF0D39400EE64809421
:1012E70081400AA3E4F0A37406F00213879037FA4B
:1012F7001203FB1222F4AC06AD07AB21E52324163B
:10130700F9E43522FA1220CEAB21E5232408F9E4CB
:101317003522FAC003C002C0019037FA1203FB8FCF
:10132700478E468D458C44E5232416F9E435228BF8
:1013370048F549894A754B00754C00754D00754E47
:1013470000754F00755000755100755200755300B8
:10135700AA22A923900009120219F55490000C1231
:1013670003A78F588E578D568C55E4F559D001D069
:1013770002D0037D0B120E89903800EEF0A3EFF038
:10138700903800E0FEA3E0FF4E600FAB21AA22A930
:0B13970023900006EE8FF012034622A8
:1013A2008B218A228923E92416F9E43AFAC002C081
:1013B20001AA22A9239000141202EFFDACF0D00181
:1013C200D0021220CEAB21E5232408F9E43522FA1B
:1013D200C003C002C001AA22A9239000101203A7D1
:1013E2008F478E468D458C44E92416F9E43A8B48A2
:1013F200F549894AE523241CF9EA34028B4BF54C62
:10140200894DE5232419F9EA34018B4EF54F8950B1
:10141200E523241FF9EA34038B51F5528953A9239A
:1014220090000A120219F55490000C1203A78F586B
:101432008E578D568C5590000B120219F559D0011A
:10144200D002D0037D04120E899037FAEEF0A3EF9A
:10145200F04E60169037FAE0FFA3E0AB21AA22A972
:1014620023900006CF8FF01203469037FAE0FEA3D6
:03147200E0FF2276
:1021AD008B218A228923E92416F9E43AFA7D047CED
:1021BD00001220CEAB21E5232416F9E43522FA12C4
:1021CD001D7EAB21AA22A92390000C1203D7E4FE99
:0221DD00FF22DF
:0E248900E9240BF9E43AFA122317E4FEFF22CD
:101B60008B218A228923E49037FAF0A3F0E9241626
:101B7000F9E43AFA7D047C001220CEAB21E523245F
:101B800016F9E43522FA121D7EAB21AA22A9239070
:101B900000101203D79000101203A71222F4AB21F9
:101BA000AA22A923900014EE8FF01203469000148D
:101BB0001202EFD39400E5F064809481401B9037CB
:101BC000FAE4F0A37406F0AB21AA22A923F58275EA
:101BD0008300E475F0061203469037FAE0FEA3E0B6
:021BE000FF22E2
:101547008B218A228923E92408F9E43AFAC003C0E7
:1015570002C001AA22A9239000101203A7C004C049
:1015670005C006C0079000141202EFF52D85F02C78
:10157700E92416F9E43A8B2EF52F8930E523241C4C
:10158700F9EA34028B31F5328933E5232419F9EA74
:1015970034018B34F5358936E523241FF9EA340302
:1015A7008B37F5388939A92390000A120219F53AC1
:1015B70090000C1203A78F3E8E3D8D3C8C3B900014
:1015C7000B120219F53FD007D006D005D004D00181
:1015D700D002D003121C629037FAEEF0A3EFF04E60
:1015E70060169037FAE0FFA3E0AB21AA22A9239067
:1015F7000006CF8FF01203469037FAE0FEA3E0FF14
:0116070022C0
:10186C008B218A228923900001120219B40E09904F
:10187C00000A120219FF80027F048F24AB21E5239A
:10188C002408F9E43522FAC003C002C001AA22A937
:10189C00239000101203A79000141202EFF52D856F
:1018AC00F02CE92416F9E43A8B2EF52F893075319A
:1018BC0000753200753300753400753500753600CF
:1018CC0075370075380075390085243AE4F53EF516
:1018DC003DF53CF53BF53FD001D002D003121C6224
:1018EC009037FAEEF0A3EFF04E60169037FAE0FF67
:1018FC00A3E0AB21AA22A923900006CF8FF01203FC
:0A190C00469037FAE0FEA3E0FF2248
:1017B8008B218A228923900001120219B411099001
:1017C800000A120219FF80027F048F24AB21E5234F
:1017D8002408F9E43522FAC003C002C001AA22A9EC
:1017E800239000101203A79000141202EFF52D8524
:1017F800F02CE92416F9E43A8B2EF52F8930E523ED
:10180800241CF9EA34028B31F5328933E523241993
:10181800F9EA34018B34F5358936753700753800A7
:1018280075390085243AE4F53EF53DF53CF53BF580
:101838003FD001D002D003121C629037FAEEF0A319
:10184800EFF04E60169037FAE0FFA3E0AB21AA2232
:10185800A923900006CF8FF01203469037FAE0FED6
:04186800A3E0FF22D8
:101FB5008B218A2289237B007A007924122317AB8F
:101FC50021E5232408F9E43522FAAD241209FD9010
:101FD50037FAEEF0A3EFF04E60169037FAE0FFA364
:101FE500E0AB21AA22A923900006CF8FF012034669
:091FF5009037FAE0FEA3E0FF22A0
:101DFA008B218A228923E49037FAF0A3F0FB7A0038
:101E0A007924122317E524600F6401600B9037FAD6
:101E1A00E4F0A37405F0802BAB21AA22A923900039
:101E2A0001120219B4130DE5249000097002800B07
:101E3A00740D800CE52490000A7003048002740675
:101E4A0012027A9037FAE0FEA3E0FF4E600FAB2150
:0E1E5A00AA22A923900006EE8FF01203462262
:10245600900006E4F5F01203469000061202EFFF24
:03246600AEF022B3
:101916008B218A228923E92416F9E43AFA7D017C8F
:10192600001220CEAB21AA22A92390001812021978
:10193600F524E92416F9E43AFA7D017C001220CE5A
:10194600AB21AA22A923900018120219F525E92431
:1019560016F9E43AFA7D047C001220CEAB21E52389
:101966002416F9E43522FA121D7E9037FA1204077E
:10197600AB21AA22A9239000081202196524600C43
:10198600E92408F9E43AFAAD241209FD9037FCE09F
:10199600FEA3E0FF122363AB21AA22A9239000082D
:1019A6001202196525600CE92408F9E43AFAAD2516
:0719B6001209FDE4FEFF220F
:101F19008B278A288929121E68AB27AA28A9299004
:101F29000006EE8FF01203469000061202EF45F00C
:101F3900701FAB27E5292408F9E43528FAE4FD12D6
:101F490009FDAB27AA28A929900006EE8FF01203F4
:101F590046AB27AA28A9299000061202EFFFAEF086
:011F69002255
:101AD5008B278A2889299000061202EF45F0706B42
:101AE5001202007066E92401F9E43AFA122317ABF1
:101AF50027AA28A9299000021203A7E47B01FAF975
:101B0500F8120373AB27AA28A9299000021203D75C
:101B1500900001120219FFC39418AB27AA28A9291E
:101B25005026C003C002C001EF75F003A42400F5E0
:101B350082E43432F58312044789828A83D001D046
:101B450002D0031204A78003122442AB27AA28A9B6
:0B1B5500299000061202EFFFAEF02204
:0924DA007B017A327948021F19D6
:0924E3007B017A327948021AD516
:101D7E008B268A278928E4F52CF52BF52AF529F5EB
:101D8E002DF52EAB26AA27A9281202C4FFC3E52ED5
:101D9E009FE5F06480F8E52D6480985046AF2CAE38
:101DAE002BAD2AAC2978081203948F2C8E2B8D2AFA
:101DBE008C29E92402F9E43AFAE9252EF9EA352DBF
:101DCE00FA120200FFE52C4FFFE52BFEE52AFDE59A
:101DDE00298F2C8E2B8D2AF529052EE52E70A40524
:0C1DEE002D80A0AF2CAE2BAD2AAC29221A
:101BE2008B5A8A5B895C7563007564011202C4FFBB
:101BF200AEF0E56445636063EF1FAC0670011E4CF6
:101C02006059AB5AE55C2402F9E4355BFAE92FF935
:101C1200EA3EFA120200F565AB5DE55F2402F9E4E3
:101C2200355EFAE92FF9EA3EFA120200F566E5613D
:101C3200456245606018AB60E5622402F9E43561F3
:101C4200FAE92FF9EA3EFA12020052655266E56598
:101C52006566609EE4F563F5648097AE63AF6422C7
:1020CE008C408D41E5408541F0120327E92402F949
:1020DE00E43A8B42F5438944E5414540601EAB42EC
:1020EE00AA43A944122317E5411541700215407405
:0D20FE00012544F544E43543F54380DC2220
:0824EC00E4F51BD2E9D2AF2296
:1016C400AD0790E678E020E6F9C2E990E678E044D8
:1016D40080F0ED25E090E679F090E678E030E0F9EE
:1016E40090E678E04440F090E678E020E6F990E671
:0816F40078E030E1D6D2E922D2
:1021DF00AC0790E678E020E6F9E51B702390E678EF
:1021EF00E04480F0EC25E090E679F08D16AF03A97E
:1021FF00077517018A188919E4F51A751B01D3227F
:02220F00C322E8
:10217900AC0790E678E020E6F9E51B702590E67853
:10218900E04480F0EC25E0440190E679F08D16AF4B
:1021990003A9077517018A188919E4F51A751B032C
:0421A900D322C32258
:03004B0002119F00
:10119F00C0E0C083C082C085C084C086758600C091
:1011AF00D075D000C000C001C002C003C006C00788
:1011BF0090E678E030E206751B0602128990E67819
:1011CF00E020E10CE51B64026006751B0702128923
:1011DF00E51B24FE605F14603624FE700302127A52
:1011EF0024FC700302128624086003021289AB17D5
:1011FF00AA18A919AF1A051A8F827583001202193E
:10120F0090E679F0E51A65167070751B05806B9086
:10121F00E679E0AB17AA18A919AE1A8E827583006A
:10122F0012027A751B02E5166401704E90E678E0A3
:10123F004420F08045E51624FEB51A0790E678E0C5
:10124F004420F0E51614B51A0A90E678E04440F011
:10125F00751B0090E679E0AB17AA18A919AE1A8E84
:10126F008275830012027A051A800F90E678E044A7
:10127F0040F0751B008003751B005391DFD007D022
:10128F0006D003D002D001D000D0D0D086D084D0E9
:08129F0085D082D083D0E0323B
:1023C600122179E51B24FA600E146006240770F3C7
:0C23D600D322E4F51BD322E4F51BD32234
:1023E2001221DFE51B24FA600E146006240770F345
:0C23F200D322E4F51BD322E4F51BD32218
:03000000021A4998
:0C1A4900787FE4F6D8FD758170021A90D9
:10020000BB010689828A83E0225002E722BBFE02FC
:09021000E32289828A83E493222F
:10021900BB010CE58229F582E5833AF583E022509A
:1002290006E92582F8E622BBFE06E92582F8E222E4
:0D023900E58229F582E5833AF583E49322FE
:10024600BB010989828A83F8E028F022500327F748
:1002560022BBFE05F8E328F3228A838982F8E49319
:0202660028224C
:10026800BB010689828A83F0225002F722BBFE0175
:02027800F3226F
:10027A00F8BB010DE58229F582E5833AF583E8F0BA
:10028A00225006E92582C8F622BBFE05E92582C866
:02029A00F2224E
:10029C00EF8DF0A4A8F0CF8CF0A428CE8DF0A42E76
:0202AC00FE2230
:1002AE00C5F0F8A3E028F0C5F0F8E58215827002DB
:0602BE001583E038F02278
:1002C400BB010A89828A83E0F5F0A3E02250068705
:1002D400F009E71922BBFE07E3F5F009E3192289C7
:0B02E400828A83E493F5F074019322FA
:1002EF00BB0110E58229F582E5833AF583E0F5F04D
:1002FF00A3E0225009E92582F886F008E622BBFE2A
:10030F000AE92582F8E2F5F008E222E5832AF5836F
:08031F00E993F5F0A3E9932234
:10032700BB010A89828A83F0E5F0A3F0225006F721
:0F03370009A7F01922BBFE06F3E5F009F319221E
:10034600F8BB0111E58229F582E5833AF583E8F0E9
:10035600E5F0A3F0225009E92582C8F608A6F022A6
:0D036600BBFE09E92582C8F2E5F008F2228D
:0D037300EF2BFFEE3AFEED39FDEC38FC22D9
:10208A00C2D5E830E70FB2D5E4C39BFBE49AFAE481
:10209A0099F9E498F8EC30E717B2D51220C0120487
:1020AA00E5E4C39BFBE49AFAE499F9E498F880031F
:1020BA001204E530D50DE4C39FFFE49EFEE49DFDC6
:0420CA00E49CFC2274
:10038000E86010ECA2E713FCED13FDEE13FEEF1393
:04039000FFD8F02280
:10039400E8600FEFC333FFEE33FEED33FDEC33FCC7
:0303A400D8F1226B
:1003A700BB010DE58229F582E5833AF5830203FB5C
:1003B7005007E92582F8020577BBFE07E92582F891
:1003C700020583E58229F582E5833AF58302058FE5
:1003D700BB010DE58229F582E5833AF5830204071F
:1003E7005007E92582F802059FBBFE07E92582F839
:0403F7000205AB222E
:0C03FB00E0FCA3E0FDA3E0FEA3E0FF2275
:0C040700ECF0A3EDF0A3EEF0A3EFF02268
:10041300BB010DE58229F582E5833AF5830205D612
:100423005007E92582F80205B7BBFE07E92582F8E4
:0404330002060A2291
:10043700FAE6FB0808E625F0F9F618E63AFAF62296
:09044700E0FBA3E0FAA3E0F922B6
:10045000D083D082F8E4937012740193700DA3A33B
:1004600093F8740193C0E0E8C0E0227402936860DE
:06047000EFA3A3A380DF4F
:10047600D083D082F8E4937012740193700DA3A315
:1004860093F8740193C0E0E8C0E022740293B5F0DB
:0D049600067403936860E9A3A3A3A380D8B4
:0604A3008A838982E473E4
:101A55000219BDE493A3F8E493A34003F68001F2D1
:101A650008DFF48029E493A3F85407240CC8C33392
:101A7500C4540F4420C8834004F456800146F6DF61
:101A8500E4800B0102040810204080901EC4E47E0F
:101A9500019360BCA3FF543F30E509541FFEE49356
:101AA500A360010ECF54C025E060A840B8E493A31D
:101AB500FAE493A3F8E493A3C8C582C8CAC583CA48
:101AC500F0A3C8C582C8CAC583CADFE9DEE780BE00
:011F180000C8
:1004A90075F008758200EF2FFFEE33FECD33CDCC0A
:1004B90033CCC58233C5829BED9AEC99E58298408D
:1004C9000CF582EE9BFEED9AFDEC99FC0FD5F0D66A
:1004D900E4CEFBE4CDFAE4CCF9A88222B800C1B994
:1004E9000059BA002DEC8BF084CFCECDFCE5F0CBD2
:1004F900F97818EF2FFFEE33FEED33FDEC33FCEB0B
:1005090033FB10D703994004EB99FB0FD8E5E4F9C5
:10051900FA227818EF2FFFEE33FEED33FDEC33FCB2
:10052900C933C910D7059BE99A4007EC9BFCE99AA6
:10053900F90FD8E0E4C9FAE4CCFB2275F010EF2FEB
:10054900FFEE33FEED33FDCC33CCC833C810D707EB
:100559009BEC9AE899400AED9BFDEC9AFCE899F826
:0E0569000FD5F0DAE4CDFBE4CCFAE4C8F922B9
:0C057700E6FC08E6FD08E6FE08E6FF22B0
:0C058300E2FC08E2FD08E2FE08E2FF22B4
:10058F00E493FC740193FD740293FE740393FF22B2
:0C059F00ECF608EDF608EEF608EFF62288
:0C05AB00ECF208EDF208EEF208EFF2228C
:1005B700D083D082E493F608740193F6087402930B
:0F05C700F608740393F6A3A3A3A3C082C08322F4
:1005D600A8828583F0D083D0821205F01205F0122E
:1005E60005F01205F0C082C08322E493A3C583C53B
:1005F600F0C583C8C582C8F0A3C583C5F0C583C846
:04060600C582C822BF
:10060A00D083D082E493F208740193F208740293BF
:0F061A00F208740393F2A3A3A3A3C082C08322A8
:00000001FF
