:0A1A8300000102020303040405053C
:1014A000C200C202C201120ECBC2AF750A13750B85
:1014B0000075121375131275081375091C75101336
:1014C00075114375141375156AD2E890E668E04407
:1014D00009F090E65CE04435F0D2AF90E680E02081
:1014E000E105D20612189E90E680E054F7F0538E84
:1014F000F81212B21219653001FA120A56C20180AE
:01150000F3F7
:0212FA00D322FD
:100A560090E6B9E07003020AFE147003020B7324D9
:100A6600FE7003020BEE24FB7003020AF8147003F7
:100A7600020C59146076147003020C5924056003A5
:100A8600020C4D90E6BBE024FE602714603824FD7E
:100A9600601114602724067050E50A90E6B3F0E56D
:100AA6000B803C1212FA503EE51290E6B3F0E513C5
:100AB600802DE50C90E6B3F0E50D8023E50E90E67B
:100AC600B3F0E50F801990E6BAE0FF1218CDAA063A
:100AD600A9077B01EA494B600DEE90E6B3F0EF9073
:100AE600E6B4F0020C59020C48020C48121A4002F5
:100AF6000C59120003020C5990E6B8E0247F6015E9
:100B060014601924027063A200E43325E0FFA202F8
:100B1600E4334F8041E490E740F0803F90E6BCE04C
:100B2600547EFF7E00E0D394807C0040047D0180EB
:100B3600027D00EC4EFEED4F2483F582741A3EF5DD
:100B460083E493FF3395E0FEEF24A1FFEE34E68FB6
:100B560082F583E0540190E740F0E4A3F090E68A42
:100B6600F090E68B7402F0020C59020C4890E6B83D
:100B7600E024FE601624026003020C5990E6BAE0F7
:100B8600B40105C200020C59020C4890E6BAE070A6
:100B96005590E6BCE0547EFF7E00E0D394807C0056
:100BA60040047D0180027D00EC4EFEED4F2483F56E
:100BB60082741A3EF583E493FF3395E0FEEF24A199
:100BC600FFEE34E68F82F583E054FEF090E6BCE05B
:100BD6005480131313541FFFE0540F2F90E683F035
:100BE600E04420F0806D805A90E6B8E024FE60195B
:100BF6002402704E90E6BAE0B40104D2008054900C
:100C0600E6BAE06402604C803990E6BCE0547EFFB0
:100C16007E00E0D394807C0040047D0180027D004C
:100C2600EC4EFEED4F2483F582741A3EF583E49371
:100C3600FF3395E0FEEF24A1FFEE34E68F82F583C5
:100C4600800D90E6A08008120056500790E6A0E0BE
:0A0C56004401F090E6A0E04480F0B5
:010C60002271
:0300330002004E7A
:04004E0053D8EF3262
:1013000012010002000000404705018801000102AF
:1013100003010A0600020000004001000902270044
:1013200001010080960904000003FF00000007058A
:101330008102400000070502020002000705860244
:101340000002000902270001010080960904000044
:1013500003FF0000000705810240000007050202AC
:10136000400000070586024000000403090414033E
:1013700041005400430020002600200049004E0098
:101380004900180355005300420041004500520037
:101390006D0069006E006900320012036400650090
:0E13A0006600610075006C0074002000000003
:100ECB0090E600E054E74410F090E60174A3F0754F
:100EDB00A80053E8E3E490E610F000000090E61160
:100EEB0074A0F000000090E612F0000000E490E621
:100EFB0013F000000090E61474E0F0000000E490A2
:100F0B00E615F000000090E60B7403F090E6241455
:100F1B00F0E490E625F000000090E6047480F00009
:100F2B0000007402F0000000E4F000000090E649BD
:100F3B007482F0000000F0000000F0000000F000F0
:100F4B00000090E6187411F000000090E61A740986
:100F5B00F000000090E60274E8F0000000E490E678
:100F6B0071F000000090E6707403F0000000E49054
:100F7B00E672F075B4EF75B60F75B28875A002C244
:100F8B0005C203F51AD204F51EF51DF51CF51B74ED
:100F9B00FFF519F518F517F516D287120FF8D28A47
:030FAB00D2AA22A5
:10196500781B120942E47B507AC3F9F8D3120905B2
:0E197500500BB287E4F51EF51DF51CF51B2284
:071A8D00D203D2A5D2A02272
:1012B2007F031218CDAA06A9077521018A22892364
:1012C2007A2A7BE17D087FF87E3F121501E4FF74E4
:1012D200E12FF582E4342AF583E0FEAB21AA22A9AC
:1012E2002375F002EFA42402F582E435F0F583EED3
:0712F2001208990FBF08D894
:0112F90022D2
:071A9400D205D2A7D2A02267
:1015E600C205C2A70000000000200302C2A090E6C8
:1015F6001A7401F000000090E6A9E0700990E64830
:101606007406F000000090E6047480F00000007498
:1016160006F0000000E4F000000090E61A7409F0FD
:04162600000000229E
:100FAE00C203C2A50000000000200502C2A090E608
:100FBE00187401F000000090E6047480F000000048
:100FCE007402F0000000E4F000000090E649748224
:100FDE00F0000000F0000000F0000000F000000043
:0A0FEE0090E6187411F000000022D4
:04166E00AA06AC0517
:10167200E4FD7E000DEE2495F582E4342BF583EA39
:10168200F00E0D74952EF582E4342BF583EFF00DF8
:1016920074952402F582E4342BF583ECF0D2877A38
:0F16A2002B7B957F511219A1C2877F5102172C04
:0A17D2008E2C8F2D8D2E8A2F8B3068
:1017DC00E4F531E531C3952E5020052DE52DAE2CC9
:1017EC007002052C14FFE5302531F582E4352FF518
:0A17FC0083E0FD12166E053180D95E
:0118060022BF
:0A1501008E2C8F2D8D2E8A2F8B303B
:10150B00E4FDE52CFF7E000DEE2495F582E4342BF3
:10151B00F583EFF00E0D74952EF582E4342BF583E5
:10152B00E52DF07A2B7B957F511219A1E4FFEFC3C8
:10153B00952E5010E5302FF582E4352FF58374CDC1
:0F154B00F00F80EAAB30AA2FAD2E7F51020016B1
:10000300E490E740F090E68AF090E68B04F0D32288
:101A4000E490E740F090E68AF090E68B04F0D32231
:1000560090E6B9E012096203F6A203F6A3008BB399
:10006600008DB4019EBB0099C100ADC2030FC30150
:10007600A5C5009BC600A4C70374CB038FCC009311
:10008600D00000057A80111215E602057C121A8D41
:1000960002057C800C121A8D121A9402057C121528
:1000A600E6120FAE02057C90E6B9E090E740F0E478
:1000B60090E68AF090E68B04F090E6A0E04480F0AB
:1000C60090E6A0E020E1F97F031218CDAA06A90761
:1000D6007529018A2A892B90E68BE0D3940840087B
:1000E600752300752408800990E68BE0752300F5DA
:1000F60024E4F527F528C3E5289524E5279523501C
:1001060049E52824F8FFE527343FFE74402528F505
:1001160082E434E7F583E0FD12166E74402528F577
:1001260082E434E7F583E0FDE52825E0FFE52733A3
:100136008F82F583A3A3AB29AA2AA92BED120899CE
:100146000528E52870B0052780AC85232785242857
:10015600C3E5289408E52794005032E52824F8FFE3
:10016600E527343FFE7D2012166EE52825E0FFE5E3
:1001760027338F82F583A3A3AB29AA2AA92B742040
:100186001208990528E52870C7052780C3E490E67C
:100196008AF090E68BF0C322D2A6C2A602057C3076
:1001A600040875B6BF121942C20490E6BEE0752374
:1001B60000F524A3E0FEEE4223E4F521F522E52432
:1001C60045236071E490E68AF090E68BF090E6A015
:1001D600E020E1F990E68BE0752500F52690E6B97A
:1001E600E0B4A336E4F527F528C3E5289526E527E8
:1001F60095255026AF2874402FF582E434E7F58321
:10020600E0FEE5222F24E1F582E4342AF583EEF0C0
:100216000528E52870D3052780CFE5262522F52277
:10022600E5253521F521C3E5249526F524E5239515
:1002360025F523808990E6BAE0B40700400302055D
:100246007C90024EF828287302026302028402029E
:10025600AA0202C50202D60202EC0203077B017A59
:100266002A79E1121A6C90E6BDE0FE90E6BCE0FD4C
:10027600EDFF12142EEF4E700302057C807C7B018D
:100286007A2A79E1121A6C90E6BDE0FE90E6BCE0AF
:10029600FDEDFF90E6BAE0FD121170EF4E7003021D
:1002A600057C805690E6BDE0FE90E6BCE0FDEDFFE5
:1002B600E4FCFD1219BDEF4E700302057C803B90F5
:1002C600E6BCE0FF121A50EF4E700302057C802A4E
:1002D60090E6BAE0FF90E6BCE0FD1216B1EF4E7074
:1002E6000302057C801490E6BAE0FF90E6BCE0FDD0
:1002F6001216B1EF4E700302057C75B60FD204D309
:100306002275B60FD20402057C90E6B8E0B4C0169A
:10031600A3E090E740F0A3E51AF0E490E68AF090B7
:10032600E68B7402803E90E6BAE0F51A7006C2A229
:10033600C2A3801FE51AB40106D2A3C2A28014E5A7
:100346001AB40206C2A3D2A28009E51AB40304D2E3
:10035600A3D2A290E6B9E090E740F0E490E68AF0F6
:1003660090E68B04F090E6A0E04480F0C32290E68D
:10037600B9E090E740F0A2A4E433A3F0E490E68A63
:10038600F090E68B740202058DC2AA90E6B9E09061
:10039600E740F0AC16E4FFFEFDE516781812091BDF
:1003A60090E744EFF0E4FFFEE517FDE4FC78101259
:1003B600092E90E743EFF0E4FFE518FEE4FDFC7834
:1003C6000812092E90E742EFF0E519FF90E741EF9A
:1003D600F0E490E68AF090E68B7405F090E6A0E0F3
:1003E6004480F0E4F519F518F517F516D2AAC322DC
:1003F60090E6BAE0752100F522A3E0FEEE422190D8
:10040600E6BEE0752300F524A3E0FEEE422390E667
:10041600B8E064C060030204E2E5244523700302E9
:10042600057890E6A0E020E1F9C3E5249440E523B1
:100436009400500885232585242680067525007599
:10044600264090E6B9E0B4A335E4F527F528C3E5E0
:10045600289526E5279525505EE5222528F582E58F
:10046600213527F583E0FF74402528F582E434E73B
:10047600F583EFF00528E52870D4052780D0E4F54C
:1004860027F528C3E5289526E527952550187440B5
:100496002528F582E434E7F58374CDF00528E528B0
:1004A60070E1052780DDAD267AE779407F40AB070E
:1004B600AF22AE21121501E490E68AF090E68BE5B4
:1004C60026F02522F522E5253521F521C3E52495DB
:1004D60026F524E5239525F52302041F90E6B8E0CA
:1004E60064406003020578E524452370030205781D
:1004F600E490E68AF090E68BF090E6A0E020E1F941
:1005060090E68BE0752500F52690E6B9E0B4A335B4
:10051600E4F527F528C3E5289526E52795255036E1
:1005260074402528F582E434E7F583E0FFE52225CB
:1005360028F582E5213527F583EFF00528E52870B3
:10054600D4052780D0AD267AE779407F40AB07AF48
:1005560022AE211217D2E5262522F522E5253521E0
:10056600F521C3E5249526F524E5239525F52302F3
:1005760004EDC322D32290E6B9E090E740F0E49080
:10058600E68AF090E68B04F090E6A0E04480F0C3A3
:010596002242
:10186D00C0E0C0D075D000C000C001C002E4FAF9DC
:10187D00F8E5192401F519EA3518F518E93517F5C4
:10188D0017E83516F516D002D001D000D0D0D0E033
:01189D003218
:1019D900C0E0C083C082D2015391EF90E65D7401EB
:0819E900F0D082D083D0E0327F
:1019F100C0E0C083C0825391EF90E65D7404F0D0E3
:061A010082D083D0E03228
:101A0700C0E0C083C0825391EF90E65D7402F0D0CE
:061A170082D083D0E03212
:10176400C0E0C083C08290E680E030E70E85080CBC
:1017740085090D85100E85110F800C85100C8511BF
:101784000D85080E85090F5391EF90E65D7410F0F6
:07179400D082D083D0E032C7
:01003200329B
:10179B00C0E0C083C08290E680E030E70E85080C85
:1017AB0085090D85100E85110F800C85100C851188
:1017BB000D85080E85090F5391EF90E65D7420F0AF
:0717CB00D082D083D0E03290
:01004200328B
:01005200327B
:0112FC0032BF
:0112FD0032BE
:0112FE0032BD
:0112FF0032BC
:011A9B003218
:011A9C003217
:011A9D003216
:011A9E003215
:011A9F003214
:011AA0003213
:011AA1003212
:011AA2003211
:011AA3003210
:011AA400320F
:011AA500320E
:011AA600320D
:011AA700320C
:011AA800320B
:011AA900320A
:011AAA003209
:011AAB003208
:011AAC003207
:011AAD003206
:011AAE003205
:011AAF003204
:011AB0003203
:011AB1003202
:011AB2003201
:011AB3003200
:011AB40032FF
:011AB50032FE
:011AB60032FD
:011AB70032FC
:011AB80032FB
:10189E0030060990E680E0440AF0800790E680E08A
:1018AE004408F07FDC7E0512155A90E65D74FFF059
:0F18BE0090E65FF05391EF90E680E054F7F02250
:080FF800E4F569D2E9D2AF2251
:10172C00AD0790E678E020E6F9C2E990E678E0446F
:10173C0080F0ED25E090E679F090E678E030E0F985
:10174C0090E678E04440F090E678E020E6F990E608
:08175C0078E030E1D6D2E92269
:10183B00AC0790E678E020E6F9E569702390E6784E
:10184B00E04480F0EC25E090E679F08D64AF03A9DD
:10185B00077565018A668967E4F568756901D322A6
:02186B00C32296
:10180700AC0790E678E020E6F9E569702590E67880
:10181700E04480F0EC25E0440190E679F08D64AF78
:1018270003A9077565018A668967E4F56875690321
:04183700D322C322D3
:03004B00020DC3E0
:100DC300C0E0C083C082C085C084C086758600C071
:100DD300D075D000C000C001C002C003C006C00768
:100DE30090E678E030E206756906020EAD90E6788B
:100DF300E020E10CE56964026006756907020EAD47
:100E0300E56924FE605F14603624FE7003020E9EC3
:100E130024FC7003020EAA24086003020EADAB6526
:100E2300AA66A967AF6805688F82758300120838C0
:100E330090E679F0E56865647070756905806B907C
:100E4300E679E0AB65AA66A967AE688E8275830012
:100E5300120899756902E5646401704E90E678E0C2
:100E63004420F08045E56424FEB5680790E678E009
:100E73004420F0E56414B5680A90E678E04440F055
:100E830075690090E679E0AB65AA66A967AE688EDE
:100E9300827583001208990568800F90E678E04414
:100EA30040F075690080037569005391DFD007D066
:100EB30006D003D002D001D000D0D0D086D084D0C9
:080EC30085D082D083D0E0321B
:0218CD00A90769
:1018CF00AE14AF158F828E83A3E064037017AD0142
:1018DF0019ED7001228F828E83E07C002FFDEC3E8C
:0818EF00FEAF0580DFE4FEFFFF
:0118F70022CE
:10001600121807E56924FA600E146006240770F3C7
:0C002600D322E4F569D322E4F569D3226B
:1019A10012183BE56924FA600E146006240770F3EF
:0C19B100D322E4F569D322E4F569D322C7
:10155A008E218F2290E600E054187012E5222401B1
:10156A00FFE43521C313F521EF13F522801590E628
:10157A0000E05418FFBF100BE52225E0F522E52113
:10158A0033F521E5221522AE21700215214E6005A0
:06159A00121A2F80EE2260
:101A2F007400F58690FDA57C05A3E582458370F9CA
:011A3F002284
:03004300021000A8
:0300530002100098
:101000000219D900021A07000219F1000200320089
:101010000217640002179B00020042000200520007
:101020000212FC000212FD000212FE000212FF007A
:10103000021A9B00021A9C00021A9D00021A9E00CE
:10104000021A9F0002005200021AA000021AA10018
:10105000021AA200021AA300021AA400021AA50092
:10106000021AA600020052000200520002005200C2
:10107000021AA700021AA800021AA900021AAA005E
:10108000021AAB00021AAC00021AAD00021AAE003E
:10109000021AAF00021AB000021AB100021AB2001E
:1010A000021AB300021AB400021AB500021AB600FE
:0810B000021AB700021AB80091
:0300130002186D63
:0613AE008B4E8A4F8950AE
:1013B4007557007558011208BBFFAEF0E558455744
:1013C4006063EF1FAC0670011E4C6059AB4EE550D4
:1013D4002402F9E4354FFAE92FF9EA3EFA12081F1C
:1013E400F559AB51E5532402F9E43552FAE92FF9E2
:1013F400EA3EFA12081FF55AE55545564554601859
:10140400AB54E5562402F9E43555FAE92FF9EA3EDE
:10141400FA12081F5259525AE559655A609EE4F56A
:0914240057F5588097AE57AF58F8
:01142D00229C
:0416EF008C338D3477
:1016F300E5338534F01208E6E92402F9E43A8B3540
:10170300F5368937E5344533601EAB35AA36A9373C
:101713001218F8E53415347002153374012537F5C2
:0817230037E43536F53680DCB1
:01172B00229B
:101A1D00E4902800F0A3F0A3F0A304F0A3F0E4FEFB
:021A2D00FF2296
:10191F008F368E358D348C33E5362407FFE435351D
:10192F00FEE43534FDE43533FCE47B08FAF9F812B4
:03193F00162A2243
:041983007F017E0062
:10198700AD07AC067FEF121A5EE4FDFC7F7F121AEB
:0A1997005E7D017C007F7F021A5E76
:060597007B017A287902C5
:08059D008B4E8A4F89508D51ED
:1005A500E4F554F555E551703C7F01FE121987E4D9
:1005B500F552F553E4FDFC7F7F121A5E7D017C0048
:1005C5007F7F121A5E0553E55370020552C39405E9
:1005D500E5526480948040DCAB4EAA4FA950E412EA
:1005E500088702081AAB4EAA4FA95012081FFF65CB
:1005F50051601CE551B40704EFB4060AE551B40E89
:100605000EEF640D600975540075550502081AE56D
:1006150051B5070EB406030206FAE551B40D0302FF
:1006250007B5AB4EAA4FA95012081FFF65517003BD
:1006350002081AEFB410004003020806900648F8B5
:1006450028287302067802067B02067E0206A402AB
:1006550006C80206D60206FA02070802072C020798
:10066500500207610207850207930207B50207C218
:100675000207E4020731020742E551C39409400E1F
:10068500121983AB4EAA4FA9507409020814E4FF4E
:10069500FE121987AB4EAA4FA9507403020814E540
:1006A50051B40411E4FFFE121987AB4EAA4FA950AD
:1006B5007404020814121983AB4EAA4FA95074058D
:1006C500020814121983AB4EAA4FA95074050208EB
:1006D50014E551B40611E4FFFE121987AB4EAA4F7B
:1006E500A9507406020814121983AB4EAA4FA950DB
:1006F5007408020814121983AB4EAA4FA950740747
:10070500020814E551B40411E4FFFE121987AB4E3B
:10071500AA4FA9507404020814121983AB4EAA4FAC
:10072500A9507408020814E551B40111E4FFFE1242
:100735001987AB4EAA4FA9507401020814121983E8
:10074500AB4EAA4FA9507402020814E4FFFE121919
:1007550087AB4EAA4FA950740A020814E551B40B91
:1007650011E4FFFE121987AB4EAA4FA950740B0274
:100775000814121983AB4EAA4FA950740C02081421
:10078500121983AB4EAA4FA950740C020814E551F7
:10079500B40D10E4FFFE121987AB4EAA4FA9507491
:1007A5000D806C121983AB4EAA4FA950740F805F50
:1007B500121983AB4EAA4FA950740E8052E551B45D
:1007C5000B10E4FFFE121987AB4EAA4FA950740B0C
:1007D500803D121983AB4EAA4FA950740F8030E5A6
:1007E50051B40110E4FFFE121987AB4EAA4FA95070
:1007F5007401801B121983AB4EAA4FA95074028055
:100805000E755400755505AB4EAA4FA950E551120A
:090815000887020627AE54AF5516
:01081E0022B7
:0E0C61008F518E508D4F8C4E8B528A5389547A
:100C6F00755D00755E00755F00E55645574555602B
:100C7F003C1208BBFFAB55AA56A957E5F08FF012EF
:100C8F0008E6AB55E5572402F9E43556FAC003C020
:100C9F0002C001AB52AA53A9541208BBD001D00213
:100CAF00D00329F9EA35F08B5DF55E895FAB52E52C
:100CBF00542402F9E43553FAC002C001AA53A954CF
:100CCF001208BBD001D00229F9EA35F08B5AF55B37
:100CDF00895CAF51AE50AD4FAC4EEC4D4E4F7003E3
:100CEF00020DC2AB5AE55C155C7002155B14F9AAD4
:100CFF005B12081FF560E4F561F562F563AF51AE65
:100D0F0050AD4FAC4EEC4D4E4F7003020DA1C3E5ED
:100D1F00639408E56264809480507774FF2FF551D7
:100D2F00EE34FFF550ED34FFF54FEC34FFF54EE5A3
:100D3F005945586016AF51AE50AD4FAC4EEC4D4EBD
:100D4F004F70087D01FC7FEF121A5EE5605401FDC4
:100D5F007C007FDF121A5EE560C313F560E4FDFCD3
:100D6F007F7F121A5EE55E455F455D6011121A784E
:100D7F00AE63EFA806088002C333D8FC42617D0141
:100D8F007C007F7F121A5E0563E5637002056202C5
:100D9F000D0CE55E455F455D7003020CE1AB5DE553
:100DAF005F155F7002155E14F9AA5EE56112088780
:030DBF00020CE142
:010DC200220E
:0610B8007B017A28790299
:0610BE008B338A348935F2
:1010C400E4F548F549F54AF54BED65477E006004C3
:1010D4007F0180027F008E4C8F4DAB33AA34A9353B
:1010E40012059DAF3AAE39AD38AC37853E55853FD4
:1010F40056854057854C58854D59AB3BAA3CA93D74
:10110400120C61E54245434541602A853E51853FC5
:1011140052854053854454854555854656AB41AA6E
:1011240042A9431213AEEF4E70047F0180027F0088
:10113400754A008F4BE54D454C6020AB33AA34A96A
:10114400357401120865E54B454A60047D04800846
:10115400AB33AA34A935AD4712059DE54B454A602A
:0B11640006754800754902AE48AF490F
:01116F00225D
:04142E008E2C8F2D44
:10143200E4FCFD12191FAD07AC06D3ED94B4EC9495
:10144200004008752E00752F06803E7B017A2879B0
:10145200051216EFE4852D3A852C39F538F53775E6
:101462003B01753C28753D05F53EF53FF540F541DC
:10147200F542F543F544F545F546902803E0F54776
:101482007D0B1210B88E2E8F2FE52F452E600A90FD
:0D1492002800E52EF0A3E52FF0AE2EAF2FC1
:01149F00222A
:061170008E2C8F2D8D2E48
:10117600E4FCFD12191F8E2F8F307B017A2879052A
:10118600AD30AC2F1216EFE52E604B7B017A287935
:10119600BCAD30AC2F1216EF7B017A2A792AAD301E
:1011A600AC2F1216EFE4852D3A852C39F538F53734
:1011B600753B01753C28753D05753E01753F2975E2
:1011C60040737541017542287543BC7544017545E8
:1011D6002A75462A8026E4852D3A852C39F538F578
:1011E60037753B01753C28753D05F53EF53FF540E5
:1011F600F541F542F543F544F545F546902804E0FA
:10120600F5477D041210B88E318F32E532453160D4
:0F1216000A902800E531F0A3E532F0AE31AF3297
:0112250022A6
:1019BD008F2F8E2E8D2D8C2C7D01120597AF2FAE76
:0C19CD002EAD2DAC2C1215A0E4FEFF2264
:0E1A5000AD07120597902800EEF0A3EFF022EC
:1016B100E4FBFAED6008640160047B05801FBF0450
:1016C1000FED902803700404F08012740DF0800D6A
:1016D100ED902804700404F080037406F0EB4A6076
:0D16E10008902800EAF0A3EBF0AE02AF0382
:0116EE0022D9
:10194200121A1D902800EEF0A3EFF04E700CFD125B
:101952000597902800EEF0A3EFF0902800E0FEA398
:03196200E0FF2281
:04004600026A00004A
:0E1A5E00AE05EEC454F0FEE5B15F4EF5B122C8
:0C003600E4FDFC7F7F121A5E0D021A5ED2
:1018F8008B388A39893AAB6CAA6DA96E056BE56B92
:10190800AE6A7002056A14F5828E83120838AB3805
:07191800AA39A93A02088771
:0C1A6C00E4F56AF56B8B6C8A6D896E22C4
:0B1A7800E5B15440C413135403FF22D7
:0815A0008F338E328D318C3047
:1015A800E4F537F536F535F534AF33AE32AD31AC59
:1015B80030AB37AA36A935A834C3120905501E1214
:1015C8000036E4FAF9F8E5372401F537EA3536F557
:0D15D80036E93535F535E83534F53480CC8D
:0115E50022E3
:03000000021226C3
:0C122600787FE4F6D8FD75816E02126D31
:10081F00BB010689828A83E0225002E722BBFE02D7
:09082F00E32289828A83E493220A
:10083800BB010CE58229F582E5833AF583E0225075
:1008480006E92582F8E622BBFE06E92582F8E222BF
:0D085800E58229F582E5833AF583E49322D9
:10086500BB010989828A83F8E028F022500327F723
:1008750022BBFE05F8E328F3228A838982F8E493F4
:02088500282227
:10088700BB010689828A83F0225002F722BBFE0150
:02089700F3224A
:10089900F8BB010DE58229F582E5833AF583E8F095
:1008A900225006E92582C8F622BBFE05E92582C841
:0208B900F22229
:1008BB00BB010A89828A83E0F5F0A3E02250068708
:1008CB00F009E71922BBFE07E3F5F009E3192289CA
:0B08DB00828A83E493F5F074019322FD
:1008E600BB010A89828A83F0E5F0A3F0225006F75D
:0F08F60009A7F01922BBFE06F3E5F009F319225A
:10162A00C2D5E830E70FB2D5E4C39BFBE49AFAE4EB
:10163A0099F9E498F8EC30E717B2D5121660120956
:10164A00C4E4C39BFBE49AFAE499F9E498F88003AA
:10165A001209C430D50DE4C39FFFE49EFEE49DFD4C
:04166A00E49CFC22DE
:10090500EB9FF5F0EA9E42F0E99D42F0EC6480C869
:0609150064809845F02209
:10091B00E8600FECC313FCED13FDEE13FEEF13FFBA
:03092B00D8F122DE
:10092E00E86010ECA2E713FCED13FDEE13FEEF13DF
:04093E00FFD8F022CC
:100942007401FF3395E0FEFDFC080808E6CF2FF6A0
:1009520018E6CE3EF618E6CD3DF618E6CC3CF62279
:10096200D083D082F8E4937012740193700DA3A324
:1009720093F8740193F5828883E473740293686038
:06098200EFA3A3A380DF38
:101232000214A0E493A3F8E493A34003F68001F21E
:1012420008DFF48029E493A3F85407240CC8C333BD
:10125200C4540F4420C8834004F456800146F6DF8C
:10126200E4800B0102040810204080900046E47ED6
:10127200019360BCA3FF543F30E509541FFEE49381
:10128200A360010ECF54C025E060A840B8E493A348
:10129200FAE493A3F8E493A3C8C582C8CAC583CA73
:1012A200F0A3C8C582C8CAC583CADFE9DEE780BE2B
:01004A0000B5
:1009880075F008758200EF2FFFEE33FECD33CDCC26
:1009980033CCC58233C5829BED9AEC99E5829840A9
:1009A8000CF582EE9BFEED9AFDEC99FC0FD5F0D686
:1009B800E4CEFBE4CDFAE4CCF9A88222B800C1B9B0
:1009C8000059BA002DEC8BF084CFCECDFCE5F0CBEE
:1009D800F97818EF2FFFEE33FEED33FDEC33FCEB27
:1009E80033FB10D703994004EB99FB0FD8E5E4F9E2
:1009F800FA227818EF2FFFEE33FEED33FDEC33FCCF
:100A0800C933C910D7059BE99A4007EC9BFCE99AC2
:100A1800F90FD8E0E4C9FAE4CCFB2275F010EF2F07
:100A2800FFEE33FEED33FDCC33CCC833C810D70707
:100A38009BEC9AE899400AED9BFDEC9AFCE899F842
:0E0A48000FD5F0DAE4CDFBE4CCFAE4C8F922D5
:00000001FF
