:0A2A2A000001020203030404050585
:101D4200C200C202C201121532C2AF750A1E750B61
:101D52000075121E75131275081E75091C75101E6A
:101D620075113C75141E75155CD2E890E668E04466
:101D720009F090E65CE04435F0D2AF90E680E020D6
:101D8200E105D20412275E90E680E054F7F0538E0C
:101D9200F8122443122885300105121028C201309E
:101DA20003F212299C50EDC2031228602000169003
:101DB200E682E030E704E020E1EF90E682E030E600
:0D1DC20004E020E0E41219D41229AD80C71E
:021DFE00D322EE
:1010280090E6B9E0120BEB10C600113B0111B603B4
:10103800104B0610C00810BA0910B40A12210B0090
:1010480000121590E6BBE024FE602714603824FDEA
:10105800601114602724067050E50A90E6B3F0E5A5
:101068000B803C121DFE503EE51290E6B3F0E513EE
:10107800802DE50C90E6B3F0E50D8023E50E90E6B3
:10108800B3F0E50F801990E6BAE0FF1227BBAA0675
:10109800A9077B01EA494B600DEE90E6B3F0EF90AB
:1010A800E6B4F00212210212100212101229CD0227
:1010B8001221121DCF0212211229BD02122190E61F
:1010C800B8E0247F601514601924027063A200E45C
:1010D8003325E0FFA202E4334F8041E490E740F07B
:1010E800803F90E6BCE0547EFF7E00E0D394807C95
:1010F8000040047D0180027D00EC4EFEED4F242A65
:10110800F582742A3EF583E493FF3395E0FEEF24DD
:10111800A1FFEE34E68F82F583E0540190E740F0BA
:10112800E4A3F090E68AF090E68B7402F0021221B4
:1011380002121090E6B8E024FE6016240260030252
:10114800122190E6BAE0B40105C20002122102128F
:101158001090E6BAE0705590E6BCE0547EFF7E0041
:10116800E0D394807C0040047D0180027D00EC4E39
:10117800FEED4F242AF582742A3EF583E493FF336B
:1011880095E0FEEF24A1FFEE34E68F82F583E0546C
:10119800FEF090E6BCE05480131313541FFFE05494
:1011A8000F2F90E683F0E04420F0806D805A90E69F
:1011B800B8E024FE60192402704E90E6BAE0B4014B
:1011C80004D200805490E6BAE06402604C80399002
:1011D800E6BCE0547EFF7E00E0D394807C004004AF
:1011E8007D0180027D00EC4EFEED4F242AF58274CD
:1011F8002A3EF583E493FF3395E0FEEF24A1FFEE4A
:1012080034E68F82F583800D90E6A08008120200F4
:10121800500790E6A0E04401F090E6A0E04480F09A
:0112280022A3
:03003300022A4559
:042A450053D8EF3241
:101E000012010002000000402A15068400000102B1
:101E100003010A0600020000004001000902200040
:101E200001010080640904000002FF0000000705B2
:101E3000810240000107058602000200090220001D
:101E400001010080640904000002FF000000070592
:101E500081024000000705860240000004030904D7
:101E6000080349004E0049001A0343006F00630055
:101E700068006C006500610041004D0053003100B6
:0E1E800063000A033000300030003000000024
:1015320090E6007412F0E4F5B0F5A0F580F5B1750F
:10154200B28B75B40F75B5FF75B6FE00000090E65C
:101552000174A3F000000075A80053E8E300000046
:10156200E490E671F000000090E670F00000009058
:10157200E672F090E610F000000090E61174A0F020
:10158200000000E490E612F000000090E613F00084
:10159200000090E61474E0F0000000E490E615F01C
:1015A20000000090E60B7403F000000090E6047463
:1015B20080F00000007406F0000000E4F00000007B
:1015C20090E6247402F0000000E490E625F00000AA
:1015D2000090E61A7408F0000000E490E618F000AB
:1015E200000090E619F000000090E61BF0000000F9
:1015F20090E60274E8F0000000E4F578F577F576FD
:10160200F57543B14043B12053B1EF43B10253B139
:10161200FB122A3DD207D288C2A8D28AC2AAE4F516
:10162200C8F5CA75CBFFC2AD43B108000000000087
:1016320000000000000000000053B1F753B17F43E7
:10164200B1801229DDE47571507570C3F56FF56EC6
:011652002275
:102885007875120B76AB71AA70A96FA86ED3120A70
:10289500D9500C63B140E4F578F577F576F57522F6
:0C278D007F0C1227997F35122799E4FF7A
:102799007E08AD061EED6019D2B17801EF088001FF
:1027A90023D8FDFF30E004D2B28002C2B2C2B180A8
:0127B900E13E
:0127BA0022FC
:10291800E4FE7D80C2A1EF5D24FF92A3D2A1C2A1F3
:08292800EDC313FD0EBE08EE25
:012930002284
:0726C7009034D4E054FEF052
:1026CE00A2A09206C2A0E4FBFA74CD2BF58274345C
:1026DE003AF583E0FF1229180BBB00010AEB6408E0
:0B26EE004A70E6C2A2D2A2A20692A08F
:0126F90022BE
:0F29DD00C2B012278D12278DD2B00000D2B122C6
:1024CB007E08AD061EED60357801EF08800123D83C
:1024DB00FDFF30E00543B110800353B1EF53B1DF83
:1024EB0000000000000000000000000000000000E1
:0D24FB0043B120000000000000000080C57B
:0125080022B0
:1023B2008D2DC374089DF8EF08800123D8FDFFAE70
:1023C200051DEE60357801EF08800123D8FDFF304E
:1023D200E00543B110800353B1EF53B1DF000000B9
:1023E2000000000000000000000000000043B120D7
:0A23F200000000000000000080C59C
:0123FC0022BE
:102443007F031227BBAA06A9077521018A228923C4
:102453007A337B3A7D047FFC7E7F1222B7E4FF74DC
:102463003A2FF582E43433F583E0FEAB21AA22A9A7
:102473002375F002EF900002120BC6EE1209FB0F58
:03248300BF04DCB7
:012486002233
:032A4900D2832213
:1025EE00C283E490E61AF000000090E6A9E07009BC
:1025FE0090E6487406F000000090E6047480F00047
:10260E0000007406F0000000E4F000000090E61AEE
:07261E007408F00000002227
:04231000AB07AA0667
:10231400E4F533AF02AE33053374CA2EF582E434E8
:1023240034F583EFF0AF03AE33053374CA2EF58270
:10233400E43434F583EFF0AF33053374CA2FF582F8
:10234400E43434F583EDF0E51B70FC7A347BCAADDC
:0D235400337F501228FC50F37F500225B655
:0A2546008E2D8F2E8D2F8A308B31E1
:1025500063B140E4F532E532C3952F5020052EE5F6
:102560002EAE2D7002052D14FFE5312532F582E4E3
:0D2570003530F583E0FD122310053280D9CF
:01257D00223B
:0A22B7008E2D8F2E8D2F8A308B3173
:1022C100E4FDE52DFF7E000DEE24CAF582E43434F1
:1022D100F583EFF00E0D74CA2EF582E43434F583E4
:1022E100E52EF07A347BCA7F501228FCE4FFEFC35D
:1022F100952F5010E5312FF582E43530F58374CDFB
:0F230100F00F80EAAB31AA30AD2F7F500228E0F9
:10299C0043B18075714075700D756F03756E00D302
:0129AC002208
:1029AD0053B17FE47571507570C3F56FF56ED32219
:101DCF0090E680E030E71200000090E6247402F005
:101DDF00000000E490E6258010000000E490E62467
:0F1DEF00F000000090E6257440F0000000D322C1
:1029BD00E490E740F090E68AF090E68B04F0D322A5
:1029CD00E490E740F090E68AF090E68B04F0D32295
:1002000090E6B9E0120BEB07E0A207E0A30232B3DD
:100210000238B40474B807B2B90474BA045DBB02FE
:1002200066BE0374C2023EC4027FC50464CE0000F1
:100230000964122A490209661225EE0209660000C5
:1002400000E490E61AF000000090E6047480F000EC
:1002500000007406F0000000E4F000000090E61AD0
:100260007408F002096690E6BAE030E004D28180BA
:1002700002C28190E74074BEF000000002096E9057
:10028000E6B8E06440600302035B30070AF5A0753E
:10029000B4BD12225DC20790E6BEE0752300F524CE
:1002A000A3E0FEEE4223D3E5249490E5239401409D
:1002B0000675720A020353E4F521F5227B017A33B5
:1002C000793A122A13E52445236071E490E68AF016
:1002D00090E68BF090E6A0E020E1F990E68BE075E7
:1002E0002500F526E4F527F528C3E5289526E5271A
:1002F0009525502D74402528F582E434E7F583E0F8
:10030000FFE5222528FDE5213527FC743A2DF582ED
:1003100074333CF583EFF00528E52870CC05278081
:10032000C8E5262522F522E5253521F521C3E5245A
:100330009526F524E5239525F523808990E6BAE0F6
:100340007002800F121F1A8F72E572D3940050034F
:1003500002096675B40DD20702096690E6B9E0900D
:10036000E740F0A3E572F0E490E68AF090E68B7443
:100370000202097790E6B9E090E740F0E490E68A5F
:10038000F090E68B04F090E6A0E04480F090E6A0C8
:10039000E020E1F97F031227BBAA06A9077529010E
:1003A0008A2A892B90E68BE0D394044008752300B9
:1003B000752404800990E68BE0752300F524E4F5AC
:1003C00027F528C3E5289524E52795235049E528F6
:1003D00024FCFFE527347FFE74402528F582E434B1
:1003E000E7F583E0FD12231074402528F582E434FC
:1003F000E7F583E0FDE52825E0FFE527338F82F56B
:1004000083A3A3AB29AA2AA92BED1209FB0528E592
:100410002870B0052780AC852327852428C3E528CC
:100420009404E52794005032E52824FCFFE52734A6
:100430007FFE7D20122310E52825E0FFE527338F7E
:1004400082F583A3A3AB29AA2AA92B74201209FB46
:100450000528E52870C7052780C30207A7D287C2F1
:100460008702096690E6BAE06005D2A0020966C27A
:10047000A002096600000090E6BAE0752100F522AE
:10048000A3E0FEEE4221A3E0FDA3E0FEEEFCA3E02C
:10049000752300F524A3E0FEEE4223E522120BEBC8
:1004A00004BC01073B0206460306480405A00505F7
:1004B0004C06059A070750080000064653B0E7852A
:1004C0002373852474E52445236055E490E68AF07F
:1004D00090E68BF000000090E6A0E020E1F990E6C5
:1004E0008BE0752500F526E4F527F528C3E528956A
:1004F00026E5279525501A74402528F582E434E72F
:10050000F583E0FF1224CB0528E52870DF0527805E
:10051000DBC3E5249526F524E5239525F52380A561
:1005200000000000000000000043B10200000000D5
:100530000000000000000000000053B1FD000000BA
:1005400000000000000043B038020643E5246406C2
:1005500045236002D322E490E68AF090E68BF00017
:10056000000090E6A0E020E1F9C2B0E4F527F5280C
:1005700074402528F582E434E7F583E0FF122799DB
:100580000528E52870020527C39406E52794004056
:10059000DFD2B00000D2B10206431229DD0207A467
:1005A000E490E68AF090E68BF000000090E6A0E090
:0305B00020E1F94E
:1005B30090E740E0139204E030E103D38001C3925B
:1005C3000590E6BCE0F52CA3E014602414603B1412
:1005D300605224037068E52C30040442808003F4E5
:1005E3005280E52C300505F452B2805442B280505B
:1005F300E52C30040442A08003F452A0E52C30051E
:1006030005F452B4803A42B48036E52C30040442F7
:10061300B08003F452B0E52C300505F452B58020C8
:1006230042B5801CE52C30040442B18003F452B17E
:10063300E52C300505F452B6800642B68002D3227B
:100643000207A4D32253B0D790E6BBE0FF7D071285
:1006530023B200000000000000000043B1020000CC
:1006630000000000000000000000000053B1FD0086
:100673000000000000000000000000000000004334
:10068300B0380000000000000053B0CFA3E0541FB7
:10069300FF7D051223B2A3E033333354F8FF90E612
:1006A300BCE0FEC41354074FFF7D051223B212268C
:1006B300C7D2B690E6BDE030E204D2B78002C2B73B
:1006C3000000000000000000000000000000000027
:1006D30043B1020000000000000000000000000021
:1006E3000053B1FD0000000000000000009034D46E
:1006F300E04401F01226CE90E6BDE030E304D2B729
:100703008002C2B7000000000000000000000000EB
:100713000000000043B102000000000000000000E0
:10072300000000000053B1FD0000000000000000C5
:100733000043B038D2B680691226C7C2B7C2B6909A
:1007430034D4E04401F01226CED2B68054E490E6CD
:100753008AF090E68BF000000090E6A0E020E1F93B
:10076300E524640845236002D322E4F527F528C372
:10077300E5289524E52795235024AF2874402FF5C9
:1007830082E434E7F583E0FE74CD2FF582E434345C
:10079300F583EEF00528E52870D5052780D11226CC
:1007A300CE63B140E490E68AF090E68BF0C32290EA
:1007B300E6BAE0600543B104800353B1FB90E74020
:1007C30074B9F0000000E490E68AF090E68B04F040
:1007D30000000090E6A0E04480F002096690E6BACB
:1007E300E0752100F522A3E0FEEE422190E6BEE093
:1007F300752300F524A3E0FEEE422390E6B8E064FF
:10080300C060030208CCE52445237003020962900B
:10081300E6A0E020E1F9C3E5249440E523940050E9
:100823000885232585242680067525007526409096
:10083300E6B9E0B4A335E4F527F528C3E528952602
:10084300E5279525505EE5222528F582E521352704
:10085300F583E0FF74402528F582E434E7F583EF60
:10086300F00528E52870D4052780D0E4F527F5287E
:10087300C3E5289526E5279525501874402528F5C6
:1008830082E434E7F58374CDF00528E52870E105AB
:100893002780DDAD267AE779407F40AB07AF22AEF4
:1008A300211222B7E490E68AF090E68BE526F02544
:1008B30022F522E5253521F521C3E5249526F524E6
:1008C300E5239525F52302080990E6B8E064406026
:1008D30003020962E52445237003020962E490E6FA
:1008E3008AF090E68BF090E6A0E020E1F990E68BA9
:1008F300E0752500F52690E6B9E0B4A335E4F527C5
:10090300F528C3E5289526E5279525503674402517
:1009130028F582E434E7F583E0FFE5222528F58214
:10092300E5213527F583EFF00528E52870D4052761
:1009330080D0AD267AE779407F40AB07AF22AE2166
:10094300122546E5262522F522E5253521F521C385
:10095300E5249526F524E5239525F5230208D7C339
:1009630022D32290E6B9E090E740F0E490E68AF0E3
:0D09730090E68B04F090E6A0E04480F0C315
:010980002254
:10293100C0E0C083C082D2015391EF90E65D740183
:08294100F0D082D083D0E03217
:10294900C0E0C083C0825391EF90E65D7404F0D07B
:0629590082D083D0E032C1
:10295F00C0E0C083C0825391EF90E65D7402F0D067
:06296F0082D083D0E032AB
:10262500C0E0C083C08290E680E030E70E85080CEC
:1026350085090D85100E85110F800C85100C8511EF
:102645000D85080E85090F5391EF90E65D7410F026
:07265500D082D083D0E032F7
:012A4C003257
:10265C00C0E0C083C08290E680E030E70E85080CB5
:10266C0085090D85100E85110F800C85100C8511B8
:10267C000D85080E85090F5391EF90E65D7420F0DF
:07268C00D082D083D0E032C0
:012A4D003256
:012A4E003255
:012A4F003254
:012A50003253
:012A51003252
:012A52003251
:012A53003250
:012A5400324F
:012A5500324E
:012A5600324D
:012A5700324C
:012A5800324B
:012A5900324A
:012A5A003249
:012A5B003248
:012A5C003247
:012A5D003246
:012A5E003245
:012A5F003244
:012A60003243
:012A61003242
:012A62003241
:012A63003240
:012A6400323F
:012A6500323E
:012A6600323D
:012A6700323C
:012A6800323B
:012A6900323A
:012A6A003239
:012A6B003238
:012A6C003237
:012A6D003236
:012A6E003235
:012A6F003234
:012A70003233
:0423610002790000FD
:0D29FA00ED4C7005EFF452A022EF42A02238
:0C2A0700E4FDFC7F201229FA0D0229FAE0
:102839008B458A468947AB7BAA7CA97D057AE57ACF
:10284900AE797002057914F5828E8312099AAB4527
:07285900AA46A9470209E9A4
:0C2A1300E4F579F57A8B7B8A7C897D22C2
:0B2A1F00E5A05440C413135403FF2231
:0428C300AB07AA06AF
:1028C700900000C3E5829BEA6480F8E58364809802
:0828D7005006122A07A380EB52
:0128DF0022D6
:1023650060483000FF2A34FF27E6FF184BFF191895
:10237500FF26FAFF2975FF2975FF29ECFF211FFFAD
:102385001AB8FF2975FF2975FF1CA9FF1CA9FF1C99
:10239500A9FF1C07FF1C07FF1C07FF257EFF2197D0
:0C23A500FF2197FF175BFF2989FF1B62D7
:10220100E41209E99000011209FB900002120BA2ED
:1022110000000000900006E4F5F0120A9F90000B08
:10222100E41209FB900008E41209FB900009740113
:102231001209FB90000A74011209FB900010120BA5
:10224100A200000000900014E4F5F0120A9F900033
:0C2251000C120BA200000000E4FEFF22B3
:06281000AF24E4FCFDFE14
:102816008F298E288D278C26E5292407FFE4352865
:10282600FEE43527FDE43526FCE47B08FAF9F812C8
:03283600248722D2
:0428A5007F017E0031
:1028A900AD07AC067F101229FAE4FDFC7F2012293E
:0A28B900FA7D017C007F200229FA5D
:080D8800AB40AA41A9427D0124
:080D90008B5A8A5B895C8D5DC2
:100D9800E49034CAF0A3F0E55D704DF55EF55F05AB
:100DA8005FE55F7002055EB4D0F5E55EB407F0124A
:100DB80028A5E4F55EF55FE4FDFC7F201229FA7DA5
:100DC800017C007F201229FA055FE55F7002055E4D
:100DD800C39405E55E6480948040DCAB5AAA5BA9A5
:100DE8005CE41209E902101FAB5AAA5BA95C12095C
:100DF80081FF655D601FE55DB40704EFB4060AE591
:100E08005DB40E11EF640D600C9034CAE4F0A37465
:100E180005F002101FE55DB5070EB40603020EFBD0
:100E2800E55DB40D03020FB7AB5AAA5BA95C1209C2
:100E380081FF655D700302101FEF120BEB0E790046
:100E48000E7C010E7F020EA5030EC9040ED7050EF7
:100E5800FB060F09070F2D080F51090F620A0F86AD
:100E68000B0F940C0FB70D0FC40E0FE60F000010F8
:100E780008020F32020F43E55DC39409400E1228A1
:100E8800A5AB5AAA5BA95C7409021019E4FFFE120B
:100E980028A9AB5AAA5BA95C7403021019E55DB4D2
:100EA8000411E4FFFE1228A9AB5AAA5BA95C7404DA
:100EB8000210191228A5AB5AAA5BA95C7405021086
:100EC800191228A5AB5AAA5BA95C7405021019E58A
:100ED8005DB40611E4FFFE1228A9AB5AAA5BA95C0F
:100EE80074060210191228A5AB5AAA5BA95C7408EB
:100EF8000210191228A5AB5AAA5BA95C7407021044
:100F080019E55DB40411E4FFFE1228A9AB5AAA5BE7
:100F1800A95C74040210191228A5AB5AAA5BA95C33
:100F28007408021019E55DB40111E4FFFE1228A946
:100F3800AB5AAA5BA95C74010210191228A5AB5A16
:100F4800AA5BA95C7402021019E4FFFE1228A9AB7F
:100F58005AAA5BA95C740A021019E55DB40B11E486
:100F6800FFFE1228A9AB5AAA5BA95C740B021019E0
:100F78001228A5AB5AAA5BA95C740C021019122896
:100F8800A5AB5AAA5BA95C740C021019E55DB40DF7
:100F980011E4FFFE1228A9AB5AAA5BA95C740D02E2
:100FA80010191228A5AB5AAA5BA95C740F806212AB
:100FB80028A5AB5AAA5BA95C740E8055E55DB40BF5
:100FC80010E4FFFE1228A9AB5AAA5BA95C740B8037
:100FD800401228A5AB5AAA5BA95C740F8033E55D63
:100FE800B40110E4FFFE1228A9AB5AAA5BA95C74ED
:100FF80001801E1228A5AB5AAA5BA95C7402801155
:101008009034CAE4F0A37405F0AB5AAA5BA95CE576
:0F1018005D1209E9020E309034CAE0FEA3E0FF3A
:0110270022A6
:0E13CA008F5D8E5C8D5B8C5A8B5E8A5F8960B6
:1013D800756900756A00756B00E562456345616073
:1013E8003C120A1DFFAB61AA62A963E5F08FF012F7
:1013F8000A80AB61E5632402F9E43562FAC003C0F0
:1014080002C001AB5EAA5FA960120A1DD001D0021A
:10141800D00329F9EA35F08B69F56A896BAB5EE58B
:10142800602402F9E4355FFAC002C001AA5FA9602E
:10143800120A1DD001D00229F9EA35F08B66F5674A
:101448008968AF5DAE5CAD5BAC5AEC4D4E4F700336
:10145800021531786674FFF5F0120BD212098190EB
:101468003345F0E4A3F0F56CF56DAF5DAE5CAD5BB4
:10147800AC5AEC4D4E4F7003021511C3E56D94083C
:10148800E56C64809480400302151174FFFBFAF93F
:10149800F8120ACC8F5D8E5C8D5B8C5AE5654564CD
:1014A800600EEC4D4E4F70087D01FC7F101229FA3A
:1014B800903345E05401FD7C007F801229FA903377
:1014C80045E0C313F0E4FDFC7F201229FAE56A45E4
:1014D8006B45696020122A1F903347EFF09033461E
:1014E800E0FFAE6DA3E0FDA806088002C333D8FC78
:1014F8004F903346F07D017C007F201229FA056D5C
:10150800E56D7002056C021472E56A456B456970F9
:101518000302144A903346E0FF786974FFF5F0122D
:091528000BD2EF1209E902144A8A
:011531002297
:081229008B408A4189428D438C
:10123100E490333EF0A3F0A3F0A3F0A3F0E54365FF
:10124100547E0060047F0180027F00903343EEF002
:10125100A3EFF0AF47AE46AD45AC44EC4D4E4F70F9
:101261001EAF58AE57AD56AC55EC4D4E4F70030204
:101271001396120D88AE57AF581228C3021396ABBE
:1012810040AA41A942AD43120D90AF47AE46AD45CC
:10129100AC44854B61854C62854D63903343E0F5E9
:1012A10064A3E0F565AB48AA49A94A1213CAE54F00
:1012B1004550454E602D854B5D854C5E854D5F8566
:1012C1005160855261855362AB4EAA4FA950121FDE
:1012D100A5EF4E70047F0180027F00903340E4F05F
:1012E100A3EFF0903343E07002A3E0700302137C9C
:1012F100AB40AA41A94274011209C7903340E07082
:1013010002A3E06053AF58AE57AD56AC55EC4D4E0D
:101311004F6045903342E0C39559503CAB40AA41E0
:10132100A9427D06120D90AB40AA41A9427D04124B
:101331000D90AF58AE57AD56AC557802120AEFE595
:10134100582FFFE5573EFEE5563DFDE5553C8F58CC
:101351008E578D56F555800BAB40AA41A942AD542D
:10136100120D90AF58AE57AD56AC55EC4D4E4F6087
:101371000A120D88AE57AF581228C3903340E0705F
:1013810002A3E06010903342E0FF04F0EFC39559EF
:101391005003021280903340E07002A3E06021E527
:1013A100596014903342E0D39559400B90333EE499
:1013B100F0A37403F0800990333EE4F0A37402F0CB
:0813C10090333EE0FEA3E0FFC3
:0113C9002201
:102025008B258A2689278F2B8E2A8D298C28AB2EE6
:10203500AA2FA930AD2DAC2C122509E5354536451D
:1020450034600DAB34AA35A936AD2DAC2C1225095B
:10205500852B47852A46852945852844852E48852B
:102065002F4985304A85314B85324C85334D853432
:102075004E85354F853650853751853852853953CC
:10208500853A54853E58853D57853C56853B558553
:0E2095003F59AB25AA26A9277D041212292245
:10297500900006E475F004120A9F900006120A48BA
:04298500FFAEF0228F
:092A340074011209E9E4FEFF221D
:1027E6008B218A228923E9243BF9EA3402FAC002C2
:1027F600C001AA22A923900014120A48FDACF0D009
:0A28060001D002122509E4FEFF22B2
:06184B008B218A22892393
:101851007B007A007924122839122810D3EF94B42E
:10186100EE648094804010AB21AA22A92390000647
:10187100E475F006021905122810AC06AD07AB217C
:10188100E5232416F9E43522FA122509AB21E523D3
:101891002408F9E43522FAC003C002C001E485241A
:1018A10047F546F545F544E5232416F9E435228B41
:1018B10048F549894A754B00754C00754D00754EC8
:1018C10000754F0075500075510075520075530039
:1018D100AA22A92390000912099AF55490000C122A
:1018E1000B168F588E578D568C55E4F559D001D073
:1018F10002D0037D0B121229AB21AA22A923900049
:1019010006EE8FF0120A9FAB21AA22A923900006AE
:06191100120A48FFAEF0CF
:0119170022AD
:06175B008B218A22892384
:10176100E92416F9E43AFA7D027C00122509AB213D
:10177100E5232416F9E43522FA1220A390333A1214
:101781000B9690333A120B6A122816D3EF94B4EEEB
:1017910064809480400975240075250602182F90F5
:1017A100333A120B6A122816AC06AD07AB21E523BA
:1017B1002416F9E43522FA122509AB21E523240880
:1017C100F9E43522FAC003C002C00190333A120B8A
:1017D1006A8F478E468D458C44E5232416F9E435FE
:1017E100228B48F549894A754B00754C00754D00AF
:1017F100754E00754F00755000755100755200759A
:101801005300AA22A92390000912099AF5549000C5
:101811000C120B168F588E578D568C55E4F559D0F6
:1018210001D002D0037D0B1212298E248F25E525CC
:1018310045246011AB21AA22A923900006E5248545
:0918410025F0120A9FAE24AF2528
:01184A00227B
:061918008B218A228923C5
:10191E00E92416F9E43AFAC002C001AA22A92390DA
:10192E000014120A48FDACF0D001D002122509AB0A
:10193E0021E5232408F9E43522FAC003C002C001D0
:10194E00AA22A923900010120B168F478E468D45A2
:10195E008C44E92416F9E43A8B48F549894AE52383
:10196E002484F9EA34018B4BF54C894DE52324CDC3
:10197E00F9E43A8B4EF54F8950E523243BF9EA34CE
:10198E00028B51F5528953A92390000A12099AF538
:10199E005490000C120B168F588E578D568C5590F6
:1019AE00000B12099AF559D001D002D0037D041212
:1019BE001229EF4E600FAB21AA22A923900006EE4A
:0519CE008FF0120A9FDA
:0119D30022F1
:1026FA008B218A228923E92416F9E43AFA7D047C9B
:10270A0000122509AB21E5232416F9E43522FA1231
:10271A0020A3AB21AA22A92390000C120B46E4FEA7
:02272A00FF228C
:0E29EC00E9240BF9E43AFA122839E4FEFF223E
:06211F008B218A228923B6
:10212500E4F524F525E92416F9E43AFA7D047C0062
:10213500122509AB21E5232416F9E43522FA1220EC
:10214500A3AB21AA22A923900010120B46900010E0
:10215500120B16122816AB21AA22A923900014EE01
:102165008FF0120A9F900014120A48D394B4E5F038
:10217500648094804017752400752506AB21AA223A
:10218500A923900006E5248525F0120A9FAE24AF09
:012195002524
:012196002226
:061AB8008B218A22892324
:101ABE00E92408F9E43AFAC003C002C001AA22A937
:101ACE0023900010120B16C004C005C006C007906C
:101ADE000014120A48F52D85F02CE92416F9E43A83
:101AEE008B2EF52F8930E5232484F9EA34018B31CE
:101AFE00F5328933E52324CDF9E43A8B34F5358973
:101B0E0036E523243BF9EA34028B37F5388939A9B7
:101B1E002390000A12099AF53A90000C120B168FB8
:101B2E003E8E3D8D3C8C3B90000B12099AF53FD0BA
:101B3E0007D006D005D004D001D002D00312202544
:101B4E00EF4E600FAB21AA22A923900006EE8FF074
:031B5E00120A9FC9
:011B61002261
:061CA9008B218A22892331
:101CAF0090000112099AB40E0990000A12099AFFC6
:101CBF0080027F048F24AB21E5232408F9E4352229
:101CCF00FAC003C002C001AA22A923900010120B70
:101CDF0016900014120A48F52D85F02CE92416F9F8
:101CEF00E43A8B2EF52F893075310075320075333C
:101CFF00007534007535007536007537007538007E
:101D0F0075390085243AE4F53EF53DF53CF53BF594
:101D1F003FD001D002D003122025AB21AA22A92344
:101D2F00900006EE8FF0120A9F900006120A48FFED
:021D3F00AEF004
:011D4100227F
:061C07008B218A228923D3
:101C0D0090000112099AB4110990000A12099AFF65
:101C1D0080027F048F24AB21E5232408F9E43522CB
:101C2D00FAC003C002C001AA22A923900010120B12
:101C3D0016900014120A48F52D85F02CE92416F99A
:101C4D00E43A8B2EF52F8930E5232484F9EA34010B
:101C5D008B31F5328933E52324CDF9E43A8B34F514
:101C6D0035893675370075380075390085243AE4A5
:101C7D00F53EF53DF53CF53BF53FD001D002D003E7
:101C8D00122025AB21AA22A923900006EE8FF01277
:0B1C9D000A9F900006120A48FFAEF0FC
:011CA8002219
:06257E008B218A22892353
:102584007B007A007924122839AB21E5232408F949
:10259400E43522FAAD24120D90AB21AA22A923908E
:1025A4000006EE8FF0120A9F900006120A48FFAE52
:0125B400F036
:0125B5002203
:062197008B218A2289233E
:10219D00E4F524F525FB7A007926122839E5266029
:1021AD000C64016008752400752505802BAB21AAF0
:1021BD0022A92390000112099AB4130DE52690006F
:1021CD00097002800B740D800CE52690000A7003D7
:1021DD0004800274061209FBE52545246011AB212C
:1021ED00AA22A923900006E5248525F0120A9FAEA8
:0321FD0024AF25E7
:0122000022BB
:061B62008B218A22892379
:101B6800E92416F9E43AFA7D017C00122509AB2133
:101B7800AA22A92390001812099AF524E92416F933
:101B8800E43AFA7D017C00122509AB21AA22A92397
:101B980090001812099AF525E92416F9E43AFA7D15
:101BA800047C00122509AB21E5232416F9E435222B
:101BB800FA1220A390333A120B96AB21AA22A9233A
:101BC80090000812099A6524600CE92408F9E43A9F
:101BD800FAAD24120D9090333A120B6A1228C3AB57
:101BE80021AA22A92390000812099A6525600CE908
:0E1BF8002408F9E43AFAAD25120D90E4FEFF40
:011C060022BB
:10298900900006E4F5F0120A9F900006120A48FF2B
:03299900AEF0227B
:10225D00751C01751D30751E48AB1CAA1DA91E12DB
:10226D002201AB1CAA1DA91E900006EE8FF0120ACA
:10227D009F900006120A4845F0701FAB1CE51E2406
:10228D0008F9E4351DFAE4FD120D90AB1CAA1DA949
:10229D001E900006EE8FF0120A9FAB1CAA1DA91E00
:0A22AD00900006120A48FFAEF0226E
:101F1A00AB1CAA1DA91E900006120A4845F0706B58
:101F2A001209817066E92401F9E43AFA122839ABF8
:101F3A001CAA1DA91E900002120B16E47B01FAF9D5
:101F4A00F8120ACCAB1CAA1DA91E900002120B465D
:101F5A0090000112099AFFC39418AB1CAA1DA91E6E
:101F6A005026C003C002C001EF75F003A42400F597
:101F7A0082E43430F583120BE289828A83D001D05D
:101F8A0002D003120C158003122975AB1CAA1DA9D5
:0B1F9A001E900006120A48FFAEF02265
:0620A3008B268A27892824
:1020A900E4F52CF52BF52AF529F52DF52EAB26AA05
:1020B90027A928120A1DFFC3E52E9FE5F06480F8C1
:1020C900E52D6480985046AF2CAE2BAD2AAC29780B
:1020D90008120B038F2C8E2B8D2A8C29E92402F9E7
:1020E900E43AFAE9252EF9EA352DFA120981FFE5D4
:1020F9002C4FFFE52BFEE52AFDE5298F2C8E2B8D34
:102109002AF529052EE52E70A4052D80A0AF2CAE49
:052119002BAD2AAC29EA
:01211E00229E
:061FA5008B5A8A5B895C87
:101FAB00756300756401120A1DFFAEF0E5644563AD
:101FBB006063EF1FAC0670011E4C6059AB5AE55CB9
:101FCB002402F9E4355BFAE92FF9EA3EFA120981AA
:101FDB00F565AB5DE55F2402F9E4355EFAE92FF9AF
:101FEB00EA3EFA120981F566E561456245606018C3
:101FFB00AB60E5622402F9E43561FAE92FF9EA3EB8
:10200B00FA12098152655266E5656566609EE4F5D4
:09201B0063F5648097AE63AF64C5
:012024002299
:042509008C408D4134
:10250D00E5408541F0120A80E92402F9E43A8B4254
:10251D00F5438944E5414540601EAB42AA43A944B9
:10252D00122839E54115417002154074012544F515
:08253D0044E43543F54380DC62
:012545002273
:1019D40090E682E030E004E020E60B90E682E0301E
:1019E400E119E030E71590E680E04401F07F147ED1
:0C19F400001223FD90E680E054FEF0227B
:10275E0030040990E680E0440AF0800790E680E0BD
:10276E004408F07FDC7E051223FD90E65D74FFF0D9
:0F277E0090E65FF05391EF90E680E054F7F02281
:082A3D00E4F51BD2E9D2AF223F
:1025B600AD0790E678E020E6F9C2E990E678E044D7
:1025C60080F0ED25E090E679F090E678E030E0F9ED
:1025D60090E678E04440F090E678E020E6F990E670
:0825E60078E030E1D6D2E922D1
:10272C00AC0790E678E020E6F9E51B702390E6789C
:10273C00E04480F0EC25E090E679F08D16AF03A92B
:10274C00077517018A188919E4F51A751B01D3222C
:02275C00C32296
:10269300AC0790E678E020E6F9E51B702590E67834
:1026A300E04480F0EC25E0440190E679F08D16AF2C
:1026B30003A9077517018A188919E4F51A751B030D
:0426C300D322C32239
:03004B0002165347
:10165300C0E0C083C082C085C084C086758600C0D8
:10166300D075D000C000C001C002C003C006C007CF
:1016730090E678E030E206751B0602173D90E678A7
:10168300E020E10CE51B64026006751B0702173DB1
:10169300E51B24FE605F14603624FE700302172EE0
:1016A30024FC700302173A2408600302173DAB17AA
:1016B300AA18A919AF1A051A8F8275830012099AFD
:1016C30090E679F0E51A65167070751B05806B90CE
:1016D300E679E0AB17AA18A919AE1A8E82758300B2
:1016E3001209FB751B02E5166401704E90E678E063
:1016F3004420F08045E51624FEB51A0790E678E00D
:101703004420F0E51614B51A0A90E678E04440F058
:10171300751B0090E679E0AB17AA18A919AE1A8ECB
:10172300827583001209FB051A800F90E678E04466
:1017330040F0751B008003751B005391DFD007D069
:1017430006D003D002D001D000D0D0D086D084D030
:0817530085D082D083D0E03282
:0227BB00A9076C
:1027BD00AE14AF158F828E83A3E064037017AD0145
:1027CD0019ED7001228F828E83E07C002FFDEC3E8F
:0827DD00FEAF0580DFE4FEFF02
:0127E50022D1
:1028E000122693E51B24FA600E146006240770F389
:0C28F000D322E4F51BD322E4F51BD32215
:1028FC0012272CE51B24FA600E146006240770F3D3
:0C290C00D322E4F51BD322E4F51BD322F8
:1028600090E682E044C0F090E681F04387010000EA
:042870000000002242
:1023FD008E218F2290E600E054187012E522240100
:10240D00FFE43521C313F521EF13F522801590E676
:10241D0000E05418FFBF100BE52225E0F522E52161
:10242D0033F521E5221522AE21700215214E6005EE
:06243D0012287480EE225B
:102874007400F58690FDA57C05A3E582458370F977
:012884002231
:03004300021A009E
:03005300021A008E
:101A00000229310002295F0002294900022A4C0004
:101A10000226250002265C00022A4D00022A4E0002
:101A2000022A4F00022A5000022A5100022A5200C4
:101A3000022A5300022A5400022A5500022A5600A4
:101A4000022A5700022A4E00022A5800022A590090
:101A5000022A5A00022A5B00022A5C00022A5D0068
:101A6000022A5E00022A4E00022A4E00022A4E007E
:101A7000022A5F00022A6000022A6100022A620034
:101A8000022A6300022A6400022A6500022A660014
:101A9000022A6700022A6800022A6900022A6A00F4
:101AA000022A6B00022A6C00022A6D00022A6E00D4
:081AB000022A6F00022A7000F7
:03000000021E8E4F
:0C1E8E00787FE4F6D8FD75817D021ED53A
:10098100BB010689828A83E0225002E722BBFE0274
:09099100E32289828A83E49322A7
:10099A00BB010CE58229F582E5833AF583E0225012
:1009AA0006E92582F8E622BBFE06E92582F8E2225C
:0D09BA00E58229F582E5833AF583E4932276
:1009C700BB010989828A83F8E028F022500327F7C0
:1009D70022BBFE05F8E328F3228A838982F8E49391
:0209E7002822C4
:1009E900BB010689828A83F0225002F722BBFE01ED
:0209F900F322E7
:1009FB00F8BB010DE58229F582E5833AF583E8F032
:100A0B00225006E92582C8F622BBFE05E92582C8DD
:020A1B00F222C5
:100A1D00BB010A89828A83E0F5F0A3E022500687A4
:100A2D00F009E71922BBFE07E3F5F009E319228966
:0B0A3D00828A83E493F5F07401932299
:100A4800BB0110E58229F582E5833AF583E0F5F0EC
:100A5800A3E0225009E92582F886F008E622BBFEC9
:100A68000AE92582F8E2F5F008E222E5832AF5830F
:080A7800E993F5F0A3E99322D4
:100A8000BB010A89828A83F0E5F0A3F0225006F7C1
:0F0A900009A7F01922BBFE06F3E5F009F31922BE
:100A9F00F8BB0111E58229F582E5833AF583E8F089
:100AAF00E5F0A3F0225009E92582C8F608A6F02246
:0D0ABF00BBFE09E92582C8F2E5F008F2222D
:0D0ACC00EF2BFFEE3AFEED39FDEC38FC2279
:10248700C2D5E830E70FB2D5E4C39BFBE49AFAE480
:1024970099F9E498F8EC30E717B2D51224BD120C7D
:1024A70053E4C39BFBE49AFAE499F9E498F88003B0
:1024B700120C5330D50DE4C39FFFE49EFEE49DFD4F
:0424C700E49CFC2273
:100AD900EB9FF5F0EA9E42F0E99D42F0EC6480C894
:060AE90064809845F02234
:100AEF00E86010ECA2E713FCED13FDEE13FEEF131D
:040AFF00FFD8F0220A
:100B0300E8600FEFC333FFEE33FEED33FDEC33FC50
:030B1300D8F122F4
:100B1600BB010DE58229F582E5833AF583020B6A6E
:100B26005007E92582F8020CE5BBFE07E92582F8A5
:100B3600020CF1E58229F582E5833AF583020CFD84
:100B4600BB010DE58229F582E5833AF583020B9612
:100B56005007E92582F8020D0DBBFE07E92582F84C
:040B6600020D192241
:0C0B6A00E0FCA3E0FDA3E0FEA3E0FF22FE
:100B76007401FF3395E0FEFDFC080808E6CF2FF66A
:100B860018E6CE3EF618E6CD3DF618E6CC3CF62243
:0C0B9600ECF0A3EDF0A3EEF0A3EFF022D2
:100BA200BB010DE58229F582E5833AF583020D3E0C
:100BB2005007E92582F8020D25BBFE07E92582F8D8
:040BC200020D6F228F
:0C0BC600A42582F582E5F03583F583223A
:100BD200FAE6FB0808E625F0F9F618E63AFAF622F4
:090BE200E0FBA3E0FAA3E0F92214
:100BEB00D083D082F8E4937012740193700DA3A399
:100BFB0093F8740193F5828883E4737402936860AD
:060C0B00EFA3A3A380DFAC
:060C11008A838982E4736E
:101E9A00021D42E493A3F8E493A34003F68001F2FF
:101EAA0008DFF48029E493A3F85407240CC8C33349
:101EBA00C4540F4420C8834004F456800146F6DF18
:101ECA00E4800B0102040810204080902361E47E24
:101EDA00019360BCA3FF543F30E509541FFEE4930D
:101EEA00A360010ECF54C025E060A840B8E493A3D4
:101EFA00FAE493A3F8E493A3C8C582C8CAC583CAFF
:101F0A00F0A3C8C582C8CAC583CADFE9DEE780BEB6
:0123B100002B
:100C170075F008758200EF2FFFEE33FECD33CDCC94
:100C270033CCC58233C5829BED9AEC99E582984017
:100C37000CF582EE9BFEED9AFDEC99FC0FD5F0D6F4
:100C4700E4CEFBE4CDFAE4CCF9A88222B800C1B91E
:100C57000059BA002DEC8BF084CFCECDFCE5F0CB5C
:100C6700F97818EF2FFFEE33FEED33FDEC33FCEB95
:100C770033FB10D703994004EB99FB0FD8E5E4F950
:100C8700FA227818EF2FFFEE33FEED33FDEC33FC3D
:100C9700C933C910D7059BE99A4007EC9BFCE99A31
:100CA700F90FD8E0E4C9FAE4CCFB2275F010EF2F76
:100CB700FFEE33FEED33FDCC33CCC833C810D70776
:100CC7009BEC9AE899400AED9BFDEC9AFCE899F8B1
:0E0CD7000FD5F0DAE4CDFBE4CCFAE4C8F92244
:0C0CE500E6FC08E6FD08E6FE08E6FF223B
:0C0CF100E2FC08E2FD08E2FE08E2FF223F
:100CFD00E493FC740193FD740293FE740393FF223D
:0C0D0D00ECF608EDF608EEF608EFF62212
:0C0D1900ECF208EDF208EEF208EFF22216
:100D2500D083D082E493F608740193F60874029395
:090D3500F608740393F6740473CC
:100D3E00A8828583F0D083D082120D55120D5512E4
:100D4E000D55120D55E473E493A3C583C5F0C58309
:100D5E00C8C582C8F0A3C583C5F0C583C8C582C8FF
:010D6E002262
:100D6F00D083D082E493F208740193F20874029353
:090D7F00F208740393F27404738A
:00000001FF
